:020000040800F2
:10000000F87400209D010008F31200087112000826
:10001000F112000831020008291C0008000000004D
:10002000000000000000000000000000671700084A
:100030003302000800000000F512000869170008EC
:10004000B7010008B7010008B7010008B7010008B0
:10005000B7010008F7120008B7010008B70100084F
:10006000B7010008B7010008B7010008B701000890
:10007000B7010008B7010008B7010008B701000880
:10008000B7010008B7010008B7010008B701000870
:10009000B7010008B7010008B7010008B701000860
:1000A000B7010008B7010008B7010008B701000850
:1000B000B7010008B7010008B7010008B701000840
:1000C000B7010008B7010008B7010008B701000830
:1000D000B7010008B7010008B7010008B701000820
:1000E000B7010008B7010008B7010008B701000810
:1000F000B7010008B7010008B7010008B701000800
:10010000B7010008B7010008B7010008B7010008EF
:10011000B7010008B7010008B7010008B7010008DF
:10012000B7010008B7010008B7010008B7010008CF
:10013000B7010008B7010008B7010008B7010008BF
:10014000B7010008B7010008B7010008B7010008AF
:10015000B7010008B7010008B7010008B70100089F
:10016000B7010008B7010008B7010008B70100088F
:10017000B7010008B7010008B7010008000000003F
:10018000B7010008B7010008DFF80CD000F03EF816
:100190000048004755490008F87400200648804789
:1001A00006480047FEE7FEE7FEE7FEE7FEE7FEE75C
:1001B000FEE7FEE7FEE7FEE71518000889010008E4
:1001C000421C10F8011B0029FBD1801A704703461E
:1001D00011F8012B00F8012B002AF9D118467047BD
:1001E00030B50B46014600202022012409E021FA07
:1001F00002F59D4205D303FA02F5491B04FA02F504
:100200002844151EA2F10102F1DC30BD064C074D59
:1002100006E0E06840F0010394E8070098471034D6
:10022000AC42F6D3FFF7B4FFDC010308FC0103087E
:10023000FEE77047002200F001B8000010B48446C9
:1002400001200F4B9C7B022C17D8987B00241C5458
:10025000987B03EB8000C0F804C0987B03F10C0C82
:1002600000F80C20987B421C9A73303008703A20BA
:1002700048702F208870CC70002010BC70470000A0
:10028000E4340020002100F001B800000146012004
:100290000B4B9A7B002A11D009783039C9B203EB95
:1002A0008102D2F804C0BCF1000F07D000205060DA
:1002B00019440873987B401E987300207047000013
:1002C000E43400202DE9F84F0022DFF80082DFF847
:1002D0000092DFF800A24FF0030E0F27012303FA6C
:1002E00002F50B682B40AB427DD1D1F804C0BCF1C4
:1002F000020F02D0BCF1120F12D14FEAD20C00EB68
:100300008C0CDCF820605407E40E07FA04FB26EAA4
:100310000B06D1F810B00BFA04F43443CCF82040AB
:1003200006684FEA420C0EFA0CF4A64391F804B0AA
:100330000BF0030B0BFA0CFB4BEA060606604E684B
:10034000012E05D0022E03D0112E01D0122E11D174
:100350008668A643D1F80CB00BFA0CFB4BEA0606F4
:100360008660466826EA05050E79C6F300169640B3
:1003700035434560C56825EA04048D6805FA0CFC20
:100380004CEA040CC0F80CC0D1F804C01CF0805F2B
:100390007DD0D8F800C04CF4804CC8F800C0D8F824
:1003A00000C00CF4804CCDF800C022F0030C0CF11E
:1003B000804404F59834D4F808C895072D0F07FA3F
:1003C00005F62CEA0606A0F1804CBCF5003C64D092
:1003D000A0F1804CBCF5013C62D0A0F1804CBCF592
:1003E000023C60D000E052E0A0F1804CBCF5033C40
:1003F0005CD0A0F1804CBCF5043C5AD0A0F1804CFC
:10040000BCF5053C58D0A0F1804CBCF5063C56D05C
:10041000A0F1804CBCF5073C54D04FF0080C0CFA0E
:1004200005FC4CEA060CC4F808C8D9F800C02CEA50
:10043000030C4C6814F4803F01D04CEA030CC9F85B
:1004400000C0254CD4F800C02CEA030C4D6815F40C
:10045000003F01D04CEA030CC4F800C0DAF800C039
:100460002CEA030C4C6814F4801F01D04CEA030CF6
:10047000CAF800C0194CD4F800C02CEA030C4D682F
:1004800015F4001F01D04CEA030CC4F800C0521C44
:10049000102AFFF423AFBDE8F88F4FF0000CBEE741
:1004A0004FF0010CBBE74FF0020CB8E74FF0030C24
:1004B000B5E74FF0040CB2E74FF0050CAFE74FF093
:1004C000060CACE74FF0070CA9E7000044380240E7
:1004D000003C0140083C0140043C01400C3C014010
:1004E000002A01D0816170470904816170470000D2
:1004F00001480068704700000C00002002480168B5
:10050000491C0160704700000C00002010B50B482A
:10051000016841F400710160016841F4806101608B
:10052000016841F480710160032000F07FF8002031
:1005300000F006F800F018F8002010BD003C024062
:1005400010B5044607484FF47A720068B0FBF2F029
:1005500000F0AAFD00222146501E00F033F80020D2
:1005600010BD00001000002008B50E48016841F4DD
:1005700080410160006800F4804000900A480168F2
:1005800041F080510160006800F08050009000222E
:100590001146052000F016F8BDE80840052000F0DF
:1005A00005B80000443802404038024000F01F0106
:1005B000012202FA01F14009800000F1E020C0F8B8
:1005C0000011704710B4184B1B68C3F30223C3F12A
:1005D000070CBCF1040F01D94FF0040C1C1D072CB3
:1005E00001D2002300E0DB1E012404FA0CFCACF174
:1005F000010C0CEA0101994004FA03F35B1E1A4056
:100600001143002808DA00F00F0000F1E020090192
:1006100080F8141D10BC704700F1E020090180F83B
:10062000001410BC704700000CED00E000F0070063
:10063000064A11684FF6FF03194041EA002040F0D6
:10064000FD7040F080601060704700000CED00E02D
:100650002DE9F05F04460E46DFF8D091D9F800008E
:10066000F7B200F00F00B0420AD289F80070D9F852
:10067000000000F00F00B04202D00120BDE8F09F62
:100680002078DFF8AC8110F0020F07D0D8F8000016
:10069000A16820F0F0000843C8F80000207810F0AE
:1006A000010F51D060686349012808D002280DD09D
:1006B00003280BD0096811F0020F2ED00AE0096858
:1006C00011F4003F06D10120BDE8F09F096811F048
:1006D000007F1FD0D8F8001021F003010843C8F8AC
:1006E0000000FFF705FF0546606841F2883A0128DF
:1006F00016D0022829D003283CD0D8F8000010F0EA
:100700000C0F51D0FFF7F4FE401B504547D9032092
:10071000BDE8F09F0120BDE8F09F0120BDE8F09FFB
:10072000D8F8000000F00C0004283DD0FFF7E0FEF0
:10073000401B504502D90320BDE8F09FD8F80000C7
:1007400000F00C000428F1D12EE0D8F8000000F0F1
:100750000C00082828D0FFF7CBFE401B504502D9DB
:100760000320BDE8F09FD8F8000000F00C00082836
:10077000F1D119E0D8F800004FF00C0B3BEA000073
:1007800012D0FFF7B5FE401B504502D90320BDE84B
:10079000F09FD8F800003BEA0000F2D104E0D8F85E
:1007A000000010F00C0FADD1D9F8000000F00F00E0
:1007B000B0420AD989F80070D9F8000000F00F00A3
:1007C000B04202D00120BDE8F09F207810F0040F65
:1007D00007D0D8F80000E16820F4E0500843C8F8DA
:1007E0000000207810F0080F08D0D8F80000216928
:1007F00020F4604040EAC100C8F8000000F058F85A
:10080000D8F80010F02292FAA2F201F0F001B2FA48
:1008100082F2D140084A515CC84008490860002073
:10082000FFF78EFE0020BDE8F09F0000003C024074
:100830000838024000380240AE5400081000002082
:1008400001490120C8647047000047420148006820
:10085000704700001000002000B5FFF7F7FF0749C0
:1008600009684FF4E05292FAA2F201F4E051B2FAB0
:1008700082F2D140024A515CC84000BD08380240B3
:10088000BE54000800B5FFF7E1FF074909684FF4BF
:10089000604292FAA2F201F46041B2FA82F2D140CF
:1008A000024A515CC84000BD08380240BE540008EE
:1008B00010B41F48006810F00C011E481BD04FEA0E
:1008C000600C042916D0082915D11B4A116801F0C3
:1008D0003F01136813F4800F47F6C0730DD0BCFBC3
:1008E000F1F01168194093FAA3F3B3FA83F3D940F6
:1008F00048430CE0604610BC7047B0FBF1F0116853
:10090000194093FAA3F3B3FA83F3D940484311682B
:100910004FF4403292FAA2F201F44031B2FA82F27C
:10092000D140491C4900B0FBF1F010BC70470000F9
:10093000083802400024F400043802402DE9F84F42
:100940000446DFF81C842078A8F1040710F0010F9A
:10095000A7F1040560D0D8F8000000F00C000428CE
:1009600009D0D8F8000000F00C0008280DD1386834
:1009700010F4800F09D0286810F4003F4CD0606854
:10098000002849D10120BDE8F88F6068B0F5803FAC
:1009900014D0B0F5A02F16D0286820F4803028603D
:1009A000286820F480202860606810B3FFF7A0FD5D
:1009B0000646286810F4003F0ED02DE0286840F469
:1009C00080302860F0E7286840F48020286028689C
:1009D00040F480302860E7E7FFF78AFD801B642839
:1009E00002D90320BDE8F88F286810F4003FF3D047
:1009F00012E0FFF77DFD0646286810F4003F0BD09B
:100A0000FFF776FD801B642802D90320BDE8F88F2C
:100A1000286810F4003FF3D12078DFF8489310F0F5
:100A2000020F4FF0000663D0D8F800004FF0F80B2B
:100A300010F00C0F16D0D8F8000000F00C000828B9
:100A400003D1386810F4800F0CD0E068C8B30120DF
:100A5000C9F80000FFF74CFD8246286810F0020F2D
:100A600016D022E0286810F0020F05D0E0680128B7
:100A700002D00120BDE8F88F28689BFAABF221690B
:100A8000B2FA82F220F0F8009140084328602FE08B
:100A9000FFF72EFDA0EB0A00022802D90320BDE8D3
:100AA000F88F286810F0020FF2D028689BFAABF29A
:100AB0002169B2FA82F220F0F800914008432860E0
:100AC00016E0FFE7C9F80060FFF712FD82462868CC
:100AD00010F0020F0CD0FFF70BFDA0EB0A0002286C
:100AE00002D90320BDE8F88F286810F0020FF2D178
:100AF000207810F0080F34D09B48DFF870B261699D
:100B0000C1B101210160FFF7F3FC8246DBF8000070
:100B100010F0020F25D1FFF7EBFCA0EB0A00022832
:100B200002D90320BDE8F88FDBF8000010F0020FB7
:100B3000F1D016E00660FFF7DBFC8246DBF8000030
:100B400010F0020F0DD0FFF7D3FCA0EB0A00022833
:100B500002D90320BDE8F88FDBF8000010F0020F87
:100B6000F1D1207810F0040F43D08148016841F0A2
:100B700080510160006800F080500090DFF8F4B10F
:100B8000DBF8000040F48070CBF80000FFF7B0FC09
:100B90008246DBF8000010F4807F0DD1FFF7A8FC3F
:100BA000A0EB0A00022802D90320BDE8F88FDBF889
:100BB000000010F4807FF1D0A068DFF8BCB10128FC
:100BC00018D005281DD0DBF8000020F00100CBF87C
:100BD0000000DBF8000020F00400CBF80000A06863
:100BE00068B3FFF785FC8246DBF8000010F0020FC7
:100BF00014D03CE0DBF8000040F00100CBF800002E
:100C0000EDE7DBF8000040F00400CBF80000DBF873
:100C1000000040F00100CBF80000E0E7FFF768FCBF
:100C2000A0EB0A0141F28830814202D90320BDE8DD
:100C3000F88FDBF8000010F0020FEFD017E0FFF79D
:100C400057FC8246DBF8000010F0020F0FD0FFF7D0
:100C50004FFCA0EB0A0141F28830814202D9032007
:100C6000BDE8F88FDBF8000010F0020FEFD1A069AB
:100C7000F0B3D8F8001001F00C0108296CD002285C
:100C800010D0C9F86060FFF733FC0446286810F004
:100C9000007F5ED0FFF72CFC001B022855D90320F3
:100CA000BDE8F88FC9F86060FFF722FC06462868A7
:100CB00010F0007F0BD0FFF71BFC801B022802D92D
:100CC0000320BDE8F88F286810F0007FF3D1216A77
:100CD000E0694FF0FF3340EA010247F6C07191FA34
:100CE000A1F1606AB1FA81F100FA01F1A06A00E0B5
:100CF0002FE003EB50004FF4403393FAA3F3B3FA21
:100D000083F39840084310434FF0706292FAA2F2C6
:100D1000E16AB2FA82F29140084338600120C9F8D2
:100D20006000FFF7E5FB0446286810F0007F10D153
:100D3000FFF7DEFB001B022802D90320BDE8F88F75
:100D4000286810F0007FF3D003E0286810F0007FDF
:100D5000A0D10020BDE8F88F0120BDE8F88F000089
:100D60000838024000004742800E47427438024073
:100D700040380240007000407038024070B50446B0
:100D8000002C05D00025A56294F8510010B106E0B2
:100D9000012070BD84F85050204600F031F8022048
:100DA00084F851002068016821F040010160A168C9
:100DB000606822690843E168114308436169084398
:100DC000218B01F400710843E1690843216A08435B
:100DD000A16A084321680860A069042101EA104063
:100DE000616A0843216848602068C16921F4006194
:100DF000C1616565012084F85100002070BD0000CC
:100E0000F0B587B00068A0F18041B1F560513CD1E8
:100E100000251F48016841F480410160006800F42A
:100E2000804001901B48016841F4807101600168B5
:100E300001F480710191016841F0040101600068D2
:100E400000F0040001900A2002900224039405940B
:100E500005260696104F02A93846FFF733FA0420FC
:100E6000029003940495069602A90C48FFF72AFA0B
:100E7000012211463846FFF733FB0121029103910D
:100E8000069602A93846FFF71DFA07B0F0BD00002C
:100E90004038024030380240002002400008024042
:100EA0002DE9F84F0446DDF828800D4616469B468E
:100EB00001274FF0000994F8500001280ED00120BE
:100EC00084F85000FFF714FB824694F851006168E3
:100ED00001280ED0B1F5827F07D102E00220BDE8E3
:100EE000F88FA16809B9042803D04FF0020900F077
:100EF000C3B845B13EB1BBF1000F04D094F8510026
:100F0000012803D005E04FF00109B5E0052084F881
:100F1000510000206065A663A4F83EB0A4F83CB080
:100F20002563A4F836B0A4F834B020646064206867
:100F3000016811F0400F03D1016841F040010160E8
:100F4000E068B0F5006F05D06068C8B3E08E012896
:100F50003ED06EE0606810B1E08E012831D121688A
:100F60002888C860AD1CE08E401EE08629E06FB185
:100F7000E08E58B12068816811F0020F06D02988F0
:100F8000C160AD1CE08E401EE0860027E08F58B1A6
:100F90002068816811F0010F06D0C0683080B61C4F
:100FA000E08F401EE0870127B8F1FF3F09D0FFF72F
:100FB0009FFAA0EB0A00404503D34FF003095BE022
:100FC00006E0E08E0028D2D1E08F0028CFD136E0B5
:100FD0002168287808736D1CE08E401EE08628E0AA
:100FE0006FB1E08E58B12068816811F0020F06D011
:100FF00015F8011B0173E08E401EE0860027E08F8C
:1010000058B12068816811F0010F06D0C06806F859
:10101000010BE08F401EE0870127B8F1FF3F08D0A9
:10102000FFF766FAA0EB0A00404502D34FF0030930
:1010300022E0E08E0028D3D1E08F0028D0D14346B3
:10104000012202212046CDF800A000F037FB10B1AC
:101050004FF0030910E052464146204600F0B9F92E
:1010600020B14FF001092020606505E0A06818B9A3
:101070002068C16880680090012084F85100002039
:1010800084F850004846BDE8F88F4FF0E02104286E
:1010900004D0086920F0040008617047086940F036
:1010A0000400086170477047401EB0F1807F01D393
:1010B000012070474FF0E0214861044AF020107091
:1010C00000208861072008610020704723ED00E0C0
:1010D00010B5FFF7E8FF10BD70B50446002C04D032
:1010E00094F83900002510B106E0012070BD84F8A5
:1010F0003850204600F022F8242084F83900206877
:10110000C16821F40051C160204600F0AFFB2068A7
:10111000016921F4904101612068416921F02A01AF
:1011200041612068C16841F40051C160E56320203D
:1011300084F8390084F83A00002070BD10B586B0FC
:101140000068A0F18041B1F588311DD10F480168D8
:1011500041F010010160006800F010000090402094
:1011600001900220029001200390032004900720A8
:101170000590074C01A92046FFF7A4F880210191B2
:1011800001A92046FFF79EF806B010BD4438024082
:10119000000402402DE9F84304460D4691461E46E0
:1011A00094F83900202802D00220BDE8F8834DB31E
:1011B000B9F1000F26D094F83800012825D001207D
:1011C00084F838000027E763212084F83900FFF70E
:1011D0008FF98046A4F82490A4F82690E08CA0B360
:1011E000E08C401EE084A068B0F5805F10D04346DC
:1011F000002280212046009600F0DAFCF0B10320A6
:10120000BDE8F8830120BDE8F8830220BDE8F8833B
:101210004346002280212046009600F0C9FC10B110
:101220000320BDE8F88328882168C0F308004860DF
:10123000206908B16D1C05E0AD1C03E0216815F8BC
:10124000010B4860E08C0028CAD1434600224021AF
:101250002046009600F0ACFC10B10320BDE8F883F6
:10126000202084F8390084F838700020BDE8F88325
:10127000FEE7000082B000210C48026842F0020242
:101280000260006800F0020001900A48084A02600B
:101290004FF4E13242608160C16001610C22426121
:1012A0008161C16102B0FFF717BF00003038024012
:1012B00000100140343400200C480B4901604FF409
:1012C0008271416000218160C160016141614FF420
:1012D000007282611822C2610162416281620A2148
:1012E000C162FFF74BBD000000380040743400209D
:1012F000FEE770477047704710B5084C012020701A
:10130000FFF7DAFF00F04CF90549884203D1207855
:1013100020F001002070207810BD00002000002087
:101320001840EF000F48007810F0010F01D00320A3
:10133000704739B1012907D002290AD003290DD0FD
:1013400004207047002070474FF4106010600020A8
:1013500070474FF4805010800020704701201060CB
:10136000002070472000002010B5084602F5E0611B
:101370004FF6FF7202EA0332090300F03DF8002045
:1013800010BD000010B5074C0120207000F008F9D6
:101390000549884203D1207820F001002070207890
:1013A00010BD0000200000201840EF0070B50E4670
:1013B0001D4602F5E0600403204600F015F94FF6E3
:1013C000FF7000EA05322146304600F043F8002065
:1013D00070BD38B504460B4600920022802120469D
:1013E00000F06CF928B1606D40F0200060650320CA
:1013F00038BD002038BD00002DE9F04105460C46FF
:101400001746134E002201213046FFF769F80320EA
:1014100000F010F9C4F3074000F00CF9C4F3072002
:1014200000F008F9E0B200F005F9781E84B207D3A5
:10143000FF2000F0FFF828706D1C611E8CB2F7D2FF
:101440003046BDE8F04101221146FFF749B80000DF
:10145000002002402DE9F04706460C46E1B2C1F5F6
:101460008070C5B2100AD7B200292FD0E1B2C1F501
:101470008071C9B204EB010A002844D0501B80B22D
:101480004FEA102900F0FF082A462146304600F0B6
:1014900053F857463544B9F10100C4B20CD34FF4A8
:1014A00080723946284600F047F807F5807705F541
:1014B0008075611ECCB2F2D2B8F1000F39D042462D
:1014C00039462846BDE8F04700F036B8A8B1401EBE
:1014D000C5B24FF480722146304600F02DF804F575
:1014E000807406F58076691ECDB2F2D23A46214666
:1014F0003046BDE8F04700F01FB821463046BDE851
:10150000F04700F019B8AF420DD9781BC7B22A4690
:101510002146304600F010F870193A465146BDE8B1
:10152000F04700F009B821463046BDE8F04700F02A
:1015300003B8BDE8F08700002DE9F04105460C46F0
:10154000164600F0A7F8154F002201213846FEF795
:10155000C7FF022000F06EF8C4F3074000F06AF8FD
:10156000C4F3072000F066F8E0B200F063F8B6F5C7
:10157000807F00D9BE15701E84B206D3287800F093
:1015800059F86D1C611E8CB2F8D201221146384602
:10159000FEF7A6FFBDE8F04100F062B8002002406F
:1015A0002DE9F0410F4F002201213846FEF798FF48
:1015B0009F2000F03FF8FF2000F03CF80446FF2099
:1015C00000F038F80546FF2000F034F80646012206
:1015D00011463846FEF784FF200440EA05203043D8
:1015E000BDE8F0810020024070B5044600F052F8DA
:1015F00000F036F80E4D002201212846FEF770FF5C
:10160000202000F017F8C4F3074000F013F8C4F3EB
:10161000072000F00FF8E0B200F00CF801221146AC
:101620002846FEF75DFFBDE8704000F019B80000E5
:101630000020024000B583B001906FF07F40009021
:10164000012302AA01A90548FFF72AFC08B1FF20DF
:1016500002909DF8080003B000BD00007434002023
:1016600010B50B4C002201212046FEF739FF052062
:10167000FFF7E0FFFF20FFF7DDFF10F0010FF9D1CA
:1016800020460122BDE810401146FEF729BF0000A8
:101690000020024010B5084C002201212046FEF730
:1016A0001FFF0620FFF7C6FF20460122BDE81040BD
:1016B0001146FEF715BF0000002002402DE9F04161
:1016C0000446069E884617461D462068806838EA0C
:1016D000000015D00020B84240D0B5F1FF3F35D012
:1016E00025B1FEF705FF801BA8422FD32068416873
:1016F00021F0E00141606068B0F5827F02D00DE02A
:101700000120E8E7A068B0F5004F02D0B0F5806F87
:1017100004D12068016821F040010160A06AB0F5A1
:10172000005F0AD1206801684DF6FF721140016028
:101730002068016841F400510160012084F85100E3
:10174000002084F850000320BDE8F0812068806804
:1017500038EA000005D00020B842BED10020BDE824
:10176000F0810120F8E7704710B5FEF7C7FEBDE82D
:101770001040FFF7ADBC000030B593B00025234802
:10178000016841F080510160006800F080500090D5
:101790001F48016841F480410160006800F4804006
:1017A0000090012006900004079002240C94800110
:1017B0000D9008200E904FF4A8700F901094072001
:1017C000119006A8FFF7BAF80F2001900294039534
:1017D0004FF4A0500490E0020590052101A8FEF707
:1017E00037FFFFF72DF8FFF731F84FF47A71B0FBB0
:1017F000F1F0FFF759FC0420FFF747FC00221146E7
:10180000501EFEF7DFFE13B030BD0000403802402E
:10181000007000400F48016841F4700101600E48FB
:10182000016841F0010101600C4A00211160026869
:1018300022F4102222F080720260031D084A1A600E
:10184000026822F4802202600648016006495806B8
:101850000860704788ED00E0003802400838024018
:10186000103000240C38024008ED00E02DE9F04172
:1018700004462068016921F44051E2681143016186
:101880002068C16821F4037121F414412369A2681E
:10189000D4F81CC01A43636943EA0C031A4311438A
:1018A000C1602068416921F44071A269114341611E
:1018B000E069BC4ABC49BD4D3226B0F5004F5ED050
:1018C0002068884202D0904240F01281FEF7DAFF91
:1018D00000EBC00101EB001061688900B0FBF1F77B
:1018E000FEF7D0FF00EBC00101EB0010616889003A
:1018F000B0FBF1F0A5FB001040096FF01801484360
:1019000007EB800006EB0010A5FB0010400900F07B
:10191000F007FEF7B7FF00EBC00101EB00106168B4
:101920008900B0FBF1F0A5FB0010400907EB0017A0
:10193000FEF7A8FF00EBC00101EB00106168890011
:10194000B0FBF1F8FEF79EFF00EBC00101EB0010C9
:1019500061688900B0FBF1F0A5FB001040096FF051
:101960001801484308EB800006EB0010A5FB0010AF
:101970002168C0F3431038448860BDE8F0812068D6
:10198000884201D0904259D1FEF77CFF00EBC001A4
:1019900001EB001061684900B0FBF1F0A5FB0010FD
:1019A00040090701FEF76EFF00EBC00101EB0010DC
:1019B00061684900B0FBF1F8FEF764FF00EBC0017D
:1019C00001EB001061684900B0FBF1F0A5FB0010CD
:1019D00040096FF01801484308EB800006EBC00097
:1019E000A5FB0010400900F0F80007EB4007FEF7E8
:1019F00049FF00EBC00101EB001061684900B0FB3A
:101A0000F1F8FEF73FFF00EBC00101EB0010616849
:101A10004900B0FBF1F0A5FB001040096FF0180180
:101A2000484308EB800006EBC000A5FB00102168CE
:101A3000C0F3421038448860BDE8F081FEF70CFF27
:101A400000EBC00101EB001061684900B0FBF1F050
:101A5000A5FB001040090701FEF7FEFE00EBC001E8
:101A600001EB001061684900B0FBF1F8FEF7F4FEED
:101A700000EBC00101EB001061684900B0FBF1F020
:101A8000A5FB001040096FF01801484308EB8000E7
:101A900006EBC000A5FB0010400900F0F80007EBC2
:101AA0004007FEF7D9FE00EBC00101EB00106168B2
:101AB0004900B0FBF1F8FEF7CFFE00EBC00101EBEF
:101AC000001061684900B0FBF1F0A5FB001040096F
:101AD0006FF01801484308EB800006EBC000A5FB3F
:101AE00000102168C0F3421038448860BDE8F081DE
:101AF000FEF7B2FE00EBC00101EB00106168890047
:101B0000B0FBF1F7FEF7A8FE00EBC00101EB0010FF
:101B100061688900B0FBF1F0A5FB001040096FF08F
:101B20001801484307EB800006EB0010A5FB0010EE
:101B3000400900F0F007FEF78FFE00EBC00101EB5B
:101B4000001061688900B0FBF1F0A5FB00104009AE
:101B500007EB0017FEF780FE00EBC00101EB001061
:101B600061688900B0FBF1F8FEF776FE00EBC0017A
:101B700001EB001061688900B0FBF1F0A5FB0010DB
:101B800040096FF01801484308EB800006EB001095
:101B9000A5FB00102168C0F3431038448860BDE8FD
:101BA000F081000000140140001001401F85EB513E
:101BB0002DE9F0410446069D884617461E462068DA
:101BC000006838EA000020D00020B84227D1B5F1E3
:101BD000FF3F1CD025B1FEF78BFC801BA84216D915
:101BE0002068C16821F4D071C1602068416921F08A
:101BF00001014161202084F8390084F83A00002076
:101C000084F838000320BDE8F0810120DDE720687A
:101C1000006838EA000005D00020B842D7D0002084
:101C2000BDE8F0810120F8E7FEE700000FB4054BA6
:101C300010B503A9044A029800F02CF810BC5DF816
:101C400014FB000079450008240000200FB4084B65
:101C500010B504A902AA039800F01CF8044602A9D2
:101C6000002000F0B8F9204610BC5DF814FB00001D
:101C7000D71F000802E008C8121F08C1002AFAD1C5
:101C800070477047002001E001C1121F002AFBD1FC
:101C9000704700002DE9FF4F8BB0884605460026AF
:101CA00006E025280BD0DDE90D1290476D1C761C4F
:101CB00028780028F5D10FB03046BDE8F08F002419
:101CC000A146A2460122AE4900E0044315F8013FB7
:101CD000203B02FA03F00842F7D128782A2810D0D6
:101CE0006FF02F022878A0F13001092915D809EBEF
:101CF000890102EB410144F0020400EB01096D1C73
:101D0000F0E758F8041B5FEA010903D544F40054D6
:101D1000C9F1000944F002046D1C28782E2817D15F
:101D200015F8010F44F004042A280ED06FF02F029A
:101D30002878A0F1300109290AD80AEB8A0102EBC0
:101D4000410100EB010A6D1CF2E758F804AB6D1C71
:101D500028786C280FD006DC4C2817D068280DD0C6
:101D60006A2814D104E0742810D07A280FD10DE02D
:101D700044F400140AE044F4801401E044F44014F4
:101D80006978814202D104F580146D1C6D1C28789D
:101D9000692865D006DC00288DD0632827D0642808
:101DA00006D15DE06E2808D073282AD0752877D038
:101DB000DDE90D129047761CE0E0C4F302500228E2
:101DC00009D003280DD0D8F8001004280DD00E60DB
:101DD00008F10408D2E0D8F80010F217C1E9006257
:101DE000F6E7D8F800100E80F2E70E70F0E718F86A
:101DF000041B8DF8001000208DF80100EB46012037
:101E000003E058F804BB4FF0FF3061074FF00007C4
:101E100001D40AE07F1C57450DDA8742FADB1BF834
:101E200007100029F6D106E07F1C8742FCDB1BF877
:101E300007100029F8D1DDE90D23A9EB0700814641
:101E4000214600F0B1F83044C61904E0DDE90D1276
:101E50001BF8010B90477F1EF8D22146484688E0C8
:101E600058F8040BC4F302514FF00A0B032900D1B8
:101E700000B2042900D140B2002802DA40422D21EC
:101E800002E0210505D52B218DF82410012104E065
:101E900006E0E10710D02021F6E708AF089113E033
:101EA00058F8040BC4F302514FF00A0B032900D178
:101EB00080B2042900D1C0B20021EEE75946FEF7F6
:101EC0008FF9303107F8011D0028F7D1ADEB07007D
:101ED00000F1200B600702D524F4803401E04FF0BC
:101EE000010ADA4502DDAAEB0B0000E00020824681
:101EF00000EB0B0108980144A9EB01000A90E003F4
:101F000006D4DDE90D2321460A9800F04DF8064479
:101F10004FF0000908E009A911F80900DDE90D12E8
:101F2000904709F10109761C08998945F3DBE00324
:101F30000CD5DDE90D2321460A9800F035F806445A
:101F400004E0DDE90D1230209047761CBAF1000163
:101F5000AAF1010AF5DC05E0DDE90D1217F8010B25
:101F60009047761CBBF10001ABF1010BF4DC0A9841
:101F70002146DDE90D2300F005F806446D1C97E6C7
:101F8000092801002DE9F041044600251E461746A8
:101F9000880404D405E039462020B0476D1C641E37
:101FA000F9D52846BDE8F0812DE9F0410446002529
:101FB0001E469046C80301D5302700E0202788043C
:101FC00004D505E041463846B0476D1C641EF9D57E
:101FD0002846BDE8F0810A68531C0B6010707047FA
:101FE00010B5044604F5805000220271521E0263AF
:101FF000204602F0EDFE08B1032010BD94F8FE016A
:1020000094F8FF1140EA0120A0F52A41553901D08A
:10201000022010BD94F8360094F8391094F8372057
:1020200040EA016094F83810090441EA02210843AB
:1020300020F07F410D48814201D1002010BD94F86D
:10204000521094F8552094F8533041EA026194F804
:102050005420120442EA0322114321F07F418142BD
:1020600001D1002010BD012010BD000046415400E8
:1020700000E0401C02780AB18A42FAD10078704729
:1020800070B4002214461C4D00F5805002EB420350
:1020900055F823C0BCF1000F0FD00668B4450DD130
:1020A00005EB83038668D3F804C0B44506D11B89C9
:1020B000B0F806C0634504D000E00124521C022A97
:1020C000E4D3022A01D0A1B908E024B9022902D040
:1020D00070BC1220704770BC0020704702EB4200B9
:1020E00005EB80004089B0F5807F02D070BC0020F5
:1020F000704770BC10207047CC34002010B4002111
:10210000074B8C4601EB410253F82240844201D137
:1021100043F822C0491C0229F4D310BC70470000C8
:10212000CC34002000F58050426A121D006800F592
:102130008050438980785843B1FBF0F052F8041B7B
:1021400021B1884204D211680844704700207047CA
:10215000401A121DF2E7891E00F580508269921E16
:102160008A4201D800207047C26A807801FB0020B3
:10217000704700002DE9F05F80460F46387820F068
:102180004000401E00EB800101EBC0040025012649
:10219000DFF864A007F101094FF6FF7B1AF805008C
:1021A000395C10F8090041EA00207EB101F0E0FE40
:1021B00006467F2C07D22046641C38F8100001F038
:1021C000D7FEB04207D00020BDE8F09F584502D0AE
:1021D0000020BDE8F09F6D1C0D2DDFD3387810F086
:1021E000400F06D02EB138F8140010B10020BDE821
:1021F000F09F0120BDE8F09F8E0103082DE9F0411A
:1022000080460F4608F58055002F08D039464046D5
:1022100002F013FA022809D20120BDE8F081EE682D
:1022200016B1A869B04208D8012606E0B0F1FF3F18
:10223000F3D0A9698142F0D83E463446641CA869AF
:10224000A04205D80224022E02D20020BDE8F0816F
:102250002146404602F0F1F948B1B0F1FF3FF5D018
:102260000128F3D0B442E9D10020BDE8F0816FF03D
:1022700070422146404602F029FF28B927B1224684
:102280003946404602F022FF28B101280FD0012430
:102290002046BDE8F081EC602869B0F1FF3FF7D03F
:1022A000401E2861687940F001006871F0E74FF046
:1022B000FF34EDE72DE9F84F0F463E6800E0761C4D
:1022C00031782F29FBD05C29F9D000F5805000909F
:1022D000D0F820A00024254628466D1C305C20281C
:1022E00008D32F2806D05C2804D07F2C08D30620E2
:1022F000BDE8F88F71193960202830D204252FE00D
:10230000C0B2A0F181017D290FD829466D1C715CF6
:1023100001EB002080B2A1F140023F2A05D38039B1
:102320007F2902D30620BDE8F88F012101F0F0FDDE
:102330008046B8F1000F0AD0B8F1800F0AD24146AA
:102340007CA0FFF795FE28B10620BDE8F88F062097
:10235000BDE8F88F2046641C2AF81080BCE70025F1
:102360000021012C03D1BAF800002E2812D0022C33
:1023700007D1BAF802002E2803D1BAF800002E289F
:1023800008D004B3601E3AF81000202818D02E2878
:1023900019D115E02AF814100020A04201D22E21F4
:1023A00000E02021009A92691154401C0B28F4D3BC
:1023B000009945F0200289690A540020BDE8F88F91
:1023C000641E002CDED14CB12AF8141000980B22A8
:1023D0002021806902F097FB002703E00620BDE87A
:1023E000F88F7F1C3AF817002028FAD02E28F8D052
:1023F0001FB145F0030500E0641E24B1601E3AF8E9
:1024000010002E28F8D14FF00008C1464FF0080BFD
:1024100038467F1C3AF8106006B3202E03D02E2ECB
:1024200004D1A74202D045F00305F1E7D84501D217
:10243000A74219D1BBF10B0F0ED0A74201D045F036
:1024400003050BD827464FF008084FF00B0B4FEA57
:1024500089604FEA1069DBE745F003050098806961
:102460000178E5293ED03FE0802E08D3304601F0C8
:102470007FFD002101F04CFD064645F00205B6F552
:10248000807F0FD3ABF10100804503D345F00305F6
:10249000D846BDE70098310A8269404608F1010834
:1024A000115418E026B1314625A0FFF7E1FD18B11F
:1024B0005F2645F003050EE0A6F14100192802D879
:1024C00049F0020907E0A6F16100192803D849F094
:1024D0000109413086B200988169404608F101083F
:1024E0000E5495E705210170BBF1080F03D14FEAA7
:1024F00089604FEA10690C2030EA090003D00320FC
:1025000030EA090001D145F0020515F0020F0BD1A8
:1025100009F00300012801D145F0100509F00C0075
:10252000042801D145F0080500988069C572002093
:10253000BDE8F88F222A3A3C3E3F7C7F0000000035
:102540002B2C3B3D5B5D0000401E022813D20B4B41
:1025500000EB400103EB81025089B0F5807F00D190
:10256000002008B1401E80B2508110B9002043F80D
:10257000210000207047022070470000CC3400206A
:102580002DE9F04107460E460021384600F067FA73
:1025900098B9002407F580552969286802F018FCCD
:1025A00058B969690A78E52A0CD05AB1002401218A
:1025B000384600F073F80028EED0042800D1072038
:1025C000BDE8F081641CB442F7D0F0E72DE9F05F7C
:1025D00083460021584600F042FA00285CD1FF26CD
:1025E000B0460BF580544FF6FF7AA4F824A0216979
:1025F000206802F0EDFB81465FEA09004BD1676974
:102600003D786DB1F87A00F03F00E52D04D010F070
:10261000080F08D00F2806D0FF26A4F824A032E027
:102620004FF0040937E00F2801D0D6B11EE0206A30
:1026300048B315F0400F06D097F80D8025F04005FF
:102640002E46E188A184B54208D1797B414505D168
:102650003946FFF78FFD08B1701E00E0FF20C6B2BB
:1026600011E0384602F07CFE404514D0A169C87ADA
:1026700010F0010F04D10B22384602F02FFA50B1AE
:10268000FF26A4F824A00021584600F007F8814650
:102690005FEA0900ABD04846BDE8F09F2DE9F04164
:1026A0000D4600F58054E088471C3804000C0CD01F
:1026B000226952B1206800F580514B895B09B7FB54
:1026C000F3FC03FB1C731BB185E00420BDE8F08123
:1026D000521C2261E26882B14B8989785B09B7FBA1
:1026E000F3F3491E0B4276D1114601F0A6FF0646D0
:1026F000012E08D80220BDE8F0810889B8426AD8C6
:102700000420BDE8F081B6F1FF3F18D0206841F207
:1027100018010958B14258D8A5B1E168FFF76EFD1C
:102720000646300011D0012E12D0B6F1FF3F12D074
:10273000206802F078FE88B10120BDE8F081012018
:10274000BDE8F0810420BDE8F0810720BDE8F081FC
:102750000220BDE8F0810120BDE8F08141F20A01CC
:1027600020680A5A002102F0CEF931462068FFF7AE
:10277000F2FC216801F5805108630025206800F50E
:102780008050807800281AD94FF00108206800F5A1
:10279000805080F80480206802F045FE10B10120CE
:1027A000BDE8F081206800F58050016B491C016391
:1027B0006D1C206800F580508078A842E6D820681B
:1027C00000F58050016B491B0163E66031462068CB
:1027D000FFF7C1FC2061E78041F20A012068095A35
:1027E0004909B7FBF1F201FB127100EB4110606186
:1027F0000020BDE8F0812DE9F04782468946FF269A
:10280000B04604270AF58054206900284BD021697E
:10281000206802F0DDFA0746380044D16069057887
:102820006DB1C17A01F03F01E52D06D021F0200203
:10283000082A06D000224A4505D0FF2620E00427BA
:1028400031E00122F7E70F2901D02EBB20E015F07F
:10285000400F06D090F80D8025F040052E46E18807
:10286000A184B5420AD1417B414507D1226A014684
:10287000104602F0CBFA08B1701E00E0FF20C6B28D
:1028800000215046FFF70AFF074638000BD107E04A
:1028900002F066FD404506D04FF6FF70A08402E0CE
:1028A00020690028B3D10FB1002020613846BDE86F
:1028B000F08700002DE9F04383B0074607F5805408
:1028C000D4F81880266A0C224146684602F012F9B4
:1028D0009DF80B0010F0200F03D0062003B0BDE8D8
:1028E000F08310F0010F1AD0002088F80B0020624E
:1028F00001252B4632466946404601F04BFE3846DC
:10290000FFF764FE10B96D1C642DF2D3642D0DD059
:102910000428E3D19DF80B0088F80B0026629DF88F
:102920000B0010F0020F10D0002004E003B00720CD
:10293000BDE8F083401C36F810100029FAD12B496D
:102940001930A1FB0010860800E001263146384608
:10295000FFF716FE05464FF0010835BB761E24D062
:10296000E088811B384600F07AF8054628001CD123
:10297000A06902F0F5FC81462169206802F028FA7E
:10298000054695B9F2B24B466169206A01F06CFDCB
:10299000206800F5805080F8048000213846FFF759
:1029A0007DFE05460DB9761EE6D1DDB921692068A8
:1029B00002F00EFA0546280014D120220021606999
:1029C00002F0A1F80B22A169606902F093F8A069F6
:1029D0006169C07A00F018000873206800F5805023
:1029E00080F8048003B02846BDE8F0834FECC44E65
:1029F0002DE9F047814609F58054E688A18CA1F5C0
:102A00007F40FF3800D13146484600F028F805469F
:102A1000280021D1E5274FF001082169206802F044
:102A2000D7F90546ADB920220021606902F06BF8A4
:102A300060690770206800F5805080F80480E088A5
:102A4000B04206D200214846FFF728FE0546002D79
:102A5000E3D0042D00D102252846BDE8F08770B5EB
:102A60000D4600F58054E580A368012B05D0206851
:102A700000F580508169994201D8022070BD1BB9D0
:102A80000178032900D1836AC3B14189807849095B
:102A900011FB00F6B5421DD31946206801F0CDFDAB
:102AA0000346B3F1FF3F10D0022B05D3206800F599
:102AB0008050806998420AD8022070BD0189A942DD
:102AC00001D8022070BD806A08E0012070BDAD1BF6
:102AD000B542E1D219462068FFF73DFBE36098B1AB
:102AE000216801F5805253895B09B5FBF3F3184463
:102AF000206150894009B5FBF0F200FB125001EB58
:102B000040106061002070BD022070BD10B5002231
:102B100008490B5C002B0AD101220A540A1801EB68
:102B20008000127B406801681046884702461046C4
:102B300010BD0000E4340020054B03EB000C03EB58
:102B400080009CF80CC0406803696046184700008C
:102B5000E434002030B4DFF818C00CEB00040CEBB8
:102B60008000247B4068D0F808C0204630BC604715
:102B7000E434002004490A1801EB8000127B40680D
:102B80004168104608470000E434002030B4DFF804
:102B900018C00CEB00040CEB8000247B4068D0F8DC
:102BA0000CC0204630BC6047E434002000200849B7
:102BB00000E0401C022805D200EB400251F8222020
:102BC000002AF6D1022801D001207047002070476A
:102BD000CC34002010B50446204600F0C0FF002889
:102BE0000DD1204602F04AFC002808D104F580549B
:102BF000A06AFFF7A9FC002801D10021216010BDC7
:102C000010B50446204602F039FC014649B904F5E6
:102C10008054E06910B1FFF797FC014609B9002024
:102C20002060084610BD2DE9F74F8B461446002260
:102C30006946204601F044FA0746D4F8009038006F
:102C40005ED109F58055D5F818802869A8F10201F0
:102C5000884202D8CBF8000052E095F800A000248A
:102C6000BAF1010F04D06E6A00210020B1B11FE05B
:102C700002263146484601F0E0FCB0F1FF3F03D0A8
:102C8000012803D020B104E0012732E0022730E020
:102C9000641CA869761C8642EBD32AE03146761C78
:102CA000484602F095F80746380022D1484669891F
:102CB000BAF1020F0ED00278C37890F801C042EA50
:102CC000036283781B0443EA0C231A4332F07042F8
:102CD00009D009E00278437852EA032200D1641C4B
:102CE000801C891E02E0641C001D091FB8F1010848
:102CF000BCD12C61687940F001006871CBF80040CC
:102D000003B03846BDE8F08F2DE9F84F80460D46F8
:102D1000404602F0B3FB0090009810B10098BDE867
:102D2000F88F08F58054E0790028F8D1606A4FF0F8
:102D3000010A002875D0B5F1FF3F3DD0E068A842F8
:102D400000D20546A560002D00F04A81691E40466C
:102D5000FFF7E8F96061226801461046FFF7FBF9CA
:102D60000246002A66D020686B1E00F5805041891B
:102D700090F802C0B3FBF1F3ACF1010C03EA0C03D1
:102D80009D18A268B2FBF1F301FB1321002900F0AA
:102D90002781A269AA4200F02381A17911F0400F96
:102DA00050D0407801234146FFF7F0FEC0B384F8CD
:102DB00007A00120BDE8F88FD0F800B000F10408AA
:102DC0000226216921B389460025B61C0F466D1CD9
:102DD000206801F032FC0146012903D80220E0718D
:102DE000BDE8F88FB1F1FF3F1CD0781C8142EDD0D7
:102DF0005E4507D808F10400C8F8005000F1040847
:102E0000C0F80090206800F5805080698842DAD8C8
:102E1000606A06605E450AD80020C8F80000DFE05E
:102E20000CE020E084F807A00120BDE8F88F112015
:102E30000090D5E00220E071BDE8F88FA07920F085
:102E40004000A0712068012300F580502A46407898
:102E50004146FFF77FFE20B184F807A00120BDE8BE
:102E6000F88FA561BCE0E068A84204D2A17911F016
:102E7000020F00D10546A0680027A760002D72D080
:102E8000226802F580518B78498903FB01F668B10D
:102E9000691E401EB1FBF6F1B0FBF6F3994205D373
:102EA000711E8843A0602D1A61690DE0216951B936
:102EB00000211046FFF7A2F90146012911D0B1F116
:102EC000FF3F12D021616161E9B3B54233D9A079E6
:102ED00010F0020F10D02068FFF790F9014649B1B9
:102EE0000EE00220E071BDE8F88F84F807A0012011
:102EF000BDE8F88F35461EE0206801F09EFB0146D4
:102F0000B1F1FF3F0BD0012905D9206800F58050B1
:102F10008069884208D80220E071BDE8F88F84F803
:102F200007A00120BDE8F88F6161A0683044A0606F
:102F3000AD1BB542CBD8A0682844A06041F20A027C
:102F40002068125A00E00EE0B5FBF2F302FB1352C8
:102F50004AB1FFF700F910B3216801F580514989A2
:102F6000B5FBF1F10F182068A16800F58050428987
:102F7000B1FBF2F302FB131149B3A269BA4226D0A6
:102F8000A17911F0400F12D0407801234146FFF79C
:102F9000FDFD40B184F807A00120BDE8F88F0220B4
:102FA000E071BDE8F88FA07920F04000A0712068A2
:102FB000012300F580503A4640784146FFF7CAFDAC
:102FC00020B184F807A00120BDE8F88FA761E1686F
:102FD000A068884204D9E060A07940F02000A07188
:102FE0000098BDE8F88F00002DE9F14FADF58A5D3E
:102FF000784F0DF58A510122A1F1280001F060F807
:103000000446200040F0E0800DF5805143A8C1F84F
:10301000300102A8C1F83801D1F8401146A801F0EA
:103020005DFA044604B90824042C08D10DF580503B
:10303000D0F83001C07A10F0200F00D00624042C04
:103040007ED10DF580500021D0F81801FFF7D6F899
:1030500080460024B8F1000F00D10724B8F1010F19
:1030600000D10224B8F1FF3F00D1012434B90DF59D
:103070008050D0F8180102F0D6F904464FF0100A3B
:103080004FF00109002C74D10DF580534146D3F85F
:103090001801FFF760F883460DF58053D3F81851F7
:1030A000D3F81801002100F580504289284601F02C
:1030B0002AFD0B222021284601F025FD2E262E7008
:1030C00085F80BA00020A875E875442028764720D5
:1030D00068764146284602F03BF92022294605F150
:1030E000200001F007FD85F821600DF58050D0F833
:1030F00020110246D2F8180100F580500278032A08
:1031000003D1806A884200D1002105F1200002F03D
:103110001FF90DF58050D0F8180100F58050867821
:103120003EB30DF58051D1F8180100F58050C0F87C
:1031300030B00BF1010BD1F8180100F5805000E020
:1031400042E080F80490D1F8180102F06CF90446CE
:1031500020000ED10DF580500021D0F8180100F5A7
:1031600080504289284601F0CEFC701EC6B2002E67
:10317000D7D11CB946A8FFF79DFB04463CB10DF51D
:1031800080504146D0F8180102F05EF81CE00DF5C1
:103190008050D0F82C0180F80BA08775390AC175D2
:1031A000390C0176390E4176414602F0D1F80DF521
:1031B0008051D1F8180100F5805080F80490D1F8C2
:1031C000180102F0DAF8044651B00DF5805D204692
:1031D000BDE8F08F000044472DE9F74181B0164665
:1031E00002980090684601F021FB0446002C03DAA7
:1031F00004B00B20BDE8F081124F57F824504FF077
:10320000000835B12846FEF779FF4FF4805000F8EA
:1032100005800198002803D04FF4805101F8008008
:1032200047F8240001D0012E03D004B00020BDE8EF
:10323000F081002202A901A800F042FF04B0BDE81D
:10324000F0810000180000202DE9F74FADF58A5DF0
:10325000002817D000F580574FF00008C7F800800D
:1032600002F01F0641F244110DF58C7926F001029F
:10327000694409F5805000F023FF0546280007D077
:1032800000F0E3B8092053B00DF5805DBDE8F08F84
:103290000DF5805143A8C1F8300102A8C1F83801EA
:1032A000D1F84411484601F019F905460DF5805151
:1032B000D1F82C4165B924B136F0010003D00121C9
:1032C00002E0062504E000214846FEF7D9FE054647
:1032D00016F01C0F6AD08DB1042D08D1FFF766FCE3
:1032E00020B14846FFF7E6FA054600E0122546F011
:1032F00008060DF58050D0F82C4109E0E07A10F076
:10330000110F01D0072503E016F0040F00D00825A7
:10331000002D59D116F0080F56D084F80E8084F88D
:103320000F80442020744720607484F80B8084F858
:103330001C8084F81D8084F81E8084F81F800DF5A1
:1033400080522146D2F8180101F0F2FA824600219B
:10335000204601F0FDFF0DF580520120D2F8181132
:1033600001F580510871BAF1000F2DD01046D0F848
:10337000180100F58050D0F830B010465146D0F812
:10338000180101F061FF054628001DD10DF580529E
:10339000AAF10100D2F8181101F58051C860594610
:1033A000D2F8180101F014FD05460DE065B9E07A88
:1033B00010F0100F01D0042506E016F0020F03D024
:1033C00010F0010F00D00725CDB916F0080F01D07D
:1033D00046F020060DF58050D0F8180100F5805019
:1033E000006BF8613C6236F0010001D0012100E081
:1033F0000021484601F044FAB86200B9022525BB15
:10340000BE7187F807800DF580502146D0F818016D
:1034100001F08EFA3861207FE17F627F40EA01602F
:10342000A17F090441EA02210843F860C7F8088037
:10343000C7F81880C7F824800DF58050D0F818011F
:10344000386000F58050C088B88028461BE7F3B587
:10345000C5B00646002E0AD0002246A943A800F0B7
:103460002FFE0546002706F580541DB134E047B015
:103470000920F0BD4398206040A8A061C4F820D086
:103480003046469901F02AF8054605BB616949B105
:10349000C87A10F0100F04D0439801F049FAA060E8
:1034A00000E005259DB9439800F58050C088A080B4
:1034B00000213046FFF7D3FA054645B9A06838B178
:1034C0000021304601F0DCF9E06100B9122500E08E
:1034D000E761042D00D1052505B1276047B02846D6
:1034E000F0BD0FB42DE9F04F9BB001904FF0000AF2
:1034F000CDF808A0CDF80CA026A819904FF02D0B00
:103500000DF15008259810F8011B2590002900F0B6
:103510000181252903D001A801F072FEF2E7002500
:103520002E4610F8011B2590302902D02D2905D0F8
:1035300008E0012610F8011B259003E0022610F890
:10354000011B2590A1F1300009280DD805EB85005D
:1035500001EB4000A0F13005259810F8011B2590E3
:10356000A1F130000928F1D96C2901D04C2905D1ED
:1035700046F00406259810F8011B259000296FD00D
:103580000A46A2F161001146192801D84130C2B2A1
:103590004F2A4BD006DC422A46D0432A3CD0442A4C
:1035A00006D145E0532A07D0552A41D0582A41D0A8
:1035B00001A801F025FEA5E7199850F8047B1990A1
:1035C000002400E0641C385D0028FBD116F0020FD7
:1035D0000BD12046641CA84207D2202101A801F08B
:1035E0000FFE2046641CA842F7D3387838B117F88C
:1035F000011B01A801F004FE38780028F7D1661CF1
:10360000AC42BFF47FAF202101A801F0F9FD3046A4
:10361000761CA842F7D375E7199810F8041B199087
:1036200001A801F0EDFD6DE7022304E0082302E0AC
:103630000A2300E0102316F0040F06D0DDF864C062
:103640005CF8040BCDF864C007E0442A09D0DDF82B
:1036500064C05CF8040BCDF864C0442A08D00DE0C7
:1036600058E0DDF864C05CF8040BCDF864C0F4E702
:1036700010F0004F02D0404246F008060024B0FB94
:10368000F3F203FB1202D2B2B0FBF3F0092A05D920
:10369000782919D04FF0070C6244D2B23032A446D8
:1036A000641C08F80C2008B1102CE8D316F0080FA1
:1036B00003D02046641C08F800B0274616F0010F1E
:1036C00005D04FF0300909E04FF0270CE4E74FF048
:1036D000200903E0494601A801F092FD16F0020F0F
:1036E00003D138467F1CA842F4D3641E01A818F801
:1036F000041001F085FD002CF7D17C1CAF42BFF413
:1037000001AF494601A801F07BFD2046641CA84298
:10371000F7D3F7E6CDF864A00298002810DB18ABC9
:1037200004A9029A019800F0FBFA48B91899029886
:10373000884205D103981BB0BDE8F00F5DF814FB7B
:103740004FF0FF30F7E72DE9F05F824688461646D6
:1037500099460020C9F80000504601F08FFE00286D
:103760001ED10AF58054E079002819D1A07910F013
:10377000010F14D0A168E068401A864200D90646BD
:10378000002E6CD02368A16803F580525089B1FBEC
:10379000F0FC00FB1C1CBCF1000F03D085E00720EF
:1037A000BDE8F09FB1FBF0F09278521E1040C7B216
:1037B000B7B929B1606A28B15046FEF7B3FC05E0FD
:1037C000206903E01846616900F037FF022803D240
:1037D0000220E071BDE8F09FB0F1FF3F1ED06061B4
:1037E00061692068FEF7B7FCE0B100EB070B2068C9
:1037F00000F580504189B6FBF1F57DB381787A19E7
:103800008A4200D9CD1B40782B465A464146FFF7E5
:10381000A1F958B10120E071BDE8F09F0120E071ED
:10382000BDE8F09F0220E071BDE8F09FA07910F0A4
:10383000400F0DD0A069A0EB0B00A84208D2216870
:1038400001F580514A89514600FB028001F052F98E
:10385000206800F58050408945433DE000E048E0A5
:10386000A2695A451FD0A17911F0400F0DD04078C0
:1038700001235146FFF78AF918B10120E071BDE834
:10388000F09FA07920F04000A0712068012300F58E
:1038900080505A4640785146FFF75CF918B1012034
:1038A000E071BDE8F09FC4F818B02068A16800F589
:1038B00080504089B1FBF0F200FB1212851AB5422C
:1038C00000D93546B1FBF0F200FB121000EB0A0103
:1038D0002A46404601F00EF9A844A0682844A0609A
:1038E000D9F800002844C9F80000761B002E7FF4A8
:1038F00049AF0020BDE8F09FF0B5C3B005460E46C5
:10390000284601F0BBFD002812D16EB105F58054A8
:1039100040A8A061C4F820D000212846FEF76BFF24
:103920000027042806D007E000212846FFF797F873
:1039300043B0F0BD276100200028F9D13146284668
:1039400000F0F9FE00212846FEF7A8FE0428EFD17A
:10395000276143B00020F0BD2DE9F341ADF5065DD0
:1039600041F258156D4401220DF5065105F58050C0
:1039700000F0A6FB0446002C50D10DF50051D1F803
:1039800058010DF58051C1F830010DF5005143A8E3
:10399000C1F8700102A8C1F878012F46D1F8801152
:1039A000384600F09BFD044644B90DF50050D0F8B0
:1039B0007001C07A10F0200F00D0062424B9022133
:1039C0003846FEF75DFB0446002C27D10DF500506C
:1039D000D0F86C0108B30DF5005046AED0F86C017C
:1039E000152200F10B01304601F084F84CAD41F294
:1039F00028023946284601F07DF842F284106844D6
:103A000000F014FF00280ADB0DF50050D0F88411F7
:103A1000284600F063FD044602E004246BE00B241A
:103A200004B90824042C66D12846FEF743FF044657
:103A3000002C60D10DF58050D0F844511322B11CF8
:103A400005F10D0001F056F89DF8180140F0200036
:103A5000E8720DF500510126D1F8580100F58050AB
:103A60000671E87A10F0100F38D0D1F860010DF52A
:103A70008051D1F83811884230D00DF500502946D8
:103A8000D0F8580100F054FF0DF50051D1F858213D
:103A900001461046FEF75FFB014669B10DF5005087
:103AA000D0F8580101F094F904460DF50050D0F813
:103AB0005801203014B111E002240FE041782E2982
:103AC0000CD10DF58051D1F8381101F041FC0DF504
:103AD0000050D0F8580100F5805006715CB93846A6
:103AE000FEF786FF044634B90DF50050D0F85801B2
:103AF00001F043FC044662B00DF5005D2046BDE8D0
:103B0000F08173B5ADF58A5D0E4646AD00220DF528
:103B10008A5105F5805000F0D3FA0446D4B90DF56A
:103B2000805143A8C1F8300102A8C1F83801D1F88A
:103B30004011284600F0D2FC04465CB90DF58050D7
:103B4000D0F82C0128B12EB13146284600F0F3FD03
:103B500000E0062452B00DF5805D204670BD70B5C2
:103B60000546284601F08AFC0246002A48D105F5A0
:103B70008054A07910F0200F42D010F0400F0FD0E9
:103B80002068012300F5805029464078A269FEF79D
:103B9000FDFF08B1012070BDA07920F04000A071A8
:103BA000E169206801F014F902464ABB256AE87A07
:103BB00040F02000E872207B2877A089000A68770F
:103BC000E068000CA877E068000EE87728462169D5
:103BD00001F0BEFB0020A875E87544212976472135
:103BE0006976A874E874A07920F02000A07121689B
:103BF000012001F580510871206801F0BEFB0246EA
:103C0000104670BDF1B5ADF5065D002541F25817BF
:103C10006F4401220DF5065107F5805000F050FA6F
:103C20000446002C77D10DF5005149A8C1F8700168
:103C300008A8C1F87801D1F88011384600F04EFC90
:103C4000044644B90DF50050D0F87001C07A10F068
:103C5000200F00D0062424B902213846FEF710FABE
:103C60000446002C57D10DF50050D0F86C6136B1E8
:103C7000F07A10F0010F00D0072414B134E00624CC
:103C8000FBE70DF500503146D0F8580100F050FE2A
:103C900005464DB3F07A10F0100F25D00DF5005009
:103CA000D0F8580100F580504069A84201D107249E
:103CB0001AE04CAE41F228023946304600F01AFFB5
:103CC0000DF58051C1F8385102213046FEF7C7FE8C
:103CD00004464CB900213046FEF78DFD044604B978
:103CE0000724042C00D10024ACB93846FEF780FE2E
:103CF000044644B93DB10DF500502946D0F85801AD
:103D000001F0A2FA044634B90DF50050D0F858017C
:103D100001F033FB044661B00DF5005D2046F0BDB7
:103D20002DE9F05F81460F46164698460020C8F8F8
:103D30000000484601F0A2FB00281DD109F580547F
:103D4000E079002818D1A07910F0020F13D0A068F4
:103D5000811900D30026002E00F0CE802268A168D1
:103D600002F580535889B1FBF0FC00FB1C1CBCF130
:103D7000000F03D099E00720BDE8F09FB1FBF0F001
:103D80009B785B1E184000F0FF0ABAF1000F25D1A6
:103D900029B1606A50B14846FEF7C4F90AE02069CB
:103DA00040B900211046FEF729FA03E01046616988
:103DB000FEF724FA002875D0012806D0B0F1FF3FA5
:103DC00007D06061216941B108E00220E071BDE8DF
:103DD000F09F0120E071BDE8F09F2061A07910F014
:103DE000400F11D02068012300F5805049464078EB
:103DF000A269FEF7CBFE18B10120E071BDE8F09F8B
:103E0000A07920F04000A07161692068FEF7A3F955
:103E1000D0B100EB0A0B206800F580504189B6FB59
:103E2000F1F56DB381780AEB05028A4201D9A1EB65
:103E30000A0540782B465A463946FEF7A7FE38B1A8
:103E40000120E071BDE8F09F0220E071BDE8F09F25
:103E5000A069A0EB0B00A8420CD2216801F58051AB
:103E60004A8900FB0271484600F044FEA07920F028
:103E70004000A071206800F58050408945432EE045
:103E8000A16959450FD0E268A16891420BD24078F0
:103E900001235A464946FEF75DFE20B10120E0713C
:103EA000BDE8F09F28E0C4F818B02068A16800F5CC
:103EB00080504089B1FBF0F200FB1212851AB54226
:103EC00000D93546B1FBF0F200FB121048442A46F7
:103ED000394600F00FFEA07940F04000A0712F4459
:103EE000A0682844A060D8F800002844C8F8000062
:103EF000761B002E7FF432AFE168A068884200D9BB
:103F0000E060A07940F02000A0710020BDE8F09FA3
:103F100030B4802822D319B1134C45F2205C02E062
:103F2000124C45F2205C00231022ACEB030101EBA4
:103F3000D17103EB610134F82150854207D001D2E1
:103F40000B4600E08C46A2F10102002AEDD13AB105
:103F50004FF0010000EB410034F8100030BC704716
:103F600030BC4FF0000070474AA90108C654000851
:103F70000021084B00E0491C33F811200AB18242AD
:103F8000F9D133F81120002A02D0034830F811008B
:103F900070470000CEFD0208AEFF020830B583B0C6
:103FA000244925A0FFF7ADFD284C207000283DD105
:103FB00027A0FDF73BFE1F4D2CA02968FDF736FE1C
:103FC000E888C0F34511C00A01910090A88840F22A
:103FD000BC7100F01F03C0F3431201EB502129A074
:103FE000FDF724FE287A10F0200F01D0412100E0D7
:103FF0002D2110F0040F01D0532200E02D2210F0EB
:10400000020F0092019101D0482300E02D2310F00F
:10401000010F01D0522200E02D2210F0100F01D02C
:10402000442100E02D2120A0FDF700FE207803B000
:1040300030BD000028000020546573744469722F5D
:10404000746573746469722E7478740000000020C3
:10405000A1B0746573746469722E747874A1B1CE62
:10406000C4BCFED0C5CFA2A3BA0A0000A1B7CEC47B
:10407000BCFEB4F3D0A13A20256C6428D7D6BDDAB3
:10408000290A0000A1B7CAB1BCE4B4C13A20257521
:104090002F253032752F253032752C202530327582
:1040A0003A253032750A0000A1B7CAF4D0D43A20BC
:1040B000256325632563256325630A0A0000000044
:1040C0002DE9F04F054685B0084617464FF0000829
:1040D000C5F8008000F0AAFB0646300003D505B005
:1040E0000B20BDE8F08FDC4850F82640BCB12C60B6
:1040F00004F58055287828B16878FEF73BFD10F06C
:10410000010F10D085F80080F0B26870FEF7FEFC59
:1041100010F0010F13D005B00320BDE8F08F05B0FB
:104120000C20BDE8F08F37B110F0040F03D005B0BC
:104130000A20BDE8F08F05B00020BDE8F08F37B150
:1041400010F0040F03D005B00A20BDE8F08F41F253
:104150000A01621868780221FEF7EEFC30B968891E
:10416000B0F5007F02D3B0F5805F03D905B0012020
:10417000BDE8F08F002631462046FDF731FF0128CB
:1041800029D100216F4604EB011000F5DF700279A0
:1041900052B1027AC37A42EA0362837A407A1B04FC
:1041A00043EA0020104300E0002047F82100491CAA
:1041B0000429E8D34FF0000957F8296026B13146A9
:1041C0002046FDF70DFF00E0022020B109F10109B2
:1041D000B9F1040FF0D3032804D038B105B00D2095
:1041E000BDE8F08F05B00120BDE8F08FE07A217BBB
:1041F0006B8940EA0120984203D005B00D20BDE84C
:10420000F08FA07DE17D40EA012068B994F8240098
:1042100094F8271094F8252040EA016094F82610BD
:10422000090441EA02210843E861217CE97001297F
:1042300005D0022903D005B00D20BDE8F08F01FBA9
:1042400000FA677BAF7017B1791E0F4203D005B03B
:104250000D20BDE8F08F617CA27C41EA02222A8118
:104260004FEA531CB2FBFCF10CFB112119B105B054
:104270000D20BDE8F08FE17C94F8149041EA09210B
:1042800079B994F8201094F8239094F821B041EA79
:10429000096194F822904FEA094949EA0B2941EA59
:1042A000090194F80E9094F80FB049EA0B29B9F17E
:1042B000000F0AD0B2FBFCFC09EB0A0BDC446145A1
:1042C00007D205B00D20BDE8F08F05B00D20BDE888
:1042D000F08FA1EB0C01B1FBF7F159B3012740F6C8
:1042E000F67B594500D302274FF6F67B594500D39C
:1042F0000327891CA9612E62B144C5F82490B444F7
:10430000C5F82CC0032F19D082B309EB0A02AA62A8
:10431000022F30D001F0010201EB410102EB51010B
:10432000491E1944B1FBF3F1814226D905B00D2095
:10433000BDE8F08F05B00D20BDE8F08F1AB105B0D3
:104340000D20BDE8F08F94F82C2094F82FC094F83D
:104350002D9042EA0C6294F82EC04FEA0C4C4CEAC5
:10436000092C42EA0C02AA628900D9E7FFE705B0EE
:104370000D20BDE8F08F4900D2E74FF0FF302861F3
:10438000E86080206871032F56D194F8300094F8CB
:10439000311040EA012001284ED1711C204600F066
:1043A00017FDE8BB85F8058094F8FE0194F8FF112D
:1043B00040EA0120A0F52A4155393DD12078E17825
:1043C000627840EA0160A178090441EA02210843C9
:1043D0002249884230D194F8E40194F8E71194F826
:1043E000E52140EA016094F8E611090441EA02215E
:1043F00008431B4988421FD194F8E80194F8EB1157
:1044000094F8E92140EA016094F8EA11090441EACC
:1044100002210843286194F8EC0194F8EF1100E0C0
:104420000AE040EA016094F8EE1194F8ED210904E5
:1044300041EA02210843E8602F700A494888401C7D
:104440004880E880C5F814802046FDF757FE05B087
:104450000020BDE8F08F000018000020525261419A
:1044600072724161140000202DE9F0034B730F2399
:10447000CB7200230B738B76CB76531E03EB830C2E
:104480000CEBC30400239C46134D4FF6FF774E1CE4
:10449000BB4203D02346641C30F8133015F80C805F
:1044A00001F8083015F80C904FEA132809F8068037
:1044B0000BB94FF6FF730CF1010CBCF10D0FE7D3F4
:1044C000BB4202D030F8140008B942F040020A7032
:1044D000BDE8F003704700008E01030873B506467F
:1044E0000199002506F5805408782F2811D05C2802
:1044F0000FD0206800F580504069A06001980078D6
:1045000020280AD200213046FEF7A9FA656102B0E0
:1045100070BD481C0190A560F0E701A93046FDF789
:10452000C9FE0028F3D13046FEF750F8A169C97AD8
:1045300090B10428EBD111F0200F07D0A560656180
:1045400011F0040FE9D0002002B070BD11F0040F8B
:10455000FAD1052002B070BD11F0040FFAD16169E3
:10456000C87A10F0100F04D0206800F0E1F9A060C4
:10457000D3E7052002B070BD13B54FF6FF730122DB
:1045800069460348FCF706FE009802B010BD000023
:104590003434002070B582B0054616461C460B2206
:1045A000284600F0A7FA052C16D93088A0B136F8B5
:1045B000021B002320460C4660F35F04490814F4F4
:1045C000803F03D084F0210484F488345B1C102BDA
:1045D000F0D330880028EAD107226B4604F00F00A0
:1045E00000F13001392901D9C81DC1B21046521E4F
:1045F00019542409002CF1D17E2098540021A2F1F5
:10460000010C06E081387D2802D8614506D0491C9E
:10461000491C914202D2685C2028F3D1082A03D2B7
:104620001046521C185C00E020208C46491C05F8FE
:104630000C000829F2D302B070BD2DE9F0470746FF
:104640000D46022D04D307F58054A069A84201D875
:10465000012609E04FF0FF362078012807D0022814
:1046600033D0032848D001263046BDE8F08705EB5B
:1046700055086089616AB8FBF0F00144384600F0E3
:10468000A7FB0028F0D1608908F10109B8FBF0F11F
:1046900000FB118117F80180B9FBF0F0616A014459
:1046A000384600F095FB0028DED16089B9FBF0F1B7
:1046B00000FB1190385C48EA002015F0010F01D092
:1046C0000609D1E7C0F30B06CEE76089616A4008AE
:1046D000B5FBF0F00144384600F07AFB0028C3D166
:1046E00061896800B0FBF1F201FB120038440178E7
:1046F000407841EA0026B7E76089616A8008B5FB27
:10470000F0F00144384600F063FB0028ACD1618929
:10471000A800B0FBF1F201FB120038440178C27826
:1047200041EA026182784078120442EA002008439C
:1047300020F0704698E72DE9F0410D4605F1090398
:1047400000F58056306900283DD072694FF0000CAA
:104750002E2460460CF1010C105C202818D005288E
:1047600000D1E520BCF1090F01D103F8014BA0F104
:10477000410119290AD8177BBCF1090F01D3102177
:1047800000E008210F4201D02030C0B203F8010B35
:10479000BCF10B0FDDD3D07A2872107FD17F92F855
:1047A0001DC040EA0160917F090441EA0C210843E1
:1047B0002860107E517E40EA0120A880907DD17D46
:1047C00040EA0120E8804FF0000883F80080AF69DC
:1047D000002F29D00024306920B3E86910B3B08CD1
:1047E000A0F57F41FF391DD0316A8E1C0888C8B101
:1047F0000021FFF78DFB60B1B0F5807F03D3020A83
:104800002146641C7A54E969491EA14203D8002458
:1048100008E0002406E02146641C785436F8020BB8
:104820000028E5D107F80480BDE8F08110B4044603
:104830004FF0FF30D4F800C0BCF1000F0CD061463F
:1048400000E0491C0A78202A01D33A2AF9D10A78D3
:104850003A2A03D00948007810BC70479CF8003011
:104860000CF10102303B0A2BF6D28A42F4D1022B22
:10487000F2D21846491C216010BC70471400002079
:1048800070B4002200F58050284CD0F800C002EB34
:10489000420354F82350654509D104EB830386682D
:1048A0005D68B54203D11B89C588AB4202D0521C5A
:1048B000022AECD3022A1AD1002200E0521C022A5A
:1048C00005D202EB420354F82330002BF6D1022A22
:1048D00017D002EB420344F823C004EB8303D0F863
:1048E00008C0C3F804C0C08818810020588159B19D
:1048F00002EB420004EB8000408928B170BC00202C
:10490000704770BC0020704711B14FF4807005E013
:1049100002EB420004EB80004089401C02EB4201A4
:1049200004EB8101488170BC501C7047CC340020DE
:104930000246887ECB7E40EA032002F58052127840
:10494000032A05D10A7D497D42EA012140EA01405E
:1049500070470000FBF7DAFDFCF70EFFFCF78AFC5E
:104960001BA0FDF763F929492948FBF763FC0028E0
:104970002AD1012225492748FEF72EFC264C20701B
:1049800000F086FA207818B124A0FDF74FF9FEE771
:104990002BA0FDF74BF900F0BFF8207034A0FDF715
:1049A00045F9FFF7FBFA20703EA0FDF73FF91749E4
:1049B0004948FBF70CFC484800F07EFC01221349F3
:1049C0000020FEF709FC20701048FBF75BFCFEE7B7
:1049D0002A2A2A2A2A2A20D5E2CAC7D2BBB8F6BB7D
:1049E000F9D3DAB4AED0D0466C617368B5C4466111
:1049F000744653CEC4BCFECFB5CDB3B9A6C4DCCA91
:104A0000B9D3C3202A2A2A2A2A2A0A000100002010
:104A1000C80103084801002000000020A3A1A3A1B1
:104A2000B4AED0D0466C617368B9D2D4D8CEC4BC11
:104A3000FECFB5CDB3CAA7B0DCA1A30A0000000029
:104A4000A1B7B4AED0D0466C617368CEC4BCFECF03
:104A5000B5CDB3B9D2D4D8B3C9B9A6A3ACBFC9D266
:104A6000D4BDF8D0D0B2E2CAD4A1A30A000000009D
:104A70000A2A2A2A2A2A2A2A2A2A2A2A2A2A2A2AB6
:104A800020CEC4BCFED0C5CFA2BBF1C8A1B2E2CA41
:104A9000D4202A2A2A2A2A2A2A2A2A2A2A2A2A2AD6
:104AA0000D0A00002A2A2A2A2A2A2A2A2A2A2A2AF7
:104AB0002A2A2A2A2A20CEC4BCFEC9A8C3E8B2E208
:104AC000CAD4202A2A2A2A2A2A2A2A2A2A2A2A2A06
:104AD0002A2A2A0D0A000000A82100200023521EC5
:104AE00006D310F8013B11F801CBB3EB0C03F6D061
:104AF00018467047521E05D311F8013B00F8013BE0
:104B0000521EF9D27047521E04D3C9B200F8011BDD
:104B1000521EFBD270470000F0B583B040A0FDF7F5
:104B200085F802AA01A94A48FEF77DF8494D287088
:104B3000029800F5805081698078891E4143019A6E
:104B400050438200890016460F4643A0FDF76EF8D9
:104B50004EA0FDF76BF8032259A15F48FEF774FBE6
:104B6000287001465DA0FDF761F8297841B15EA08B
:104B7000FDF75CF862A0FDF759F8287803B0F0BDA6
:104B80006B4CE068411EA4F58050FEF7BDF828701C
:104B9000002820D167A1A4F58050FEF7A2FC33467F
:104BA0003A462DA1A4F58050FEF79BFC0021A4F508
:104BB0008050FEF7A9F82870654B04F19001A4F528
:104BC0008050E268FEF7BFFD287020B904F1900123
:104BD00060A0FDF72BF84048FDF7FCFF62A0FDF751
:104BE00025F86EA16F48FEF732FC287038B16BA033
:104BF000FEF7FAF928706CA0FDF718F806E069488E
:104C0000FDF7FEFF28706DA0FEF7FCFF2878002856
:104C1000B3D16AA12AA0FEF79FFE2870ADE700007D
:104C20000A2A2A2A2A2A2A2A2A2A2A2A2A2A2A2A04
:104C300020C9E8B1B8D0C5CFA2BBF1C8A1202A2AAB
:104C40002A2A2A2A2A2A2A2A2A2A2A2A2A0D0A002B
:104C50000100002000000020A1B7C9E8B1B8D7DCEE
:104C6000BFD5BCE4A3BA2531306C75204B42A1A35B
:104C70000AA1B7BFC9D3C3BFD5BCE4A3BA202025BE
:104C800031306C75204B42A1A30A00000A2A2A2A5F
:104C90002A2A2A2A2A20CEC4BCFEB6A8CEBBBACD68
:104CA000B8F1CABDBBAFD0B4C8EBB9A6C4DCB2E2A0
:104CB000CAD4202A2A2A2A2A2A2A2A0D0A000000CF
:104CC0004661744673B6C1D0B4B2E2CAD4CEC4BC95
:104CD000FE2E7478740000007C110020665F7265FF
:104CE000733D256400000000212120B4F2BFAACE4C
:104CF000C4BCFECAA7B0DCA3BA25640A0000000049
:104D0000212120BBF2D0EDD0E8D2AAD4D9B4CED4A0
:104D1000CBD0D0A1B04661744673D2C6D6B2D3EB25
:104D2000B6C1D0B4B2E2CAD4A1B1B9A4B3CC0A001E
:104D30007C2100200AD4DAD4ADC0B4CEC4BCFED0ED
:104D4000C2CCEDBCD3D2BBD0D0C4DAC8DD0A0000DF
:104D500008000020A1B7CEC4BCFEC4DAC8DDA3BAE7
:104D60000A25730A000000000A2A2A2A2A2A2A2A67
:104D70002A2A2A20C4BFC2BCB4B4BDA8BACDD6D892
:104D8000C3FCC3FBB9A6C4DCB2E2CAD4202A2A2AD7
:104D90002A2A2A2A2A2A2A0D0A0000005465737436
:104DA000446972000C240020B4B4BDA8C4BFC2BCC6
:104DB000546573744469720A00000000546573748A
:104DC0004469722F746573746469722E7478740008
:104DD0002DE9F04107460C46002507F58056306B5B
:104DE000A0420FD0384600F01EFB054655B970783A
:104DF000012322463946FDF7ADFE10B14FF0FF34D6
:104E0000012534632846BDE8F08100002DE9F0015A
:104E10000A7802F03F02521E02EB820303EBC20249
:104E200000230124194E4D1C4FF6FF7716F803C0DE
:104E300011F80C801CF805C048EA0C2C5CB17F2AE4
:104E400003D3BDE8F0010020704790466446521C31
:104E500020F818C005E0BC4503D0BDE8F0010020F3
:104E600070475B1C0D2BE1D3097811F0400F08D07F
:104E70007F2A03D3BDE8F00100207047002120F80D
:104E80001210BDE8F0010120704700008E010308F8
:104E9000142844D2DFE800F00A0D101316191C1F65
:104EA0001F2225282B2E3134373A3D401CA0FCF719
:104EB000BDBE1FA0FCF7BABE24A0FCF7B7BE27A05A
:104EC000FCF7B4BE2BA0FCF7B1BE2FA0FCF7AEBE22
:104ED00032A0FCF7ABBE36A0FCF7A8BE38A0FCF7AA
:104EE000A5BE3DA0FCF7A2BE41A0FCF79FBE46A018
:104EF000FCF79CBE49A0FCF799BE4EA0FCF796BEFD
:104F000057A0FCF793BE5AA0FCF790BE5DA0FCF73B
:104F10008DBE65A0FCF78ABE68A0FCF787BE70470F
:104F2000A1B7B2D9D7F7B3C9B9A6A1A30A000000A7
:104F3000A3A1A3A1D3B2BCFECAE4C8EBCAE4B3F6F2
:104F4000C7FDB6AFB3F6B4EDA1A30A00A3A1A3A118
:104F5000B6CFD1D4B4EDCEF3A1A30A00A3A1A3A1EF
:104F6000CEEFC0EDC9E8B1B8CEDEB7A8B9A4D7F787
:104F7000A1A30A00A3A1A3A1CEDEB7A8D5D2B5BD37
:104F8000CEC4BCFEA1A30A00A3A1A3A1CEDEB7A8F4
:104F9000D5D2B5BDC2B7BEB6A1A30A00A3A1A3A135
:104FA000CEDED0A7B5C4C2B7BEB6C3FBA1A30A006C
:104FB000A3A1A3A1BEDCBEF8B7C3CECAA1A30A00B9
:104FC000A3A1A3A1CEDED0A7B5C4CEC4BCFEBBF2C4
:104FD000C2B7BEB6A1A30A00A3A1A3A1C2DFBCAD04
:104FE000C9E8B1B8D0B4B1A3BBA4A1A30A00000022
:104FF000A3A1A3A1CEDED0A7B5C4C2DFBCADC9E8D2
:10500000B1B8A1A30A000000A3A1A3A1CEDED0A73E
:10501000B5C4B9A4D7F7C7F8A1A30A00A3A1A3A157
:10502000CEDED0A7B5C4CEC4BCFECFB5CDB3A1A350
:105030000A000000A3A1A3A1D2F2BAAFCAFDB2CE6A
:10504000CAFDCECACCE2B5BCD6C2665F6D6B6673D4
:10505000BAAFCAFDB2D9D7F7CAA7B0DCA1A30A007C
:10506000A3A1A3A1B2D9D7F7B3ACCAB1A1A30A0037
:10507000A3A1A3A1CEC4BCFEB1BBB1A3BBA4A1A3F9
:105080000A000000A3A1A3A1B3A4CEC4BCFEC3FB2D
:10509000D6A7B3D6BBF1C8A1B6D1BFD5BCE4CAA7C9
:1050A000B0DCA1A30A000000A3A1A3A1B4F2BFAA8F
:1050B000CCABB6E0CEC4BCFEA1A30A00A3A1A3A1C1
:1050C000B2CECAFDCEDED0A7A1A30A002DE9F05FC3
:1050D00007460D461646022D04D307F58054A069F5
:1050E000A84202D80220BDE8F09F207806F0FF0910
:1050F0004FF0010B012806D0022844D003285CD0D1
:105100000220BDE8F09F05EB55086089616AB8FB95
:10511000F0F001443846FFF75BFE0028F1D16089CA
:1051200008F1010AB8FBF0F100FB1180384415F0DA
:10513000010F03D0017869F31F1100E031460170BF
:1051400084F804B06089616ABAFBF0F00144384623
:10515000FFF73EFE0028D4D16189BAFBF1F201FBD2
:1051600012A1394415F0010F02D0C6F3071205E071
:105170000A78C6F3032302F0F0021A430A7084F897
:1051800004B0BDE8F09F6089616A4008B5FBF0F0AB
:1051900001443846FFF71CFE0028F2D162896900FD
:1051A000B1FBF2F302FB1311394481F80090320A8B
:1051B0004A7084F804B0BDE8F09F6089616A800895
:1051C000B5FBF0F001443846FFF702FE0028F2D1AB
:1051D0006289A900B1FBF2F302FB131139444FF0CD
:1051E0007043CA7803EA026232430A70130A4B70B2
:1051F000130C8B70120ECA7084F804B0BDE8F09FD7
:10520000F8B504460E460A2E03D10D212046FFF7BD
:10521000F7FF6068002816DB451C204406733D2D0F
:105220000DDB6B462A4604F10C012068FEF778FD81
:105230000098A84201D1002501E04FF0FF356560DC
:10524000A068401CA060F8BD2DE9F04180460E46E4
:10525000022E04D308F58054A069B04201D8022779
:1052600026E0002731464046FFF7E7F90546FDB145
:10527000012D0BD0B5F1FF3F0AD000223146404648
:10528000FFF724FF0746380012D103E002270FE0A2
:1052900001270DE02069B0F1FF3F05D0401C2061DF
:1052A000607940F0010060712E46A069B042D9D803
:1052B0003846BDE8F08100002DE9F04188B0044691
:1052C0001E480690FF20079021461D48FEF7BFF8B4
:1052D00000282AD12046FAF773FF05466E460027BC
:1052E00004EB050869461648FEF706FB00281CD1AA
:1052F0009DF80910002918D00698007808B1069A80
:1053000001E006F1090210782E28EBD09DF8080084
:1053100010F0100F0CD040460AA1FCF797FC204675
:10532000FFF7CAFF67550028DCD008B0BDE8F08160
:10533000214605A0FCF77AFCD4E7000048000020D5
:105340000C2400202F25730025732F25730A0000DD
:1053500081760A0AC2760A0C0275090E41757047F9
:10536000014600200B22430803EBC01011F8013B5B
:105370001844C0B2521EF6D1704770B5044620469C
:1053800000F051F8064630004BD104F580552878DE
:1053900003283FD1687901283CD16A890021204641
:1053A000FFF7B1FB552084F8FE01AA2084F8FF0125
:1053B0005220207060706120A0704121E170722243
:1053C00084F8E42184F8E52184F8E61184F8E70103
:1053D000286984F8E801010A84F8E911010C84F8CD
:1053E000EA11000E84F8EB01E86884F8EC01010A88
:1053F00084F8ED11010C84F8EE11000E84F8EF0131
:10540000286A421C2A63687801232146FDF7BEFB07
:1054100000206871002268781146FDF78DFB00B10D
:105420000126304670BD2DE9F0418046002708F581
:105430008054207900281ED0266B607801233246E4
:105440004146FDF7A3FB08B1012714E000202071BD
:10545000606AE169301A88420DD2E578022D0AD3DC
:10546000E06906446078012332464146FDF78EFB31
:105470006D1E022DF4D23846BDE8F08110B500282B
:1054800011D000F58051086868B100F580500278AD
:105490004AB1C28889888A4205D14078FDF76AFB03
:1054A00010F0010F01D0092010BD002010BD000038
:1054B00000000000000001020304060708090000C4
:1054C000000001020304A400E8A1A700ECA1A800C9
:1054D000A7A1B000E3A1B100C0A1B700A4A1D7006B
:1054E000C1A1E000A4A8E100A2A8E800A8A8E900E2
:1054F000A6A8EA00BAA8EC00ACA8ED00AAA8F200A1
:10550000B0A8F300AEA8F700C2A1F900B4A8FA0051
:10551000B2A8FC00B9A80101A1A81301A5A81B010C
:10552000A7A82B01A9A84401BDA84801BEA84D0108
:10553000ADA86B01B1A8CE01A3A8D001ABA8D20140
:10554000AFA8D401B3A8D601B5A8D801B6A8DA018E
:10555000B7A8DC01B8A85102BBA86102C0A8C70265
:10556000A6A1C902A5A1CA0240A8CB0241A8D9029E
:1055700042A89103A1A69203A2A69303A3A6940313
:10558000A4A69503A5A69603A6A69703A7A6980387
:10559000A8A69903A9A69A03AAA69B03ABA69C0357
:1055A000ACA69D03ADA69E03AEA69F03AFA6A00327
:1055B000B0A6A103B1A6A303B2A6A403B3A6A503F4
:1055C000B4A6A603B5A6A703B6A6A803B7A6A903C3
:1055D000B8A6B103C1A6B203C2A6B303C3A6B4035F
:1055E000C4A6B503C5A6B603C6A6B703C7A6B80327
:1055F000C8A6B903C9A6BA03CAA6BB03CBA6BC03F7
:10560000CCA6BD03CDA6BE03CEA6BF03CFA6C003C6
:10561000D0A6C103D1A6C303D2A6C403D3A6C50393
:10562000D4A6C603D5A6C703D6A6C803D7A6C90362
:10563000D8A60104A7A71004A1A71104A2A71204C9
:10564000A3A71304A4A71404A5A71504A6A71604CA
:10565000A8A71704A9A71804AAA71904ABA71A0496
:10566000ACA71B04ADA71C04AEA71D04AFA71E0466
:10567000B0A71F04B1A72004B2A72104B3A7220436
:10568000B4A72304B5A72404B6A72504B7A7260406
:10569000B8A72704B9A72804BAA72904BBA72A04D6
:1056A000BCA72B04BDA72C04BEA72D04BFA72E04A6
:1056B000C0A72F04C1A73004D1A73104D2A7320458
:1056C000D3A73304D4A73404D5A73504D6A736040A
:1056D000D8A73704D9A73804DAA73904DBA73A04D6
:1056E000DCA73B04DDA73C04DEA73D04DFA73E04A6
:1056F000E0A73F04E1A74004E2A74104E3A7420476
:10570000E4A74304E5A74404E6A74504E7A7460445
:10571000E8A74704E9A74804EAA74904EBA74A0415
:10572000ECA74B04EDA74C04EEA74D04EFA74E04E5
:10573000F0A74F04F1A75104D7A710205CA91320AC
:1057400043A81420AAA1152044A81620ACA1182013
:10575000AEA11920AFA11C20B0A11D20B1A1252010
:1057600045A82620ADA13020EBA13220E4A13320B2
:10577000E5A1352046A83B20F9A1AC2080000321FB
:10578000E6A1052147A8092148A81621EDA121215C
:1057900059A96021F1A26121F2A26221F3A2632141
:1057A000F4A26421F5A26521F6A26621F7A2672181
:1057B000F8A26821F9A26921FAA26A21FBA26B2151
:1057C000FCA27021A1A27121A2A27221A3A2732125
:1057D000A4A27421A5A27521A6A27621A7A2772151
:1057E000A8A27821A9A27921AAA29021FBA19121A6
:1057F000FCA19221FAA19321FDA1962149A897210C
:105800004AA898214BA899214CA80822CAA10F2286
:10581000C7A11122C6A115224DA81A22CCA11D2272
:10582000D8A11E22DEA11F224EA82022CFA1232212
:105830004FA82522CEA12722C4A12822C5A1292212
:10584000C9A12A22C8A12B22D2A12E22D3A134225F
:10585000E0A13522DFA13622C3A13722CBA13D2210
:10586000D7A14822D6A14C22D5A1522250A860220D
:10587000D9A16122D4A16422DCA16522DDA1662226
:1058800051A8672252A86E22DAA16F22DBA19522CD
:1058900092A89922D1A1A522CDA1BF2253A812235B
:1058A000D0A16024D9A26124DAA26224DBA26324FD
:1058B000DCA26424DDA26524DEA26624DFA26724C4
:1058C000E0A26824E1A26924E2A27424C5A275249E
:1058D000C6A27624C7A27724C8A27824C9A27924B4
:1058E000CAA27A24CBA27B24CCA27C24CDA27D2484
:1058F000CEA27E24CFA27F24D0A28024D1A2812454
:10590000D2A28224D3A28324D4A28424D5A2852423
:10591000D6A28624D7A28724D8A28824B1A289241B
:10592000B2A28A24B3A28B24B4A28C24B5A28D2463
:10593000B6A28E24B7A28F24B8A29024B9A2912433
:10594000BAA29224BBA29324BCA29424BDA2952403
:10595000BEA29624BFA29724C0A29824C1A29924D3
:10596000C2A29A24C3A29B24C4A20025A4A90125F3
:10597000A5A90225A6A90325A7A90425A8A9052547
:10598000A9A90625AAA90725ABA90825ACA9092517
:10599000ADA90A25AEA90B25AFA90C25B0A90D25E7
:1059A000B1A90E25B2A90F25B3A91025B4A91125B7
:1059B000B5A91225B6A91325B7A91425B8A9152587
:1059C000B9A91625BAA91725BBA91825BCA9192557
:1059D000BDA91A25BEA91B25BFA91C25C0A91D2527
:1059E000C1A91E25C2A91F25C3A92025C4A92125F7
:1059F000C5A92225C6A92325C7A92425C8A92525C7
:105A0000C9A92625CAA92725CBA92825CCA9292596
:105A1000CDA92A25CEA92B25CFA92C25D0A92D2566
:105A2000D1A92E25D2A92F25D3A93025D4A9312536
:105A3000D5A93225D6A93325D7A93425D8A9352506
:105A4000D9A93625DAA93725DBA93825DCA93925D6
:105A5000DDA93A25DEA93B25DFA93C25E0A93D25A6
:105A6000E1A93E25E2A93F25E3A94025E4A9412576
:105A7000E5A94225E6A94325E7A94425E8A9452546
:105A8000E9A94625EAA94725EBA94825ECA9492516
:105A9000EDA94A25EEA94B25EFA9502554A851257B
:105AA00055A8522556A8532557A8542558A855251A
:105AB00059A856255AA857255BA858255CA85925EA
:105AC0005DA85A255EA85B255FA85C2560A85D25BA
:105AD00061A85E2562A85F2563A8602564A861258A
