:020000040800F2
:1000000030070020C54D0008C94C0008CB4C000843
:10001000CD4C0008CF4C0008D14C00080000000077
:10002000000000000000000000000000D34C0008A9
:10003000D54C000800000000D74C0008D94C00083F
:10004000214E0008254E0008294E00082D4E0008BC
:10005000314E0008E54C0008354E0008394E0008C6
:100060003D4E0008414E0008454E0008494E00082C
:100070004D4E0008514E0008554E0008594E0008DC
:100080005D4E0008614E0008654E0008694E00088C
:100090006D4E0008714E0008754E0008794E00083C
:1000A0007D4E0008814E0008854E0008894E0008EC
:1000B0008D4E0008914E0008954E0008994E00089C
:1000C0009D4E0008A14E0008A54E0008A94E00084C
:1000D000AD4E0008B14E00086D260008B54E000870
:1000E000B94E0008BD4E0008C14E0008C54E0008BC
:1000F000C94E0008CD4E0008D14E0008D54E00086C
:10010000D94E0008DD4E0008E14E0008E54E00081B
:10011000E94E0008ED4E0008F14E0008F54E0008CB
:10012000F94E0008FD4E0008014F0008054F000879
:10013000094F00080D4F0008114F0008154F000827
:10014000194F00081D4F0008214F0008254F0008D7
:10015000294F00082D4F0008314F0008354F000887
:10016000394F00083D4F0008414F0008454F000837
:10017000494F00084D4F0008514F00080000000093
:10018000554F0008594F00082DE9F04F80460FF2F7
:100190001C60A5B017461D46D0E90023CDE9122307
:1001A000002004910D900DF1500A6FF0004900E01D
:1001B000E7190020ADF8020012AB4FF0FF323946CC
:1001C0000DF1020001F089F80446012C04DA3878B8
:1001D000441EA441E443E40FBDF8020025280CBFEF
:1001E000A4F1010BA346BBF1010F0EDB3E4616F84E
:1001F000011B0498C0470028049000F0D2820D989B
:10020000401CBBF1010B0D90F1D1BDF80200252877
:1002100007D100200790089009900A900B900C904D
:1002200005E00028C4D10D98BDE240F0010017F8A8
:10023000011F2029F9D023290DD02B2904D02D29E5
:1002400006D030290AD00CE040F0020080B2EEE780
:1002500040F00400FAE740F00800F7E740F0100033
:10026000F4E72A290ED12968296051F8042B296066
:10027000002A0F9204D5514240F004000F9180B241
:100280007F1C11E000210F9109E00F99494505D02D
:1002900001EB810302EB430130390F917F1C3A7867
:1002A000A2F130010A29F0D339782E2903D04FF07A
:1002B000FF310E911DE017F8011F2A2907D1296887
:1002C00029607F1C51F8042B29600E9211E0002157
:1002D0000E9109E00E99494505D001EB810302EB2F
:1002E000430130390E917F1C3A78A2F130010A297E
:1002F000F0D3ADF840000FF2BC40397801F002F8BD
:1003000008B117F8010B8DF842009DF842006828EB
:1003100002BF39786829622005D06C2804BF38787C
:100320006C2803D171208DF842007F1C14A8069020
:1003300017F8014BB4F125002AD01C3800F0CB800F
:10034000001F022840F2C780133800F0EC80093803
:1003500000F0C180801E00F05381401E00F02C810F
:10036000401E022840F2B780001F00F02581401F88
:1003700000F08280401E00F0D680401E2CD0C01EAF
:100380000BD0801E00F0CF80C01E00F0CC805AE160
:1003900025208DF8500001205EE19DF842006C2878
:1003A0002868286014D050F8046B286005960E9CCD
:1003B000002C04D5304600F0B1FF044606E022468A
:1003C0000021304600F0C6FF00B1841B089444E1D0
:1003D00050F8042B28602FE1296829603C2451F84B
:1003E000040B29600021CDE9020114A80590DDE984
:1003F0000201069E11B908B90E9AB2B10206120F97
:10040000A0EB02123032D2B2631E3A2AA8BF2732C2
:1004100000099A5540EA0170090908BF00281C46E6
:1004200003D0059AA3199A42E8D3A0190590C4F104
:100430003C010E980891814209DA401A0A904FF661
:10044000EF71BDF840000840ADF8400005E100281C
:1004500040F103819DF8400000F01400102840F0A6
:10046000FC800F98079A801A0A9A801A441A012C65
:10047000C0F2F3800A94F0E09DF8420062281AD09E
:10048000682806D06A280CD06C281CD0712808D0A7
:1004900019E02868286050F8041B28600D9808802F
:1004A000DBE02868286050F8042B28600D98C117FD
:1004B000C2E90001D1E02868286050F8041B2860D8
:1004C0000D980870C9E02868286050F8041B28605F
:1004D0000D980860C1E02868C01D20F007022A605E
:1004E000D2E9000108322A60CDE90201002902D5D3
:1004F00007982D210AE0BDF84000810702D5079832
:100500002B2103E0C00705D50798202100F80A1029
:10051000401C079014A8079908180590214602A8C6
:1005200000F090FB99E09DF842006C280DD07128F6
:1005300018BF6A2809D12868C01D20F007022A6068
:10054000D2E9000108322A6005E02968296051F8E3
:10055000040B29600021CDE902019DF842006828C2
:1005600003D1DDE9020180B20BE0622803D1DDE9AD
:100570000201C0B205E0742818BF7A2804D1DDE971
:1005800002010021CDE902019DF8400000072ED5AF
:10059000DDE90201002908BF002828D044F020002E
:1005A000782824D10798302100F80A10401C411CFB
:1005B000079100F80A401AE09DF84200294600F031
:1005C000FDF8CDE90201002902DA07982D210AE0A1
:1005D000BDF84000810702D507982B2103E0C00732
:1005E00005D50798202100F80A10401C079014A890
:1005F000079908180590214602A800F09FFA2CE000
:100600009DF842006C2809D00120079028682860D6
:1006100050F8041B28608DF850101EE028682860F0
:1006200001AA50F8041B2860ADF804100020ADF8B2
:1006300006004FF0FF300E9002A9404600F0F5F89A
:1006400000280AD5ADE025208DF850000120079044
:100650001CB18AF80140022007900F980799401AB0
:100660000A99401A0899401A0B99401A0999401A98
:100670000C99441A9DF84000400710D420208DF8B2
:100680000000002609E001236A4602A9404600F066
:1006900000FE002840F08580761CA642F3DB079E12
:1006A0000DF1500B0AE01BF8011B0498C04700280D
:1006B000049076D00D98401C0D90761E002EF2D13D
:1006C00030208DF800004FF0000B0A9E09E0012356
:1006D0006A4602A9404600F0DCFD002861D10BF11A
:1006E000010BB345F3DB089EDDF814B00AE01BF8FC
:1006F000011B0498C0470028049052D00D98401C5C
:100700000D90761E002EF2D130208DF800004FF0B3
:10071000000B0B9E09E001236A4602A9404600F047
:10072000B8FD00283DD10BF1010BB345F3DB059873
:100730000899099E01EB000B09E01BF8011B0498C6
:10074000C047049068B30D98401C0D90761E002E93
:10075000F3D130208DF800004FF0000B0C9E08E024
:1007600001236A4602A9404600F093FDC8B90BF187
:10077000010BB345F4DB9DF8400040077FF519AD50
:1007800020208DF80000002600E0761CA642BFF66F
:1007900010AD01236A4602A9404600F07AFD002808
:1007A000F3D04FF0FF3025B0BDE8F08F000000001F
:1007B00000000000686A6C747A4C0000622826D041
:1007C00068281DD06A2808D06C2827D0712804D04A
:1007D000742823D07A280CD020E00868C01D20F0AF
:1007E00007000860D0E90023083008601946104669
:1007F00070470A680A6052F8040B0A6000217047CB
:100800000A680A6052F8040B0A6000B20BE00A683A
:100810000A6052F8040B0A6040B204E00A680A60F9
:1008200052F8040B0A60C11770472DE9F44F0D46CA
:1008300094B0D5F830B0BBF1000F804648BF6FF0E0
:10084000004B00F0B3FD696B401801900FF670206B
:10085000D0E90023CDE9022395F83800400702D4FF
:100860000198412806D240200DF1100A01904FF066
:10087000000909E000F0A0FD5FEA000AF7D14FF09F
:10088000FF3058E1ABEB040BBBF1010FC0F2CD80A0
:100890001498018802AA0DF1010000F0E5FD00287E
:1008A000044600F1D5801498008810B9641E00F148
:1008B000CF80A345C0F2B98068690199221891429E
:1008C00080F0A180296AC5F834904042401AA96995
:1008D000401A696A401AE969401AA96AA0EB01093D
:1008E00095F83800400710D420208DF8000000262D
:1008F00009E001236A462946404600F0CAFC002868
:1009000040F0A680761C4E45F3DB6E6957460BE03F
:1009100017F8011BA868C0470028A86000F098805D
:10092000E86A401CE862761E002EF1D130208DF876
:10093000000000272E6A09E001236A462946404646
:1009400000F0A7FC002840F083807F1CB742F3DB57
:10095000AE69EF680AE017F8011BA868C0470028D5
:10096000A86075D0E86A401CE862761E002EF2D1BD
:1009700030208DF8000000276E6A08E001236A46E7
:100980002946404600F085FC002861D17F1CB74213
:10099000F4DBE868A969EE690F180AE017F8011B93
:1009A000A868C0470028A86052D0E86A401CE862E6
:1009B000761E002EF2D130208DF800000027AE6A9E
:1009C00008E001236A462946404600F062FC002800
:1009D0003ED17F1CB742F4DB95F8380040070ED5B6
:1009E00020208DF80000002607E001236A462946F2
:1009F000404600F04EFC58BB761C4E45F5DB4FF0F0
:100A00000009C5F81490224668690DF101015044AF
:100A100000F038FD6869201868611498801C1490F3
:100A2000801E008800287FF42DAF686B6969401A2A
:100A3000296A401AA969401A696A401AE969401A84
:100A4000A96A471A95F83800400710D400240CE032
:100A50004FF0FF3968E0A8682021C0470028A8604F
:100A6000F6D0E86A401CE862641CBC42F3DB6B69A8
:100A700052462946404600F00CFC0028E8D12C6A7A
:100A8000002609E0A8683021C0470028A860DFD010
:100A9000E86A401CE862761CA642F3DBAB69EA68B0
:100AA0002946404600F0F5FB0028D1D16C6A0026AB
:100AB00009E0A8683021C0470028A860C8D0E86ACB
:100AC000401CE862761CA642F3DBE868A969EB6982
:100AD0000A182946404600F0DCFB0028B8D1AC6A71
:100AE000002609E0A8683021C0470028A860AFD0E0
:100AF000E86A401CE862761CA642F3DB95F83800F1
:100B000040070DD5002409E0A8682021C04700282F
:100B1000A8609DD0E86A401CE862641CBC42F3DB1C
:100B2000C5F81490C5F8349004A882451CBF5046FF
:100B300000F0E4FC484615B0BDE8F08F2DE9FA4E10
:100B400005460A462F696F2A08BF082405D041F0E0
:100B50002000782814BF0A2410243C26D5E900017F
:100B6000642A18BF692A81468A4605D1002903DA1A
:100B7000D9F100096AEB4A0ABAF1000F08BFB9F1CE
:100B8000000F0CD1286B50B9082C36D195F83800DD
:100B9000000732D530203B2687F83B002DE0E317D5
:100BA00048465146224600F0E9FCA4FB0023A9EB8D
:100BB00002023032D2B2A6F1010B3A2A5E4603DBC2
:100BC0009DF80030513B9A180BF8072081465FEAE8
:100BD000010A08BFB9F1000F03D0E868F119884293
:100BE000DDD3082C09D195F83800000705D5F05D54
:100BF000302802D0761E3020F055C6F13C00A861A6
:100C0000F119E960296B884208DA081A28624FF660
:100C1000EF71288F08402887BDE8F38E00290ED594
:100C200095F8381001F01401102908D1696B6A6930
:100C3000891A2A6A891A0E1A012EA8BF2E62BDE8E7
:100C4000F38E00002DE9F24F04468EB0D4E9000186
:100C5000CDE9020104AF9DF8380040F0200BBBF154
:100C6000610F0AD0206B002848BF062004D408BFBB
:100C7000BBF1670F01D1012020636168C1F30A5005
:100C800040F2FF7290421CD1080304BF2068002884
:100C900009D10320A0619DF8380061381A2836D3A5
:100CA0000FF2306108E00320A0619DF83800613840
:100CB0001A2829D30FF21461E068032200F0E2FB46
:100CC000BEE1012816DA204600F0CFFC012811DB36
:100CD00000250020BBF1610F20D1E168302201F82E
:100CE000012B4A1CE2609DF83820612A0CBF782253
:100CF00058220FE0626840F2FE3161F31E52451A3D
:100D000062604FF0FF30E5E70FF2BC51D4E70FF21D
:100D1000C051D1E70A706169891C616110B9002670
:100D2000002584E1BBF1610F40F09780206B002823
:100D30004CBF2126461CD4E900ABDDE902010022AC
:100D4000002300F0B3FC36B23ABF8BF00040CDE98F
:100D500002A0CDE902AB06F101082D1F8DF810208D
:100D60000DF1110700E0C71DB8F1010F33DBDDE91C
:100D700002010022002300F0B1FC2CD21C2102A8A9
:100D800000F0C4FCDDE9020100F04AFDA8F107080B
:100D9000B8F1010F814609DB00F06EFD02460B46FB
:100DA000DDE9020100F080FDCDE90201F81D072117
:100DB00005E009F00F0200F8012D4FEA2919B9F1F9
:100DC000010F01DB491EF4D5491E5CBF002200F86B
:100DD000012DF9D5C7E70DF11100391AB142B8BF9D
:100DE0000E4636B230000DF111072FD4884206DAD4
:100DF00004A9411849780829A8BF0F2100DA002169
:100E000004AA821800E0761E12F80139401E8B42B7
:100E1000F9D00F2904D104A941184A78521C4A700C
:100E2000002802D504AF761C2D1D36B2701E0DD4DD
:100E3000C1190A783032D2B23A2A03DB9DF8383031
:100E40003A3B9A18401E01F80129F2D5206B002880
:100E500040F1ED80701E2063E9E0DDE9020100222F
:100E6000002300F023FC3CBF81F00041CDE90201EA
:100E70002DB247F2975068434B49DFF8309190FB11
:100E8000F1F52DB2C5F1070ABAF1010F90461CDB4E
:100E9000DDE902675FEACA7007D542464B46304635
:100EA000394600F0C1FD06460F46404649464246D7
:100EB0004B464FEA6A0A00F0B7FDBAF1000F8046D0
:100EC0008946E7D1CDE9026724E0CAF1000A00268D
:100ED000374F14E05FEACA7007D542464B463046AA
:100EE000394600F0A1FD06460F46404649464246B7
:100EF0004B4600F099FD4FEA6A0A80468946BAF1EE
:100F0000000FE7D1DDE9020132463B4600F05EFE0C
:100F1000CDE90201BBF1660F0CBF05F10A00062006
:100F2000216BDFF890904618142EA8BF13263020AE
:100F30008DF810000DF11107012E3DDBDDE90201F6
:100F400000F084FC07F1080104220A23B0FBF3F34C
:100F500003EB8307A0EB4700303001F8010C0A20B7
:100F6000B3FBF0F000EB8007A3EB47033033521ED6
:100F700001F8023DE9D1083E012E01F10807DBDB53
:100F8000DDE9020100F062FC00F080FC02460B4645
:100F9000DDE9020100F088FC00224B4600F044FD30
:100FA000CDE90201CAE700BFA0860100000024408D
:100FB0000000F03F84D797410DF11100381A0DF170
:100FC000110702E0401E6D1E7F1C39783029F9D0D0
:100FD000BBF1660F02D12DB2691C04E0BBF1650FB5
:100FE0000CBF01210021226B8E1836B2B042B8BF6F
:100FF000064636B231001AD4814204DAC85D35287B
:10100000A8BF392000DA3020CA19521E00E0761E2F
:1010100012F80139491E8342F9D0392802D1C85D3E
:10102000401CC855002902D57F1E761C6D1C2DB2B0
:101030009DF83810009533B23A46204600F003F888
:101040000FB0BDE8F08F2DE9F04786B006468A461E
:1010500090461D4600F003FF012D406A376B90F863
:10106000009002DA01250FF270284AF02000BDF945
:101070003840662808BF641C12D0672876D114F166
:10108000040F79DBBC4277DA96F83800641C00075D
:1010900002D4BD42B8BF2F4624B23F1B48BF002731
:1010A00024B2F068B169012C21DA4A1C30230B54B8
:1010B000012F03DA96F83810090702D502F80090DC
:1010C000521CB261E742B8BF7C4224B26142E719C8
:1010D0007162AF42B8BF3D46B3692DB2F5612A4691
:1010E0004146181800F0CEF9781BB062BAE0081833
:1010F000A54216DA2A46414600F0C4F9B1696918DA
:10110000601B012FB161706203DA96F838000007A6
:1011100005D5F06801F80090F069401CF061B762F5
:10112000A0E02246414600F0ADF9B06920182D1B21
:10113000012F03DA96F83810090703D5F16800F893
:101140000190401C2DB2B061AF42B8BF3D46F0687F
:10115000B3692DB22A4604EB0801181800F092F981
:10116000B0692818B061781B70627BE0BAF1610F3A
:1011700014D14FF0700A16E0BD4204DA96F8381028
:10118000090758BF2F467F1E48BF0027BAF1670FD7
:1011900014BF4FF0450A4FF0650A04E0BAF1410F61
:1011A00008BF4FF0500AB169F0684A1CB261012FC4
:1011B00018F8013B0B5403DA96F83810090715D5D7
:1011C000531CB36102F80090012F0FDB6D1E2DB28E
:1011D000AF42B8BF3D462DB22A464146181800F02E
:1011E00051F9B0692818B061781B7062F068B16974
:1011F0000918200081F800A004D42B20487001F1C8
:10120000020804E02D224A7001F102086442002520
:1012100002AF08E00A22684600F03AFE019807F89B
:10122000010B6D1C009C21B20129F3DA022D06DAB4
:101230004AF02000652804BF302008F8010B4DB9A2
:10124000302008F8010B07E06D1E02A8285C303042
:1012500008F8010B012DF7DAF068B1690818A8EB5E
:101260000000F06196F8380000F0140010280DD14D
:101270007069B1690818716A0818F1690818B16ACB
:101280000818716B8842BCBF081A306206B0BDE80E
:10129000F087F8B504460D4616461F46002004E0C8
:1012A000E86A401CE8627F1E002047B116F8011B67
:1012B000A868A0470028A860F2D14FF0FF30F2BD27
:1012C00000000000000000006E616E004E414E0004
:1012D000696E6600494E46003000F8B504460D467A
:1012E00016461F4600F0DCFD3B46324629462046A6
:1012F00001B0BDE8F04000F0EABD0268531C036095
:10130000117070470278C9B28A421AB11CBF10F836
:10131000012FF9E718BF00207047000000F101031A
:10132000810704D010F8011B89B18107FAD1026846
:10133000B2F10131914311F0803F04BF50F8042F06
:10134000F6E710F8011B11B110F8011BFBE7C01AFA
:1013500070470000C9B2830706D0521E22D310F88E
:10136000013B9942F7D11FE0083A13D302F104027E
:1013700041EA012141EA014150F8043B121F21BF1B
:101380004B40A3F1013C2CEA030C1CF0803FF3D04E
:10139000C9B2001F083210F8013B521E28BF91EA63
:1013A000030FF8D818BF0120401E704780B500F029
:1013B00077FD012002BD000070B5054605F10F0064
:1013C000C408C046C046E400A54232D2082C04D26C
:1013D000082402E0083000F091F822480268110069
:1013E0000CD1011D0A6802B31368A34238BF111D56
:1013F000F8D310E01D68A5420DD2191D0B68002B13
:10140000F8D11268011D00E0191D0B6893420CD041
:101410001D68A542F8D361B10D682A68A2F10803DE
:10142000A3420AD26A680A600FE000F073FD002848
:10143000D0D1C046C046002070BD63190B60121B9E
:101440006E685E600B681A602C60096800291DBF19
:101450004A68002A091D00210160C046C04605F106
:10146000080070BDE002002070B504460D46164627
:1014700000F016FD324629462046BDE8704000F0D7
:1014800019BD000062B38B0708D0521E11F8013B52
:1014900000F8013B00F024808B07F6D1830740F071
:1014A000208000BF103A07D330B4B1E83810103AAA
:1014B000A0E83810F9D230BC530724BFB1E80810B7
:1014C000A0E8081044BF51F8043B40F8043BD207A1
:1014D00024BF31F8022B20F8022B44BF0B78037095
:1014E0007047083A07D3B1E80810083A40F8043BBF
:1014F00040F804CBF7D25307E4E7000000B9704787
:1015000038B5A0F108042068082833D310F0070F7D
:1015100030D1C046C0461848416809B18C4203D258
:101520006160446017E019464B680BB1A342FAD3DF
:101530000B685D18AC421BD3A54204D12268D218B7
:101540000A600C4607E04A681AB123681B199A42E0
:101550000ED362604C60616851B1226813198B42EE
:1015600006D1002303600868801820604868606026
:10157000C046C04631BD0000E00200201B4213D12E
:10158000094236D12AB18446B0FBF2F002FB10C208
:10159000704700F0D5BCFCD30022002370470B003D
:1015A0000200002100207047904271EB030CF6D33B
:1015B00070B5B1FA81F4B3FA83F52C1BA340C4F1E2
:1015C000200532FA05F63343A2405FF00046E640BC
:1015D00002E05B085FEA3202841A71EB030524BF64
:1015E000204629467641F4D302000B00300000214A
:1015F00070BD012ACFD970B5140C20D0B1FA81F496
:10160000B2FA82F5C4F120046419B4F12006D6D3ED
:10161000B2405FF00044F440002502E052085FEA67
:101620003303C61A71EB020E24BF30467146644183
:101630006D41F3D302000B002000290070BD0C4661
:10164000B1FBF2F102FB11452D0445EA1045B5FB53
:10165000F2F402FB145580B240EA0545B5FBF2F006
:1016600002FB105240EA044070BD30B4436803F0FE
:10167000004201211B031B0B436004BF0368002BC6
:1016800008D10DE00368DD0F45EA440444605B00C7
:101690000360491E4468E302F4D523031B0B436037
:1016A00043681A434260084630BC70474FF4001C40
:1016B0001CEB410F94BF1CEB430F09E041EA030C04
:1016C00050EA4C0C52EA0C0C03D2994208BF9042EB
:1016D000704714BF8B428242704700004FF4001CD9
:1016E0001CEB410F94BF1CEB430F09E041EA030CD4
:1016F00050EA4C0C52EA0C0C03D28B4208BF8242D7
:10170000704714BF994290427047000070B504467C
:101710000D466068C0F30A5040F2FF71884207D15D
:101720006068000304BF2068002817D0022070BD45
:1017300020B92046FFF799FF012866DA012D0FDB5B
:1017400040F2FF71091A8D420AD3606800284CBF2D
:101750009FED2F0B9FED300B84ED000B012070BD32
:101760004142A942616806DA6FF31E51401941EA0D
:101770000050606040E0401E63684519012205F199
:10178000350062F31F53352801F00041636003D335
:1017900061600020206070BD002015F11F0F04DA89
:1017A000206823600022203562606A4212D0401E09
:1017B00025688041C2F12003C0439D4045EAD070B6
:1017C00025686668D54006FA03F32B4323606368F7
:1017D000D340636062680A43B0F1004F626003D88F
:1017E0000DD12078C0070AD52068401C20602068F1
:1017F00028B96068401C60604FF0FF3070BD6068C1
:10180000884204BF20680028F6D1002070BD00BFC8
:10181000000000000000F0FF000000000000F07F6A
:10182000F446400D40EAC120490006D200F014F809
:10183000004248BF6FF00040604700F00DF84FF0E5
:10184000004188428CBF084640426047400D40EA54
:10185000C120490080F00D8040F00040490DA1F505
:101860008061491C05D4D1F11F0154BFC840C01785
:1018700070474FF000007047010040F10980F446C6
:10188000404200F005F851F000416047010000BF00
:1018900009D0B0FA80F18840C91CC1F584610905FE
:1018A00001EBD02140057047F0B44FF0004591EABC
:1018B000030F44BF6B4000F045BB00BF841A71EBBF
:1018C000030604D26E40001BB141121973414FF45C
:1018D000001C1CEB410F34BF7CEB430684E00C0D75
:1018E000A4EB1356362E7DDC012E43DC45EAC323E0
:1018F00043EA525312BFD20292025B08240545EA22
:10190000C12141EA5051D2EBC020994125D407D1E1
:10191000B0FA80F610FA06F164D00020203608E014
:10192000B1FA81F6B140C6F1200220FA02F2114369
:10193000B0404FEAF474B4EB465434F001064FEA79
:1019400074040AD8D6F50016760D04F00044F04071
:1019500061FA06F25040F1404840C00A40EA415066
:1019600021F0004128BF5FEA500550F1000044EB30
:10197000D12137E045EAC323DB0A45EAC121C90A80
:10198000B6F120050EDD42EA0242120CC5F1200636
:1019900003FA06F6EB4042EA06056D42984161F112
:1019A00000010DE062FA06F5F240554063FA06FCCC
:1019B00082EA0C02F3405A406D42904161EB030110
:1019C00011F4801F05D1641E620502D06D004041F4
:1019D000494121F48011430875F1004350F10000A2
:1019E00041EB0451F0BC70471CEB410F15D223F0C2
:1019F000004352EA43060BD04FEA4C0CBCEB410FBC
:101A000004D80C0D661E342EB7DDEBE7801A994121
:101A100050EA410608BF0021E4E708BF1CEB430F72
:101A200028BF6FF00001DDE7B0B581EA030C0CF0D0
:101A3000004C40F2FF7515EA11541DBF15EA13570B
:101A4000AC42AF4239E0E41923EA455343F4801332
:101A5000C90241F0004141EA505EC7021100A7FBF4
:101A6000020200284FF00000EEFB01204FF00001C1
:101A7000E3FB072118BF42F0010240180021494151
:101A8000E3FB0E01A4F580640F0302D25200404133
:101A9000494154F101046CDD470872F1004250F1F4
:101AA000000051EB0451A1F580115CBF41EA0C012B
:101AB000B0BD4CEA05510020B0BD05EA1357AC4259
:101AC00014BFAF4241E050EA410E1CBF52EA430E40
:101AD00002E061460020B0BD24423C441BD15FEAD5
:101AE000070EF6D0090302BF01460020AEF1140E26
:101AF000B1FA81F7AEEB070401FA07FE0C37C7F124
:101B0000200100FA07F7C8404EEA000E23EA4553C9
:101B100043F48013A2E733F00043B3FA83F704BF22
:101B2000B2FA82FE77440B3FE41BB7F1200E2FBFC1
:101B300002FA0EF3BB40C7F1200E22FA0EFE38BFA8
:101B400043EA0E03BA40641C82E750EA410E14BF18
:101B500052EA430E6FF000014FF4001717EB430FEA
:101B60008ABF194617EB410FB5E74CEA0551002033
:101B7000B0BDD4F10104B4F120070FDAC4F120079D
:101B8000520828BF42F0010210FA07F501FA07F7E0
:101B9000E1BF2A43E0403843E1400FE0352C98DCB8
:101BA000C7F1200452EA400220FA07F218BF42F0BF
:101BB000010231FA07F0A1400A43002172F100420C
:101BC00050F1000051EB0C01B0BD00002DE9F041D7
:101BD00040F2FF7581EA030C0CF0004C15EA115439
:101BE0001DBF15EA1357AC42AF42E9E0BC41C1F357
:101BF0001301C3F31303801A994143F4801304D2F1
:101C0000641E4000494180185941C90241EA5051BF
:101C1000B1FBF3F603FB1611A2FB0675D7EBC02050
:101C2000A94102D2761E80185941C90241EA505199
:101C3000B1FBF3FE03FB1E11A2FB0E75D7EBC02018
:101C4000A94103D2AEF1010E80185941890241EA3F
:101C50009051760546EA8E2EB1FBF3F603FB161182
:101C6000A2FB0675D7EB8020A94102D2761E801810
:101C70005941C90241EA50514EEA060EB1FBF3F652
:101C800003FB1611A2FB0675D7EBC020A94102D2B7
:101C9000761E80185941C90241EA5051B1FBF3F751
:101CA00003FB1711A2FB0735D3EBC020A94167F155
:101CB00000070CBF004247F0010766F3D5274FEA43
:101CC0001E31B80814F5806414DDBD0775F10042BB
:101CD00050EB0E5051EB045111F5801F5CBF41EAEF
:101CE0000C01BDE8F0814CF07F6141F0E041002043
:101CF000BDE8F081BD076D0840EA0E5041F4801147
:101D0000D4F10104B4F120060ADAC4F1200602007D
:101D1000E04001FA06F3E1401843B24015430EE0FB
:101D2000342C14DCC6F1200445EA40056D0820FA85
:101D300006F2154321FA06F0A1400D43002175F18A
:101D4000004250F1000051EB0C01BDE8F081002091
:101D50005FEA0C01BDE8F081CFB992185B41B3FA9C
:101D600083F704BFB2FA82F6BF190B3FB7F1200622
:101D70002FBF02FA06F3BB40C7F1200622FA06F68F
:101D800038BF3343BA401CB1E419641E2FE77F42C9
:101D900031F00041B1FA81F404BFB0FA80F6A41921
:101DA0000B3CB4F120062FBF00FA06F1A140C4F1AC
:101DB000200620FA06F638BF3143A0403C1B16E748
:101DC000AC421ABF05EA1357AF4214E050EA41068D
:101DD0001CBF52EA4306BFE750EA4107304661465E
:101DE0001CBF41EA0551BDE8F08152EA430C08BF2F
:101DF000C143BDE8F08100204FF4001616EB410FFF
:101E000098BF16EB430F08BF16EB410F24BFC14329
:101E100005E016EB430F0CBF61464CEA0551BDE8E7
:101E2000F081000080B5134800F0F6F80FF24C0284
:101E30000FF244010160426241600FF2440282638A
:101E400081600FF24402C160016141618161816280
:101E5000C16201634163C2630164416401BD10B5A5
:101E6000044800F0D9F80446206808B9FFF7DAFF03
:101E7000204610BD00000020000000002E000000E1
:101E800066616C7365000000747275650000000087
:101E900091FBF2F303FB1211C0E90031704700001F
:101EA00080B5DFF80C0000F0B7F8806902BD0000D3
:101EB0009000002030B430B90FF24800D0E900455E
:101EC000C2E900451BE00170012030BC704730B40E
:101ED00031B90FF23800D0E90045C3E900450EE002
:101EE0001AB930BC6FF00100704708B10A7802805F
:101EF0000978481E804130BCC043C00F70470020A5
:101F000030BC70470000000000000000000000002E
:101F1000000000000749086808B100207047064823
:101F2000C008C00008600549C908C900091A016055
:101F3000704700BF20030020370700203009002031
:101F400070470000841A71EB030603D2001BB141F5
:101F5000121973414FF4001C1CEB410F34BF7CEB92
:101F6000430443E00C0DA4EB1356352E50DC45EA38
:101F7000C323DB0A45EAC121C912B6F120050DDDF4
:101F800063FA05F6EB4086EA0305124218BF45F0F6
:101F90000105C01851F100010CD213E062FA06F5F8
:101FA000F2405540F3415A40B340F3405A40801844
:101FB000594107D349085FEA30005FEA350528BF79
:101FC00045F0010501F58011420875F1004250F11C
:101FD000000041EB0451F0BC4FF4001C1CEB410F1E
:101FE00038BF70470020090D090570471CEB410FF1
:101FF00010D252EA43060BD0BCEB410F05D80C0DB2
:10200000AB43661E342EB5DD02E0AB438018594168
:10201000F0BC7047F0BC70477047000000B593B04B
:1020200000200090DFF88C07006850F08050DFF847
:1020300084170860DFF87C07006810F0805000907B
:10204000009800200090DFF87007006850F480408E
:10205000DFF864170860DFF86007006810F480405C
:1020600000900098012006905FF4803007900220D5
:102070000C905FF480000D9008200E904FF4A87033
:102080000F90022010900720119006A800F0EAFBA4
:102090000F20019002200290002003904FF4A050E6
:1020A00004904FF480500590052101A800F0CEFD6A
:1020B00000F0A5FE00F0EDFE4FF47A71B0FBF1F0F8
:1020C00000F0ACFF042000F0ADFF002200215FF023
:1020D000FF3000F08DFF13B000BD814201DA401ADD
:1020E00000E0081A7047F0B583B000F0C3FFFFF7B7
:1020F00095FF01F037F801F0ADF801F0EBF8DFF8EB
:10210000BC060068C06850F02000DFF8B01609680F
:10211000C86001F043F901F085FB01F01DFBDFF819
:10212000A0160860642000F0DDFF01F0F2FADFF88D
:1021300094160860DFF888060268DFF888060168F0
:10214000DFF8840601F096FBDFF878060068DFF818
:102150007C16884237D1DFF8780601F08BFB03222A
:102160004FF40051DFF86C0601F0AAFADFF86406BC
:10217000007842F21071DFF85C26527864235A43EB
:1021800001FB0020DFF84C1689784018DFF848166C
:102190000860DFF844060168DFF8400601F06AFBDA
:1021A000DFF83406006847F25771401AB0F5C77F70
:1021B00009D8DFF824060068DFF82416086001203B
:1021C000DFF82016087001F070FC00280AD0DFF854
:1021D000180601F04FFB01F0D1FC03E0DFF80C061C
:1021E00001F048FBDFF808060088401CDFF8001605
:1021F0000880DFF8FC05B0F900000A28C0F26C8105
:10220000DFF8E005007801280AD1042001F0EEFC97
:10221000DFF8E01508600220DFF8C81508705BE100
:10222000DFF8C0050078022840F05681012001F057
:10223000DDFC0600DFF8BC050068301ADFF8B815D1
:102240004843DFF89C15096890FBF1F7DFF8AC050F
:102250000760DFF8AC050178DFF8A80501F00AFB9C
:10226000DFF8A4050078012819D1DFF8900500688F
:10227000DFF898150968401AA84210DB01224FF4D4
:102280008061DFF88C0501F0A8FDC82000F02AFF6E
:1022900000224FF48061DFF8780501F09EFDDFF841
:1022A00074050078012828D1DFF860050068DFF8A0
:1022B0004C150968401ADFF860150860DFF858050A
:1022C0000068102819DB0020DFF8401508600020A6
:1022D000DFF8441508600020DFF83815087000208A
:1022E000DFF81C1508700021DFF8300500F026FA31
:1022F0000021DFF82C0500F021FADFF80405007852
:1023000000280AD0022835D01DD3042800F09C8074
:102310007CD3052800F0D180DAE0DFF8D80400682B
:10232000B04205DA0120DFF8D8140870002609E071
:102330000021DFF8E80400F001FA0020DFF8C01403
:1023400008700026C4E0DFF8AC0401683000FFF735
:10235000C4FE0B2804DB0220DFF8A414087008E098
:102360000021DFF8B80400F0E9F90020DFF890144C
:102370000870ADE0642000F0B5FE032001F036FCEB
:10238000DFF8A01408603100DFF898040068FFF758
:10239000A4FE0A2835DA0A2000F0A4FE032001F08A
:1023A00025FC0600DFF880040660DFF848040068BA
:1023B000301ADFF844144843DFF82414096890FB0E
:1023C000F1F7DFF848040760DFF840040168DFF840
:1023D0005C0401F04FFADFF8240407600120DFF805
:1023E00034140870DFF8140400680A2190FBF1F13E
:1023F000DFF8280400F0A2F90320DFF804140870C5
:1024000003E00020DFF8F813087061E0DFF818043B
:102410000068B04217DADFF8100401683000FFF7F7
:102420005CFE0B2805DB00260420DFF8D4130870BF
:1024300009E000260021DFF8E80300F07FF903201F
:10244000DFF8BC13087043E0642000F04BFE03206B
:1024500001F0CCFBDFF8CC1308603100DFF8C403D7
:102460000068FFF73AFE0A2822DA0420DFF890130A
:102470000870032001F0BAFB06003400DFF8A8035F
:102480000068301ADFF870134843DFF85413096806
:1024900090FBF1F7DFF864030760DFF86003006882
:1024A0000A2190FBF1F1DFF8780300F047F903E02F
:1024B0000520DFF84C1308700AE0B44204DA042067
:1024C000DFF83C13087003E00320DFF834130870D2
:1024D0000020DFF81C1308800A2000F003FEDFF85C
:1024E0005003007802287FF47DAE0020DFF840130F
:1024F0000870DFF84003407801283FF46FAE0228EF
:1025000009D003282FD004286BD005287BD01028B1
:1025100000F08E8066E6DFF8200301F0ABF9DFF80B
:1025200014030079DFF80C13C978C0B2C9B20902EC
:1025300051EA0040DFF8FC128978084300900098C7
:1025400042F21071B0FBF1F201FB1200DFF8EC1265
:102550000860042001F04AFBDFF8981208600020B0
:10256000A04908703EE6032001F040FBA14909683C
:10257000401A4FF47A714843012806DBDFF8BC1299
:10258000096890FBF1F0964908609548006842F2AE
:10259000107190FBF1F0DFF8A81208709048006805
:1025A000642190FBF1F0642190FBF1F201FB120039
:1025B000A34948708A480068642190FBF1F201FB4E
:1025C00012009F4988704FF4005000F087FF0322EB
:1025D0004FF400519A4800F0D7FF9A4801F04AF9A9
:1025E00000E6994801F046F900208549087001206D
:1025F0007C4908700021894800F0A0F80021884833
:1026000000F09CF8EEE5914801F034F900207C4997
:10261000087000207F49087001207249087000216D
:102620007E4800F08BF800217D4800F087F8D9E55E
:10263000804800797F49C978C0B2C9B2090251EA1D
:1026400000407C4989780843009000980A2101FBEA
:1026500000F501206C490870002D02D100206A4964
:10266000087029007A4801F005F9BBE55348006875
:102670000068800661D57748006880B2F1280CD1E7
:1026800001206B490870012073490870F1206949E5
:102690000870C820714908704FE065490978012920
:1026A00041D16E49097800293DD062496A4A1278C1
:1026B000505469490978491C674A1170664909787C
:1026C0001E2906DB00206449087000205849087064
:1026D00033E080B2FF2830D156485F4909780818A6
:1026E00010F8020CFF2828D152485B4909780818D5
:1026F00010F8030C002820D14E48574909780818D3
:1027000010F8040CFF2818D14A48534909780818D2
:1027100010F8050CFF2810D1022045490870002050
:102720004D49087009E04D480078002805D1002087
:102730003F490870002048490870704730B589B09B
:1027400004000D006846202101F06EFB2B002200E2
:102750004349684601F06CFB00240AE06846E4B295
:10276000205C3C4908601548006800680006FAD5FE
:10277000641C6846FEF7D2FDE4B28442EED3FF202B
:10278000344908600D48006800680006FAD5FF204B
:10279000304908600948006800680006FAD5FF2043
:1027A0002C4908600548006800680006FAD509B0A1
:1027B00030BD000040380240007000408002002020
:1027C000080300200C030020FC4B00081840EF0019
:1027D000A84C00081403002018030020744D0008C2
:1027E000F802002028030020384D0008D44D0008CE
:1027F00024030020E8020020A0860100FC02002043
:102800002B0300204C4D000829030020EC0200207F
:10281000002002402A030020F0020020844D00081E
:10282000944D00080003002004030020604D0008C0
:1028300026030020C0020020F84D0008F40200200A
:1028400010030020004E0008E04D0008084E00086C
:10285000A44D0008044400402C030020270300205E
:10286000104E000838B5040000252078C0076FD549
:10287000DFF86406006810F00C0004280BD0DFF8C5
:102880005806006810F00C0008280ED1DFF84C063E
:102890000068400209D5DFF848060068800357D574
:1028A0006068002854D10120CFE16068B0F5803F16
:1028B00008D1DFF82C06006850F48030DFF82016CD
:1028C000086024E06068B0F5A02F10D1DFF8100692
:1028D000006850F48020DFF808160860DFF8000672
:1028E000006850F48030DFF8F81508600FE0DFF87A
:1028F000F005006830F48030DFF8E4150860DFF898
:10290000E005006830F48020DFF8D41508606068C6
:1029100000280ED000F0E3FB0500DFF8C4050068D6
:10292000800315D400F0DBFB401B6528F5D30320A2
:102930008BE100F0D4FB0500DFF8A40500688003FC
:1029400006D500F0CCFB401B6528F5D303207CE1C5
:10295000207880072BD5DFF88005006810F00C0F79
:102960000BD0DFF87405006810F00C00082837D190
:10297000DFF868050068400232D4DFF864050068BB
:10298000800704D5E068012801D001205DE1DFF86F
:10299000500500685FF0F851B1FA81F130F0F800AD
:1029A000226912FA01F10843DFF834150860207833
:1029B000000762D5606900284CD00120DFF824159B
:1029C000086000F08CFB0500DFF81C05006880073C
:1029D00053D400F084FB401B0328F5D3032034E1DB
:1029E000E068002823D00120DFF80015086000F01F
:1029F00076FB0500DFF8E8040068800706D400F0E5
:102A00006EFB401B0328F5D303201EE1DFF8D00442
:102A100000685FF0F851B1FA81F130F0F8002269F6
:102A200012FA01F10843DFF8B8140860BFE700208C
:102A3000DFF8B814086000F052FB0500DFF8A004CE
:102A400000688007B3D500F04AFB401B0328F5D38C
:102A50000320FAE00020DFF88C14086000F03FFB50
:102A60000500DFF884040068800706D500F037FB16
:102A7000401B0328F5D30320E7E0207840077CD5EE
:102A800000200090DFF86804006850F08050DFF804
:102A900060140860DFF85804006810F0805000905F
:102AA0000098DFF85004006850F48070DFF8441498
:102AB000086000F014FB0500DFF838040068C0056A
:102AC00006D400F00CFB401B0328F5D30320BCE028
:102AD000A068012808D1DFF82004006850F0010048
:102AE000DFF81414086023E0A068052810D1DFF88F
:102AF0000804006850F00400DFF8FC130860DFF8F9
:102B0000F803006850F00100DFF8EC1308600FE0F4
:102B1000DFF8E403006840084000DFF8DC130860D9
:102B2000DFF8D403006830F00400DFF8CC1308604D
:102B3000A068002810D000F0D2FA0500DFF8B80332
:102B40000068800719D400F0CAFA401B41F28931AD
:102B50008842F3D3032078E000F0C1FA0500DFF8E3
:102B600098030068800708D500F0B9FA401B41F2CD
:102B700089318842F3D3032067E0A069002863D03D
:102B8000DFF85403006810F00C0008285AD0A06940
:102B9000022844D10020DFF86413086000F09FFA97
:102BA0000500DFF83C030068800106D500F097FAC5
:102BB000401B0328F5D3032047E0DFF84403B0FAB5
:102BC00080F14FF44040B0FA80F2F020B0FA80F08B
:102BD000E369256A2B43656A15FA01F11943A36A73
:102BE0005B085B1E13FA02F21143E26A12FA00F06C
:102BF0000843DFF8E81208600120DFF800130860DE
:102C000000F06DFA0500DFF8D802006880011BD4DF
:102C100000F065FA401B0328F5D3032015E00020DF
:102C2000DFF8D812086000F05AFA0500DFF8B002A9
:102C30000068800108D500F052FA401B0328F5D344
:102C4000032002E0012000E0002032BD70B5040046
:102C50000D000026DFF8AC02006810F00F00A8425B
:102C60000BD2DFF8A0020570DFF89802006810F0C0
:102C70000F00A84201D00120C0E02078800709D5CC
:102C8000DFF85402006830F0F000A1680843DFF874
:102C9000481208602078C00772D56068012806D104
:102CA000DFF83C020068800315D40120A6E06068CC
:102CB000022802D06068032806D1DFF824020068E9
:102CC000800108D4012099E0DFF814020068800731
:102CD00001D4012092E0DFF8000200688008800043
:102CE00061680843DFF8F011086000F0F8F90600A9
:102CF000606801280FD1DFF8E001006810F00C00D7
:102D000004283DD000F0EBF9801B41F28931884264
:102D1000F1D3032072E0606802280FD1DFF8B80118
:102D2000006810F00C0008282AD000F0D8F9801BA9
:102D300041F289318842F1D303205FE060680328C3
:102D40000FD1DFF89401006810F00C000C2817D0A8
:102D500000F0C5F9801B41F289318842F1D303208C
:102D60004CE0DFF87401006810F00C0F08D000F0A0
:102D7000B6F9801B41F289318842F2D303203DE04D
:102D8000DFF88001006810F00F0085420BD2DFF8F9
:102D900074010570DFF86C01006810F00F00A842A4
:102DA00001D001202AE02078400707D54A48006872
:102DB00030F4E050E1680843474908602078000794
:102DC00008D54548006830F46040216950EAC100E8
:102DD0004149086000F017F83F4909685FF07062E8
:102DE000B2FA82F2484B11F0F001D140C95CC84000
:102DF00046490860002000F05AF9002070BD01200B
:102E0000434908607047002000200021002032481C
:102E1000006810F00C00002804D0042804D0082812
:102E200004D034E03B4833E03B4831E02B480068B5
:102E300010F03F002949096849020DD52749096862
:102E4000354AB2FBF0F047F6C07211402C4AB2FA94
:102E500082F2D14048430CE0204909682D4AB2FB78
:102E6000F0F047F6C0721140254AB2FA82F2D14022
:102E700048431A49096811F440314FF44042B2FA0C
:102E800082F2D140491C4900B0FBF1F000E021483A
:102E900070471E480068704780B5FFF7FAFF0E497B
:102EA00009685FF46012B2FA82F21C4B11F4E0512F
:102EB000D140C95CC84002BD80B5FFF7EAFF0649B2
:102EC00009685FF4E022B2FA82F2144B11F4604117
:102ED000D140C95CC84002BD0838024004380240F5
:102EE00000380240800E47427438024000004742DA
:102EF0004038024000700040703802406000474295
:102F00000000FE03003C0240B44D00083C010020DC
:102F10004C0047420024F40000127A00184E0008CA
:102F200010F00701484800684FF6FF021040474A7A
:102F300052EA01210843444908607047424800684A
:102F4000C0F302207047012110F01F029140404A57
:102F500040B2400942F82010704740B2002808D51E
:102F600009013C4A40B210F00F00801800F8041C20
:102F700003E00901384A40B28154704710B410F0A0
:102F80000700D0F10703052B01D3042301E0D0F1A2
:102F90000703041D072C01D2002000E0C01E0124FD
:102FA00014FA03F35B1E19408140012313FA00F069
:102FB000401E1040084310BC704780B5411EB1F15F
:102FC000807F01D301200EE0401E244908600F21BC
:102FD0005FF0FF30FFF7C1FF0020214908600720A4
:102FE00020490860002002BD80B5FFF799FF01BDB0
:102FF00070B504000D0016000020FFF79FFF32009F
:103000002900FFF7BBFF0100200040B2FFF7A5FF3A
:1030100070BD80B540B2FFF796FF01BD80B5FFF7E8
:10302000CCFF02BD042806D10E48006850F0040011
:103030000C49086005E00B48006830F004000949BD
:1030400008607047000000000CED00E00000FA0589
:1030500000E100E018ED00E000E400E014E000E032
:1030600018E000E010E000E080B500F001F801BDDC
:103070007047000080B52348006850F40070214973
:1030800008602048006850F480601E4908601D48B0
:10309000006850F480701B4908600320FFF7A4FF0C
:1030A000002000F004F800F0DDFE002002BD10B5A5
:1030B0000400154800684FF47A71B0FBF1F0FFF797
:1030C000ADFF002221005FF0FF30FFF791FF0020ED
:1030D00010BD0E480068401C0C49086070470B4842
:1030E0000068704731B5FFF7FAFF0400009D15F145
:1030F000010F00D06D1CFFF7F2FF001BA842FAD3AE
:1031000031BD0000003C02403C0100201C030020B7
:1031100000B587B000682E49884221D10020009078
:103120002C48006850F010002A49086029480068BF
:1031300010F01000009000984020019002200290B2
:1031400001200390032004900720059001A9224844
:1031500000F056FD8020019001A91F4800F050FDAD
:1031600007B000BD80B5002000901C48006850F0FA
:1031700002001A4908601948006810F00200009027
:1031800000981348164908605FF4E130144948601C
:1031900000201349886000201149C86000201049B0
:1031A00008610C200E49486100200D49886100200B
:1031B0000B49C8610A4800F08DFE01BD01B54FF60C
:1031C000FF7301226946064800F0BFFE009802BD69
:1031D00000100140443802400004024030380240F0
:1031E0004002002000B587B00020009034480068FD
:1031F00050F40030324908603148006810F4003063
:1032000000900098002000902E48006850F00800C0
:103210002C4908602B48006810F0080000900098C6
:1032200020200190022002900220049007200590A7
:1032300001A9254800F0E4FC402001900220029002
:10324000002003900720059001A91F4800F0D8FC3A
:1032500007B000BD80B5FFF7C5FF1C481C490860DA
:103260005FF4E1301A494860002019498860002065
:103270001749C8600020164908610C2014494861AC
:1032800000201349886100201149C861104800F0EE
:1032900021FE002201212620FFF7AAFE2620FFF7AB
:1032A000B8FE7FF020000A490968086008480068F5
:1032B000C06830F0200006490968C86001BD000000
:1032C0004038024030380240000C024000440040C8
:1032D0008002002000B587B0002000902C480068D4
:1032E00050F080002A4908602948006810F08000EA
:1032F00000900098002000902548006850F01000D1
:10330000234908602248006810F0100000900098DF
:10331000002000901E48006850F010001C49086012
:103320001B48006810F010000090009800224FF435
:103330000071184800F051FD00222021164800F0CD
:103340004CFD00224021144800F047FD4FF400706E
:103350000190012002900220049001A90D4800F084
:103360004FFC20200190012002900220049001A92E
:10337000094800F045FC4020019001200290022005
:10338000049001A9044800F03BFC07B000BD000018
:1033900030380240001C02400010024080B5DFF8C7
:1033A0006C04DFF86C1408604FF48270DFF860146E
:1033B00048600020DFF8581488600020DFF85014BF
:1033C000C8600220DFF8481408610120DFF84014CB
:1033D00048614FF40070DFF8381488610820DFF886
:1033E0003014C8610020DFF8281408620020DFF8DC
:1033F000201448620020DFF8181488620A20DFF8E1
:103400001014C862DFF8080400F0D2FF01BD00B557
:1034100087B00068DFF8F41388425DD10020009087
:10342000DFF8F003006850F48040DFF8E81308602C
:10343000DFF8E003006810F480400090009800205E
:103440000090DFF8D403006850F48070DFF8C813F0
:103450000860DFF8C403006810F4807000900098E2
:1034600000200090DFF8B003006850F00400DFF89F
:10347000A8130860DFF8A003006810F004000090B3
:1034800000980A200190022002900220049005205A
:10349000059001A9DFF8840300F0B2FB042001903D
:1034A00002200290002003900520059001A9DFF87A
:1034B000700300F0A5FB01220121DFF8600300F09A
:1034C0008CFC01200190012002900520059001A9AB
:1034D000DFF8480300F094FB07B000BD10B504000E
:1034E00000F06EF900F07BF900220121DFF82C03D7
:1034F00000F073FC202000F04DF9200CC0B200F069
:1035000049F9200AC0B200F045F92000C0B200F02D
:1035100041F901220121DFF8040300F05EFC00F014
:103520005EF910BD70B504000D00160000F048F9FA
:1035300000220121B94800F050FC022000F02AF9D5
:10354000280CC0B200F026F9280AC0B200F022F917
:103550002800C0B200F01EF9B6B2B6F5807F06DDD5
:103560004FF4807603E0207800F014F9641C3000FA
:10357000461E80B20028F6D101220121A74800F0A2
:103580002CFC00F02CF970BD2DE9F04105000C0079
:1035900000275FF000080020002600274FF480710C
:1035A000B4FBF1F000FB1140464292B24FF480713F
:1035B00092FBF1F792B24FF4807192FBF1F808FBA5
:1035C0001128C0B2002820D1FFB2002F0FD192B233
:1035D00021002800FFF7A6FF70E04FF48072210061
:1035E0002800FFF79FFF14F5807415F580753800EB
:1035F000471EC0B20028F0D15FFA88F8424692B266
:1036000021002800FFF78EFF58E0FFB2002F1FD1E6
:10361000F6B25FFA88F8464514D2B8EB0607F6B260
:10362000320092B221002800FFF77CFF54FA86F4A2
:10363000F6B27519FFB23A0092B221002800FFF7E6
:1036400071FF3BE092B221002800FFF76BFF35E0ED
:10365000F6B2921B92B24FF4807092FBF0F792B2E6
:103660004FF4807092FBF0F808FB1028F6B232009D
:1036700092B221002800FFF755FF54FA86F4F6B203
:10368000751909E04FF4807221002800FFF74AFF06
:1036900014F5807415F580753800471EC0B20028F7
:1036A000F0D15FFA88F8B8F1000F07D05FFA88F818
:1036B000424692B221002800FFF734FFBDE8F081B6
:1036C00070B504000D00160000220121534800F0DF
:1036D00084FB032000F05EF8280CC0B200F05AF81A
:1036E000280AC0B200F056F82800C0B200F052F824
:1036F00004E0FF2000F04EF82070641C3000461EED
:1037000080B20028F5D101220121444800F065FB78
:1037100070BD70B500200024002500260022012184
:103720003E4800F05AFB9F2000F034F8FF2000F0E4
:1037300031F80400FF2000F02DF80500FF2000F014
:1037400029F8060001220121344800F046FB280236
:1037500050EA0440304370BD10B50024002201211E
:103760002E4800F03AFBAB2000F014F8FF2000F0E8
:1037700011F8FF2000F00EF8FF2000F00BF8FF20FA
:1037800000F008F8040001220121244800F025FB84
:10379000200010BD00B583B08DF805007FF07F409C
:1037A0000090012301AA0DF10501194800F0D3FF93
:1037B000002802D0FF208DF804009DF804000EBD03
:1037C00080B500220121154800F007FB0620FFF715
:1037D000E1FF01220121114800F0FFFA01BD80B58F
:1037E0000020002201210D4800F0F7FA0520FFF724
:1037F000D1FFFF20FFF7CEFFC0B2C007F9D40122EE
:103800000121064800F0E9FA01BD0000003800403F
:103810004001002040380240303802400020024081
:103820000008024000B587B0002000900F480068F3
:1038300050F480700D4908600C48006810F48070E6
:103840000090009800224FF48061094800F0C5FA0A
:103850004FF480600190012002900020049001A9A3
:10386000034800F0CDF907B000BD00003038024039
:10387000002002400EB400B582B003A900910246B8
:103880006B460121034878440A30FCF77DFC06BCF6
:103890005DF810FB8314000000B587B00020009095
:1038A000DFF82003006850F48050DFF81813086038
:1038B000DFF81003006810F480500090009800209A
:1038C0000090DFF80403006850F00100DFF8F81200
:1038D0000860DFF8F402006810F001000090009822
:1038E00000200090DFF8E002006850F00400DFF8EC
:1038F000D8120860DFF8D002006810F004000090D1
:10390000009800200090B048006850F00200AE49D6
:103910000860AD48006810F0020000900098202078
:1039200001900220029000200390032004900520C3
:10393000059001A9A54800F063F93020019002200C
:10394000029000200390032004900520059001A917
:103950009F4800F055F94FF400500190012002906B
:10396000002003900020049001A99A4800F048F933
:1039700099489A4908604FF482709849486000203D
:103980009649886000209549C860022093490861E3
:103990000120924948614FF40070904988613820B5
:1039A0008E49C86100208D49086200208B49486219
:1039B00000208A49886207208849C862874800F049
:1039C000F7FC07B000BD12B583B0694600230024A0
:1039D00018C1083903A9130010F00700C0008DF8C2
:1039E000000005E008786C46DBB21855491C5B1EE8
:1039F000DBB2002BF6D17FF07F43D2B2521C92B2E1
:103A00006946764800F01BFD1FBD30B583B00C0041
:103A100001A900220A6000218DF800100025002174
:103A200010F00700C00050F040008DF800007FF05B
:103A30007F4301226946694800F001FD7FF07F4322
:103A4000E4B2220092B201A9644800F0C9FD00214D
:103A500006E0280201AAC9B28A5C50FA82F5491C24
:103A6000C9B2E4B2A142F4D328003EBD00B583B090
:103A700001208DF80000FF208DF80100FF208DF857
:103A80000200FF208DF80300FF208DF80400FF20C6
:103A90008DF80500FF208DF806007FF07F43072298
:103AA00069464E4800F0CBFC07BD10B5012400204C
:103AB000FFF7F2FEFFF7DAFF0120FFF713FB01210A
:103AC0000420FFF7A2FF10F00F00042800D000240C
:103AD0002000C0B210BD424842490968C90603D55A
:103AE0000100481E0029F7D1704710B504000020DE
:103AF000002103210220FFF788FF30F47F400121DD
:103B0000A140C9B250EA012103220220FFF75BFF66
:103B100010BD10B50400080000210021C0B280B221
:103B2000FFF7E3FF03210120FFF76FFF010031F4EE
:103B30006001E4B214F0070051EA40510322012071
:103B4000FFF741FFFFF7C7FF10BD38B504000D00B8
:103B50000020002103210220FFF757FF0009000188
:103B6000E4B250EAC400EDB215F00701084350F08A
:103B7000100103220220FFF726FF31BD80B500218E
:103B800000210420FFF7C5FF07210020FFF7DDFF1C
:103B900000210520FFF7BDFF0020FFF7A6FF124917
:103BA00003220120FFF70FFFFFF795FF03210320FA
:103BB000FFF72BFFFFF78FFF03210320FFF725FF00
:103BC00001BD00004438024030380240000002408D
:103BD000000402400008024000300140980100202B
:103BE000FFFF0F00100402408081080080B5002014
:103BF000FFF771FF03210320FFF707FF000902BD54
:103C000078B4002400230024002237E00825EDB218
:103C100012F00306F6B2B600B5402C43DFF8D051DF
:103C2000960845F82640DFF8CC4124689C434D684F
:103C3000ED0300D51C43DFF8BC512C60DFF8B84120
:103C400024689C434D68AD0300D51C43DFF8A851A0
:103C50002C60DFF8A84124689C434D68ED0200D534
:103C60001C43DFF898512C60654C24689C434D68D8
:103C7000AD0200D51C43624B1C60521C102A80F020
:103C8000AA80012313FA02F40B682340A342F4D163
:103C90004C68022C02D04C68122C15D1D40810EBC1
:103CA0008404246A0F2512F00706F6B2B600B54068
:103CB000AC430D6912F00706F6B2B600B5402C43CE
:103CC000D50810EB85052C62046803251600F6B2B2
:103CD0007600B540AC430D7915F003051600F6B239
:103CE0007600B5402C4304604C68012C08D04C6829
:103CF000022C05D04C68112C02D04C68122C17D124
:103D0000846803251600F6B27600B540AC43CD6852
:103D10001600F6B27600B5402C4384604468012555
:103D20009540AC434D68C5F3001595402C43446065
:103D3000C46803251600F6B27600B540AC438D6822
:103D40001600F6B27600B5402C43C4604C68E4001F
:103D500093D5002400942B4C246854F48044294DBE
:103D60002C60284C246814F480440094009C204C5F
:103D7000950854F825400F2512F00306F6B2B60058
:103D8000B540AC43204DA84201D100253FE71F4D6F
:103D9000A84201D101253AE71D4DA84201D10225D3
:103DA00035E71C4DA84201D1032530E71A4DA84242
:103DB00001D104252BE7194DA84201D1052526E79D
:103DC000174DA84201D1062521E7164DA8427FF4E0
:103DD0001DAF07251BE771BC704752B2002A02D005
:103DE00089B2816102E089B20904816170470000F3
:103DF00008380140003C0140043C0140083C0140BF
:103E00000C3C0140443802400000024000040240E3
:103E100000080240000C0240001002400014024062
:103E200000180240001C0240002200F003BE000007
:103E30000CB41CB5044604A801900A46009401ABDA
:103E40006946074878441830FCF79EF9009A00212B
:103E5000117000285CBF0098001B16BC5DF80CFBBD
:103E60009BD4FFFF80B50320FFF7BEF8002200219E
:103E70007FF00B00FFF7BCF8002200217FF00A0062
:103E8000FFF7B6F8002200217FF00900FFF7B0F835
:103E9000002200217FF00400FFF7AAF80022002191
:103EA0007FF00300FFF7A4F8002200217FF001005B
:103EB000FFF79EF8002200215FF0FF30FFF798F82F
:103EC000002200210520FFF793F80520FFF7A1F855
:103ED00001BD000010B50400002C01D1012033E029
:103EE000A0690028FFD194F83900002805D10020EE
:103EF00084F838002000FFF70BF9242084F83900FB
:103F00002068C06830F400502168C860200000F0CC
:103F1000C2F82068006930F4904021680861206888
:103F2000406930F02A00216848612068C06850F478
:103F300000502168C8600020E063202084F8390028
:103F4000202084F83A00002010BD2DE9F04182B015
:103F500004000D0016001F005FF0000894F83900FF
:103F600020285DD1002D02D0B6B2002E01D1012053
:103F700057E094F93800012801D1022051E00120D6
:103F800084F838000020E063212084F83900FFF72E
:103F9000A6F88046A684E68403E028782168486075
:103FA0006D1CE08C002828D0E08C401EE084A068C6
:103FB000B0F5805F16D10097434600228021200093
:103FC00000F031F8002801D003202AE02888C0053D
:103FD000C00D216848602069002801D1AD1CE0E7D0
:103FE0006D1CDEE70097434600228021200000F090
:103FF0001AF80028D1D0032013E00097434600228E
:104000004021200000F00FF8002801D0032008E034
:10401000202084F83900002084F83800002000E0D7
:104020000220BDE8F6812DE9F04104000D001600E4
:104030001F00DDF81880206800682840A84201D1E0
:10404000012000E0002076B2B04221D118F1010F2A
:10405000F1D0B8F1000F04D0FFF741F8C01B804544
:10406000E9D22068C06830F4D0702168C860206848
:1040700040694008400021684861202084F83900E8
:10408000202084F83A00002084F83800032000E063
:104090000020BDE8F0812DE9F041040000202068F7
:1040A000006930F44050E1680843216808612068E5
:1040B000C068BC490840A168226911436269114384
:1040C000E269114308432168C8602068406930F400
:1040D0004070A169084321684861E069B0F5004F6C
:1040E00040F0B0802068B049884203D02068AF49D2
:1040F000884253D1FEF7E0FE8046FEF7DDFE060063
:10410000FEF7DAFE0700FEF7D7FE0500FEF7D4FE45
:10411000192101FB08F162685200B1FBF2F164223F
:10412000B1FBF2F1192202FB06F263685B00B2FBFD
:10413000F3F2192303FB07F366687600B3FBF6F38B
:104140006426B3FBF6F3642606FB1322D200323258
:104150006423B2FBF3F212F0F802520012EB0111E9
:10416000192202FB05F263685B00B2FBF3F219232C
:10417000584363685B00B0FBF3F06423B0FBF3F0DB
:10418000642303FB1020C00032306422B0FBF2F045
:1041900010F0070040182168886000E1FEF77CFEFF
:1041A0008046FEF779FE0600FEF776FE0700FEF772
:1041B00073FE0500FEF770FE192101FB08F162682D
:1041C0005200B1FBF2F16422B1FBF2F1192202FBC1
:1041D00006F263685B00B2FBF3F2192303FB07F3FB
:1041E00066687600B3FBF6F36426B3FBF6F3642649
:1041F00006FB1322D20032326423B2FBF3F212F038
:10420000F802520012EB0111192202FB05F2636859
:104210005B00B2FBF3F21923584363685B00B0FB09
:10422000F3F06423B0FBF3F0642303FB1020C00021
:1042300032306422B0FBF2F010F007004018216821
:104240008860ACE020685849884203D0206857490C
:10425000884252D1FEF730FE8046FEF72DFE060062
:10426000FEF72AFE0700FEF727FE0500FEF724FEF4
:10427000192101FB08F162689200B1FBF2F164229E
:10428000B1FBF2F1192202FB06F263689B00B2FB5C
:10429000F3F2192303FB07F36668B600B3FBF6F3EA
:1042A0006426B3FBF6F3642606FB132212013232B6
:1042B0006423B2FBF3F212F0F00212EB01111922A7
:1042C00002FB05F263689B00B2FBF3F2192358432B
:1042D00063689B00B0FBF3F06423B0FBF3F064234E
:1042E00003FB1020000132306422B0FBF2F010F02A
:1042F0000F0040182168886051E0FEF7CDFD804630
:10430000FEF7CAFD0600FEF7C7FD0700FEF7C4FD75
:104310000500FEF7C1FD192101FB08F1626892005A
:10432000B1FBF2F16422B1FBF2F1192202FB06F2B9
:1043300063689B00B2FBF3F2192303FB07F3666883
:10434000B600B3FBF6F36426B3FBF6F3642606FB74
:104350001322120132326423B2FBF3F212F0F002A4
:1043600012EB0111192202FB05F263689B00B2FBFC
:10437000F3F21923584363689B00B0FBF3F0642306
:10438000B0FBF3F0642303FB102000013230642201
:10439000B0FBF2F010F00F00401821688860BDE813
:1043A000F0810000F369FFFF00100140001401409C
:1043B00010B50400002C01D101203FE0606A002804
:1043C0000020A06294F95100002805D1002084F853
:1043D00050002000FFF71BF8022084F851002068ED
:1043E000006830F04000216808606068A1680843F8
:1043F000E16808432169084361690843A16911F430
:1044000000710843E1690843216A0843A16A08432F
:1044100021680860A069000C10F00400616A08437C
:10442000216848602068C06930F400602168C86174
:1044300000206065012084F85100002010BD2DE9A6
:10444000F84304000E00170098465FF000090025AD
:1044500094F95000012801D10220BFE0012084F826
:104460005000FEF73CFE814694F95100012801D02E
:104470000225ABE0002E02D0BFB2002F01D10125F2
:10448000A4E0032084F85100002060652663A7861D
:10449000E7860020A0630020A0870020E08700209E
:1044A000606400202064A068B0F5004F05D120684A
:1044B000006850F480402168086020680068400669
:1044C00005D42068006850F0400021680860E0686A
:1044D000B0F5006F29D16068002802D0E08E012875
:1044E0000ED130882168C860B61CE08E401EE08680
:1044F00006E030882168C860B61CE08E401EE08669
:10450000E08E00283BD0206880688007F1D4B8F1A5
:10451000000F08D018F1010FF2D0FEF7E0FDB0EB6C
:1045200009004045ECD3032550E06068002802D024
:10453000E08E01280ED1307821680873761CE08E59
:10454000401EE08606E0307821680873761CE08E15
:10455000401EE086E08E002811D020688068800729
:10456000F1D4B8F1000F08D018F1010FF2D0FEF726
:10457000B6FDB0EB09004045ECD3032526E0CDF8AD
:104580000090434601220221200000F0EEF90028AD
:1045900001D003251AE04A464146200000F036FAD1
:1045A000002803D00125202060650FE0A0680028C6
:1045B00008D1002000902068C068009020688068C2
:1045C00000900098606D002800D00125012084F83B
:1045D0005100002084F85000280040B2BDE8F2836A
:1045E0002DE9F84304000D0016001F005FF00009DC
:1045F0005FF000086068B0F5827F0ED1A0680028E7
:104600000BD1042084F85100009733009BB22A009C
:104610002900200000F09FF89BE094F95000012849
:1046200001D1022095E0012084F85000FEF757FDEB
:10463000814694F95100012802D05FF0020880E021
:10464000002D02D0B6B2002E02D15FF0010878E052
:10465000042084F8510000206065A563A687E687E2
:10466000002020630020A0860020E0860020206437
:1046700000206064A068B0F5004F05D12068006894
:1046800030F480402168086020680068400605D446
:104690002068006850F0400021680860E068002849
:1046A00023D106E02068007B28706D1CE08F401E3F
:1046B000E087E08F00282DD020688068C007F1D403
:1046C000002F08D017F1010FF3D0FEF708FDB0EB73
:1046D0000900B842EDD35FF0030832E02068C068FB
:1046E0002880AD1CE08F401EE087E08F002811D0AD
:1046F00020688068C007F1D4002F08D017F1010F9F
:10470000F3D0FEF7ECFCB0EB0900B842EDD35FF05C
:10471000030816E06068B0F5827F0DD1A068B0F59F
:10472000004F03D0A068B0F5806F05D12068006805
:1047300030F0400021680860606D002801D05FF013
:104740000108012084F85100002084F85000404600
:1047500040B2BDE8F2832DE9F04782B004000E00BC
:1047600017009A46002000215FF000095FF0010861
:10477000002594F95000012801D10220F3E0012026
:1047800084F85000FEF7ABFC814694F95100616853
:10479000012809D0B1F5827F04D1A168002901D197
:1047A000042801D00225D6E0002E06D0002F04D028
:1047B0001FFA8AFABAF1000F01D10125CBE094F972
:1047C0005100012802D1052084F8510000206065C5
:1047D000A763A4F83EA0A4F83CA02663A4F836A0E2
:1047E000A4F834A0002020640020606420680068E1
:1047F000400605D42068006850F040002168086039
:10480000DDF828A0E068B0F5006F40D160680028AE
:1048100002D0E08E012806D130882168C860B61C1D
:10482000E08E401EE086E08E002802D1E08F002856
:104830006ED0B8F1000F0FD0E08E00280CD02068A9
:104840008068800708D530882168C860B61CE08E73
:10485000401EE0865FF00008E08F00280CD0206842
:104860008068C00708D52068C0683880BF1CE08F0A
:10487000401EE0875FF001081AF1010FD3D0FEF768
:104880002EFCB0EB09005045CDD3032563E06068F2
:10489000002802D0E08E012806D130782168087304
:1048A000761CE08E401EE086E08E002802D1E08F6C
:1048B00000282DD0B8F1000F0FD0E08E00280CD0CA
:1048C00020688068800708D5307821680873761CD6
:1048D000E08E401EE0865FF00008E08F00280CD0DC
:1048E00020688068C00708D52068C06838707F1CC1
:1048F000E08F401EE0875FF001081AF1010FD3D06E
:10490000FEF7EDFBB0EB09005045CDD3032522E0C7
:10491000CDF80090534601220221200000F025F836
:10492000002801D0032516E04A465146200000F039
:104930006DF8002803D00125202060650BE0A068F9
:10494000002808D1002000902068C06800902068EE
:10495000806800900098012084F85100002084F8BD
:104960005000280040B2BDE8F6872DE9F041040070
:104970000D0016001F00DDF81880206880682840B0
:10498000A84201D1012000E00020B0423BD017F145
:10499000010FF2D0002F05D0FEF7A1FBB0EB08000D
:1049A000B842EAD32068406830F0E00021684860EF
:1049B0006068B0F5827F0DD1A068B0F5004F03D0DC
:1049C000A068B0F5806F05D12068006830F0400025
:1049D00021680860A06AB0F5005F0CD1206800680B
:1049E0004DF6FF710840216808602068006850F4A7
:1049F000005021680860012084F85100002084F8EC
:104A00005000032000E00020BDE8F08110B582B026
:104A1000040000920B00002280212000FFF7A5FF78
:104A2000002805D0606D50F020006065032000E094
:104A3000002016BD00B500BF1300964694461039FD
:104A400028BFA0E80C50FAD85FEA417C28BF0CC010
:104A500048BF40F8042BC90728BF20F8022B48BFE5
:104A600000F8012B00BD816807E0026811685368F7
:104A700089185B18C36008320260C2689142F4D0A2
:104A80004A1C8260087870472DE9FF4D00F108014B
:104A9000009100270268520801EBC2010191B8465B
:104AA0000021029103910168490800EBC1014068AF
:104AB00000F0010501F10804400804EBC00630E0F5
:104AC0006846FFF7D0FF4FFA80FA0AE000980168C5
:104AD0000818009902904968081803900098083057
:104AE0000090029803998842F0D010F801BB029020
:104AF00047450CD1B44208BF00F01DF8276805B146
:104B00004F44606800EB070808344745F2D0BAF11B
:104B1000000F07F801BB0AD51AF1010AE8D1474591
:104B2000CED1B442CCD1304604B0BDE8F08DBAF15C
:104B3000010AD6D5F3E7012000F000B880B5C046E1
:104B4000C046024A11001820ABBEFBE72600020057
:104B50001248006850F4700010490860104800685E
:104B600050F001000E49086000200E4908600C4812
:104B700000680D4908400A4908600C480C49086063
:104B80000748006830F48020054908600020094982
:104B900008605FF0006008490860704788ED00E039
:104BA0000038024008380240FFFFF6FE10300024B3
:104BB000043802400C38024008ED00E019E050F8DB
:104BC000041BCB0744BFA9F101035918121F00238E
:104BD000042A41F8043BF9D25FEA827C0B4604D5F3
:104BE0004FF0000CA1F800C09B1CD10744BF00216E
:104BF000197050F8042B002AE1D17047466C61739C
:104C000068494420697320307825582C20204D6154
:104C10006E7566616374757265722044657669634A
:104C20006520494420697320307825580A00000027
:104C300010B5074979441831064C7C44163404E019
:104C40000A68081D511888470146A142F8D110BDD5
:104C50002C000000540000004EF68851CEF20001F6
:104C6000086840F470000860BFF34F8FBFF36F8F88
:104C70004FF00070E1EE100A7047000041FFFFFFA7
:104C8000F00100004001002000000000FDFDFFFFDA
:104C90000200000002000000C40200003300000017
:104CA0000000002040010000BCECB2E2B5BDBBAA90
:104CB000B0EEB4AED0D0666C617368205732355117
:104CC00031323820210A00007047FEE7FEE7FEE798
:104CD000FEE770477047704780B5FEF7FAF9FEF7B8
:104CE000C3F901BD7047000000F00BF8002801D0A7
:104CF000FFF79EFF0020C046C046FDF7F4F900F024
:104D000002F80120704700F001B80000074638465D
:104D1000FFF714FFFBE738B504460D46284600F0C0
:104D200005F8A84218BF0024204632BD0149FEF70D
:104D300045BA00BFFC000020BCECB2E2B5BD2020AB
:104D400041443731393020210A00000050726F632E
:104D50006573735F537465703D25640A000000003D
:104D60005265636F72645F776569676874313D256A
:104D7000640A0000526573756C745F646174613D10
:104D800025640A0070616765302E67726F73732E39
:104D900076616C0070616765302E6E65742E766189
:104DA0006C000000436F6D70615F76616C75653DEE
:104DB00025640A0000000000000000000102030456
:104DC000060708090148804701480047514B000881
:104DD000ED4D0008B5E7D7D3B3D3D0A3D7BC0A00B5
:104DE000D0A3D7BCCDEAB3C90A000000C046C04674
:104DF000FFF732FFFFF778FFB5DAD2BBB2BD0A008A
:104E0000B5DAB6FEB2BD0A00C7E5C1E30A0000008C
:104E100025733D256400000000000000010203042A
:104E2000FFF7FEBFFFF7FEBFFFF7FEBFFFF7FEBFB6
:104E3000FFF7FEBFFFF7FEBFFFF7FEBFFFF7FEBFA6
:104E4000FFF7FEBFFFF7FEBFFFF7FEBFFFF7FEBF96
:104E5000FFF7FEBFFFF7FEBFFFF7FEBFFFF7FEBF86
:104E6000FFF7FEBFFFF7FEBFFFF7FEBFFFF7FEBF76
:104E7000FFF7FEBFFFF7FEBFFFF7FEBFFFF7FEBF66
:104E8000FFF7FEBFFFF7FEBFFFF7FEBFFFF7FEBF56
:104E9000FFF7FEBFFFF7FEBFFFF7FEBFFFF7FEBF46
:104EA000FFF7FEBFFFF7FEBFFFF7FEBFFFF7FEBF36
:104EB000FFF7FEBFFFF7FEBFFFF7FEBFFFF7FEBF26
:104EC000FFF7FEBFFFF7FEBFFFF7FEBFFFF7FEBF16
:104ED000FFF7FEBFFFF7FEBFFFF7FEBFFFF7FEBF06
:104EE000FFF7FEBFFFF7FEBFFFF7FEBFFFF7FEBFF6
:104EF000FFF7FEBFFFF7FEBFFFF7FEBFFFF7FEBFE6
:104F0000FFF7FEBFFFF7FEBFFFF7FEBFFFF7FEBFD5
:104F1000FFF7FEBFFFF7FEBFFFF7FEBFFFF7FEBFC5
:104F2000FFF7FEBFFFF7FEBFFFF7FEBFFFF7FEBFB5
:104F3000FFF7FEBFFFF7FEBFFFF7FEBFFFF7FEBFA5
:104F4000FFF7FEBFFFF7FEBFFFF7FEBFFFF7FEBF95
:104F5000FFF7FEBFFFF7FEBFFFF7FEBFE400F8FF5D
:104F6000DC00FAFF8100D1001F02040101F0010002
:104F70002040020020F0010020F0010020F001009C
:0F4F8000203901002020010020DF000224F4006E
:0400000508004DEDB5
:00000001FF
