:020000040800F2
:10000000F81100209D010008B32000081D1F000802
:10001000B120000809090008D12A000800000000EA
:100020000000000000000000000000008B24000819
:100030000B09000800000000B52000088D2400080E
:10004000B7010008B7010008B7010008B7010008B0
:10005000B7010008B7200008B7010008B701000881
:10006000B7010008B7010008B7010008B701000890
:10007000B7010008B7010008B7010008B701000880
:10008000B7010008B7010008B7010008B701000870
:10009000B7010008B7010008B7010008B701000860
:1000A000B7010008B7010008B7010008B701000850
:1000B000B7010008B7010008B7010008B701000840
:1000C000B7010008B7010008B7010008B701000830
:1000D000B7010008B7010008312A0008B70100087D
:1000E000B7010008B7010008B7010008B701000810
:1000F000B7010008B7010008B7010008B701000800
:10010000B7010008B7010008B7010008B7010008EF
:10011000B7010008B7010008B7010008B7010008DF
:10012000B7010008B7010008B7010008B7010008CF
:10013000B7010008B7010008B7010008B7010008BF
:10014000B7010008B7010008B7010008B7010008AF
:10015000B7010008B7010008B7010008B70100089F
:10016000B7010008B7010008B7010008B70100088F
:10017000B7010008B7010008B7010008000000003F
:10018000B7010008B7010008DFF80CD000F050FA02
:100190000048004721340008F81100200648804735
:1001A00006480047FEE7FEE7FEE7FEE7FEE7FEE75C
:1001B000FEE7FEE7FEE7FEE73925000889010008B3
:1001C0002DE9F0410024061B254671F1000605DAF1
:1001D00001240027D0EB070067EB0101161E73F125
:1001E000000605DA0027D2EB0702012567EB0303BF
:1001F00000F034F886460E4617469C46AC4204D0C2
:100200000025D0EB050E65EB010624B10020D2EBF2
:10021000000760EB030C704631463A466346BDE882
:10022000F081421C10F8011B0029FBD1801A704795
:1002300030B50B46014600202022012409E021FAB6
:1002400002F59D4205D303FA02F5491B04FA02F5B3
:100250002844151EA2F10102F1DC30BD2DE9F05F4A
:100260000546002092469B46884606468146402425
:100270001BE0284641464746224600F0FAF953461D
:100280005A46C01A914110D311461846224600F032
:10029000E1F92D1A67EB01084F46224601200021A3
:1002A00000F0D8F917EB00094E41201EA4F101041B
:1002B000DFDC484631462A464346BDE8F09F2DE93B
:1002C000FE4F804681EA0300C00F0C46009021F0EB
:1002D000004123F00045B8EB0200A94105D2404699
:1002E000214690461C460B46024623F00040104330
:1002F00047D0270DC7F30A00C3F30A510290401AF2
:10030000019040286BDAC3F3130040F4801B00987F
:10031000924620B10023D2EB030A63EB0B0B01984A
:100320005946C0F14002504600F094F906460D4689
:1003300050465946019A00F0ACF910EB08006141B3
:10034000002487EA115284EAE7731A4340D0009AE6
:1003500062B3019A012A4FEA075215DC001B61EBD8
:1003600002014FF0004202EA0752CDE90042001CB0
:1003700041F5801132462B4600F0ACF903B0BDE8E0
:10038000F08F40462146F9E7001B61EB0201001C9B
:1003900041F5801300185B412018A2F5001747EBC8
:1003A000030140EAD570B6196D4111E06D084FEABE
:1003B000360645EAC0754FEA0752001B61EB0201A1
:1003C000001C41F5801149084FEA300000195141E5
:1003D00032462B4603B0BDE8F04F00F06CB90098F0
:1003E000012240000023D0EB020263EBE07300988F
:1003F00021464FEAE074B8EB000061EB0401E9E745
:1004000083F000435BE781F0004158E72DE9FE4FA0
:1004100081EA030404F0004421F0004100944FF00D
:10042000000B23F0004350EA01045ED052EA0304BB
:100430005BD0C3F30A54C1F30A552C44A4F2F3343D
:100440000194A0FB0254C1F3130141F48011C3F3E2
:10045000130343F4801301FB024400FB034E840AA0
:10046000970A44EA815447EA8357A4FB0768029538
:100470008D0A05FB07854FEA932C04FB0C542705D6
:10048000029D4FEA065847EA1637B5EB08056EEBB2
:10049000070C870E920E47EA811742EA8312A7FBE8
:1004A0000201B6EB0B0164EB00042B0D43EA0C33A5
:1004B0005E1844EB1C50DA465146E7FB0201C5F3D7
:1004C00013044FEA0B3343EA14534FEA0432019CFE
:1004D00043EA0603A4F10C040294009CCDE900B4A5
:1004E00000F0F8F803B0BDE8F08F00200146F9E70E
:1004F0002DE9F04D81EA030404F0004B21F00045A2
:1005000014464FF0000A23F0004150EA050220D0C3
:1005100054EA01021DD0C5F30A570246C5F313037E
:10052000C1F31300C1F30A5640F4801543F480135D
:10053000A7EB0608101BD64608F2FD3873EB050042
:1005400002D308F1010801E092185B41B8F1000FF5
:1005500003DA00200146BDE8F08D00204FF4801141
:10056000064684460EE0171B73EB050705D3121BE6
:1005700063EB050306434CEA010C49084FEA3000DF
:1005800092185B4150EA0107EDD152EA030012D004
:1005900082EA040083EA0501084305D0101BAB4141
:1005A00006D20122002306E000224FF0004302E0C1
:1005B0006FF0010253101AEB06004CEB085110EBE0
:1005C0000A0041EB0B01BDE8F04D00F074B8C1F337
:1005D0000A52C1F3130140F2FF3341F480119A42F1
:1005E00002DA00200146704740F233439A42A2F2F9
:1005F000334202DC524200F03CB800F02BB800005D
:1006000030B5041E71F1000404DB4FF00044404299
:1006100064EB0101141E73F1000405DB1C464FF06E
:100620000043524263EB0403994208BF904230BD3D
:10063000064C074D06E0E06840F0010394E807002F
:1006400098471034AC42F6D3FFF7A2FD644000088F
:1006500084400008202A04DB203A00FA02F100203E
:1006600070479140C2F1200320FA03F319439040F0
:100670007047202A04DB203A21FA02F0002170475B
:1006800021FA02F3D040C2F12002914008431946FA
:100690007047202A06DBCB17203A41FA02F043EAE2
:1006A000E07306E041FA02F3D040C2F1200291402B
:1006B00008431946704710B5141E73F1000408DA98
:1006C000401C41F1000192185B411A4301D120F016
:1006D000010010BD2DE9F04D92469B4611B1B1FAD3
:1006E00081F202E0B0FA80F220329046FFF7B2FFCA
:1006F00004460F4640EA0A0041EA0B0153465A46B7
:10070000084313D0114653EA010019D0C8F1400242
:100710005046FFF7AEFF05460E4650465946424644
:10072000FFF798FF084305D0012004E02046394632
:10073000BDE8F08D0020054346EAE0762C433743C0
:100740000A986305E40AA0EB08000022FD0A44EAC7
:1007500047540A3002D500200146E9E70105101987
:100760006941DDE9084500196941BDE8F04DA2E79E
:1007700010B50446084600F012F80321012000F0ED
:1007800021F820F4600004F0070140EA41510322FF
:10079000012000F089F8BDE8104000F0A7B810B5BE
:1007A00004460321022000F00DF820F47F400121CF
:1007B000A140C9B240EA01210322BDE81040022055
:1007C00000F072B870B582B00E460021019100258C
:1007D000002400F00700402141EAC00000906FF0C3
:1007E0007F43012269460B4800F095FF6FF07F437D
:1007F000324601A9074800F0DBFE002E07D901A808
:10080000015D01EB0525611CCCB2B442F8D302B006
:10081000284670BDC800002010B5012401F0CAFBB5
:1008200000F024F8012000F0B3F801210420FFF7C4
:10083000C9FF00F00F00042800D00024204610BD9E
:1008400070B504460D4603210220FFF7BBFF20F0E0
:100850000F0040EAC40005F00701084340F0100112
:10086000BDE870400322022000F01EB800B583B03E
:1008700001208DF80400FF208DF805008DF806009A
:100880008DF807008DF808008DF809008DF80A0032
:100890006FF07F43072201A9024800F03CFF03B03C
:1008A00000BD0000C800002007B582B00021009103
:1008B000019103AB11464007800E8DF8000000291E
:1008C00009D0684693F800C000F801C05B1C491EBF
:1008D000C9B20029F6D16FF07F43521C6946024825
:1008E00000F019FF05B000BDC8000020044805490C
:1008F0000A6812F0100F01D0401EF9D270470000B4
:10090000FFFF0F0010040240FEE7704710B58AB0E9
:1009100000201D490A6842F001020A60096801F0DE
:1009200001010091194C4FF0804121606060A0608E
:10093000421EE26020610322019202900122039292
:10094000049005900690079208900990486201A9CA
:10095000204601F0C3F821686FF0010008612068AB
:10096000016841F0040101602068C16841F00101A3
:10097000C160002211461C2000F0ACF91C2000F0E0
:100980009DF90AB010BD000040380240B8010020B7
:1009900031B500F023F90546009CB4F1FF3F00D0CB
:1009A000641C00F01BF9401BA042FAD338BD0000C4
:1009B0002DE9F84F0022DFF80082DFF80092DFF81F
:1009C00000A24FF0030E0F27012303FA02F50B6874
:1009D0002B40AB427DD1D1F804C0BCF1020F02D054
:1009E000BCF1120F12D14FEAD20C00EB8C0CDCF8E8
:1009F00020605407E40E07FA04FB26EA0B06D1F840
:100A000010B00BFA04F43443CCF8204006684FEAE7
:100A1000420C0EFA0CF4A64391F804B00BF0030B51
:100A20000BFA0CFB4BEA060606604E68012E05D059
:100A3000022E03D0112E01D0122E11D18668A643AA
:100A4000D1F80CB00BFA0CFB4BEA06068660466840
:100A500026EA05050E79C6F3001696403543456033
:100A6000C56825EA04048D6805FA0CFC4CEA040C00
:100A7000C0F80CC0D1F804C01CF0805F7DD0D8F85D
:100A800000C04CF4804CC8F800C0D8F800C00CF48A
:100A9000804CCDF800C022F0030C0CF1804404F52A
:100AA0009834D4F808C895072D0F07FA05F62CEAF4
:100AB0000606A0F1804CBCF5003C64D0A0F1804C4F
:100AC000BCF5013C62D0A0F1804CBCF5023C60D08A
:100AD00000E052E0A0F1804CBCF5033C5CD0A0F1FA
:100AE000804CBCF5043C5AD0A0F1804CBCF5053CD0
:100AF00058D0A0F1804CBCF5063C56D0A0F1804CFB
:100B0000BCF5073C54D04FF0080C0CFA05FC4CEA3D
:100B1000060CC4F808C8D9F800C02CEA030C4C68CD
:100B200014F4803F01D04CEA030CC9F800C0254CF6
:100B3000D4F800C02CEA030C4D6815F4003F01D036
:100B40004CEA030CC4F800C0DAF800C02CEA030C2D
:100B50004C6814F4801F01D04CEA030CCAF800C0A2
:100B6000194CD4F800C02CEA030C4D6815F4001F92
:100B700001D04CEA030CC4F800C0521C102AFFF448
:100B800023AFBDE8F88F4FF0000CBEE74FF0010C2B
:100B9000BBE74FF0020CB8E74FF0030CB5E74FF09E
:100BA000040CB2E74FF0050CAFE74FF0060CACE7D2
:100BB0004FF0070CA9E7000044380240003C014018
:100BC000083C0140043C01400C3C0140002A01D09B
:100BD0008161704709048161704700000148006825
:100BE000704700005C00002002480168491C016059
:100BF000704700005C00002010B50B48016841F40C
:100C000000710160016841F480610160016841F494
:100C100080710160032000F091F8002000F006F8D8
:100C200000F018F8002010BD003C024010B504464A
:100C300007484FF47A720068B0FBF2F000F036FF1C
:100C400000222146501E00F045F8002010BD000093
:100C50006000002010B5032000F070F8002211465B
:100C60006FF00B0000F036F8002211466FF00A001A
:100C700000F030F8002211466FF0090000F02AF869
:100C800000221146501F00F025F800221146101FC7
:100C900000F020F800221146901E00F01BF8002200
:100CA0001146501E00F016F800221146052000F0F3
:100CB00011F8BDE810400520AFF3008000F01F01DF
:100CC000012202FA01F14009800000F1E020C0F8A1
:100CD0000011704710B4184B1B68C3F30223C3F113
:100CE000070CBCF1040F01D94FF0040C1C1D072C9C
:100CF00001D2002300E0DB1E012404FA0CFCACF15D
:100D0000010C0CEA0101994004FA03F35B1E1A403E
:100D10001143002808DA00F00F0000F1E02009017B
:100D200080F8141D10BC704700F1E020090180F824
:100D3000001410BC704700000CED00E000F007004C
:100D4000064A11684FF6FF03194041EA002040F0BF
:100D5000FD7040F080601060704700000CED00E016
:100D60002DE9F05F04460E46DFF8D091D9F8000077
:100D7000F7B200F00F00B0420AD289F80070D9F83B
:100D8000000000F00F00B04202D00120BDE8F09F4B
:100D90002078DFF8AC8110F0020F07D0D8F80000FF
:100DA000A16820F0F0000843C8F80000207810F097
:100DB000010F51D060686349012808D002280DD086
:100DC00003280BD0096811F0020F2ED00AE0096841
:100DD00011F4003F06D10120BDE8F09F096811F031
:100DE000007F1FD0D8F8001021F003010843C8F895
:100DF0000000FFF7F3FE0546606841F2883A0128DB
:100E000016D0022829D003283CD0D8F8000010F0D2
:100E10000C0F51D0FFF7E2FE401B504547D903208D
:100E2000BDE8F09F0120BDE8F09F0120BDE8F09FE4
:100E3000D8F8000000F00C0004283DD0FFF7CEFEEB
:100E4000401B504502D90320BDE8F09FD8F80000B0
:100E500000F00C000428F1D12EE0D8F8000000F0DA
:100E60000C00082828D0FFF7B9FE401B504502D9D6
:100E70000320BDE8F09FD8F8000000F00C0008281F
:100E8000F1D119E0D8F800004FF00C0B3BEA00005C
:100E900012D0FFF7A3FE401B504502D90320BDE846
:100EA000F09FD8F800003BEA0000F2D104E0D8F847
:100EB000000010F00C0FADD1D9F8000000F00F00C9
:100EC000B0420AD989F80070D9F8000000F00F008C
:100ED000B04202D00120BDE8F09F207810F0040F4E
:100EE00007D0D8F80000E16820F4E0500843C8F8C3
:100EF0000000207810F0080F08D0D8F80000216911
:100F000020F4604040EAC100C8F8000000F058F842
:100F1000D8F80010F02292FAA2F201F0F001B2FA31
:100F200082F2D140084A515CC8400849086000205C
:100F3000FFF77CFE0020BDE8F09F0000003C02406F
:100F400008380240003802404C4000086000002091
:100F500001490120C8647047000047420148006809
:100F6000704700006000002000B5FFF7F7FF074959
:100F700009684FF4E05292FAA2F201F4E051B2FA99
:100F800082F2D140024A515CC84000BD083802409C
:100F90005C40000800B5FFF7E1FF074909684FF41E
:100FA000604292FAA2F201F46041B2FA82F2D140B8
:100FB000024A515CC84000BD083802405C4000084D
:100FC00010B41F48006810F00C011E481BD04FEAF7
:100FD000600C042916D0082915D11B4A116801F0AC
:100FE0003F01136813F4800F47F6C0730DD0BCFBAC
:100FF000F1F01168194093FAA3F3B3FA83F3D940DF
:1010000048430CE0604610BC7047B0FBF1F011683B
:10101000194093FAA3F3B3FA83F3D9404843116814
:101020004FF4403292FAA2F201F44031B2FA82F265
:10103000D140491C4900B0FBF1F010BC70470000E2
:10104000083802400024F400043802402DE9F84F2B
:101050000446DFF81C842078A8F1040710F0010F83
:10106000A7F1040560D0D8F8000000F00C000428B7
:1010700009D0D8F8000000F00C0008280DD138681D
:1010800010F4800F09D0286810F4003F4CD060683D
:10109000002849D10120BDE8F88F6068B0F5803F95
:1010A00014D0B0F5A02F16D0286820F48030286026
:1010B000286820F480202860606810B3FFF78EFD58
:1010C0000646286810F4003F0ED02DE0286840F452
:1010D00080302860F0E7286840F480202860286885
:1010E00040F480302860E7E7FFF778FD801B642834
:1010F00002D90320BDE8F88F286810F4003FF3D030
:1011000012E0FFF76BFD0646286810F4003F0BD095
:10111000FFF764FD801B642802D90320BDE8F88F27
:10112000286810F4003FF3D12078DFF8489310F0DE
:10113000020F4FF0000663D0D8F800004FF0F80B14
:1011400010F00C0F16D0D8F8000000F00C000828A2
:1011500003D1386810F4800F0CD0E068C8B30120C8
:10116000C9F80000FFF73AFD8246286810F0020F28
:1011700016D022E0286810F0020F05D0E0680128A0
:1011800002D00120BDE8F88F28689BFAABF22169F4
:10119000B2FA82F220F0F8009140084328602FE074
:1011A000FFF71CFDA0EB0A00022802D90320BDE8CE
:1011B000F88F286810F0020FF2D028689BFAABF283
:1011C0002169B2FA82F220F0F800914008432860C9
:1011D00016E0FFE7C9F80060FFF700FD82462868C7
:1011E00010F0020F0CD0FFF7F9FCA0EB0A00022868
:1011F00002D90320BDE8F88F286810F0020FF2D161
:10120000207810F0080F34D09B48DFF870B2616985
:10121000C1B101210160FFF7E1FC8246DBF800006B
:1012200010F0020F25D1FFF7D9FCA0EB0A0002282D
:1012300002D90320BDE8F88FDBF8000010F0020FA0
:10124000F1D016E00660FFF7C9FC8246DBF800002B
:1012500010F0020F0DD0FFF7C1FCA0EB0A0002282E
:1012600002D90320BDE8F88FDBF8000010F0020F70
:10127000F1D1207810F0040F43D08148016841F08B
:1012800080510160006800F080500090DFF8F4B1F8
:10129000DBF8000040F48070CBF80000FFF79EFC04
:1012A0008246DBF8000010F4807F0DD1FFF796FC3A
:1012B000A0EB0A00022802D90320BDE8F88FDBF872
:1012C000000010F4807FF1D0A068DFF8BCB10128E5
:1012D00018D005281DD0DBF8000020F00100CBF865
:1012E0000000DBF8000020F00400CBF80000A0684C
:1012F00068B3FFF773FC8246DBF8000010F0020FC2
:1013000014D03CE0DBF8000040F00100CBF8000016
:10131000EDE7DBF8000040F00400CBF80000DBF85C
:10132000000040F00100CBF80000E0E7FFF756FCBA
:10133000A0EB0A0141F28830814202D90320BDE8C6
:10134000F88FDBF8000010F0020FEFD017E0FFF786
:1013500045FC8246DBF8000010F0020F0FD0FFF7CB
:101360003DFCA0EB0A0141F28830814202D9032002
:10137000BDE8F88FDBF8000010F0020FEFD1A06994
:10138000F0B3D8F8001001F00C0108296CD0022845
:1013900010D0C9F86060FFF721FC0446286810F0FF
:1013A000007F5ED0FFF71AFC001B022855D90320EE
:1013B000BDE8F88FC9F86060FFF710FC06462868A2
:1013C00010F0007F0BD0FFF709FC801B022802D928
:1013D0000320BDE8F88F286810F0007FF3D1216A60
:1013E000E0694FF0FF3340EA010247F6C07191FA1D
:1013F000A1F1606AB1FA81F100FA01F1A06A00E09E
:101400002FE003EB50004FF4403393FAA3F3B3FA09
:1014100083F39840084310434FF0706292FAA2F2AF
:10142000E16AB2FA82F29140084338600120C9F8BB
:101430006000FFF7D3FB0446286810F0007F10D14E
:10144000FFF7CCFB001B022802D90320BDE8F88F70
:10145000286810F0007FF3D003E0286810F0007FC8
:10146000A0D10020BDE8F88F0120BDE8F88F000072
:101470000838024000004742800E4742743802405C
:1014800040380240007000407038024070B5044699
:10149000002C05D00025A56294F8510010B106E09B
:1014A000012070BD84F85050204600F031F8022031
:1014B00084F851002068016821F040010160A168B2
:1014C000606822690843E168114308436169084381
:1014D000218B01F400710843E1690843216A084344
:1014E000A16A084321680860A069042101EA10404C
:1014F000616A0843216848602068C16921F400617D
:10150000C1616565012084F85100002070BD0000B4
:10151000F0B587B00068A0F18041B1F560513CD1D1
:1015200000251F48016841F480410160006800F413
:10153000804001901B48016841F48071016001689E
:1015400001F480710191016841F0040101600068BB
:1015500000F0040001900A200290022403940594F4
:1015600005260696104F02A93846FFF721FA0420F7
:10157000029003940495069602A90C48FFF718FA06
:10158000012211463846FFF721FB01210291039108
:10159000069602A93846FFF70BFA07B0F0BD000027
:1015A000403802403038024000200240000802402B
:1015B0002DE9F84F04460D4692461E460027606806
:1015C0004FF0040BB0F5827F01D1A06888B194F888
:1015D0005000012818D0012084F85000FFF7FEFACF
:1015E000804694F851004FF0000901280FD00227DF
:1015F00089E084F851B053462A4629462046009691
:1016000000F050F9BDE8F88F0220BDE8F88FD5B1A1
:10161000BAF1000F17D084F851B0C4F85490A56304
:10162000A4F83CA0A4F83EA0C4F83090A4F83490EC
:10163000A4F83690C4F84090C4F84490A068B0F57F
:10164000004F02D006E001275DE02068016821F428
:10165000804101602068016811F0400F03D10168EA
:1016600041F040010160E06868B1E08F40B320685C
:10167000816811F0010F24D0C0682880AD1CE08F74
:10168000401EE08729E0E08FD0B12068816811F02A
:10169000010F06D0007B28706D1CE08F401EE08794
:1016A0000BE046B1B6F1FF3F07D0FFF797FAA0EB8A
:1016B0000800B04201D3032725E0E08F0028E4D1E1
:1016C0000EE046B1B6F1FF3F07D0FFF787FAA0EB77
:1016D0000800B04201D3032715E0E08F0028C6D1EF
:1016E0006068B0F5827F0BD1A068B0F5004F02D0E2
:1016F000B0F5806F04D12068016821F040010160DD
:10170000606D00B10127012084F8510084F85090E9
:101710003846BDE8F88F2DE9F84F04460D4693464C
:101720001E46002794F8500001280DD04FF0010A02
:1017300084F850A0FFF752FA804694F85100B94659
:10174000012804D00227A6E00220BDE8F88FDDB111
:10175000BBF1000F18D0032084F85100C4F8549056
:101760002563A4F834B0A4F836B0C4F83890A4F8CF
:101770003C90A4F83E90C4F84490C4F84090A0680F
:10178000B0F5004F02D006E0012784E02068016830
:1017900041F4804101602068016811F0400F03D1DD
:1017A000016841F040010160E068B0F5006F05D0CC
:1017B000606868B3E08E01282AD030E0606810B11C
:1017C000E08E012806D121682888C860AD1CE08E13
:1017D000401EE086E08E80B32068816811F0020F21
:1017E00006D02988C160AD1CE08E401EE0860BE06B
:1017F00046B1B6F1FF3F07D0FFF7F0F9A0EB0800C4
:10180000B04201D3032746E0E08E0028E4D124E073
:101810002168287808736D1CE08E401EE086E08EFB
:1018200058B12068816811F0020F07D02978017340
:101830006D1CE08E401EE0860CE00EE046B1B6F175
:10184000FF3F07D0FFF7CAF9A0EB0800B04201D371
:10185000032720E0E08E0028E3D133460122022155
:101860002046CDF8008000F0BBFD08B1032712E050
:1018700042463146204600F01FFC18B101272020C7
:10188000606508E0A06818B92068C16880680090A9
:10189000606D00B1012784F851A084F8509038465B
:1018A000BDE8F88F2DE9F84F0446DDF828800D4695
:1018B00016469B4601274FF0000994F85000012876
:1018C0000ED0012084F85000FFF788F9824694F882
:1018D0005100616801280ED0B1F5827F07D102E086
:1018E0000220BDE8F88FA16809B9042803D04FF0A1
:1018F000020900F0C3B845B13EB1BBF1000F04D0FE
:1019000094F85100012803D005E04FF00109B5E03B
:10191000052084F8510000206065A663A4F83EB05D
:10192000A4F83CB02563A4F836B0A4F834B0206421
:1019300060642068016811F0400F03D1016841F034
:1019400040010160E068B0F5006F05D06068C8B381
:10195000E08E01283ED06EE0606810B1E08E012874
:1019600031D121682888C860AD1CE08E401EE08619
:1019700029E06FB1E08E58B12068816811F0020F44
:1019800006D02988C160AD1CE08E401EE08600278D
:10199000E08F58B12068816811F0010F06D0C0684F
:1019A0003080B61CE08F401EE0870127B8F1FF3F72
:1019B00009D0FFF713F9A0EB0A00404503D34FF01D
:1019C00003095BE006E0E08E0028D2D1E08F00281A
:1019D000CFD136E02168287808736D1CE08E401E58
:1019E000E08628E06FB1E08E58B12068816811F080
:1019F000020F06D015F8011B0173E08E401EE08631
:101A00000027E08F58B12068816811F0010F06D0DF
:101A1000C06806F8010BE08F401EE0870127B8F18F
:101A2000FF3F08D0FFF7DAF8A0EB0A00404502D3E9
:101A30004FF0030922E0E08E0028D3D1E08F002888
:101A4000D0D14346012202212046CDF800A000F06B
:101A5000C7FC10B14FF0030910E052464146204642
:101A600000F02AFB20B14FF001092020606505E05D
:101A7000A06818B92068C16880680090012084F8C7
:101A80005100002084F850004846BDE8F88F4FF020
:101A9000E021042804D0086920F0040008617047A0
:101AA000086940F00400086170477047401EB0F1BB
:101AB000807F01D3012070474FF0E0214861044A44
:101AC000F020107000208861072008610020704716
:101AD00023ED00E010B5FFF7E8FF10BD70B5044638
:101AE0000D46002C03D094F8390010B107E0012016
:101AF00070BD002084F83800204600F04DF8022028
:101B000084F839002068816821F007018160211D77
:101B1000206800F03DFD206881688269036AD5F87D
:101B200000C04CEA010122F0030222F44072AE69C7
:101B3000D5F808C042EA06224CEA020222F00C0262
:101B400022F4406222F0F00222F47042EE69D5F8ED
:101B50000CC042EA06224CEA0202D5F810C02E6AF6
:101B60004FEA0C1C4CEA063C4CEA020223F022032A
:101B700023F08803D5F804C06D6943EA05134CEAE5
:101B8000030381602068826120680362012084F879
:101B90003900002070BD000030B587B00068B0F19A
:101BA000804F25D11348016841F0010101600168AF
:101BB00001F001010191016841F00201016000683A
:101BC00000F0020001904FF40040029002250395BE
:101BD00001240494069402A90748FEF7E9FE0820B0
:101BE000029003950494069402A90448FEF7E0FECF
:101BF00007B030BD3038024000000240000402400F
:101C000010B504460029206811D0042914D00122FF
:101C1000002100F021FD01220421206800F01CFDBC
:101C20002068016841F001010160002010BD01221F
:101C3000002100F011FDF3E70122042100F00CFD6A
:101C4000EEE770B50446002C04D094F83900002566
:101C500010B106E0012070BD84F83850204600F035
:101C600023F8242084F839002068C16821F4005149
:101C7000C160204600F0FEFC2068016921F490411B
:101C800001612068416921F02A0141612068C16831
:101C900041F40051C160E563202084F8390084F8E4
:101CA0003A00002070BD000000B587B00D498842A1
:101CB00016D10D48016841F002010160006800F092
:101CC00002000190C02002900220039001200490A5
:101CD000032005900720069002A90448FEF768FE3D
:101CE00007B000BD780100203038024000040240F7
:101CF0002DE9F84304460D4691461E4694F83900F6
:101D0000202802D00220BDE8F8834DB3B9F1000FBE
:101D100026D094F83800012825D0012084F8380016
:101D20000027E763212084F83900FEF757FF80463B
:101D3000A4F82490A4F82690E08CA0B3E08C401E78
:101D4000E084A068B0F5805F10D043460022802177
:101D50002046009600F030FEF0B10320BDE8F88385
:101D60000120BDE8F8830220BDE8F8834346002245
:101D700080212046009600F01FFE10B10320BDE830
:101D8000F88328882168C0F308004860206908B1FA
:101D90006D1C05E0AD1C03E0216815F8010B4860DF
:101DA000E08C0028CAD143460022402120460096FC
:101DB00000F002FE10B10320BDE8F883202084F873
:101DC000390084F838700020BDE8F883F0B587B09A
:101DD00000251448016841F400310160006800F4F6
:101DE000003001901048016841F00801016000686E
:101DF00000F0080001902020029002240394059432
:101E000007260696094F02A93846FEF7D1FD402164
:101E1000029103940495069602A93846FEF7C8FD80
:101E200007B0F0BD4038024030380240000C02409C
:101E300010B5FFF7CBFF124C104820604FF416503E
:101E400060600020A060E06020610C216161A06101
:101E5000E0612046FFF7F5FE002201212620FEF773
:101E600039FF2620FEF72AFF21686FF02000086066
:101E70002068C16821F02001C16010BD004400400D
:101E800088000020F0B589B04FF0000CCDF804C0F8
:101E9000CDF808C0CDF80CC0CDF810C0CDF814C0F6
:101EA000CDF818C0CDF81CC0CDF820C00B460246B6
:101EB00016A101A800F01EFE002401A8FEF7B1F94A
:101EC000144D154E00280ED901AF385D28603068DA
:101ED000016811F0800FFBD0601CC4B201A8FEF7AE
:101EE000A0F9A042F1D8FF222A603068016811F001
:101EF000800FFBD02A60016811F0800FFBD02A60B0
:101F0000016811F0800FFBD009B0F0BD25733D25AD
:101F1000640000000444004088000020FEE710B583
:101F2000002201212520FEF7D5FEBDE81040252026
:101F3000FEF7C4BE0C480B4901604FF4827141604A
:101F400000218160C16002220261012242615202CD
:101F500082610822C2610162416281620A21C1621A
:101F6000FFF794BA003800402001002008B5002196
:101F70000D48026842F010020260006800F0100094
:101F800000900B48094A02604FF4E13242608160E0
:101F9000C16001610C2242618161C161FFF751FEA4
:101FA000BDE80840FFF7BBBF4438024000100140C5
:101FB00078010020F0B587B000243548016841F46D
:101FC00080510160006800F4805001903148016840
:101FD00041F001010160016801F001010191016816
:101FE00041F004010160016801F004010191016800
:101FF00041F080010160016801F0800101910168F8
:1020000041F002010160006800F002000190202010
:10201000029002270397049403250595052606964A
:1020200002A91D48FEF7C4FC3020029003970494D7
:102030000595069602A91948FEF7BAFC38030290E6
:10204000012503950494059402A91548FEF7B0FCF8
:10205000A802029003950494059402A91148FEF782
:10206000A7FC1248104901604FF4827141608460FE
:10207000C46007614561690281613821C161046200
:10208000446284620721C162FFF700FA07B0F0BD25
:102090004438024030380240000002400004024050
:1020A00000080240001C024000300140C80000202F
:1020B000FEE770477047704738B504460B460092FC
:1020C00000228021204600F08BF928B1606D40F09D
:1020D00020006065032038BD002038BD2DE9F041A7
:1020E00005460C461746134E002201213046FEF7E6
:1020F0006DFD032000F030F9C4F3074000F02CF927
:10210000C4F3072000F028F9E0B200F025F9781EAA
:1021100084B207D3FF2000F01FF928706D1C611EE8
:102120008CB2F7D23046BDE8F04101221146FEF7ED
:102130004DBD0000002002402DE9F04706460C4648
:10214000E1B2C1F58070C5B2100AD7B200292FD014
:10215000E1B2C1F58071C9B204EB010A002844D094
:10216000501B80B24FEA102900F0FF082A46214692
:10217000304600F053F857463544B9F10100C4B277
:102180000CD34FF480723946284600F047F807F523
:10219000807705F58075611ECCB2F2D2B8F1000FE0
:1021A00039D0424639462846BDE8F04700F036B8F7
:1021B000A8B1401EC5B24FF480722146304600F0EF
:1021C0002DF804F5807406F58076691ECDB2F2D242
:1021D0003A4621463046BDE8F04700F01FB8214698
:1021E0003046BDE8F04700F019B8AF420DD9781B72
:1021F000C7B22A462146304600F010F870193A4618
:102200005146BDE8F04700F009B821463046BDE828
:10221000F04700F003B8BDE8F08700002DE9F04179
:1022200005460C46164600F0C7F8154F002201215E
:102230003846FEF7CBFC022000F08EF8C4F30740CE
:1022400000F08AF8C4F3072000F086F8E0B200F04E
:1022500083F8B6F5807F00D9BE15701E84B206D310
:10226000287800F079F86D1C611E8CB2F8D201223A
:1022700011463846FEF7AAFCBDE8F04100F082B8EE
:102280000020024070B50E4C002201212046FEF7CE
:102290009DFCAB2000F060F8FF2000F05DF8FF200F
:1022A00000F05AF8FF2000F057F8FF2000F054F833
:1022B0000546012211462046FEF788FC284670BDDF
:1022C000002002402DE9F0410F4F00220121384645
:1022D000FEF77CFC9F2000F03FF8FF2000F03CF868
:1022E0000446FF2000F038F80546FF2000F034F8DF
:1022F0000646012211463846FEF768FC200440EAF3
:1023000005203043BDE8F0810020024070B504464E
:1023100000F052F800F036F80E4D00220121284658
:10232000FEF754FC202000F017F8C4F3074000F03B
:1023300013F8C4F3072000F00FF8E0B200F00CF837
:10234000012211462846FEF741FCBDE8704000F02E
:1023500019B800000020024000B583B001906FF072
:102360007F400090012302AA01A90548FFF79AFACD
:1023700008B1FF2002909DF8080003B000BD0000E6
:102380002001002010B50B4C002201212046FEF751
:102390001DFC0520FFF7E0FFFF20FFF7DDFF10F039
:1023A000010FF9D120460122BDE810401146FEF789
:1023B0000DBC00000020024010B5084C0022012195
:1023C0002046FEF703FC0620FFF7C6FF2046012249
:1023D000BDE810401146FEF7F9BB000000200240A6
:1023E0002DE9F0410446069E884617461D462068A2
:1023F000806838EA000015D00020B84240D0B5F11E
:10240000FF3F35D025B1FEF7E9FB801BA8422FD353
:102410002068416821F0E00141606068B0F5827F8A
:1024200002D00DE00120E8E7A068B0F5004F02D02F
:10243000B0F5806F04D12068016821F0400101608F
:10244000A06AB0F5005F0AD1206801684DF6FF72FE
:10245000114001602068016841F4005101600120D1
:1024600084F85100002084F850000320BDE8F0817A
:102470002068806838EA000005D00020B842BED14C
:102480000020BDE8F0810120F8E7704710B5FEF7A5
:10249000ABFBBDE81040FFF71DBB000030B593B0AB
:1024A00000252348016841F080510160006800F078
:1024B000805000901F48016841F48041016000682D
:1024C00000F4804000900120069000040790022450
:1024D0000C9480010D9008200E904FF4A8700F907E
:1024E00010940720119006A8FEF7B0FD0F20019070
:1024F000029403954FF4A0500490E002059005214A
:1025000001A8FEF72DFCFEF723FDFEF727FD4FF493
:102510007A71B0FBF1F0FFF7C9FA0420FFF7B7FAC0
:1025200000221146501EFEF7D5FB13B030BD00004F
:1025300040380240007000400F48016841F47001CB
:1025400001600E48016841F0010101600C4A002160
:102550001160026822F4102222F080720260031DD2
:10256000084A1A60026822F480220260064801606C
:10257000064958060860704788ED00E000380240C0
:1025800008380240103000240C38024008ED00E00A
:10259000F0B402682B4BDFF8B0C02C4D2C4E2D4C04
:1025A00098420AD0B0F1804F07D0604505D0A842CC
:1025B00003D0B04201D0A04203D122F070024F6894
:1025C0003A43984228D0B0F1804F25D0604523D0BF
:1025D000A84221D0B0421FD0A0421DD0A0F1804C13
:1025E000BCF5A03C18D0A0F1804CBCF5A23C13D0A7
:1025F000A0F1804CBCF5A43C0ED0A0F1804CBCF501
:10260000C05C09D0A0F1804CBCF5E05C04D0A0F126
:10261000804CBCF5005C05D122F44072D1F80CC0AE
:102620004CEA020202608A68C2620A6882629842C8
:1026300001D0A04201D10969016301214161F0BCCF
:102640007047000000000140000400400008004006
:10265000000C00400004014001238B40D0F820C052
:102660002CEA03030362036A02FA01F119430162CF
:10267000704700002DE9F04104462068016921F40B
:102680004051E268114301612068C16821F403717F
:1026900021F414412369A268D4F81CC01A43636969
:1026A00043EA0C031A431143C1602068416921F4D5
:1026B0004071A26911434161E069BC4ABC49BD4D0A
:1026C0003226B0F5004F5ED02068884202D090429A
:1026D00040F01281FEF75EFC00EBC00101EB001040
:1026E00061688900B0FBF1F7FEF754FC00EBC00114
:1026F00001EB001061688900B0FBF1F0A5FB001050
:1027000040096FF01801484307EB800006EB00100A
:10271000A5FB0010400900F0F007FEF73BFC00EBC2
:10272000C00101EB001061688900B0FBF1F0A5FB6E
:102730000010400907EB0017FEF72CFC00EBC0016E
:1027400001EB001061688900B0FBF1F8FEF722FC94
:1027500000EBC00101EB001061688900B0FBF1F0F3
:10276000A5FB001040096FF01801484308EB8000FA
:1027700006EB0010A5FB00102168C0F3431038449D
:102780008860BDE8F0812068884201D0904259D12C
:10279000FEF700FC00EBC00101EB0010616849008E
:1027A000B0FBF1F0A5FB001040090701FEF7F2FBBA
:1027B00000EBC00101EB001061684900B0FBF1F8CB
:1027C000FEF7E8FB00EBC00101EB00106168490077
:1027D000B0FBF1F0A5FB001040096FF01801484371
:1027E00008EB800006EBC000A5FB0010400900F0DC
:1027F000F80007EB4007FEF7CDFB00EBC00101EB53
:10280000001061684900B0FBF1F8FEF7C3FB00EB74
:10281000C00101EB001061684900B0FBF1F0A5FBBD
:10282000001040096FF01801484308EB800006EBE8
:10283000C000A5FB00102168C0F342103844886036
:10284000BDE8F081FEF790FB00EBC00101EB00104A
:1028500061684900B0FBF1F0A5FB001040090701D9
:10286000FEF782FB00EBC00101EB0010616849003C
:10287000B0FBF1F8FEF778FB00EBC00101EB0010B4
:1028800061684900B0FBF1F0A5FB001040096FF052
:102890001801484308EB800006EBC000A5FB0010C0
:1028A000400900F0F80007EB4007FEF75DFB00EB86
:1028B000C00101EB001061684900B0FBF1F8FEF7C0
:1028C00053FB00EBC00101EB001061684900B0FB55
:1028D000F1F0A5FB001040096FF01801484308EB28
:1028E000800006EBC000A5FB00102168C0F3421079
:1028F00038448860BDE8F081FEF736FB00EBC0018C
:1029000001EB001061688900B0FBF1F7FEF72CFBCA
:1029100000EBC00101EB001061688900B0FBF1F031
:10292000A5FB001040096FF01801484307EB800039
:1029300006EB0010A5FB0010400900F0F007FEF7C1
:1029400013FB00EBC00101EB001061688900B0FBD4
:10295000F1F0A5FB0010400907EB0017FEF704FBA0
:1029600000EBC00101EB001061688900B0FBF1F8D9
:10297000FEF7FAFA00EBC00101EB00106168890074
:10298000B0FBF1F0A5FB001040096FF018014843BF
:1029900008EB800006EB0010A5FB00102168C0F3D7
:1029A000431038448860BDE8F08100000014014005
:1029B000001001401F85EB512DE9F0410446069DB2
:1029C000884617461E462068006838EA000020D076
:1029D0000020B84227D1B5F1FF3F1CD025B1FEF74A
:1029E000FDF8801BA84216D92068C16821F4D07177
:1029F000C1602068416921F001014161202084F813
:102A0000390084F83A00002084F838000320BDE83B
:102A1000F0810120DDE72068006838EA000005D079
:102A20000020B842D7D00020BDE8F0810120F8E7AF
:102A300023480068006810F0200F14D02148006877
:102A400080B2DFF884C0214AF12804D01178002335
:102A5000012909D02DE0012010705072F1208CF86E
:102A60000000C82090727047917A11B3517A0CF827
:102A70000100491CC9B251721E2902D3537213704E
:102A80007047FF28FCD10CEB010010F8021CFF2955
:102A9000F6D110F8031C0029F2D110F8041CFF290C
:102AA000EED110F8050CFF28EAD102201070537205
:102AB0007047907A0028FBD1137053727047000062
:102AC000880000200444004068000020000000202E
:102AD000FEE700000FB4054B10B503A9044A0298A5
:102AE00000F0EEF810BC5DF814FB0000F9330008AC
:102AF000640000200FB4084B10B504A902AA039883
:102B000000F0DEF8044602A9002000F070FC204628
:102B100010BC5DF814FB0000EF33000802E008C8A9
:102B2000121F08C1002AFAD170477047002001E047
:102B300001C1121F002AFBD1704700002DE9FF5F81
:102B400082B00021DDE90430020DDDF840B003431E
:102B500018D044F61050A2F2FF32424315141198D7
:102B600001281FD0A5EB0B00401C5FEA000A4FF0C4
:102B700000064E4FDFF83891B046504615D5CAF1E1
:102B8000000413E0119801244AA3012801D16FEA3F
:102B90000B010298119AC0E90031C0E9024206B067
:102BA000BDE8F09FCBF10000DFE704460021404A7A
:102BB000491842EB0450CDE9001012E0E00707D0BD
:102BC00032463B4640464946FDF720FC8046894652
:102BD00032463B4610461946FDF718FC06460F469E
:102BE0006410002CEAD1DDE90401DDE90023BAF12B
:102BF000000F06DAFDF70AFC42464B46FDF706FCDD
:102C000005E0FDF775FC42464B46FDF771FC0446B6
:102C10000E460022284BFDF7F3FC03D84FF0FF309F
:102C2000014607E00022254B20463146FDF747FBD1
:102C3000FDF7CDFC102409E0002C0ADB0A2200235A
:102C4000FDF70CFB039B30321A55641E50EA01025B
:102C5000F2D1641C039AC4F111031444119A012A9D
:102C600003D0012208430DD10AE0084304D000201C
:102C70004FF0110B119072E7A3EB0B056D1E0DE0E9
:102C80005B4504DD4FF0000205F1010504E003DAC5
:102C90004FF00002A5F10105002AECD0029811992D
:102CA000C0E90231C0E9004579E7000000001440A6
:102CB0000000F03F300000000000F0430000E03F63
:102CC0002DE9FF4F95B09B468946064600250FE249
:102CD000252877D100242746F84A0121059400E0F1
:102CE000044316F8013F203B01FA03F01042F7D1EC
:102CF00030782A2811D06FF02F033078A0F13002FD
:102D0000092A16D8059A44F0020402EB820203EB6A
:102D100042021044761C0590EFE759F8042B059207
:102D2000002A03DA504244F40054059044F00204AF
:102D3000761C30782E2816D116F8010F44F00404C2
:102D40002A280DD06FF02F023078A0F13003092B24
:102D500009D807EB870302EB4303C718761CF3E798
:102D600059F8047B761C30786C280FD006DC4C2890
:102D700017D068280DD06A2814D104E0742810D028
:102D80007A280FD10DE044F400140AE044F48014D2
:102D900001E044F440147278824202D104F58014B8
:102DA000761C761C307866280BD013DC582877D038
:102DB00009DC002875D04528F6D04628F4D04728ED
:102DC0001AD19DE118E0632835D0642879D06528B0
:102DD00012D195E1702873D008DC6728F1D06928FA
:102DE0006FD06E280DD06F2806D1B5E073282CD097
:102DF000752875D0782874D05A46179990476D1C5D
:102E000075E1C4F30250022809D003280DD0D9F887
:102E1000001004280DD00D6009F1040967E1D9F80C
:102E20000010EA17C1E90052F6E7D9F800100D804A
:102E3000F2E70D70F0E719F8041B8DF80010002080
:102E40008DF80100EA46012003E059F804AB4FF089
:102E5000FF3061074FF0000102D40DE008F10101DD
:102E60008846B9420FDA8045F8DB1AF808100029C5
:102E7000F4D108E008F1010188468142FADB1AF832
:102E800008100029F6D105985B46A0EB08072146FB
:102E90003846179A00F094FA284400EB080507E03A
:102EA0004DE029E10DE01AF8010B5A4617999047B9
:102EB000B8F10108F7D25B4621463846179A13E16C
:102EC00042E00A220092C4F302524FF0000A022AA2
:102ED00008D059F804CB032A4FEAEC710AD00DE070
:102EE00029E02AE009F1070121F00702F2E802C116
:102EF000914609E00FFA8CFC4FEAEC71042A03D1E9
:102F00004FFA8CFC4FEAEC71002907DA0A460021DF
:102F1000DCF1000C61EB02012D2202E0220504D558
:102F20002B228DF80420012203E0E20701D02022A9
:102F3000F7E7904659E00A2102E010220DE0102147
:102F40004FF0000A00910BE010224FF0000A44F00D
:102F500004040827009203E008224FF0000A0092C0
:102F6000C4F30252022A05D059F804CB0021032AE7
:102F700008D009E009F1070121F00702F2E802C1D7
:102F8000914605E01FFA8CFC042A01D10CF0FF0CDD
:102F90004FF00008220728D5702806D0009B83F048
:102FA000100353EA0A0305D00EE040228DF80420F6
:102FB000012208E05CEA010206D030228DF80420EC
:102FC0008DF8050002229046009B83F0080353EA27
:102FD0000A030AD15CEA010201D1620705D5302259
:102FE0008DF804204FF001087F1E582804D034A02B
:102FF00003900EA802900DE036A0F9E75346604614
:10300000009AFDF72BF984460398825C0298401ED3
:10301000029002705CEA0100F0D1029806A9081A39
:1030200000F1200A600702D524F4803400E0012773
:10303000574502DDA7EB0A0000E0002000EB0A0183
:10304000009005984144401A0590E00306D45B4681
:103050002146179A059800F0B3F90544002706E0C9
:1030600001A85A46C05D179990476D1C7F1C4745C3
:10307000F6DBE0030CD55B462146179A059800F075
:103080009FF9054404E030205A46179990476D1C7B
:103090000099481E00900029F5DC08E0029802998A
:1030A0005A460078491C0291179990476D1CBAF155
:1030B0000001AAF1010AF1DC65E100000928010024
:1030C000303132333435363738396162636465669E
:1030D0000000000030313233343536373839414260
:1030E000434445460000000000F058F90544761CB2
:1030F000307800287FF4ECAD19B02846BDE8F08F99
:10310000620700D4062709F1070222F0070CFCE849
:103110000223E14603F000485FEA080C02D00FF2F8
:10312000702C0DE05FEA045C02D50FF2682C07E01A
:103130005FEAC47C02D00FF2602C01E0AFF2700CA9
:103140004FF0FF3823F00043CDF850C065280CD075
:1031500006DC452809D046281DD047283DD13DE052
:10316000662818D067287ED138E00021112F01DBB6
:10317000112000E0781CCDE9000106A90EA8FFF798
:10318000DDFCDDE90F010E9A03910021009207F1A9
:10319000010A04914DE04FF000400097CDE9011085
:1031A00006A90EA8FFF7CAFCDDE90F0203920E9BE9
:1031B00011990022DDF80CA00093049211B9791C3A
:1031C00000EB010AB7EB0A0004D4C0F1FF3007F1AD
:1031D000010A0490AAEB0700019044E0012F00DAF5
:1031E00001270021112F01DD112000E03846CDE933
:1031F000000106A90EA8FFF7A1FCDDE90F010E9A58
:103200000391002104910092BA4621070CD403993E
:10321000514500DA8A46BAF1010F05DD009AAAF19C
:103220000101515C302908D0B84202DA10F1040FD4
:1032300006DA0121CDE9011015E0AAF10101E9E763
:10324000002805DC049901440491AAEB000102E086
:10325000411C514500DD8A460499401A401C0190EA
:103260004FF000400290200704D40198504501DB44
:10327000CDF8048000208DF84F0002980DF14F0723
:10328000B0F1004F25D02B200E9002984FF002088D
:1032900000280CDA404202902D200E9007E00A210F
:1032A0000298FCF7C5FF3031029007F8011DB8F114
:1032B0000001A8F10108F2DC02980028EFD1791E84
:1032C0000E980870307800F0200040F0450007F8B4
:1032D000020D12A8C01B00F107081498007800B175
:1032E000012000EB0A01019801EBE07105984144CF
:1032F000401A401E0590E00306D45B462146179A0B
:10330000059800F05DF805441498007818B15A4605
:10331000179990476D1CE00324D55B462146179A08
:10332000059800F04DF805441CE00498002807DBE0
:10333000DDE90301884203DD0098405C179901E054
:10334000179930205A469047049805F10105401C12
:1033500004900198401E019004D12E205A461799DE
:1033600090476D1CBAF10001AAF1010ADDDC05E00D
:1033700017F8010B5A46179990476D1CB8F10001D8
:10338000A8F10108F4DC5B462146179A0598ABE6E4
:103390002D0000002B000000200000002DE9F0416E
:1033A000044600251E461746880404D405E0394625
:1033B0002020B0476D1C641EF9D52846BDE8F08179
:1033C0002DE9F041044600251E469046C80301D56C
:1033D000302700E02027880404D505E04146384620
:1033E000B0476D1C641EF9D52846BDE8F0810A6817
:1033F000531C0B601070704713B54FF6FF7301221A
:1034000069460348FEF774FC009802B010BD000046
:1034100078010020884201DD401A7047081A704781
:1034200082B0FDF7E9FBFFF739F8FEF79FFDFEF7E5
:10343000FFFCF6480068C16841F02001C160FEF75A
:1034400079FDFDF763FA1821F148FEF7D9FBF1A0E9
:10345000FFF740FBFEF716FFDFF8E0A3CAF83400E1
:103460006420FDF795FAFEF72DFFCAF838000146F3
:10347000F3A0DAF83420FFF72DFBFE49DAF8380024
:103480004FF0010988422AD1FBA0FFF723FB03225A
:103490004FF400510AF10E00FEF720FE0AF10E0172
:1034A00042F21072087810FB02F24878897800EB3B
:1034B000C00303EB001002EB80000144CAF83C108B
:1034C000F5A0FFF707FBDAF83C00A0F5EE4157390D
:1034D000B1F5C77F03D8CAF81C008AF80390FDF73E
:1034E0009BF910B1F0A0FFF7F5FA4FF0020B4FF087
:1034F000000800F01BBDF14800689AF8030001289D
:1035000005D09AF8030002280AD000F0CABA0420B5
:1035100000F03AFDCAF814008AF803B000F0C1BA0E
:10352000012000F031FD45460446DAF81400211A66
:1035300065EBE0721346E24A4FF0000CA1FB020675
:1035400003FB026201FB0C21DAF81C204FEAE27354
:10355000FCF736FE0646CAF85060DAF850104FF411
:103560007A7091FBF0F1D7A0FFF7B4FA9AF8071040
:10357000D8A0FFF7AFFA9AF8040001280ED1DAF8C4
:103580005000DAF81810401AB84207DB0321D7A020
:10359000FEF778FC40F6B830FDF7FAF99AF8050026
:1035A00001281AD1DAF84400DAF85010401ACAF8A3
:1035B0004800DAF848000F280FDDCAF84480CAF83E
:1035C00048808AF805808AF807800021CBA0FEF7A2
:1035D00059FC0021CEA0FEF755FC9AF807000728F9
:1035E00080F05F82DFE800F004172A749CBEFE00C2
:1035F000DAF81400C117001B71EB050003DA8AF832
:10360000079000F04EBA0021BCA0FEF73BFC8AF800
:10361000078000F046BADAF814102046FFF7FAFEE9
:103620000A2803DD8AF807B000F03BBA0021B3A0F6
:10363000FEF728FC8AF8078000F033BA6420FDF713
:10364000A7F9012000F0A0FCCAF854002146DAF8DE
:103650005400FFF7DFFEB0F57A7F80F222820A2065
:10366000FDF796F9042000F08FFC45460446CAF8A1
:103670005840DAF81410CA17611A65EB02021346B3
:103680008F4A4FF0000CA1FB020403FB024201FB36
:103690000C21DAF81C20D317FCF792FD0646CAF875
:1036A0004460DAF844004FF47A7490FBF4F19CA083
:1036B000FFF710FACAF85060DAF8500090FBF4F106
:1036C0008EA0FEF7DFFB03208AF8070000F0E9B9BF
:1036D0009AF80600012803D08AF807B000F0E1B993
:1036E000DAF84400CAF81800DAF818004FF47A74CF
:1036F00090FBF4F181A0FEF7C5FBDAF8180090FB0F
:10370000F4F18DA0FFF7E6F904208AF80700002104
:1037100076A0FEF7B7FBA000FDF73AF900F0C1B9BB
:103720009AF80800032804D306208AF8070000F05E
:10373000B8B9DAF85000DAF81810884240F3B181CD
:10374000DAF81810DAF85000FFF764FE4CF2503146
:10375000884240F3A68105208AF80700CAF8408015
:1037600000F09FB9DAF840005A284DD8DAF818105E
:10377000DAF85000FFF74EFE49F64041884243DD3B
:10378000DAF84000401CCAF84000012170A0FEF7A2
:1037900079FBDAF85000DAF81810401ADAF820103D
:1037A000401A6F4981FB00204210A2EBE070DAF86A
:1037B00020201044CAF82400DAF85000DAF8182063
:1037C000801ADAF82020801A400081FB0020421085
:1037D000A2EBE070DAF820201044CAF82800DAF8EA
:1037E000500000E03FE1DAF81820801ADAF82020D3
:1037F000801A00EB400081FB00204210A2EBE07039
:10380000DAF820201044ADE002E10000880000203A
:10381000B80100202D2D3E20B1E0C2EBC6F7BDD38C
:10382000BFDA34B1B6C6B52CC9CFCFC2B1DFD1D85B
:10383000B6BCBCC6CAFD3C2D2D200A0000000020ED
:10384000466C617368494420697320307825582C90
:1038500020204D616E7566616374757265722044D7
:10386000657669636520494420697320307825585E
:103870000A0000001840EF00BCECB2E2B5BDBBAAE4
:10388000B0EEB4AED0D0666C61736820573235515B
:1038900031323820210A0000526573756C745F6400
:1038A0006174613D25640A00BCECB2E2B5BD202024
:1038B00041443731393020210A0000005C000020EB
:1038C000A08601007765696768742A31303D2564F8
:1038D0000A000000466F7263655F50726F63657324
:1038E000735F537465703D25640A0000666F7263F0
:1038F00065312E6164302E76616C0000666F7263F4
:1039000065312E67726F73732E76616C0000000054
:10391000666F726365312E6E65742E76616C000081
:103920005265636F72645F776569676874312A31C5
:10393000303D2564204E0A005265636F72645F77E4
:1039400065696768742A31303D2564204E0A00009D
:10395000666F726365312E696E782E76616C000039
:1039600067666666CAF82C00DAF85000DAF81820A4
:10397000801ADAF82020801A800081FB00104110A4
:10398000A1EBE070DAF820100844CAF83000DAF849
:103990005010DAF81800081ACAF82000DAF82400E3
:1039A00042F2107490FBF4F1FBA0FEF76BFADAF828
:1039B000280090FBF4F1FCA0FEF764FADAF82C0082
:1039C00090FBF4F1FCA0FEF75DFADAF8300090FB12
:1039D000F4F1FDA0FEF756FADAF8200090FBF4F1BE
:1039E000FDA0FEF74FFADAF820004FF47A7490FB4E
:1039F000F4F1FDA0FFF76EF805208AF80700DAF869
:103A0000200090FBF4F1AFF2F800FEF73BFA48E03B
:103A10009AF80800401C8AF80800CAF84080042080
:103A20008AF80700CAF82C80CAF82880CAF82480CF
:103A3000CAF820800021AFF2E800FEF723FA012146
:103A4000AFF25810FEF71EFA9AF80810E9A0FEF738
:103A500019FA9AF80810EBA0FFF73CF841F2883009
:103A6000FCF796FF1DE08AF808808AF807808AF83C
:103A700006808AF803800221AFF29010FEF702FA66
:103A800040F6B830FCF784FF0021AFF29010FEF74B
:103A9000F9F90021AFF28810FEF7F4F9DDA0FFF785
:103AA00019F89AF80000022840F040828AF8008055
:103AB000DC4C607830287CD012DC12285CD007DC2B
:103AC000012824D0102830D0112840F02F8233E074
:103AD000132876D014286ED0182840F027821DE0D5
:103AE000392800F0DE8007DC312865D032287DD00F
:103AF000332840F01B82CBE0512800F0EC805228A4
:103B000000F00581532840F0118200F000BAC6A0F1
:103B1000FEF7E0FF8AF8019000F008BAC7A0FEF7B0
:103B2000D9FF8AF801B000F001BAC6A0FEF7D2FFB3
:103B30008AF8018000F0FAB9C6A0FEF7CBFF8AF838
:103B4000029040F60200CAF81C00C54C0122510345
:103B50002046FDF73BF801229102C248FDF736F8F6
:103B600000224FF400512046FDF730F89AF8020089
:103B700000F020FA00F0DAB9BBA0FEF7ABFF8AF83C
:103B800002B04FF4DC60CAF81C00B54C01225103AE
:103B90002046FDF71BF801229102B248FDF716F806
:103BA00000224FF400512046FDF710F89AF8020069
:103BB00003E045E005E025E050E000F0FBF900F00F
:103BC000B5B9ACA0FEF786FF8AF8029040F2A46077
:103BD000CAF81C0001225103A148FCF7F7FFA14CD1
:103BE000012291022046FCF7F1FF00E03CE00022B8
:103BF00021152046FCF7EAFF9AF8020000F0DAF9F6
:103C000000F094B99FA0FEF765FF8AF802B04FF468
:103C1000DA60CAF81C00012251039148FCF7D6FF74
:103C2000904C012291022046FCF7D0FF0022211582
:103C30002046FCF7CBFF9AF8020000F0BBF975E1D3
:103C400094A0FEF747FF8AF802808AF803808AF87A
:103C500006808AF808808AF8078067E19AF80210DF
:103C600092A0FEF737FF61E195A0FEF733FF8AF8D7
:103C700007808AF805808AF803900021AFF284302B
:103C8000FEF700F90021AFF27830FEF7FBF84DE1C6
:103C90008DA0FEF71FFF8AF8069003208AF8070020
:103CA00044E12079E178000440EA0120A17808434A
:103CB000009000984FF47A7100FB01F78AF80490A5
:103CC0000FB98AF804804FF47A7097FBF0F181A065
:103CD000FEF700FF2AE185A0FEF7FCFE2079E178DF
:103CE000000440EA0120A17808430090009942F2C4
:103CF0001070B1FBF0F200FB1210CAF84C00042067
:103D000000F042F9CAF814008AF803800EE103209B
:103D100000F03AF9DAF81410401A4FF47A71484377
:103D2000002805DDDAF84C1090FBF1F0CAF81C0011
:103D3000DAF81C1042F2107091FBF0F06D4A10702E
:103D4000DAF81C006C4B83FB00104111A1EBE07012
:103D500083FB00C14FEA611CACEBE1716FF0180C02
:103D600001FB0CF100EB81005070DAF81C0083FBC2
:103D700000314B11A3EBE1736146594300EB810025
:103D800090704FF40050FEF7C1FA03224FF4005137
:103D90005848FEF7D1F9B1E0666F726365312E695C
:103DA0006E312E76616C0000666F726365312E692C
:103DB0006E322E76616C0000666F726365312E691B
:103DC0006E332E76616C0000666F726365312E690A
:103DD0006E342E76616C0000666F726365312E69F9
:103DE0006E302E76616C0000696E302A31303D25D0
:103DF000640A0000666F726365312E6368782E7600
:103E0000616C0000B2E2CAD420256420BDE1CAF88A
:103E10000A000000C8FDB4CEB2E2CAD4BDE1CAF8BF
:103E20000A00000068000020B5C8B3A4BCA1C1A668
:103E3000B2E2CAD4BDE7C3E60A000000BBEEB6AFEB
:103E4000B7B6CEA7B9A6C4DCD1A1D4F1BDE7C3E60D
:103E50000A000000C7B0C7FC31D1A1D4F10A0000AC
:103E600000080240001C0240BAF3C9EC32D1A1D4D0
:103E7000F10A0000D7F3B2E0C7FC33D1A1D4F10AB4
:103E800000000000D3D2B2E0C7FC34D1A1D4F10AC3
:103E900000000000BCA1C1A6B2E2CAD4B9A6C4DC2D
:103EA000D1A1D4F1BDE7C3E600000000C1A6B4ABC8
:103EB000B8D0C6F720256420D0A3D7BC0A000000E4
:103EC000C7E5C1E30A000000BFAACABCB2E2CAD477
:103ED0000A000000436F6D70615F76616C75652A42
:103EE00031303D25640A204E00000000B5DAD2BB17
:103EF000B2BD0A000B0000201F85EB510FA0FEF79A
:103F0000E9FDDAF81C100FA0FEF7E4FD0EE013A0A7
:103F1000FEF7E0FD8AF807808AF80390002112A0DE
:103F2000FDF7B0FF002114A0FDF7ACFF9AF80100E7
:103F300001287FF4B6ADFFF7DEBA0000B5DAB6FEB1
:103F4000B2BD0A007765696768745F70726F706FE1
:103F50007274696F6E3D25640A000000D0A3D7BC5F
:103F6000CDEAB3C90A00000070616765302E677240
:103F70006F73732E76616C0070616765302E6E65AD
:103F8000742E76616C00000070B506460025002492
:103F9000002E0BD9FCF7AAFC03210846FCF712FC03
:103FA00005EB1015601CC4B2B442F3D3B5FBF6F0B8
:103FB00070BD000070B50446234D012C1FD10021B7
:103FC0000420FCF7D5FB07210020FCF739FC002179
:103FD0000520FCF7CDFB0020FCF7E1FB294603227E
:103FE0000120FCF761FCFCF781FC03210846FCF78B
:103FF000E9FBFCF77BFC03210846FCF7E3FB022C02
:1040000021D101210420FCF7B3FB07210020FCF79C
:1040100017FC01210520FCF7ABFB0120FCF7BFFBDF
:10402000294603220120FCF73FFCFCF75FFC03213B
:104030000846FCF7C7FBFCF759FCBDE870400321BC
:104040000846FCF7BFBB70BDFF83080000000000FE
:104050000000000001020304060708090000000038
:1040600001020304844000080000002068000000F2
:104070001C2B0008EC400008680000209011000094
:104080002C2B0008000000000000000000000000D1
:104090000000000000000000000000000000000020
:1040A0009E0700000000000000000000000000006B
:1040B0000000000000000000000000000000000000
:1040C00000000000000000000000000000000000F0
:1040D00000000000000000000000000000000000E0
:0C40E000000000000024F40000000000BC
:040000050800018965
:00000001FF
