:020000040800F2
:1000000048050020294200084141000843410008FA
:100010004541000847410008494100080000000030
:100020000000000000000000000000004B4100083C
:100030004D410008000000004F41000851410008F8
:10004000594200085D42000861420008654200080C
:10005000694200085D4100086D42000871420008D5
:1000600075420008794200087D420008814200087C
:1000700085420008894200088D420008914200082C
:1000800095420008994200089D420008A1420008DC
:10009000A5420008A9420008AD420008B14200088C
:1000A000B5420008B9420008BD420008C14200083C
:1000B000C5420008C9420008CD420008D1420008EC
:1000C000D5420008D9420008DD420008E14200089C
:1000D000E5420008E9420008ED420008F14200084C
:1000E000F5420008F9420008FD42000801430008FB
:1000F00005430008094300080D43000811430008A8
:1001000015430008194300081D4300082143000857
:1001100025430008294300082D4300083143000807
:1001200035430008394300083D43000841430008B7
:1001300045430008494300084D4300085143000867
:1001400055430008594300085D4300086143000817
:1001500065430008694300086D43000871430008C7
:1001600075430008794300087D4300088143000877
:1001700085430008894300088D4300080000000003
:1001800091430008954300082DE9F04F80460FF297
:100190003060A5B015461E46D0E90023CDE91223F4
:1001A000002004910D900DF1500A6FF0004900E01D
:1001B00065190020ADF8020012AB4FF0FF3229465E
:1001C0000DF1020001F093F80446012C04DA2878BE
:1001D000441EA441E443E40FBDF8020025280CBFEF
:1001E000A4F1010BA346BBF1010F0EDB2F4617F85C
:1001F000011B0498C0470028049000F0F3800D987C
:10020000401CBBF1010B0D90F1D1BDF80200252877
:1002100007D100200790089009900A900B900C904D
:1002200005E00028C4D10D98D2E240F0010015F895
:10023000011F2029F9D023290DD02B2904D02D29E5
:1002400006D030290AD00CE040F0020080B2EEE780
:1002500040F00400FAE740F00800F7E740F0100033
:10026000F4E72A290ED13168316051F8042B31604E
:10027000002A0F9204D5514240F004000F9180B241
:100280006D1C11E000210F9109E00F99494505D03F
:1002900001EB810302EB430130390F916D1C2A7889
:1002A000A2F130010A29F0D329782E2903D04FF08A
:1002B000FF310E911DE015F8011F2A2907D1316881
:1002C00031606D1C51F8042B31600E9211E0002159
:1002D0000E9109E00E99494505D001EB810302EB2F
:1002E000430130390E916D1C2A78A2F130010A29A0
:1002F000F0D3ADF840000FF2D040297801F008F8B3
:1003000008B115F8010B8DF842009DF842006828ED
:1003100002BF29786829622005D06C2804BF28789C
:100320006C2803D171208DF842006D1C14A8069032
:1003300015F8014BB4F125002AD01C3800F0D48008
:10034000001F022840F2D080133800F0F5800938F1
:1003500000F0CA80801E00F05C81401E00F03581F4
:10036000401E022840F2C080001F00F02E81401F76
:1003700000F08B80401E00F0DF80401E35D0C01E94
:100380000BD0801E00F0D880C01E00F0D58063E145
:1003900025208DF85000012067E19DF842006C286F
:1003A0003068306014D050F8047B306005970E9CA4
:1003B000002C04D5384600F0B7FF044606E022467C
:1003C0000021384600F0CCFF00B1C41B08944DE179
:1003D00050F8042B306002A9404600F033FA0028A0
:1003E00040F144814FF0FF30F2E1316831603C244C
:1003F00051F8040B31600021CDE9020114A80590E9
:10040000DDE90201069F11B908B90E9AB2B10206E0
:10041000120FA0EB02123032D2B2631E3A2AA8BFEA
:1004200027320009DA5540EA0170090908BF00289F
:100430001C4603D0059AE3199A42E8D3E0190590C7
:10044000C4F13C010E980891814209DA401A0A90E1
:100450004FF6EF71BDF840000840ADF8400005E1EF
:10046000002840F103819DF8400000F0140010289E
:1004700040F0FC800F98079A801A0A9A801A441A52
:10048000012CC0F2F3800A94F0E09DF8420062284B
:100490001AD0682806D06A280CD06C281CD0712885
:1004A00008D019E03068306050F8041B30600D98B7
:1004B0000880DBE03068306050F8042B30600D9825
:1004C000C117C2E90001D1E03068306050F8041B68
:1004D00030600D980870C9E03068306050F8041B37
:1004E00030600D980860C1E03068C01D20F0070240
:1004F0003260D2E9000108323260CDE90201002900
:1005000002D507982D210AE0BDF84000810702D5E9
:1005100007982B2103E0C00705D50798202100F894
:100520000A10401C079014A8079908180590214646
:1005300002A800F091FB99E09DF842006C280DD0D4
:10054000712818BF6A2809D13068C01D20F0070241
:100550003260D2E900010832326005E03168316072
:1005600051F8040B31600021CDE902019DF84200F1
:10057000682803D1DDE9020180B20BE0622803D1D3
:10058000DDE90201C0B205E0742818BF7A2804D161
:10059000DDE902010021CDE902019DF840000007DC
:1005A0002ED5DDE90201002908BF002828D044F03B
:1005B0002000782824D10798302100F80A10401C28
:1005C000411C079100F80A401AE09DF842003146AC
:1005D00000F001F9CDE90201002902DA07982D2186
:1005E0000AE0BDF84000810702D507982B2103E0FF
:1005F000C00705D50798202100F80A10401C079075
:1006000014A8079908180590214602A800F0A0FA3E
:100610002CE09DF842006C2809D00120079030683A
:10062000306050F8041B30608DF850101EE03068C8
:10063000306001AA50F8041B3060ADF804100020AF
:10064000ADF8060002A94FF0FF300E90404600F0D2
:10065000F9F800280AD5C5E625208DF850000120BC
:1006600007901CB18AF80140022007900F98079963
:10067000401A0A99401A0899401A0B99401A099988
:10068000401A0C99441A9DF84000400710D42020CD
:10069000012C8DF800000BDB274601236A4602A9D6
:1006A000404600F000FE00287FF49CAE7F1EF4D18F
:1006B000DDF81CB0BBF1000F14AF0DD017F8011B13
:1006C0000498C047002804903FF48CAE0D98401C5D
:1006D000BBF1010B0D90F1D130208DF800000A9F85
:1006E000012F0ADB01236A4602A9404600F0DBFD28
:1006F00000287FF477AE7F1EF4D1DDF820B0059F8F
:10070000BBF1000F0DD017F8011B0498C04700285B
:1007100004903FF467AE0D98401CBBF1010B0D90A7
:10072000F1D130208DF800000B9F012F0ADB01234F
:100730006A4602A9404600F0B6FD00287FF452AE9A
:100740007F1EF4D105980899DDF824B00F18BBF18D
:10075000000F0DD017F8011B0498C0470028049023
:100760003FF440AE0D98401CBBF1010B0D90F1D150
:1007700030208DF800000C9F012F0ADB01236A4610
:1007800002A9404600F08FFD00287FF42BAE7F1EAB
:10079000F4D19DF8400040077FF50BAD2020012CDF
:1007A0008DF80000FFF605AD01236A4602A9404618
:1007B00000F079FD00287FF415AE641EF4D1F8E452
:1007C0000000000000000000686A6C747A4C0000B1
:1007D00025B0BDE8F08F622826D068281DD06A2891
:1007E00008D06C2827D0712804D0742823D07A2808
:1007F0000CD020E00868C01D20F007000860D0E998
:100800000023083008601946104670470A680A60DD
:1008100052F8040B0A60002170470A680A6052F817
:10082000040B0A6000B20BE00A680A6052F8040B7D
:100830000A6040B204E00A680A6052F8040B0A60D9
:10084000C11770472DE9F44F0D4694B0D5F830A08C
:10085000BAF1000F804648BF6FF0004A00F0ACFDCF
:10086000696B401801900FF66C20D0E90023CDE9A8
:10087000022395F83800400702D40198412805D298
:1008800040200DF110090190002609E000F09AFDCA
:100890005FEA0009F8D14FF0FF3056E1AAEB040AF5
:1008A000BAF1010FC0F2CE801498018802AA0DF1AE
:1008B000010000F0DFFD0028044600F1DE801498FE
:1008C000008810B9641E00F1D880A245C0F2BA8039
:1008D000686901992218914280F0A2806E634042BB
:1008E000296A401AA969401A696A401AE969401AD6
:1008F000A96A461A95F83800400710D42020012E26
:100900008DF800000BDB374601236A462946404636
:1009100000F0C9FC002840F0B0807F1EF4D1D5F86B
:1009200014B0BBF1000F4F460DD017F8011BA8689B
:10093000C0470028A86000F0A080E86A401CBBF116
:10094000010BE862F1D130208DF800002F6A012FF1
:100950000ADB01236A462946404600F0A4FC002831
:1009600040F08B807F1EF4D1D5F818B0EF68BBF152
:10097000000F0CD017F8011BA868C0470028A8601A
:100980007BD0E86A401CBBF1010BE862F2D1302059
:100990008DF800006F6A012F09DB01236A462946A2
:1009A000404600F080FC002867D17F1EF5D1E86842
:1009B000A969D5F81CB00F18BBF1000F0CD017F8BF
:1009C000011BA868C0470028A86056D0E86A401CF0
:1009D000BBF1010BE862F2D130208DF80000AF6A64
:1009E000012F09DB01236A462946404600F05BFCE3
:1009F000002842D17F1EF5D195F8380040070DD56B
:100A00002020012E8DF8000008DB01236A462946CC
:100A1000404600F048FC80BB761EF6D100266E6191
:100A2000224668690DF10101484400F031FD686912
:100A3000201868611498801C1490801E008800287B
:100A40007FF42CAF686B6969401A296A401AA9695A
:100A5000401A696A401AE969401AA96AA0EB010ABA
:100A600095F83800400710D4BAF1010F0DDB544659
:100A7000A8682021C047A86010B94FF0FF365DE09C
:100A8000E86A401C641EE862F2D16B694A46294656
:100A9000404600F008FC0028EFD12C6A012C0ADB4C
:100AA000A8683021C0470028A860E6D0E86A401C4A
:100AB000641EE862F4D1AB69EA682946404600F05A
:100AC000F2FB0028D9D16C6A012C0ADBA86830211E
:100AD000C0470028A860D0D0E86A401C641EE862C5
:100AE000F4D1E868A969EB690A182946404600F084
:100AF000DAFB0028C1D1AC6A012C0ADBA8683021DE
:100B0000C0470028A860B8D0E86A401C641EE862AC
:100B1000F4D195F8380040070ED5BAF1010F0BDB80
:100B2000A8682021C0470028A860A6D0E86A401C19
:100B3000BAF1010AE862F3D16E616E6304A88145DF
:100B40001CBF484600F0E0FC304615B0BDE8F08F11
:100B50002DE9FA4E05460A462F696F2A08BF082478
:100B600005D041F02000782814BF0A2410243C2628
:100B7000D5E90001642A18BF692A81468A4605D151
:100B8000002903DAD9F100096AEB4A0ABAF1000F29
:100B900008BFB9F1000F0CD1286B50B9082C36D121
:100BA00095F83800000732D530203B2687F83B0007
:100BB0002DE0E31748465146224600F0E5FCA4FB31
:100BC0000023A9EB02023032D2B2A6F1010B3A2A7D
:100BD0005E4603DB9DF80030513B9A180BF8072066
:100BE00081465FEA010A08BFB9F1000F03D0E86847
:100BF000F1198842DDD3082C09D195F83800000797
:100C000005D5F05D302802D0761E3020F055C6F1B3
:100C10003C00A861F119E960296B884208DA081ADA
:100C200028624FF6EF71288F08402887BDE8F38EC1
:100C300000290ED595F8381001F01401102908D1BB
:100C4000696B6A69891A2A6A891A0E1A012EA8BF65
:100C50002E62BDE8F38E00002DE9F24F04468EB0FF
:100C6000D4E90001CDE9020104AF9DF8380040F05D
:100C7000200BBBF1610F0AD0206B002848BF062073
:100C800004D408BFBBF1670F01D101202063616864
:100C9000C1F30A5040F2FF7290421CD1080304BF16
:100CA0002068002809D10320A0619DF83800613830
:100CB0001A2836D30FF2306108E00320A0619DF8B6
:100CC000380061381A2829D30FF21461E068032232
:100CD00000F0DEFBBEE1012816DA204600F0CBFC76
:100CE000012811DB00250020BBF1610F20D1E16854
:100CF000302201F8012B4A1CE2609DF83820612A5D
:100D00000CBF782258220FE0626840F2FE3161F396
:100D10001E52451A62604FF0FF30E5E70FF2BC51FA
:100D2000D4E70FF2C051D1E70A706169891C616193
:100D300010B90026002584E1BBF1610F40F09880D6
:100D4000206B00284CBF2126461CD4E900ABDDE90E
:100D500002010022002300F0AFFC36B23ABF8BF054
:100D60000040CDE902A0CDE902AB06F101082D1F3C
:100D7000B8F1010F8DF810200DF1110736DBDDE918
:100D800002010022002300F0AFFC2FD21C2102A898
:100D900000F0C2FCDDE9020100F048FDA8F10708FF
:100DA000B8F1010F814609DB00F06CFD02460B46ED
:100DB000DDE9020100F07EFDCDE90201F81D072109
:100DC00005E009F00F0200F8012D4FEA2919B9F1E9
:100DD000010F01DB491EF4D5491E5CBF002200F85B
:100DE000012DF9D5C71DB8F1010FC8DA0DF11100B9
:100DF000391AB142B8BF0E4636B230000DF11107B4
:100E00002FD4884206DA04A9411849780829A8BFD6
:100E10000F2100DA002104AA821800E0761E12F8E1
:100E20000139401E8B42F9D00F2904D104A9411881
:100E30004A78521C4A70002802D504AF761C2D1D3A
:100E400036B2701E0DD4C1190A783032D2B23A2AA5
:100E500003DB9DF838303A3B9A18401E01F801290F
:100E6000F2D5206B002840F1EC80701E2063E8E092
:100E7000DDE902010022002300F01EFC3CBF81F0EE
:100E80000041CDE902012DB247F2975068434B492A
:100E9000DFF82C9190FBF1F52DB2C5F1070ABAF1FC
:100EA000010F90461CDBDDE902675FEACA7007D5D7
:100EB00042464B463046394600F0BCFD06460F46DA
:100EC0004046494642464B464FEA6A0A00F0B2FDA8
:100ED000BAF1000F80468946E7D1CDE9026724E0E8
:100EE000CAF1000A0026374F14E05FEACA7007D53E
:100EF00042464B463046394600F09CFD06460F46BA
:100F00004046494642464B4600F094FD4FEA6A0A85
:100F100080468946BAF1000FE7D1DDE90201324689
:100F20003B4600F059FECDE90201BBF1660F0CBF54
:100F300005F10A000620216BDFF88C904618142E6C
:100F4000A8BF132630208DF810000DF11107012ED7
:100F50003CDBDDE9020100F07FFC07F1080104221F
:100F60000A23B0FBF3F303EB8307A0EB4700303019
:100F700001F8010C0A20B3FBF0F000EB8007A3EBB3
:100F800047033033521E01F8023DE9D1083E012EDD
:100F900001F10807DBDBDDE9020100F05DFC00F098
:100FA0007BFC02460B46DDE9020100F083FC0022D7
:100FB0004B4600F03FFDCDE90201CAE7A0860100E3
:100FC000000024400000F03F84D797410DF111004C
:100FD000381A0DF1110702E0401E6D1E7F1C397892
:100FE0003029F9D0BBF1660F02D12DB2691C04E0A3
:100FF000BBF1650F0CBF01210021226B8E1836B2A8
:10100000B042B8BF064636B231001AD4814204DA83
:10101000C85D3528A8BF392000DA3020CA19521E11
:1010200000E0761E12F80139491E8342F9D03928B2
:1010300002D1C85D401CC855002902D57F1E761C10
:101040006D1C2DB29DF83810009533B23A462046FB
:1010500000F003F80FB0BDE8F08F2DE9F04786B03F
:1010600006468A4690461D4600F0FFFE012D406A66
:10107000376B90F8009002DA01250FF270284AF0E1
:101080002000BDF93840662808BF641C12D06728CC
:1010900076D114F1040F79DBBC4277DA96F8380088
:1010A000641C000702D4BD42B8BF2F4624B23F1BC8
:1010B00048BF002724B2F068B169012C21DA4A1C2C
:1010C00030230B54012F03DA96F83810090702D5A4
:1010D00002F80090521CB261E742B8BF7C4224B2D1
:1010E0006142E7197162AF42B8BF3D46B3692DB2A4
:1010F000F5612A464146181800F0CAF9781BB0621B
:10110000BAE00818A54216DA2A46414600F0C0F9AE
:10111000B1696918601B012FB161706203DA96F83A
:101120003800000705D5F06801F80090F069401C10
:10113000F061B762A0E02246414600F0A9F9B0692B
:1011400020182D1B012F03DA96F83810090703D554
:10115000F16800F80190401C2DB2B061AF42B8BFF9
:101160003D46F068B3692DB22A4604EB0801181811
:1011700000F08EF9B0692818B061781B70627BE0CE
:10118000BAF1610F14D14FF0700A16E0BD4204DAD3
:1011900096F83810090758BF2F467F1E48BF002712
:1011A000BAF1670F14BF4FF0450A4FF0650A04E02B
:1011B000BAF1410F08BF4FF0500AB169F0684A1CFC
:1011C000B261012F18F8013B0B5403DA96F838107E
:1011D000090715D5531CB36102F80090012F0FDBEE
:1011E0006D1E2DB2AF42B8BF3D462DB22A464146D4
:1011F000181800F04DF9B0692818B061781B7062BA
:10120000F068B1690918200081F800A004D42B20EF
:10121000487001F1020804E02D224A7001F1020831
:101220006442002502AF08E00A22684600F036FE5C
:10123000019807F8010B6D1C009C21B20129F3DA1B
:10124000022D06DA4AF02000652804BF302008F895
:10125000010B4DB9302008F8010B07E06D1E02A804
:10126000285C303008F8010B012DF7DAF068B1691D
:101270000818A8EB0000F06196F8380000F01400A0
:1012800010280DD17069B1690818716A0818F169E0
:101290000818B16A0818716B8842BCBF081A30621E
:1012A00006B0BDE8F087F8B504460D4616461F4661
:1012B000002077B116F8011BA868A047A86030B1DC
:1012C000E86A401CE86200207F1EF3D1F2BD4FF0B7
:1012D000FF30F2BD00000000000000006E616E00F3
:1012E0004E414E00696E6600494E46003000F8B52A
:1012F00004460D4616461F4600F0D8FD3B463246D2
:101300002946204601B0BDE8F04000F0E6BD0000EF
:101310000278C9B28A421AB11CBF10F8012FF9E74E
:1013200018BF00207047000000F10103810704D0BE
:1013300010F8011B89B18107FAD10268B2F10131BD
:10134000914311F0803F04BF50F8042FF6E710F8E6
:10135000011B11B110F8011BFBE7C01A7047000018
:10136000C9B2830706D0521E22D310F8013B99421E
:10137000F7D11FE0083A13D302F1040241EA012138
:1013800041EA014150F8043B121F21BF4B40A3F139
:10139000013C2CEA030C1CF0803FF3D0C9B2001FC3
:1013A000083210F8013B521E28BF91EA030FF8D80B
:1013B00018BF0120401E704780B500F077FD012066
:1013C00002BD000070B5054605F10F00C408C04617
:1013D000C046E400A54232D2082C04D2082402E020
:1013E000083000F091F82248026811000CD1011D6C
:1013F0000A6802B31368A34238BF111DF8D310E086
:101400001D68A5420DD2191D0B68002BF8D112687A
:10141000011D00E0191D0B6893420CD01D68A54208
:10142000F8D361B10D682A68A2F10803A3420AD279
:101430006A680A600FE000F073FD0028D0D1C04652
:10144000C046002070BD63190B60121B6E685E60A1
:101450000B681A602C60096800291DBF4A68002AC1
:10146000091D00210160C046C04605F1080070BD9D
:101470003008002070B504460D46164600F016FDF3
:10148000324629462046BDE8704000F019BD0000F4
:1014900062B38B0708D0521E11F8013B00F8013BE4
:1014A00000F024808B07F6D1830740F0208000BF36
:1014B000103A07D330B4B1E83810103AA0E8381029
:1014C000F9D230BC530724BFB1E80810A0E80810D7
:1014D00044BF51F8043B40F8043BD20724BF31F825
:1014E000022B20F8022B44BF0B7803707047083A98
:1014F00007D3B1E80810083A40F8043B40F804CBA1
:10150000F7D25307E4E7000000B9704738B5A0F1FF
:1015100008042068082833D310F0070F30D1C046E4
:10152000C0461848416809B18C4203D261604460EA
:1015300017E019464B680BB1A342FAD30B685D184C
:10154000AC421BD3A54204D12268D2180A600C46D3
:1015500007E04A681AB123681B199A420ED36260E9
:101560004C60616851B1226813198B4206D1002387
:10157000036008688018206048686060C046C04604
:1015800031BD0000300800201B4213D1094236D182
:101590002AB18446B0FBF2F002FB10C2704700F0A3
:1015A000D5BCFCD30022002370470B0002000021B1
:1015B00000207047904271EB030CF6D370B5B1FA7E
:1015C00081F4B3FA83F52C1BA340C4F1200532FA51
:1015D00005F63343A2405FF00046E64002E05B08B8
:1015E0005FEA3202841A71EB030524BF20462946C4
:1015F0007641F4D302000B003000002170BD012AB7
:10160000CFD970B5140C20D0B1FA81F4B2FA82F5BA
:10161000C4F120046419B4F12006D6D3B2405FF0BF
:101620000044F440002502E052085FEA3303C61A82
:1016300071EB020E24BF3046714664416D41F3D315
:1016400002000B002000290070BD0C46B1FBF2F136
:1016500002FB11452D0445EA1045B5FBF2F402FBEF
:10166000145580B240EA0545B5FBF2F002FB10527A
:1016700040EA044070BD30B4436803F000420121E9
:101680001B031B0B436004BF0368002B08D10DE054
:101690000368DD0F45EA440444605B000360491EB3
:1016A0004468E302F4D523031B0B436043681A43E9
:1016B0004260084630BC70474FF4001C1CEB410FE1
:1016C00094BF1CEB430F09E041EA030C50EA4C0CB9
:1016D00052EA0C0C03D2994208BF9042704714BFE3
:1016E0008B428242704700004FF4001C1CEB410FFC
:1016F00094BF1CEB430F09E041EA030C50EA4C0C89
:1017000052EA0C0C03D28B4208BF8242704714BFCE
:10171000994290427047000070B504460D466068DB
:10172000C0F30A5040F2FF71884207D1606800039D
:1017300004BF2068002817D0022070BD20B92046C1
:10174000FFF799FF012866DA012D0FDB40F2FF71E8
:10175000091A8D420AD3606800284CBF9FED2F0BF9
:101760009FED300B84ED000B012070BD4142A9427A
:10177000616806DA6FF31E51401941EA005060605B
:1017800040E0401E63684519012205F1350062F30F
:101790001F53352801F00041636003D361600020CE
:1017A000206070BD002015F11F0F04DA206823604F
:1017B0000022203562606A4212D0401E25688041B6
:1017C000C2F12003C0439D4045EAD0702568666899
:1017D000D54006FA03F32B4323606368D34063606C
:1017E00062680A43B0F1004F626003D80DD12078DF
:1017F000C0070AD52068401C2060206828B96068AE
:10180000401C60604FF0FF3070BD6068884204BFCC
:1018100020680028F6D1002070BD00BF0000000045
:101820000000F0FF000000000000F07FF446400DD3
:1018300040EAC120490006D200F014F8004248BF37
:101840006FF00040604700F00DF84FF00041884213
:101850008CBF084640426047400D40EAC120490025
:1018600080F00D8040F00040490DA1F58061491CD9
:1018700005D4D1F11F0154BFC840C01770474FF0C5
:1018800000007047010040F10980F446404200F03A
:1018900005F851F000416047010000BF09D0B0FADF
:1018A00080F18840C91CC1F58461090501EBD02194
:1018B00040057047F0B44FF0004591EA030F44BF74
:1018C0006B4000F045BB00BF841A71EB030604D2E5
:1018D0006E40001BB141121973414FF4001C1CEB08
:1018E000410F34BF7CEB430684E00C0DA4EB135690
:1018F000362E7DDC012E43DC45EAC32343EA5253F6
:1019000012BFD20292025B08240545EAC12141EAD6
:101910005051D2EBC020994125D407D1B0FA80F6BE
:1019200010FA06F164D00020203608E0B1FA81F602
:10193000B140C6F1200220FA02F21143B0404FEA52
:10194000F474B4EB465434F001064FEA74040AD838
:10195000D6F50016760D04F00044F04061FA06F268
:101960005040F1404840C00A40EA415021F0004157
:1019700028BF5FEA500550F1000044EBD12137E069
:1019800045EAC323DB0A45EAC121C90AB6F12005AD
:101990000EDD42EA0242120CC5F1200603FA06F6F9
:1019A000EB4042EA06056D42984161F100010DE00D
:1019B00062FA06F5F240554063FA06FC82EA0C0230
:1019C000F3405A406D42904161EB030111F4801FD6
:1019D00005D1641E620502D06D004041494121F4E9
:1019E0008011430875F1004350F1000041EB0451B0
:1019F000F0BC70471CEB410F15D223F0004352EAB4
:101A000043060BD04FEA4C0CBCEB410F04D80C0D35
:101A1000661E342EB7DDEBE7801A994150EA410685
:101A200008BF0021E4E708BF1CEB430F28BF6FF09D
:101A30000001DDE7B0B581EA030C0CF0004C40F288
:101A4000FF7515EA11541DBF15EA1357AC42AF429A
:101A500039E0E41923EA455343F48013C90241F005
:101A6000004141EA505EC7021100A7FB02020028B4
:101A70004FF00000EEFB01204FF00001E3FB0721D7
:101A800018BF42F00102401800214941E3FB0E015A
:101A9000A4F580640F0302D252004041494154F141
:101AA00001046CDD470872F1004250F1000051EB77
:101AB0000451A1F580115CBF41EA0C01B0BD4CEAB4
:101AC00005510020B0BD05EA1357AC4214BFAF4228
:101AD00041E050EA410E1CBF52EA430E02E061466B
:101AE0000020B0BD24423C441BD15FEA070EF6D073
:101AF000090302BF01460020AEF1140EB1FA81F7CE
:101B0000AEEB070401FA07FE0C37C7F1200100FA1B
:101B100007F7C8404EEA000E23EA455343F480130A
:101B2000A2E733F00043B3FA83F704BFB2FA82FEB0
:101B300077440B3FE41BB7F1200E2FBF02FA0EF3E0
:101B4000BB40C7F1200E22FA0EFE38BF43EA0E0357
:101B5000BA40641C82E750EA410E14BF52EA430EB9
:101B60006FF000014FF4001717EB430F8ABF1946BF
:101B700017EB410FB5E74CEA05510020B0BDD4F199
:101B80000104B4F120070FDAC4F12007520828BF7E
:101B900042F0010210FA07F501FA07F7E1BF2A4304
:101BA000E0403843E1400FE0352C98DCC7F12004D9
:101BB00052EA400220FA07F218BF42F0010231FA5D
:101BC00007F0A1400A43002172F1004250F10000E9
:101BD00051EB0C01B0BD00002DE9F04140F2FF7562
:101BE00081EA030C0CF0004C15EA11541DBF15EAF4
:101BF0001357AC42AF42E9E0BC41C1F31301C3F358
:101C00001303801A994143F4801304D2641E4000E8
:101C1000494180185941C90241EA5051B1FBF3F6DC
:101C200003FB1611A2FB0675D7EBC020A94102D217
:101C3000761E80185941C90241EA5051B1FBF3FEAA
:101C400003FB1E11A2FB0E75D7EBC020A94103D2E6
:101C5000AEF1010E80185941890241EA9051760592
:101C600046EA8E2EB1FBF3F603FB1611A2FB0675B6
:101C7000D7EB8020A94102D2761E80185941C902B3
:101C800041EA50514EEA060EB1FBF3F603FB161182
:101C9000A2FB0675D7EBC020A94102D2761E8018A0
:101CA0005941C90241EA5051B1FBF3F703FB171147
:101CB000A2FB0735D3EBC020A94167F100070CBF99
:101CC000004247F0010766F3D5274FEA1E31B808F6
:101CD00014F5806414DDBD0775F1004250EB0E5021
:101CE00051EB045111F5801F5CBF41EA0C01BDE8C6
:101CF000F0814CF07F6141F0E0410020BDE8F081CF
:101D0000BD076D0840EA0E5041F48011D4F1010482
:101D1000B4F120060ADAC4F120060200E04001FA1C
:101D200006F3E1401843B24015430EE0342C14DCB6
:101D3000C6F1200445EA40056D0820FA06F2154375
:101D400021FA06F0A1400D43002175F1004250F147
:101D5000000051EB0C01BDE8F08100205FEA0C01AE
:101D6000BDE8F081CFB992185B41B3FA83F704BFA5
:101D7000B2FA82F6BF190B3FB7F120062FBF02FA65
:101D800006F3BB40C7F1200622FA06F638BF3343FC
:101D9000BA401CB1E419641E2FE77F4231F00041C4
:101DA000B1FA81F404BFB0FA80F6A4190B3CB4F187
:101DB00020062FBF00FA06F1A140C4F1200620FA48
:101DC00006F638BF3143A0403C1B16E7AC421ABFB1
:101DD00005EA1357AF4214E050EA41061CBF52EA2D
:101DE0004306BFE750EA4107304661461CBF41EA5F
:101DF0000551BDE8F08152EA430C08BFC143BDE87C
:101E0000F08100204FF4001616EB410F98BF16EB3F
:101E1000430F08BF16EB410F24BFC14305E016EB8B
:101E2000430F0CBF61464CEA0551BDE8F08100004C
:101E300080B5134800F0F6F80FF24C020FF244019F
:101E40000160426241600FF24402826381600FF2DE
:101E50004402C1600161416181618162C1620163CB
:101E60004163C2630164416401BD10B5044800F0E0
:101E7000D9F80446206808B9FFF7DAFF204610BDFC
:101E800048000020000000002E00000066616C7316
:101E900065000000747275650000000091FBF2F3AC
:101EA00003FB1211C0E900317047000080B5DFF874
:101EB0000C0000F0B7F8806902BD0000D8000020D7
:101EC00030B430B90FF24800D0E90045C2E900450E
:101ED0001BE00170012030BC704730B431B90FF203
:101EE0003800D0E90045C3E900450EE01AB930BC1E
:101EF0006FF00100704708B10A7802800978481E27
:101F0000804130BCC043C00F7047002030BC7047D8
:101F100000000000000000000000000000000000C1
:101F20000749086808B1002070470648C008C0008B
:101F300008600549C908C900091A0160704700BF57
:101F4000440800204F05002048070020704700008B
:101F5000841A71EB030603D2001BB14112197341BD
:101F60004FF4001C1CEB410F34BF7CEB430443E0F7
:101F70000C0DA4EB1356352E50DC45EAC323DB0AC7
:101F800045EAC121C912B6F120050DDD63FA05F657
:101F9000EB4086EA0305124218BF45F00105C01860
:101FA00051F100010CD213E062FA06F5F2405540FF
:101FB000F3415A40B340F3405A408018594107D387
:101FC00049085FEA30005FEA350528BF45F00105A2
:101FD00001F58011420875F1004250F1000041EB1B
:101FE0000451F0BC4FF4001C1CEB410F38BF70478C
:101FF0000020090D090570471CEB410F10D252EA71
:1020000043060BD0BCEB410F05D80C0DAB43661E4D
:10201000342EB5DD02E0AB4380185941F0BC704767
:10202000F0BC70477047000038B5040000252078E8
:10203000C0076FD5DFF86406006810F00C000428B4
:102040000BD0DFF85806006810F00C0008280ED1FD
:10205000DFF84C060068400209D5DFF84806006842
:10206000800357D56068002854D10120CFE1606813
:10207000B0F5803F08D1DFF82C06006850F48030BE
:10208000DFF82016086024E06068B0F5A02F10D1BA
:10209000DFF81006006850F48020DFF808160860AA
:1020A000DFF80006006850F48030DFF8F8150860AB
:1020B0000FE0DFF8F005006830F48030DFF8E41559
:1020C0000860DFF8E005006830F48020DFF8D41500
:1020D0000860606800280ED000F039FB0500DFF8CA
:1020E000C4050068800315D400F031FB401B65284F
:1020F000F5D303208BE100F02AFB0500DFF8A405EF
:102100000068800306D500F022FB401B6528F5D34C
:1021100003207CE1207880072BD5DFF8800500685C
:1021200010F00C0F0BD0DFF87405006810F00C00F5
:10213000082837D1DFF868050068400232D4DFF89C
:1021400064050068800704D5E068012801D00120FB
:102150005DE1DFF8500500685FF0F851B1FA81F1F8
:1021600030F0F800226912FA01F10843DFF8341563
:1021700008602078000762D5606900284CD00120F3
:10218000DFF82415086000F0E2FA0500DFF81C050E
:102190000068800753D400F0DAFA401B0328F5D317
:1021A000032034E1E068002823D00120DFF8001587
:1021B000086000F0CCFA0500DFF8E804006880074A
:1021C00006D400F0C4FA401B0328F5D303201EE117
:1021D000DFF8D00400685FF0F851B1FA81F130F017
:1021E000F800226912FA01F10843DFF8B814086018
:1021F000BFE70020DFF8B814086000F0A8FA050077
:10220000DFF8A00400688007B3D500F0A0FA401BF7
:102210000328F5D30320FAE00020DFF88C140860CF
:1022200000F095FA0500DFF884040068800706D501
:1022300000F08DFA401B0328F5D30320E7E0207857
:1022400040077CD500200090DFF86804006850F05B
:102250008050DFF860140860DFF85804006810F060
:10226000805000900098DFF85004006850F48070AF
:10227000DFF84414086000F06AFA0500DFF838045B
:102280000068C00506D400F062FA401B0328F5D3AD
:102290000320BCE0A068012808D1DFF82004006812
:1022A00050F00100DFF81414086023E0A06805284E
:1022B00010D1DFF80804006850F00400DFF8FC13C8
:1022C0000860DFF8F803006850F00100DFF8EC1355
:1022D00008600FE0DFF8E403006840084000DFF822
:1022E000DC130860DFF8D403006830F00400DFF886
:1022F000CC130860A068002810D000F028FA050070
:10230000DFF8B8030068800719D400F020FA401BFA
:1023100041F289318842F3D3032078E000F017FAC4
:102320000500DFF898030068800708D500F00FFA71
:10233000401B41F289318842F3D3032067E0A06952
:10234000002863D0DFF85403006810F00C00082860
:102350005AD0A069022844D10020DFF86413086035
:1023600000F0F5F90500DFF83C030068800106D5B0
:1023700000F0EDF9401B0328F5D3032047E0DFF818
:102380004403B0FA80F14FF44040B0FA80F2F020FC
:10239000B0FA80F0E369256A2B43656A15FA01F10A
:1023A0001943A36A5B085B1E13FA02F21143E26A47
:1023B00012FA00F00843DFF8E81208600120DFF8A5
:1023C0000013086000F0C3F90500DFF8D8020068C8
:1023D00080011BD400F0BBF9401B0328F5D3032078
:1023E00015E00020DFF8D812086000F0B0F9050011
:1023F000DFF8B0020068800108D500F0A8F9401BA2
:102400000328F5D3032002E0012000E0002032BDC4
:1024100070B504000D000026DFF8AC02006810F073
:102420000F00A8420BD2DFF8A0020570DFF8980277
:10243000006810F00F00A84201D00120C0E0207811
:10244000800709D5DFF85402006830F0F000A16879
:102450000843DFF8481208602078C00772D560682A
:10246000012806D1DFF83C020068800315D4012062
:10247000A6E06068022802D06068032806D1DFF871
:1024800024020068800108D4012099E0DFF81402DA
:102490000068800701D4012092E0DFF800020068A4
:1024A0008008800061680843DFF8F011086000F0E0
:1024B0004EF90600606801280FD1DFF8E0010068DE
:1024C00010F00C0004283DD000F041F9801B41F2CF
:1024D00089318842F1D3032072E0606802280FD16D
:1024E000DFF8B801006810F00C0008282AD000F0CE
:1024F0002EF9801B41F289318842F1D303205FE03D
:10250000606803280FD1DFF89401006810F00C0018
:102510000C2817D000F01BF9801B41F2893188424A
:10252000F1D303204CE0DFF87401006810F00C0FC9
:1025300008D000F00CF9801B41F289318842F2D3B7
:1025400003203DE0DFF88001006810F00F008542B5
:102550000BD2DFF874010570DFF86C01006810F031
:102560000F00A84201D001202AE02078400707D5BB
:102570004A48006830F4E050E16808434749086081
:102580002078000708D54548006830F4604021698C
:1025900050EAC1004149086000F017F83F49096856
:1025A0005FF07062B2FA82F2484B11F0F001D14054
:1025B000C95CC84046490860002000F0B0F800201F
:1025C00070BD0120434908607047002000200021B1
:1025D00000203248006810F00C00002804D00428C5
:1025E00004D0082804D034E03B4833E03B4831E0D5
:1025F0002B48006810F03F002949096849020DD5B1
:1026000027490968354AB2FBF0F047F6C07211401D
:102610002C4AB2FA82F2D14048430CE020490968C2
:102620002D4AB2FBF0F047F6C0721140254AB2FACB
:1026300082F2D14048431A49096811F440314FF4FD
:102640004042B2FA82F2D140491C4900B0FBF1F09D
:1026500000E0214870471E480068704780B5FFF7CA
:10266000FAFF0E4909685FF46012B2FA82F21C4B5D
:1026700011F4E051D140C95CC84002BD80B5FFF7FC
:10268000EAFF064909685FF4E022B2FA82F2144BCD
:1026900011F46041D140C95CC84002BD0838024015
:1026A0000438024000380240800E4742743802402D
:1026B000000047424038024000700040703802403D
:1026C000600047420000FE03003C02401842000840
:1026D000040000204C0047420024F40000127A005D
:1026E0005042000880B52348006850F4007021492A
:1026F00008602048006850F480601E4908601D484A
:10270000006850F480701B490860032000F09CF8BA
:10271000002000F004F800F0DCF8002002BD10B545
:102720000400154800684FF47A71B0FBF1F000F036
:10273000A5F8002221005FF0FF3000F089F80020AA
:1027400010BD0E480068401C0C49086070470B48DB
:102750000068704731B5FFF7FAFF0400009D15F1DE
:10276000010F00D06D1CFFF7F2FF001BA842FAD347
:1027700031BD0000003C0240040000204008002061
:1027800010F00701484800684FF6FF021040474A22
:1027900052EA0121084344490860704742480068F2
:1027A000C0F302207047012110F01F029140404AFF
:1027B00040B2400942F82010704740B2002808D5C6
:1027C00009013C4A40B210F00F00801800F8041CC8
:1027D00003E00901384A40B28154704710B410F048
:1027E0000700D0F10703052B01D3042301E0D0F14A
:1027F0000703041D072C01D2002000E0C01E0124A5
:1028000014FA03F35B1E19408140012313FA00F010
:10281000401E1040084310BC704780B5411EB1F106
:10282000807F01D301200EE0401E244908600F2163
:102830005FF0FF30FFF7C1FF00202149086007204B
:1028400020490860002002BD80B5FFF799FF01BD57
:1028500070B504000D0016000020FFF79FFF320046
:102860002900FFF7BBFF0100200040B2FFF7A5FFE2
:1028700070BD80B540B2FFF796FF01BD80B5FFF790
:10288000CCFF02BD042806D10E48006850F00400B9
:102890000C49086005E00B48006830F00400094965
:1028A00008607047000000000CED00E00000FA0531
:1028B00000E100E018ED00E000E400E014E000E0DA
:1028C00018E000E010E000E080B500F001F801BD84
:1028D000704780B50320FFF7B7FF002200217FF08B
:1028E0000B00FFF7B5FF002200217FF00A00FFF781
:1028F000AFFF002200217FF00900FFF7A9FF0022AF
:1029000000217FF00400FFF7A3FF002200217FF0E9
:102910000300FFF79DFF002200217FF00100FFF779
:1029200097FF002200215FF0FF30FFF791FF0022A8
:1029300000210520FFF78CFF0520FFF79AFF01BD5E
:1029400010B50400002C01D101203FE0606A00288E
:102950000020A06294F95100002805D1002084F8DD
:102960005000200000F033F8022084F85100206865
:10297000006830F04000216808606068A168084382
:10298000E16808432169084361690843A16911F4BA
:1029900000710843E1690843216A0843A16A0843BA
:1029A00021680860A069000C10F00400616A084307
:1029B000216848602068C06930F400602168C861FF
:1029C00000206065012084F85100002010BD704790
:1029D0002DE9F84304000E00170098465FF0000947
:1029E000002594F95000012801D10220BFE0012008
:1029F00084F85000FFF7ABFE814694F9510001289E
:102A000001D00225ABE0002E02D0BFB2002F01D1D1
:102A10000125A4E0032084F85100002060652663AE
:102A2000A786E7860020A0630020A0870020E0871B
:102A30000020606400202064A068B0F5004F05D13C
:102A40002068006850F480402168086020680068B1
:102A5000400605D42068006850F0400021680860F6
:102A6000E068B0F5006F29D16068002802D0E08EE0
:102A700001280ED130882168C860B61CE08E401E47
:102A8000E08606E030882168C860B61CE08E401EF3
:102A9000E086E08E00283BD0206880688007F1D473
:102AA000B8F1000F08D018F1010FF2D0FFF74FFE78
:102AB000B0EB09004045ECD3032550E060680028E6
:102AC00002D0E08E01280ED1307821680873761C80
:102AD000E08E401EE08606E0307821680873761CA0
:102AE000E08E401EE086E08E002811D020688068CD
:102AF0008007F1D4B8F1000F08D018F1010FF2D01F
:102B0000FFF725FEB0EB09004045ECD3032526E096
:102B1000CDF80090434601220221200000F0EEF99A
:102B2000002801D003251AE04A464146200000F063
:102B300036FA002803D00125202060650FE0A06848
:102B4000002808D1002000902068C068009020680C
:102B5000806800900098606D002800D00125012059
:102B600084F85100002084F85000280040B2BDE8ED
:102B7000F2832DE9F84304000D0016001F005FF0FA
:102B800000095FF000086068B0F5827F0ED1A06890
:102B900000280BD1042084F85100009733009BB229
:102BA0002A002900200000F09FF89BE094F95000D3
:102BB000012801D1022095E0012084F85000FFF7A0
:102BC000C6FD814694F95100012802D05FF0020849
:102BD00080E0002D02D0B6B2002E02D15FF00108D5
:102BE00078E0042084F8510000206065A563A68782
:102BF000E687002020630020A0860020E0860020D9
:102C0000206400206064A068B0F5004F05D1206802
:102C1000006830F480402168086020680068400641
:102C200005D42068006850F0400021680860E06822
:102C3000002823D106E02068007B28706D1CE08FFF
:102C4000401EE087E08F00282DD020688068C007F4
:102C5000F1D4002F08D017F1010FF3D0FFF777FD63
:102C6000B0EB0900B842EDD35FF0030832E0206812
:102C7000C0682880AD1CE08F401EE087E08F0028F0
:102C800011D020688068C007F1D4002F08D017F158
:102C9000010FF3D0FFF75BFDB0EB0900B842EDD3B5
:102CA0005FF0030816E06068B0F5827F0DD1A06880
:102CB000B0F5004F03D0A068B0F5806F05D1206853
:102CC000006830F0400021680860606D002801D085
:102CD0005FF00108012084F85100002084F85000C2
:102CE000404640B2BDE8F2832DE9F04782B00400CF
:102CF0000E0017009A46002000215FF000095FF0E7
:102D00000108002594F95000012801D10220F3E0C8
:102D1000012084F85000FFF71AFD814694F9510014
:102D20006168012809D0B1F5827F04D1A16800292A
:102D300001D1042801D00225D6E0002E06D0002FB4
:102D400004D01FFA8AFABAF1000F01D10125CBE0B5
:102D500094F95100012802D1052084F85100002087
:102D60006065A763A4F83EA0A4F83CA02663A4F87D
:102D700036A0A4F834A000202064002060642068FD
:102D80000068400605D42068006850F040002168C3
:102D90000860DDF828A0E068B0F5006F40D16068F9
:102DA000002802D0E08E012806D130882168C86052
:102DB000B61CE08E401EE086E08E002802D1E08F37
:102DC00000286ED0B8F1000F0FD0E08E00280CD094
:102DD00020688068800708D530882168C860B61CE4
:102DE000E08E401EE0865FF00008E08F00280CD0E7
:102DF00020688068C00708D52068C0683880BF1C7C
:102E0000E08F401EE0875FF001081AF1010FD3D078
:102E1000FFF79DFCB0EB09005045CDD3032563E0DF
:102E20006068002802D0E08E012806D13078216841
:102E30000873761CE08E401EE086E08E002802D1EA
:102E4000E08F00282DD0B8F1000F0FD0E08E0028C1
:102E50000CD020688068800708D530782168087316
:102E6000761CE08E401EE0865FF00008E08F0028B0
:102E70000CD020688068C00708D52068C06838700A
:102E80007F1CE08F401EE0875FF001081AF1010F00
:102E9000D3D0FFF75CFCB0EB09005045CDD3032540
:102EA00022E0CDF80090534601220221200000F0DC
:102EB00025F8002801D0032516E04A465146200097
:102EC00000F06DF8002803D00125202060650BE09C
:102ED000A068002808D1002000902068C0680090F9
:102EE0002068806800900098012084F8510000203C
:102EF00084F85000280040B2BDE8F6872DE9F04183
:102F000004000D0016001F00DDF81880206880689E
:102F10002840A84201D1012000E00020B0423BD06F
:102F200017F1010FF2D0002F05D0FFF710FCB0EB26
:102F30000800B842EAD32068406830F0E000216819
:102F400048606068B0F5827F0DD1A068B0F5004F91
:102F500003D0A068B0F5806F05D12068006830F01C
:102F6000400021680860A06AB0F5005F0CD12068BD
:102F700000684DF6FF71084021680860206800680D
:102F800050F4005021680860012084F851000020AE
:102F900084F85000032000E00020BDE8F08110B567
:102FA00082B0040000920B00002280212000FFF775
:102FB000A5FF002805D0606D50F02000606503205B
:102FC00000E0002016BD000010B50400002C01D167
:102FD000012033E0A0690028FFD194F839000028CF
:102FE00005D1002084F83800200000F05BFA24208E
:102FF00084F839002068C06830F400502168C86047
:10300000200000F0C2F82068006930F49040216888
:1030100008612068406930F02A0021684861206812
:10302000C06850F400502168C8600020E063202090
:1030300084F83900202084F83A00002010BD2DE9E2
:10304000F04182B004000D0016001F005FF0000880
:1030500094F8390020285DD1002D02D0B6B2002EA0
:1030600001D1012057E094F93800012801D1022054
:1030700051E0012084F838000020E063212084F82A
:103080003900FFF764FB8046A684E68403E02878D5
:10309000216848606D1CE08C002828D0E08C401E20
:1030A000E084A068B0F5805F16D100974346002207
:1030B0008021200000F031F8002801D003202AE010
:1030C0002888C005C00D216848602069002801D10A
:1030D000AD1CE0E76D1CDEE700974346002280212F
:1030E000200000F01AF80028D1D0032013E0009748
:1030F000434600224021200000F00FF8002801D0B4
:10310000032008E0202084F83900002084F83800EB
:10311000002000E00220BDE8F6812DE9F041040026
:103120000D0016001F00DDF8188020680068284098
:10313000A84201D1012000E0002076B2B04221D1A6
:1031400018F1010FF1D0B8F1000F04D0FFF7FFFA2A
:10315000C01B8045E9D22068C06830F4D070216877
:10316000C86020684069400840002168486120200C
:1031700084F83900202084F83A00002084F83800D0
:10318000032000E00020BDE8F0812DE9F0410400BB
:1031900000202068006930F44050E168084321684D
:1031A00008612068C068BC490840A16822691143D1
:1031B00062691143E269114308432168C8602068CD
:1031C000406930F44070A169084321684861E069B2
:1031D000B0F5004F40F0B0802068B049884203D07D
:1031E0002068AF49884253D1FFF748FA8046FFF77D
:1031F00045FA0600FFF742FA0700FFF73FFA05001D
:10320000FFF73CFA192101FB08F162685200B1FB9B
:10321000F2F16422B1FBF2F1192202FB06F26368BB
:103220005B00B2FBF3F2192303FB07F36668760039
:10323000B3FBF6F36426B3FBF6F3642606FB132216
:10324000D20032326423B2FBF3F212F0F8025200E1
:1032500012EB0111192202FB05F263685B00B2FB5D
:10326000F3F21923584363685B00B0FBF3F0642367
:10327000B0FBF3F0642303FB1020C0003230642263
:10328000B0FBF2F010F0070040182168886000E100
:10329000FFF7E4F98046FFF7E1F90600FFF7DEF9F2
:1032A0000700FFF7DBF90500FFF7D8F9192101FB4B
:1032B00008F162685200B1FBF2F16422B1FBF2F155
:1032C000192202FB06F263685B00B2FBF3F21923DA
:1032D00003FB07F366687600B3FBF6F36426B3FBE3
:1032E000F6F3642606FB1322D20032326423B2FBCB
:1032F000F3F212F0F802520012EB0111192202FB54
:1033000005F263685B00B2FBF3F21923584363686C
:103310005B00B0FBF3F06423B0FBF3F0642303FB2A
:103320001020C00032306422B0FBF2F010F0070031
:10333000401821688860ACE020685849884203D072
:1033400020685749884252D1FFF798F98046FFF725
:1033500095F90600FFF792F90700FFF78FF90500CE
:10336000FFF78CF9192101FB08F162689200B1FBAB
:10337000F2F16422B1FBF2F1192202FB06F263685A
:103380009B00B2FBF3F2192303FB07F36668B60058
:10339000B3FBF6F36426B3FBF6F3642606FB1322B5
:1033A000120132326423B2FBF3F212F0F00212EB9C
:1033B0000111192202FB05F263689B00B2FBF3F2D4
:1033C0001923584363689B00B0FBF3F06423B0FB00
:1033D000F3F0642303FB1020000132306422B0FBC1
:1033E000F2F010F00F0040182168886051E0FFF7FC
:1033F00035F98046FFF732F90600FFF72FF907008D
:10340000FFF72CF90500FFF729F9192101FB08F155
:1034100062689200B1FBF2F16422B1FBF2F1192271
:1034200002FB06F263689B00B2FBF3F2192303FB75
:1034300007F36668B600B3FBF6F36426B3FBF6F356
:10344000642606FB1322120132326423B2FBF3F22C
:1034500012F0F00212EB0111192202FB05F263686F
:103460009B00B2FBF3F21923584363689B00B0FB47
:10347000F3F06423B0FBF3F0642303FB102000019E
:1034800032306422B0FBF2F010F00F0040182168D7
:103490008860BDE8F0810000F369FFFF0010014083
:1034A0000014014000B587B000682E49884221D140
:1034B000002000902C48006850F010002A49086055
:1034C0002948006810F010000090009840200190FA
:1034D0000220029001200390032004900720059011
:1034E00001A9224800F048F88020019001A91F4856
:1034F00000F042F807B000BD80B5002000901C48E5
:10350000006850F002001A4908601948006810F07D
:103510000200009000981348164908605FF4E130FB
:103520001449486000201349886000201149C86090
:103530000020104908610C200E49486100200D4907
:10354000886100200B49C8610A48FFF73DFD01BDB5
:1035500001B54FF6FF73012269460648FFF76FFD7C
:10356000009802BD001001404438024000040240AF
:1035700030380240F007002078B4002400230024F3
:10358000002237E00825EDB212F00306F6B2B600CD
:10359000B5402C43DFF8E051960845F82640DFF8A7
:1035A000DC4124689C434D68ED0300D51C43DFF8E3
:1035B000CC512C60DFF8C84124689C434D68AD03B2
:1035C00000D51C43DFF8B8512C60DFF8B8412468FF
:1035D0009C434D68ED0200D51C43DFF8A8512C60D8
:1035E000694C24689C434D68AD0200D51C43664B72
:1035F0001C60521C102A80F0AA80012313FA02F4E6
:103600000B682340A342F4D14C68022C02D04C68D2
:10361000122C15D1D40810EB8404246A0F2512F063
:103620000706F6B2B600B540AC430D6912F00706C6
:10363000F6B2B600B5402C43D50810EB85052C62D8
:10364000046803251600F6B27600B540AC430D7948
:1036500015F003051600F6B27600B5402C43046061
:103660004C68012C08D04C68022C05D04C68112CF9
:1036700002D04C68122C17D1846803251600F6B2CC
:103680007600B540AC43CD681600F6B27600B54082
:103690002C438460446801259540AC434D68C5F3D4
:1036A000001595402C434460C46803251600F6B20B
:1036B0007600B540AC438D681600F6B27600B54092
:1036C0002C43C4604C68E40093D5002400942F4C34
:1036D000246854F480442D4D2C602C4C246814F440
:1036E00080440094009C244C950854F825400F25F4
:1036F00012F00306F6B2B600B540AC43244DA84222
:1037000001D100253FE7234DA84201D101253AE729
:10371000214DA84201D1022535E7204DA84201D113
:10372000032530E71E4DA84201D104252BE71D4D8E
:10373000A84201D1052526E71B4DA84201D1062547
:1037400021E71A4DA8427FF41DAF07251BE771BC86
:103750007047006989B2084201D0012000E00020D2
:1037600040B2704752B2002A02D089B2816102E0B1
:1037700089B209048161704708380140003C01406A
:10378000043C0140083C01400C3C014044380240EC
:10379000000002400004024000080240000C024009
:1037A000001002400014024000180240001C0240B9
:1037B00000B587B000200090DFF82003006850F4C7
:1037C0008050DFF818130860DFF81003006810F469
:1037D00080500090009800200090DFF804030068FB
:1037E00050F00100DFF8F8120860DFF8F40200681A
:1037F00010F001000090009800200090DFF8E00237
:10380000006850F00400DFF8D8120860DFF8D0023A
:10381000006810F004000090009800200090B0486C
:10382000006850F00200AE490860AD48006810F032
:1038300002000090009820200190022002900020B9
:103840000390032004900520059001A9A548FFF7E7
:1038500093FE30200190022002900020039003206C
:1038600004900520059001A99F48FFF785FE4FF4BD
:10387000005001900120029000200390002004904D
:1038800001A99A48FFF778FE99489A4908604FF4D1
:1038900082709849486000209649886000209549C8
:1038A000C8600220934908610120924948614FF4A1
:1038B00000709049886138208E49C86100208D4988
:1038C000086200208B49486200208A4988620720EC
:1038D0008849C8628748FFF733F807B000BD12B5C2
:1038E00083B069460023002418C1083903A91300D6
:1038F00010F00700C0008DF8000005E008786C4665
:10390000DBB21855491C5B1EDBB2002BF6D17FF0F1
:103910007F43D2B2521C92B269467648FFF758F8FC
:103920001FBD30B583B00C0001A900220A60002140
:103930008DF800100025002110F00700C00050F0A5
:1039400040008DF800007FF07F43012269466948FE
:10395000FFF73EF87FF07F43E4B2220092B201A964
:103960006448FFF706F9002106E0280201AAC9B25F
:103970008A5C50FA82F5491CC9B2E4B2A142F4D380
:1039800028003EBD00B583B001208DF80000FF2067
:103990008DF80100FF208DF80200FF208DF8030054
:1039A000FF208DF80400FF208DF80500FF208DF822
:1039B00006007FF07F43072269464E48FFF708F86C
:1039C00007BD10B501240020FFF7F2FEFFF7DAFF74
:1039D0000120FEF7BFFE01210420FFF7A2FF10F037
:1039E0000F00042800D000242000C0B210BD4248BF
:1039F00042490968C90603D50100481E0029F7D1CC
:103A0000704710B504000020002103210220FFF7B9
:103A100088FF30F47F400121A140C9B250EA012162
:103A200003220220FFF75BFF10BD10B50400080061
:103A300000210021C0B280B2FFF7E3FF0321012083
:103A4000FFF76FFF010031F46001E4B214F00700EA
:103A500051EA405103220120FFF741FFFFF7C7FF62
:103A600010BD38B504000D00002000210321022004
:103A7000FFF757FF00090001E4B250EAC400EDB2BD
:103A800015F00701084350F0100103220220FFF750
:103A900026FF31BD80B5002100210420FFF7C5FFBE
:103AA00007210020FFF7DDFF00210520FFF7BDFF04
:103AB0000020FFF7A6FF124903220120FFF70FFFA6
:103AC000FFF795FF03210320FFF72BFFFFF78FFF81
:103AD00003210320FFF725FF01BD00004438024009
:103AE000303802400000024000040240000802405A
:103AF0000030014048070020FFFF0F001004024083
:103B0000FF83080080B50020FFF771FF0321032029
:103B1000FFF707FF000902BD00B593B00020009039
:103B20006C48006850F080506A4908606948006835
:103B300010F08050009000980020009066480068C7
:103B400050F48040644908606348006810F4804085
:103B500000900098012006905FF4803007900220CA
:103B60000C905FF480000D9008200E904FF4A87028
:103B70000F90022010900720119006A8FEF754FA2B
:103B80000F20019002200290002003904FF4A050DB
:103B900004904FF480500590052101A8FEF738FCF1
:103BA000FEF70FFDFEF757FD4FF47A71B0FBF1F011
:103BB000FEF764FE0420FEF765FE002200215FF0A0
:103BC000FF30FEF745FE13B000BD000038B50025FC
:103BD000FEF788FDFFF7A0FFFFF78EFC00F08EF8E0
:103BE00000F0F0F800F0A2F9FFF7EBFE00280AD190
:103BF0003A4800F0C3F94FF47A70FEF7ABFDFFF7D7
:103C0000E0FE0028F7D0364800F0B8F9FFF742FF91
:103C10004FF4FA70FEF79EFD0620FFF773FF31495F
:103C2000086030480168304800F0A8F90320FFF729
:103C300069FF04002B480068201A00EE100AB8EE55
:103C4000C00ADFED230A20EE200A2848D0ED000A42
:103C5000F8EEE00A80EE200A254880ED000A2448AC
:103C6000006800F09DF902000B002100214800F0DF
:103C700085F93220FEF76EFD00F020F901280AD107
:103C80000620FFF73FFF17490860164801681648ED
:103C900000F074F9012500F02BF90128C6D1EDB22E
:103CA000002D13D00620FFF72DFF04000D480068FB
:103CB000201A4FF47A714843642190FBF1F00B49CC
:103CC00008600A4801680C4800F058F90025ADE783
:103CD00000007A444038024000700040E041000893
:103CE000F44100083C080020384200080000002091
:103CF0003808002008420008A441000800B587B039
:103D0000002000902C48006850F080002A4908608C
:103D10002948006810F08000009000980020009072
:103D20002548006850F010002349086022480068C8
:103D300010F0100000900098002000901E480068CD
:103D400050F010001C4908601B48006810F010007B
:103D50000090009800224FF400711848FFF702FD10
:103D6000002220211648FFF7FDFC002240211448C4
:103D7000FFF7F8FC4FF40070019001200290022040
:103D8000049001A90D48FFF7F7FB202001900120C6
:103D900002900220049001A90948FFF7EDFB4020A2
:103DA0000190012002900220049001A90448FFF72D
:103DB000E3FB07B000BD000030380240001C0240A9
:103DC0000010024000B587B0002000905548006800
:103DD00050F01000534908605248006810F010007D
:103DE00000900098002000904E48006850F01000AD
:103DF0004C4908604B48006810F010000090009893
:103E0000002000904748006850F0100045490860C5
:103E10004448006810F010000090009800200090C6
:103E20004048006850F010003E4908603D48006876
:103E300010F01000009000980020009039480068B1
:103E400050F01000374908603648006810F0100044
:103E50000090009801200190002002900120039022
:103E600001A93148FFF788FB022001900020029051
:103E70000120039001A92C48FFF77EFB042001904C
:103E8000002002900120039001A92748FFF774FB4E
:103E900008200190002002900120039001A92248EF
:103EA000FFF76AFB10200190002002900120039090
:103EB00001A91D48FFF760FB07B000BD80B50121D7
:103EC0001948FFF746FC002810D11420FEF742FCE9
:103ED00001211548FFF73DFC002807D101211248B8
:103EE000FFF737FC0028F9D0012000E0002002BDD8
:103EF00080B502210C48FFF72CFC002810D11420BB
:103F0000FEF728FC02210848FFF723FC002807D110
:103F100002210548FFF71DFC0028F9D0012000E030
:103F2000002002BD303802400010024000B587B0CA
:103F3000002000900F48006850F480700D49086020
:103F40000C48006810F480700090009800224FF434
:103F500080610948FFF706FC4FF480600190012062
:103F600002900020049001A90348FFF705FB07B069
:103F700000BD000030380240002002400EB400B501
:103F800082B003A9009102466B46012103487844A0
:103F90000A30FCF7F9F806BC5DF810FB21020000BE
:103FA0005FF0FF0C1CEAD05114BF614506E0C11060
:103FB000400721F0E04101F16051704779B900F00C
:103FC000004100020AD0B0FA80FC00FA0CF001F1C6
:103FD0006051A1EB0C5101EBD0214005704741022B
:103FE0000CBF40F4E0016FF00001002070470000BA
:103FF0001248006850F470001049086010480068CA
:1040000050F001000E49086000200E4908600C487D
:1040100000680D4908400A4908600C480C490860CE
:104020000748006830F480200549086000200949ED
:1040300008605FF0006008490860704788ED00E0A4
:104040000038024008380240FFFFF6FE103000241E
:10405000043802400C38024008ED00E019E050F846
:10406000041BCB0744BFA9F101035918121F0023F9
:10407000042A41F8043BF9D25FEA827C0B4604D55E
:104080004FF0000CA1F800C09B1CD10744BF0021D9
:10409000197050F8042B002AE1D1704730B501683F
:1040A00042688468091801EB5203D20748BF4C44A8
:1040B0000C30994200D130BD11F9012B11F8015B90
:1040C000002A04F8015B02D5521CF9D1F1E7521E17
:1040D000F4D5EEE710B5074979441831064C7C4415
:1040E000163404E00A68081D511888470146A142A9
:1040F000F8D110BD2C000000480000004EF6885199
:10410000CEF20001086840F470000860BFF34F8FE2
:10411000BFF36F8F4FF00070E1EE100A70470000A0
:104120003DFFFFFF000100004807002000000000E5
:104130006DFFFFFF640200006A0000000000002025
:104140007047FEE7FEE7FEE7FEE7704770477047FF
:1041500080B5FEF7F6FAFEF7B7FB01BD7047000029
:1041600000F00BF8002801D0FFF7B4FF0020C04694
:10417000C046FFF72BFD00F002F80120704700F069
:1041800001B800000746384600F002F8FBE70000DF
:1041900080B5C046C046024A11001820ABBEFBE7FE
:1041A000260002007765696768745F70726F706FD0
:1041B0007274696F6E3A25640A00000038B50446CF
:1041C0000D46284600F006F8A84218BF00242046F5
:1041D00032BD00000149FFF7BBB900BF0800002055
:1041E000BBF1C8A1B2BBB5BD204144373139302045
:1041F000210A0000BCECB2E2B5BD202041443731B9
:10420000393020210A000000D6D8C1BFA3BA2564E6
:104210002D3E252E32660A0000000000000000003E
:1042200001020304060708090148804701480047C6
:10423000F13F0008454200087A65726F3A25640A2A
:1042400000000000C046C046FFF758FFFFF788FF98
:104250000000000001020304FFF7FEBFFFF7FEBFEE
:10426000FFF7FEBFFFF7FEBFFFF7FEBFFFF7FEBF82
:10427000FFF7FEBFFFF7FEBFFFF7FEBFFFF7FEBF72
:10428000FFF7FEBFFFF7FEBFFFF7FEBFFFF7FEBF62
:10429000FFF7FEBFFFF7FEBFFFF7FEBFFFF7FEBF52
:1042A000FFF7FEBFFFF7FEBFFFF7FEBFFFF7FEBF42
:1042B000FFF7FEBFFFF7FEBFFFF7FEBFFFF7FEBF32
:1042C000FFF7FEBFFFF7FEBFFFF7FEBFFFF7FEBF22
:1042D000FFF7FEBFFFF7FEBFFFF7FEBFFFF7FEBF12
:1042E000FFF7FEBFFFF7FEBFFFF7FEBFFFF7FEBF02
:1042F000FFF7FEBFFFF7FEBFFFF7FEBFFFF7FEBFF2
:10430000FFF7FEBFFFF7FEBFFFF7FEBFFFF7FEBFE1
:10431000FFF7FEBFFFF7FEBFFFF7FEBFFFF7FEBFD1
:10432000FFF7FEBFFFF7FEBFFFF7FEBFFFF7FEBFC1
:10433000FFF7FEBFFFF7FEBFFFF7FEBFFFF7FEBFB1
:10434000FFF7FEBFFFF7FEBFFFF7FEBFFFF7FEBFA1
:10435000FFF7FEBFFFF7FEBFFFF7FEBFFFF7FEBF91
:10436000FFF7FEBFFFF7FEBFFFF7FEBFFFF7FEBF81
:10437000FFF7FEBFFFF7FEBFFFF7FEBFFFF7FEBF71
:10438000FFF7FEBFFFF7FEBFFFF7FEBFFFF7FEBF61
:10439000FFF7FEBFFFF7FEBF018A79FD002224F47C
:1043A0000002040101A0070020F0070020A0070080
:1043B00020A0070020A0070020450000202C0000BE
:0D43C00020C400F8FFDC00FAFF8100D100EE
:040000050800424568
:00000001FF
