:020000040800F2
:1000000008CE022049030008B1AE0008A361000831
:1000100065A00008D120000871D40008000000008D
:1000200000000000000000000000000013C00008F5
:100030009D23000800000000C5B1000849C2000867
:1000400063030008630300086303000863030008F8
:1000500063030008630300086303000863030008E8
:1000600063030008630300086303000863030008D8
:1000700063030008630300086303000863030008C8
:1000800063030008630300086303000863030008B8
:1000900063030008630300086303000863030008A8
:1000A0006303000863030008630300086303000898
:1000B0006303000863030008A1C20008630300088B
:1000C0006303000863030008630300086303000878
:1000D0006303000899D300086303000805D40008EF
:1000E0004527000863030008630300086303000852
:1000F0006303000863030008630300086303000848
:100100006303000863030008630300086303000837
:10011000630300086303000863030008ADC200081E
:100120006303000863030008630300086303000817
:100130006303000863030008630300086303000807
:1001400063030008630300086303000863030008F7
:1001500063030008630300086303000863030008E7
:1001600063030008630300086303000863030008D7
:100170006303000863030008630300080000000035
:1001800063030008630300086303000863030008B7
:1001900063030008630300086303000863030008A7
:1001A00063030008630300086303000800F002F81B
:1001B00000F0B2F80AA090E8000C82448344AAF14F
:1001C0000107DA4501D100F0A7F8AFF2090EBAE84D
:1001D0000F0013F0010F18BFFB1A43F0010318477B
:1001E000586F0100786F01000A444FF0000C10F8BE
:1001F000013B13F0070408BF10F8014B1D1108BFA5
:1002000010F8015B641E05D010F8016B641E01F844
:10021000016BF9D113F0080F1EBF10F8014BAD1C94
:100220000C1B09D16D1E58BF01F801CBFAD505E0B2
:1002300014F8016B01F8016B6D1EF9D59142D6D30C
:10024000704700000023002400250026103A28BF34
:1002500078C1FBD8520728BF30C148BF0B60704738
:100260006E2900F0B384702900F00582662911F030
:10027000BD86652911F0BA86672911F0B786612914
:1002800011F0B68603681B0A28BF41F08001692976
:1002900000F07681642900F07381752900F0708187
:1002A0006F2900F0AA85782900F0D181E92900F0B2
:1002B0004585E42900F04285F52900F03F85EF29C6
:1002C00000F0A785F82900F0D0810368DB0928BF7A
:1002D00041F08001632900F0B484732900F0B984EF
:1002E000E32901F07F81F32901F084810020704728
:1002F0001FB511F076FE01F0D7F9040000200021AF
:1003000011F0C2F9401C60600020002111F0A6F934
:10031000E0601FBD10B510BD01F098F91146FFF760
:10032000E7FF0FF06FFB01F071FA03B4FFF7F2FF84
:1003300003BC0DF093FA000030BF72B6704762B68E
:10034000704780F30888704709488047094800478C
:10035000FEE7FEE7FEE7FEE7FEE7FEE7FEE7FEE775
:10036000FEE7FEE704480549054A064B70470000D2
:100370004DC20008AD01000808C8022008CE0220C6
:1003800008CA022008CA0220704753EA020C00F093
:1003900069802DE9F04B4FF00006002B1FBFB3FA28
:1003A00083F503FA05F424FA05F65E4012BF1643FE
:1003B000B2FA82F502FA05F4C5F120051EBF22FA51
:1003C00005FC44EA0C04203556EA044C4FEA144478
:1003D00018BF641C4FF000084FF00009904271EB09
:1003E000030C39D3002919BFB1FA81F701FA07F6D6
:1003F000B0FA80F700FA07F6C7F120071EBF20FA0F
:1004000007FC46EA0C062037B6FBF4FCA7EB050711
:10041000103F07F01F0BCBF120060CFA0BFB2CFA58
:1004200006F644BFB3460026202FA4BF5E464FF019
:10043000000B5BEA060C08BF4FF0010B19EB0B0930
:10044000ABFB027C48EB0608C01B06FB02CC0BFB97
:1004500003CC71EB0C01C1E70B460246414648460E
:10046000BDE8F08B13B54FF000004FF00001AFF383
:100470000080BDE81C4070471CB50C46064B7B4411
:1004800069460090204600F0BAFB04460020694609
:1004900000F0C8FB20461CBDA30700000FB40449B0
:1004A00010B503AA029800F0D9FB10BC5DF814FB4C
:1004B000200000200FB41CB5084B06AA7B446946F7
:1004C0000090059800F09BFB04460020694600F070
:1004D000A9FB20461CBC5DF814FB0000650700006A
:1004E00070B5044685690068C10601D5302600E074
:1004F0002026C00707D070BDD4E9012130469047BF
:10050000206A401C20626D1EF6D570BD70B5044691
:1005100085690078C00707D170BDD4E9012120208A
:100520009047206A401C20626D1EF6D570BD70B5E4
:100530000C460546012A05D02878800600D5EA69D0
:10054000002302E0012305E05B1C934202D2E05C41
:100550000028F9D1A869E618C01AA861286A1844C9
:1005600028622846FFF7BCFF04E0D5E9012114F812
:10057000010B9047B442F8D32846FFF7C7FF70BD80
:100580002DE9F0410646002410687529314616A56C
:1005900010D000F0B0FA002802DA404213A507E0BC
:1005A00031688A0701D512A502E0490704D511A5D3
:1005B000012401E000F0A8FA00210A2206F1240734
:1005C00009E0B0FBF2FCB0FBF2F302FB1C003030A0
:1005D00078541846491C0028F3D123462A46304651
:1005E000BDE8F04100F099BA000000002D000000C5
:1005F0002B00000020000000F0B40D460188090522
:1006000002D5214C7C4402E01F4C7C440E34002176
:1006100000F1240608E002F00F071209E75D42EA44
:1006200003721B097754491C52EA0307F3D102787D
:100630000023120704D5702D06D009B1022311340E
:100640002246F0BC00F069BA01231034F8E770B517
:1006500004460D462146106800F056FA0246294627
:100660002046BDE870400023C6E7D21D22F00703F4
:10067000D3E90023C0E70368126843F02003036056
:100680000823C3610023B7E7406701002DE9F05F4D
:10069000894604464FF0000ADFF874B1FB44C0F805
:1006A00020A02046E1688847002874D0252806D07D
:1006B000D4E901219047206A401C2062F1E700261E
:1006C0005F462046E16888472028054607DB312D34
:1006D00005D2781910F8200C08B10643F1E7B007ED
:1006E00001D526F00406C4F81CA00027C4F818A001
:1006F0002A2D09D028460DF0AAF838B304EB870854
:10070000303DC8F8185019E059F8041B204604EB96
:1007100087029161E1688847012F054618D1E06999
:10072000002820DA26F020061DE0D8F8180000EB9B
:10073000800005EB40003038C8F818002046E1681A
:10074000884705460DF083F80028EED1012F0AD026
:100750002E2D08D12046E16888477F1C0546022FD0
:1007600046F02006C4DBA069002803DA404246F0C8
:100770000106A061F00701D026F010066C2D0BD009
:10078000682D09D04C2D39D06A2D35D0742D35D037
:100790007A2D33D016E038E0E1682F4620468847AE
:1007A000B842054609D16C2F26D04FF48060E1682D
:1007B000064320468847054604E06C2F1AD04FF4C4
:1007C000807006430DB3A5F14100192802D82035E9
:1007D00046F400664A462946204626604E46FFF704
:1007E0003FFD80B101280BD0F61D26F0070000F177
:1007F000080956E74020E4E78020D8E70020D6E744
:1008000006F104094DE7284652E7206ABDE8F09F4B
:10081000D066010030B505460B462A4613F8014B59
:1008200012F8010B08B1A042F8D01CB1002802D088
:100830006D1CF1E7284630BD40EA0103024630B5A1
:100840009B0710D14FF0013400E008C208C91D1BFE
:100850009D4315EAC41FF8D013F0FF0102F8011BF5
:100860000DD01B0AF8E711F8013B002B02F8013B01
:1008700005D011F8013B002B02F8013BF3D130BD4C
:1008800010B5431C02E010F8011B71B18107FAD1C9
:100890004FF0013202C88C1A8C4314EAC211F9D00D
:1008A000C01A0A0603D0C01E10BDC01A10BD0A042B
:1008B00001D0801E10BD0902FCD0401E10BD421E9A
:1008C00012F8013F002BFBD111F8013B002B02F87D
:1008D000013BF9D17047032A40F2308010F0030C3D
:1008E00000F0158011F8013BBCF1020F624498BF83
:1008F00011F801CB00F8013B38BF11F8013BA2F120
:10090000040298BF00F801CB38BF00F8013B11F09A
:10091000030300F02580083AC0F0088051F8043B3A
:10092000083A51F804CBA0E80810F5E7121D5CBFA7
:1009300051F8043B40F8043BAFF30080D20724BFDA
:1009400011F8013B11F801CB48BF11F8012B24BF6E
:1009500000F8013B00F801CB48BF00F8012B7047BD
:1009600010B5203AC0F00B80B1E81850203AA0E84A
:100970001850B1E81850A0E81850BFF4F5AF5FEA7E
:10098000027C24BFB1E81850A0E8185044BF18C931
:1009900018C0BDE810405FEA827C24BF51F8043BD8
:1009A00040F8043B08BF7047D20728BF31F8023B2C
:1009B00048BF11F8012B28BF20F8023B48BF00F8C0
:1009C000012B70474FF000020429C0F0128010F094
:1009D000030C00F01B80CCF1040CBCF1020F18BF1B
:1009E00000F8012BA8BF20F8022BA1EB0C0100F0AE
:1009F0000DB85FEAC17C24BF00F8012B00F8012B81
:100A000048BF00F8012B70474FF0000200B51346B5
:100A100094469646203922BFA0E80C50A0E80C501E
:100A2000B1F12001BFF4F7AF090728BFA0E80C50CF
:100A300048BF0CC05DF804EB890028BF40F8042BC8
:100A400008BF704748BF20F8022B11F0804F18BF35
:100A500000F8012B704700004FF0013C50F8042BC8
:100A600051F8043B9A4221D1A2EB0C03934313EAC1
:100A7000CC1317D150F8042B51F8043B9A4215D1EE
:100A8000A2EB0C03934313EACC130BD150F8042BC5
:100A900051F8043B9A4209D1A2EB0C03934313EAA9
:100AA000CC13DBD04FF00000704700BFD01A01BA62
:100AB000B1FA81F101F0180122FA01F0CB40C1F145
:100AC0002001DBB2C0B2C01A2CFA01F3D11A914353
:100AD00011EAC311E6D170477047704770477047FD
:100AE00010B500F0A1F9006810BD10B5044600F083
:100AF0009BF9046010BD09684A0501D540B27047F2
:100B0000C905FCD500B2704709684A0501D5C0B2D5
:100B10007047C905FCD580B270472DE9F0470D46F6
:100B200099469246044600F124080168880604D5D7
:100B3000E06921F01001216000E00120A84201DD00
:100B4000471B00E00027A1697A1902EB0900081A87
:100B5000A0612078C00602D42046FFF7C1FC002621
:100B600008E0D4E901211AF806009047206A401CE9
:100B7000761C20624E45F4DB2078C0060AD520465C
:100B8000FFF7AEFC06E0D4E9012130209047206A4F
:100B9000401C2062381EA7F10107F4DC07E0D4E90D
:100BA000012118F805009047206A401C2062281E89
:100BB000A5F10105F3DC2046FFF7A8FC207800062C
:100BC00002D50220BDE8F0870120FBE7116802682A
:100BD000006A530501D508700AE0D30501D50880E5
:100BE00006E0130603D5C217C1E9000200E0086061
:100BF0000120704701694A1C02610878704700B5FE
:100C00008FB0CDE901310021059105497944CDE945
:100C1000031011466846FFF739FD0FB000BD000014
:100C2000E5FFFFFF0A6802F8010B0A60704710B584
:100C3000436913B1AFF3008001E0FFF778FC0120B6
:100C400010BD127800F124010A7000224A700122BE
:100C5000EDE711684FF0FF32E9E70000074B70B590
:100C60000D467B44FFF7CBFF0446284600F0C6FC48
:100C700010B14FF0FF3070BD204670BD87E5000019
:100C80002DE9FF5F15468A460446DFF8AC80F8443C
:100C90000027D8E900103E46CDE9001010E03AF8F0
:100CA00016106A4602A800F0ADFC411C07D021785E
:100CB000890603D5E269391891420DD80744761C9C
:100CC0002078800602D5E069B84205DDAE42E6DB59
:100CD0003AF816000028E2D1A069C01BA0612046A6
:100CE000FFF7FEFBD8E90010CDE90010002017E067
:100CF0003AF818106A4602A800F084FCB0F1FF3FF1
:100D000081460BD000250DF1080B05E0D4E9012147
:100D10001BF8050090476D1C4D45F7D308F1010005
:100D2000B0428046E4DB206A384420622046FFF768
:100D3000EDFBBDE8FF9F0000F26001002DE9F041EE
:100D40008046D21D22F007020025D2E90002F529D3
:100D500015A614D0011E72F1000106DA0023D0EBB3
:100D6000030063EB020211A608E0D8F800108B071D
:100D700001D50FA602E0490701D50EA601251146AF
:100D8000002408F1240704E000F052F830323A550C
:100D9000641C50EA0102F7D12B46324621464046F8
:100DA000BDE8F041FFF7B9BE000000002D000000D3
:100DB0002B0000002000000030B4002100F12404CA
:100DC00008E002F00705D208303542EA4372DB083A
:100DD0006554491C52EA0305F3D10468002310A2AC
:100DE000250707D5A40600D421B1C46901230DA2AB
:100DF000641EC46130BCFFF790BE10B504462146A6
:100E00001068FFF781FE02462046BDE8104000232F
:100E1000D2E7D21D22F00701D1E90023CCE7000080
:100E2000000000003000000000487047A4C7022006
:100E300030B5B0F10A024FEA900E71F100034EEAAC
:100E4000817EB0EB0E0061EB91014FEA101E4EEA7D
:100E5000017E10EB0E0041EB11114FEA102E4EEA0D
:100E6000016E10EB0E0041EB11214FEA104E4EEADD
:100E7000014E10EB0E0041EB1141401841F1000111
:100E80004FEAD00040EA41704FEAD10110EB8005F3
:100E90004FEA810444EA907444EB01046D1944EB79
:100EA0000404521BA3414FF0000348BF0A3200D58F
:100EB00030BD401C41F1000130BD70472DE9FF4FAE
:100EC0000C461E464FF0FF378BB0D2E90001DDF82B
:100ED00060800A908A46C1F30A5505B93D46002153
:100EE00008464FF00000BAF1000F00F4400005DAA8
:100EF00000EB80004FF4400101EA50004FEA9059A6
:100F0000B9F1010F00DDB9460A9850EA4A000ED047
:100F100044F61050A5F2FF3545432F14B8F1000FE9
:100F20001ED07542291E1EDDC9F100021CE0B8F179
:100F3000010F4FF0000001D0302103E0F24305E043
:100F40002154401CB042FBDB3046002200212154DA
:100F50000B99C1F80880C1E900200FB0BDE8F08FFF
:100F6000BD1B6D1CDEE74A4600DA694206A800F0A8
:100F7000DFFB06AB93E8070003AB83E807005046AE
:100F80000A9900F04CFC8DE80700A0F500501F38CE
:100F900000900398002D09DD42F21F014A460844E3
:100FA00003A90390684600F0ABFE08E0A0F50050EE
:100FB0004A461F3803A90390684600F0B5FE8DE845
:100FC00007000004000C03D04FF0FF30410800E0A0
:100FD0001046B8F1000F03D00022009215461EE023
:100FE000751E05D4FFF724FF303262556D1EF9D50A
:100FF000B3460122084302D000227F1C04E020787F
:10100000302801D100227F1E002A099786D01DE0DA
:10101000112D07DAFFF70CFF303262556D1C50EAD4
:101020000102F5D1084302D00098C8B10EE00021BA
:10103000681E05E0235C625C63542254401E491C18
:101040008142F7DBAB46A81B401E0990002004F844
:101050000B000B98099AC0F80880C0E9002B7CE7C8
:1010600011264FF0000859E72DE9F04F8846044655
:10107000D21D22F0070191B0D1E90001CDE90A01AA
:101080000CF090FB02460B98C00F01D02D2007E01A
:101090002068810701D52B2002E0202101EAC00051
:1010A000032A099001D0072A05DB03464146204662
:1010B00000F0FEFA0BE12078800601D5E06900E03F
:1010C0000620B8F1650F814606D0B8F1660F18D03A
:1010D000B8F1670F70D131E00020B9F1110F009025
:1010E00001DB112301E009F101030AAA01A90CA8FF
:1010F000FFF7E4FEDDE90C70002609F101058346E7
:1011000047E001204B4600904FF000470AAA01A992
:101110000CA8FFF7D3FEDDE90DB00C995D46002663
:1011200010B909F101000D18B9EB050003D4C0F1A5
:10113000FF3609F10105A5EB09002BE0B9F1010F1C
:1011400001DA4FF001090020B9F1110F0090484673
:1011500001DD112300E003460AAA01A90CA8FFF74C
:10116000ADFEDDE90C704D46002683462078000771
:101170000AD4AB4500DA5D4601A8012D04DD411912
:1011800011F8011C302907D04F4502DA17F1040F7E
:1011900004DA012082460FE06D1EEEE7002F02DC2C
:1011A000ED1B3E4403E0781CA84200DD7D1CB81B0B
:1011B00000F1010A4FF000472078000703D4AA4548
:1011C00001DB4FF0FF3A0021B7F1004F0DF143086A
:1011D0008DF8431024D002202B23002F01DA7F4208
:1011E0002D230A21021EA0F1010000DC5FB197FB54
:1011F000F1FC97FBF1F201FB1C7C17460CF1300C63
:1012000008F801CDEEE7A8F1010003702188090577
:1012100001D5452100E06521A0F1010800F8011C7D
:1012200009980FA9A1EB0807FF1D00B10120411982
:1012300001EBEA70A1693844081A401EA0612078C9
:10124000C00602D42046FFF74BF9099828B1D4E92B
:1012500001219047206A401C20622078C00622D5D8
:101260002046FFF73DF91EE0002E04DBB34502DD0A
:1012700001A8805D00E03020D4E901219047206A78
:10128000401C2062761CAAF101005FEA000A0AD124
:1012900000F00AFAC0680168405CD4E90121904777
:1012A000206A401C2062281EA5F10105DCDC07E055
:1012B000D4E9012118F8010B9047206A401C2062F4
:1012C000381EA7F10107F3DC2046FFF71FF90320C2
:1012D00011B043E62DE9F04F04460D46D21D22F031
:1012E000070089B0D0E90097484639460CF05AFA11
:1012F0000246F80F01D02D2307E02068810701D5B1
:101300002B2302E0202101EAC0038DF820300BB12D
:10131000012000E00020032A824601D0072A04DBD6
:101320002946204600F0C4F93FE12078800601D428
:101330000D2500E0E569C7F30A560D2D49DA0021B5
:101340004FEA175B08464FF00000002F00F4400002
:1013500007DA00EB80004FF4400100EBD07001EAA7
:1013600060008115012901DD4FF0FF3100224FEAB5
:10137000850CBCF1180F06D31346ACF118004FF0E2
:101380008052C24003E04FF4801323FA0CF30CF1B7
:101390000C0CBCF1200F04D3ACF1200C09FA0CF0BA
:1013A00001E007FA0CF000294FF0004801DD18B900
:1013B0000FE00ED140450CD319EB02095F4121B972
:1013C000404502D19F4329EA0209BBEB175F00D0D9
:1013D000761C2088000502D57B48784402E07A48D4
:1013E0007844193808AA302302F80A30037C0AF13D
:1013F0000101002E0AF1020A53546A4602DC4FF042
:10140000300101E04FF031014FF001088DF800107C
:1014100002D0A6F2FF3603E059EA470100D06B4E36
:10142000002D02DC2178090704D54FF002082E2197
:101430008DF80110C44600210BE0C7F303433F01C0
:10144000C35C491C6D1E02F80830052908F101082B
:1014500001DA002DF1DC00210CE000EB1973491CCE
:101460001B786D1E082902F808304FEA091908F1A7
:10147000010801DA002DF0DC21688B0602D516E0A8
:10148000A8F10108E04505DD02EB080313F8013C73
:10149000302BF5D0B8F1000F09DD02EB080313F88B
:1014A000013C2E2B03D1090701D4A8F10108002D1E
:1014B00005DD3E2102F808106D1E08F10108407C90
:1014C000002E02F8080008F1010804DA2D20764207
:1014D00002F8080002E02B2002F808000A214FF46D
:1014E0007A70864208F101080BDB96FBF0F330338B
:1014F00002F8083096FBF0F308F1010800FB1366D0
:1015000001E0642E0CDB642096FBF0F3303302F82C
:10151000083096FBF0F308F1010800FB136601E0C8
:101520000A2E06DB96FBF1F0303002F8080008F1D5
:10153000010896FBF1F001FB1060303002F8080062
:10154000A16908F1010808EB050202EB0A00081A7C
:10155000A0612078C00602D42046FEF7C1FF216AB0
:1015600008AE01EB0A00206204E0D4E9012116F87C
:10157000010B9047BAF1010AF7D22078C00602D5D4
:101580002046FEF7ADFF6E4609E016F8010B3E2837
:101590000FD0D4E901219047206A401C2062B8F1A5
:1015A0000108F2D22046FEF7B1FF09B00320BDE8E2
:1015B000F08F206A2844206203E0D4E90121302022
:1015C00090476D1EEBD3F8E7C159010002FCFFFF05
:1015D00010B5436913B1AFF3008001E0FFF750FB92
:1015E000012010BD128800F1240182840022C284EF
:1015F0000122EDE711684FF0FF32E9E7007B00F0D0
:101600008000704770B516460C46054600F044F859
:10161000036893F80101012806D0FF2C0FD8185D4C
:1016200068B101202C7070BDD3F807013246214605
:1016300003F2071303442846BDE8704018474FF0F3
:10164000FF3070BD00487047A4C702207546FFF701
:10165000F9FFAE4605006946534620F0070085466F
:1016600018B020B5FEF77EFEBDE820404FF0000622
:101670004FF000074FF000084FF0000B21F007017A
:10168000AC46ACE8C009ACE8C009ACE8C009ACE8BD
:10169000C0098D467047000010B500F005F8001D28
:1016A00010BD00BFE5FF000000487047C4C702201E
:1016B0002DE9F0411F46044603260168072A01F47C
:1016C000006004DB08B116A505E016A503E008B12B
:1016D00015A500E015A521F010002060A069C01E2E
:1016E000A0610FB1401EA0612046FEF7F9FE4FB188
:1016F000D4E9012138469047206A401C2062C01C72
:10170000206206E0206AFAE7D4E9012115F8010B0E
:101710009047761EF8D22046FEF7F8FEBDE8F0812D
:101720004E414E006E616E00494E4600696E660085
:101730002DE9F047814616468AB0334878440DC8F3
:101740008DE80D0030487844801C03AC0DC884E857
:101750000D0041F69B300844372190FBF1F290FBDD
:10176000F1F5A5F1800501FB12041B3C02D5644292
:10177000012000E00020DFF890A080460027FA4416
:10178000AAF1BE0A0DE0E00709D03246684607EB31
:1017900047010AEB810100F0C7FA8DE807006410E9
:1017A0007F1C002CEFD1184F7F44AC3F18E0E807B6
:1017B00014D007EB04100DF1180A90E80E008AE827
:1017C0000E00C068F04201D198190890324606A96F
:1017D00003A800F0A9FA03AB83E807006D10641CAE
:1017E000002DE4D132466946B8F1000F03A802D0BB
:1017F00000F086FA01E000F097FAC9E90001C9F8A3
:1018000008200AB0BDE8F087F056010010B5044684
:10181000AFF300802046BDE81040FEF786BD5FEACA
:10182000400C08BF91F0000F4FEA8C234FEAC12211
:1018300043EA51514FEA1C5018BF00F5F0404FEAFF
:10184000300018BF41F000415FEA6C5C00F0298075
:10185000BCF1FF3F08BF40F080407047130C06BF4B
:1018600012044FF0100C4FF0000C130E04BF1202C4
:101870000CF1080C130F04BF12010CF1040C930FB0
:1018800004BF92000CF1020CD30F04BF52000CF104
:10189000010C11464FF00002A0F11F00A0EB0C005C
:1018A000704711F0004F08BF704731F000413FF41E
:1018B000D5AF0B0C06BF09044FF0100C4FF0000C15
:1018C0000B0E04BF09020CF1080C0B0F04BF090139
:1018D0000CF1040C8B0F04BF89000CF1020CCB0F30
:1018E00004BF49000CF1010CCCF12003A0EB0C006B
:1018F00022FA03F302FA0CF241EA030100F10100BB
:10190000704720F07F4C80EA030023F07F47ACEB68
:10191000070303F57C5300F0004003F1FF032DE9BA
:1019200080494FEA154B09B44FEA144325EA0B4EA0
:1019300024EA03480FF2042606EB132749083E78F1
:101940005FEA320203FB0667C7F5000707FB06F6EE
:101950004FEA54374FEAD64606F1020607FB066CFB
:10196000CCF1005C4FEA1C472CEA074C07FB06F45D
:101970000CFB06F504EB15464FEA961634BF002023
:101980004FF000404FEAD13706FB07FC4FEA1C4CF2
:101990000CFB0BF7D21B03FB0CF761EB07010CFBF5
:1019A0000EF7B0EB074072EB17420CFB08F734BFA1
:1019B000A2EB0742B2EB074261EB17414FEA0C443E
:1019C0004FEA910706FB07FC4FEA1C4C0CFB0BF798
:1019D000B0EBC74072EB573203FB0CF734BFA2EBFE
:1019E000C742B2EBC74261EB57310CFB0EF7B0EBCD
:1019F000C70072EB57720CFB08F734BFA2EBC702AB
:101A0000B2EBC70261EB5771039F4FEA816141EA74
:101A1000921104EBCC044FEAD1374FEA826206FB05
:101A200007FC42EA90124FEA80604FEA1C4C0CFB24
:101A30000BF7D21B03FB0CF761EB07010CFB0EF756
:101A4000B0EB074072EB17420CFB08F734BFA2EB78
:101A50000742B2EB074261EB17414FEA8C554FEA60
:101A6000910704EB9C2406FB07FC4FEA1C4C0CFB83
:101A70000BF7B0EBC74072EB573203FB0CF734BFE8
:101A8000A2EBC742B2EBC74261EB57310CFB0EF73A
:101A9000B0EBC70072EB57720CFB08F734BFA2EB38
:101AA000C702B2EBC70261EB577115EB4C254FEA49
:101AB000816141EA92114FEA82624FEAD13742EAEC
:101AC000901206FB07FC44F100044FEA80604FEAE5
:101AD0001C4C0CFB0BF7D21B03FB0CF761EB070153
:101AE0000CFB0EF7B0EB074072EB17420CFB08F74C
:101AF00034BFA2EB0742B2EB074261EB174115EB93
:101B00001C154FEA813141EA92414FEA823242EAA2
:101B100090424FEA80304FEA0C7644F1000448EAE4
:101B200003434EEA0B484FF0000EB2EB080C71EB8A
:101B3000030724BF624639464EEB0E0E4FF0000BF2
:101B40000018524149414BEB0B0BB2EB080C71EB07
:101B500003077BF1000B24BF624639464EEB0E0EA5
:101B60004FF0000B0018524149414BEB0B0BB2EB0D
:101B7000080C71EB03077BF1000B24BF624639466A
:101B80004EEB0E0E51EA020718BF46F0010616EBA7
:101B90000E7655F1000254F1000103D5BDE889012C
:101BA000BDE80088BDE88901BDE80048B61952418A
:101BB00041EB0101A3F10103704780807F7E7D7CB2
:101BC0007B7A7978777676757473727171706F6ECF
:101BD0006E6D6C6C6B6A6A6968686766666564647A
:101BE000636362616160605F5F5E5E5D5D5C5C5B04
:101BF0005B5A5A5959585857575656555555545473
:101C0000535352525251515050504F4F4F4E4E4DD0
:101C10004D4D4C4C4C4B4B4B4A4A4A49494948481C
:101C2000484747474746464645454544444444435C
:101C300043434342424242414141002B26D4770074
:101C400021D01CB54FEA370703B44FF010004FF016
:101C500010014FF000000FBCBDE810400BF1010B6C
:101C6000BBF1010F08BF5FEA170722BF12F10102A3
:101C700011F101014FF0004143F1000300F0004079
:101C800043EA00007047F9D35708DAE746EA064608
:101C900013F1400F4FEA16461FDD13F1200FDFBF8F
:101CA00016430A46002120335B42C8D0C3F1200707
:101CB00046EA064602FA07F74FEA164646EA0706DC
:101CC000C3F1200722FA03F201FA07F721FA03F120
:101CD0004FF0000342EA0702B1E746EA020646EA8D
:101CE00006464FEA164646EA0106BCBF46EA0646E5
:101CF000360C4FF000034FF000024FF000019EE75A
:101D00002DE9C048934630B491E8380007C831EA5D
:101D1000400C48BF34EA430C03D5FFF7F2FDFFF750
:101D20008CFFF0BCBDE800882DE9C048934630B474
:101D300091E8380007C810F0804F08BF13F0804FBB
:101D400003D100F005F8FFF778FFF0BCBDE800888C
:101D500020F07F4780EA030023F07F4C07EB0C0361
:101D6000A3F57C5300F00040A3F1FE0392F0000FB6
:101D700000F0B38095F0000F00F077802DE9014965
:101D80004FEA11404FEA144621EA004800FB06FCE6
:101D900024EA064708FB06F607FB08F800FB07F7EE
:101DA00018EB06484CEB164C4FEA124B18EB074861
:101DB0004FEA15464CEB174022EA0B4E0BFB06FC94
:101DC00025EA06470EFB06F607FB0EFE0BFB07F7A0
:101DD0001EEB064E4CEB164C4FF000061EEB074E6A
:101DE0004CEB174B18EB0B0840F1000018EB0E0BF7
:101DF00058EB000840F100008F1A4FF000013CBF83
:101E0000C943661B14BFB5EB040C00213CBFC9439A
:101E1000F61B4FEA17444EEA8E0E27EA04454FEAB6
:101E20001C4704FB07622CEA074C05FB07F70CFB79
:101E300005F604FB0CFC16EB074642EB174216EBCB
:101E40000C4642EB1C421BEB060658EB02024141DA
:101E500046EA9E0601D5BDE80189B619524141EB1B
:101E60000101A3F10103BDE801894FEA14454FEADE
:101E7000114724EA054621EA074C05FB07F406FB57
:101E800007F70CFB06F105FB0CFC11EB074144EBDB
:101E900017444FEA124711EB0C4144EB1C4422EA71
:101EA000074C05FB07F206FB07F70CFB06F605FBE4
:101EB0000CFC16EB074642EB174216EB0C4642EBC6
:101EC0001C456A1854F1000148BF7047B6195241C9
:101ED00041EB0101A3F10103704795F0000F37D0EA
:101EE0004FEA11424FEA144721EA024624EA074C1E
:101EF00002FB07F106FB07F70CFB06F402FB0CFCE8
:101F000014EB074441EB17414FEA154714EB0C441F
:101F100041EB1C4125EA074C02FB07F506FB07F7DE
:101F20000CFB06F602FB0CFC16EB074645EB1745CF
:101F300016EB0C4645EB1C42121951F1000148BF4B
:101F40007047B619524141EB0101A3F101037047FB
:101F50004FEA14454FEA114724EA054621EA074CA7
:101F600005FB07F106FB07F70CFB06F24FF0000636
:101F700005FB0CFC12EB074241EB174112EB0C4244
:101F800051EB1C4148BF7047921841EB0101A3F18E
:101F90000103704704F026B92DE9F0410D460146D2
:101FA000002004464E1908E00702301B401E80B294
:101FB00000F007F8641C3844E4B2AC42F4D3BDE846
:101FC000F08110B5044604F0B5F9200AA02101EB18
:101FD0004000C0B204F07EF904F0EEF9E0B204F083
:101FE00079F904F0E9F904F0A5F9A12004F072F9F7
:101FF00004F0E2F9002004F039F9044604F0BAF9DB
:10200000204610BD2DE9F04116460D460746002436
:1020100009E0E00025FA00F0C1B2381980B200F002
:1020200006F8641CE4B2B442F3D3BDE8F08170B5A5
:102030000D46044604F07EF9200AA02101EB400081
:10204000C0B204F047F904F0B7F9E0B204F042F985
:1020500004F0B2F9284604F03DF904F0ADF904F0BB
:1020600089F9BDE870400A200BF0CEBE70B50400BF
:1020700007D011484FF40065012C06D0022C06D081
:1020800008E0282002F0BAF912E00C4900E00C49FF
:10209000C0E9005108490B4801F07CFE0A48056080
:1020A00000220221282002F0BFF9282002F0B1F915
:1020B0000648447070BD000090C702200000111057
:1020C0000000211000200240143C0140F8010020D3
:1020D000FEE7000070B50E4C0025C4F898520D487C
:1020E000016821F0C0010160016841F04001016018
:1020F0000948C0F88C52022004F526740BF092FEB9
:102100000120206002200BF08DFE256070BD0000D4
:10211000008043420020024000004442154810B5B0
:10212000016886B041F080010160016801F0800122
:102130000591016841F4807101600068012400F498
:10214000807005904020CDE900040320CDE90240D5
:102150006946094801F01EFE0820009069460748BC
:1021600001F018FE0648C0F88C420648C0F89842B4
:1021700006B010BD30380240001C02400020024072
:10218000000044420080434270B50E4C0026C4F863
:1021900098620D48016821F0C0010160016841F0BA
:1021A0004001016009480125C0F88C52022004F565
:1021B00026740BF037FE256002200BF033FE2660FC
:1021C00070BD0000008043420020024000004442F5
:1021D0002DE9F047824619480024016821F0C0012A
:1021E0000160016801601E200BF01CFE0025144EEA
:1021F000DFF850902F464FF00108C6F89872022081
:102200000BF010FEC6F898826006040ED9F80C0296
:1022100008B1641CE4B202200BF004FE6D1CEDB2A8
:10222000082DEAD3BAF1000F04D0FFF753FF204680
:10223000BDE8F087FFF7A8FFF9E7000000200240A3
:1022400000804342000044422DE9F047054615480E
:10225000016821F0C0010160016841F040010160A6
:10226000114E0027C6F89872DFF840803C464FF0C8
:102270000109E909C8F88C126806050E02200BF066
:10228000D1FDC6F8989202200BF0CCFDC6F89872EA
:1022900002200BF0C7FD641CE4B2082CE9D3BDE8B2
:1022A000F0870000002002400080434200004442CA
:1022B00070B50F48016821F0C0010160016841F06C
:1022C000400101600B4E0120C6F88C020A4DC5F892
:1022D00098021E2005F5267506F523760BF0A2FD63
:1022E0000024346002200BF09DFD2C6070BD0000C6
:1022F00000200240000044420080434270B50F4875
:10230000016821F0C0010160016841F040010160F5
:102310000B4E0020C6F898020A4DC5F88C021E200C
:1023200005F5237506F526760BF07CFD0124346057
:1023300002200BF077FD2C6070BD000000200240F1
:10234000008043420000444270B5114800240168F7
:1023500021F0C0010160016801600E4D0120C5F847
:102360008C020D4EC6F8980207E0641CE4B2FA2C09
:1023700003D9FFF7C3FF012070BD02200BF052FD0F
:10238000D5F80C020028F0D1C6F8980270BD000004
:102390000020024000004442008043427047000099
:1023A0002DE9F04F85B04FF000084746CDF80C807E
:1023B00001244FF6FF70CDF8108004F0D3F8DFF859
:1023C000F8B2DFF8F8A24FF01009BC49CBF8007062
:1023D000183100260968CDE9001935461023C822B6
:1023E00002974621282009F069FEB5A1CDE9001920
:1023F0001023C82202974621922009F05FFEAF4ABF
:10240000B421203200200DF033FAB42100200DF069
:102410005FF900287ED00B2842D2012C02D0022C7A
:102420001FD0F9E0052E1BD2012E03D19AF800200F
:10243000302A0BD0A1490C39896801EB800050F893
:10244000040C01780AF80610761C31E09B4A0C3A1D
:10245000926802EB800050F8040C00788AF80000C3
:102460006DE0022D1BD2012D03D19AF80020302AF5
:102470000BD092490C39896801EB800050F8040CAC
:1024800001780AF805106D1C17E08C4A0C3A926826
:1024900002EB800050F8040C00788AF80000B9E0E4
:1024A0000DD1012C02D0022C04D0B5E09EB3761ED3
:1024B000F6B244E0002DF2D06D1EEDB2AAE00C2879
:1024C00009D0641EE4B2012C3FF47FAF002C74D01D
:1024D000022CE4D0A0E0012C02D0022C6FD09BE0B3
:1024E00086B33246754903A80CF0C5FFB0F5803FAE
:1024F00029D34FF47840CBF800004E4673A08DE806
:10250000C1001023C8226421282009F0D7FD4FF410
:10251000FA7001E095E012E00BF076FC4FF4FA70EF
:102520000BF072FC70A08DE8C1001023C82264215A
:10253000282009F0C3FD00261F20CBF800000AF870
:10254000067069E018E05D4956230C39EF224860B7
:102550004FF6FF7000904621922004F0F9F9574998
:10256000CBF80070183102244968CDE90019102316
:10257000C822029746218EE04FF47840CBF8000045
:1025800060A1CDE900191023C822029764212820F8
:1025900009F094FD4FF4FA700BF036FC4FF4FA702A
:1025A0000BF032FC50A1CDE900191023C82202978C
:1025B0006421282009F082FDBEE74DE0FFE7EDB37E
:1025C0002A463E4903A80CF056FFC0B21F2840D946
:1025D0004FF47840CBF800004D464EA08DE8A100A6
:1025E0001023C8226421282009F068FD4FF4FA70F6
:1025F0000BF00AFCC8200BF007FC3BA08DE8A10003
:102600001023C8226421282009F058FD00251F202E
:10261000CBF800000AF805704FF6FF7000905623C3
:10262000EF224621922004F093F9CDF800A0CDE9E5
:1026300001971023C8224621922000E00FE009F004
:102640003DFD08F1010000F0FF08B8F11E0F26D093
:102650002DE01A490C39487005B0BDE8F08F4FF4F1
:102660007840CBF8000032A1CDE900191023C82230
:1026700002976421282009F021FD4FF4FA700BF035
:10268000C3FBC8200BF0C0FB17A1CDE90019102334
:10269000C82202976421282009F010FDB7E72848D6
:1026A0004FF00008D0F88012C943C0F880120A2009
:1026B0000BF0AAFBA9E60000280000201802002069
:1026C000202020202020202020200000B5D8D6B7B0
:1026D000B3ACB3F6B7B6CEA72CC7EBD6D8D0C2C929
:1026E000E8D6C3A3A1000000202020202020202025
:1026F00020202020202020202020202020202020DA
:1027000000000000C7EBC9E8D6C3B5D8D6B7A3A16F
:1027100000000000D0C5B5C0B3ACB3F6B7B6CEA7C5
:102720002CC7EBD6D8D0C2C9E8D6C3A3A1000000FD
:10273000C7EBC9E8D6C3D0C5B5C0A3A1000000004F
:10274000008040424FF4006001F018BB102A0FD007
:10275000C26AD1E9002342EA03220B89097B4FEACE
:10276000034343EA016142EA010203D1C26002E08D
:10277000C268EEE7C2624FF000007047102A0FD027
:10278000826AD1E9002342EA03220B89097B4FEADE
:10279000034343EA016142EA010203D1826002E09D
:1027A0008268EEE782624FF00000704730B50A6839
:1027B000102A1AD0026A104B02EA0302D1E901344E
:1027C00043EA0403D1E9034544EA050443EA040368
:1027D0004C69896943EA442343EA413141EA0201F1
:1027E00041F0080103D1016002E00268E3E7016201
:1027F0004FF0000030BD00008101F0FF70B5B3F56F
:10280000804F05D06FF0704140F82210002070BD5D
:1028100050F82230084C2340D1E9004544EA051421
:102820008D688E892D0245EA064589692C430C4343
:102830001C4340F82240E9E70000F0CFF0B50C68F7
:1028400050F82450194A1540D1E90123D1E9036712
:102850001A433E4332434E6932438E693243CE6956
:1028600032430E6A32434E6A32438E6A3243CE6A34
:102870003243CE6B32430E6B32434E6B32432A43AC
:10288000082B01D142F0400240F824204A6BB2F5F7
:10289000801F08D10A6832B14FF480720A6104497E
:1028A0000268114301600020F0BD00008000E0FFDD
:1028B00000011000F0B500EB820253688E8903F02E
:1028C0004044D1E9003543EA05138D682D0245EAFD
:1028D00006452B430E8A0D4D05EB065633430E7D00
:1028E0006F0107EB066633438E693343234353601E
:1028F0000268D20207D54268098A22F4700205EB09
:102900000151114341600020F0BD00000000F0FFC4
:1029100030B5D1E901231A43D1E9033423431A43E3
:102920004B690D681A438B691A43D1E90734012DAD
:10293000496A05686FF30E0505D01A4322430A431E
:102940002A43026008E0234329430B4341680360A4
:102950006FF30E010A434260002030BD426942EA33
:102960004101416100207047F8B514460546D1E9A0
:10297000000210438A686FF01F03C96803EB42121C
:1029800042EA412108430090286101F0FBFA064623
:1029900009E0601C07D024B101F0F4FA801BA042CA
:1029A00001D90320F8BDA8698006F2D40020F8BD43
:1029B000F0B56FF00F05D1E9003405EB04145B1E90
:1029C0002E0123438C682F0306EB04244FEA054CA9
:1029D00023430D8A8E8ACC68097E4FF07F4E07EB29
:1029E00005450CEB06560EEB0161012A0CD08268FE
:1029F0003F1107EB043423432B43334302F070426F
:102A00000B43134383600FE0C2682B430B4302F078
:102A100070428168134301F070422103A1F5805197
:102A200031431143C36081600020F0BD70B536486A
:102A300088B00024016841F080010160016801F064
:102A400080010691016841F480710160006801A96C
:102A500000F4807006908020012581E83100032079
:102A600004902A4801F096F92802CDE9010501A950
:102A7000274801F08FF9FFF751FB264EC6F8A04218
:102A8000142006F528760BF0BFF9356032200BF0E4
:102A9000BBF98DF8004001226946002000F008F9DA
:102AA00001226946A42000F003F916208DF80000E9
:102AB00001226946802000F0FBF80C208DF8000010
:102AC00001226946882000F0F3F802226946A1201D
:102AD00000F028F89DF80000302803D19DF801107F
:102AE000032908D09DF80110012904D0022902D041
:102AF000012008B070BDC9B201EB002106A0FDF7AE
:102B0000CDFC0020F5E7000030380240001C0240F8
:102B100000200240000044424354502049443A25DA
:102B2000780D0A002DE9F04115460F460446FFF7DF
:102B3000BFFB7020FFF788FBFFF706FCE0B2FFF752
:102B400083FBFFF701FCFFF7B3FB7120FFF77CFB72
:102B5000FFF7FAFB00246E1E09E0B44201D0012009
:102B600000E00020FFF734FB3855641CE4B2AC42AF
:102B7000F3D3BDE8F041FFF7C1BB00002DE9F143FD
:102B8000474F00244FF00A09387882B0401CC0B289
:102B9000B0FBF9F209FB1201424DA046387009B1B1
:102BA0000A2863D2012202A90220FFF7BBFF9DF889
:102BB000080001075AD000F00F00062856D2FF2166
:102BC0008140C8B2C04340F0C000A8864FF0010861
:102BD0000026A98E08FA04F001423AD032480422B5
:102BE000694630F81400FFF79DFF95F844009DF802
:102BF0000010C0079DF8010001F00F010ED000EB9E
:102C0000012105EB440001849DF802209DF803108A
:102C100002F00F0201EB0221818110E000EB0120A4
:102C200022490988091A05EB440081819DF8022098
:102C30009DF8031002F00F0201EB022101849DF8C0
:102C400000000821B1EB101F03D005EB44000684FF
:102C50008681641CE4B2052CBBD3A9894FF001081E
:102C600019B9288C08B98DF808603E709DF80800E5
:102C7000C0060CD1A88E010602D520F0800005E028
:102C80004FF6FF71A981298400F0E000A88638780A
:102C9000F02801D987F800904046BDE8FE83000087
:102CA000480000205000002044670108F003002085
:102CB0002DE9F04115460E4604460027FFF7F8FAC5
:102CC0007020FFF7C1FAFFF73FFBE0B2FFF7BCFA55
:102CD000FFF73AFB002408E0305DFFF7B5FAFFF795
:102CE00033FB070003D1641CE4B2AC42F4D3FFF71A
:102CF00005FB3846BDE8F08138B50446094D4FF074
:102D0000AA300090A879042360436A46002108F0A5
:102D1000BFF8A879042360436A460021401C08F0EC
:102D2000B7F838BD481800202DE9FC47254F8946E3
:102D30000646002500240DF1040810E0CDF80080BF
:102D4000798870438B084A46002107F023FF788872
:102D5000BDF80410B1EB900F04D1641CA4B2B87993
:102D6000A042EBD8B879A04202D10020BDE8FC8790
:102D7000304607F033FD20B1294613A0FDF78EFB46
:102D800016E0B9F1FF3F13D000200AE07A8806FB75
:102D9000001093080022114608F052F8BDF8040014
:102DA000401CADF80400B879BDF804108842EDD895
:102DB0006D1CADB2032DBDD3314609A0FDF76EFBEE
:102DC0000120D3E7481800206572726F7220657287
:102DD00061736520626C6F636B3A25640D0A0000B5
:102DE00062616420626C6F636B20636865636B650E
:102DF000643A25640D0A000038B50446104D0020E1
:102E00008DF80000A879012360436A46002107F08D
:102E1000F5FE9DF80000FF2801D0022038BDA879FA
:102E2000012360436A460021401C07F0E7FE9DF83D
:102E30000000FF2801D0012038BD002038BD00006F
:102E4000481800202DE9F84F91462F4A8A461D4622
:102E50009179B0FBF1F3B0FBF1F801FB130B4046A5
:102E600000F0B8F8284907464889B84202D2012044
:102E7000BDE8F88F002428E05C4516D3ADB14A8840
:102E8000A2EB0A01A94201D28EB200E0AEB207FB6A
:102E9000004108FB00404B465246009607F026FBD7
:102EA0004FF0000AB144AD1B05E007FB004108FBF1
:102EB000004007F0EDFB30B13846FFF71DFF012061
:102EC00000F024F8CBE7641CA4B20F498879A04233
:102ED000D2D80D46A879A04214D1384600F028FA7D
:102EE000404607F07BFC00206A89696908E031F8F8
:102EF0001040444502D121F8107003E0401C80B21C
:102F00008242F4D80020B3E748180020F8B50646FE
:102F10000021294D4FF6FF7003E06A6922F8110085
:102F2000491C6A898A42F8D80020A88104461CE01E
:102F3000A879042360436A46002107F05FFE9DF8EC
:102F40000000FF280CD1B6B1A879012360436A467E
:102F50000021401C07F052FE9DF80000FF280AD017
:102F6000214616A0FDF79AFA641C6989A142DFD8B0
:102F700000206A6916E09DF802009DF8031000EB3E
:102F800001206989814202D9696921F81040A88924
:102F9000401CA881E8E732F810308B4201D3E88169
:102FA00002E0401C8142F6D8E889642801D2022060
:102FB000F8BD0020F8BD00004818002062616420C0
:102FC000626C6F636B20696E6465783A25640D0AE4
:102FD0000000000070B5104E104C71892268491E27
:102FE000914200D2216000F001052946206800F0DE
:102FF00017F8411C0AD170892168401E884207D900
:103000002946206000F00CF8411C01D0206070BD02
:103010004FF0FF3070BD0000481800203C00002039
:10302000F8B50D460021401C0091040012D00C4F51
:10303000012626EA0400A8420AD1B879611E484355
:1030400004236A46002107F0D9FD0098401C04D0F3
:10305000641EEED14FF0FF30F8BD601EF8BD0000D9
:1030600048180020F8B5254E00273C46B78113E0EC
:103070002046FFF7C1FE70B9204607F0AFFB38B11C
:1030800021461FA0FDF70AFA2046FFF735FE02E0B1
:10309000B089401CB081641C7089A042E8D8B18915
:1030A0001BA0FDF7FBF9B089642801D20120F8BD0F
:1030B000C0EB4010642100EB4000B0FBF1F50024B0
:1030C000009710E02046FFF797FE58B9B079022329
:1030D00060436A46194607F0DBFE0098401C0090EA
:1030E000A84203D0641C7089A042EBD80120FFF7EE
:1030F0000DFF0028DBD00220F8BD0000481800209A
:1031000042616420626C6F636B3A25640D0A0000B3
:10311000676F6F645F626C6F636B6E756D3A256489
:103120000D0A000010B507F083FB00BB184C616965
:1031300011B100200CF040FE6089410000200CF02D
:1031400047FE606161894900FDF73CFC606970B130
:103150000120FFF7DBFE60B10EA0FDF79FF9FFF73E
:1031600081FF90B111A0FDF799F9022010BD012057
:1031700010BD618912A0FDF791F9A18916A0FDF794
:103180008DF9E18919A0FDF789F9002010BD000033
:1031900048180020666F726D6174206E616E642045
:1031A000666C6173682E2E2E0D0A0000666F726DBC
:1031B0006174206661696C6564210D0A000000007D
:1031C000746F74616C20626C6F636B206E756D3A06
:1031D00025640D0A00000000676F6F6420626C6F49
:1031E000636B206E756D3A25640D0A0076616C691B
:1031F0006420626C6F636B206E756D3A25640D0AF6
:10320000000000000549CA89824202D24FF6FF70D1
:103210007047496931F810007047000048180020D5
:103220002DE9FF5F9B4615468246002679E03F4C1C
:103230006088B0FBF5F1A079414301988319B3FB95
:10324000F1F0FFF7DFFF6189814203D8012004B06C
:10325000BDE8F09F354C6188A479B1FBF5F262437B
:10326000B3FBF2F702FB17326A43B2FBF1F300FB48
:103270000437B2FBF1F001FB1028A1EB0800B0FB12
:10328000F5F084B2ABEB0600A04200D284B204FB9E
:1032900005F91FFA89F31FFA88F15246384607F0FC
:1032A0005BFB032809D11FFA89F31FFA88F1524604
:1032B000384607F051FB032804D004282ED068B309
:1032C0000220C4E74B461FFA88F152463846FFF702
:1032D000B9FDDFF858804FF0FF3198F80600B7FBD2
:1032E000F0F0FFF721FD80B998F806000021B7FB48
:1032F000F0F0FFF719FD814698F80600B7FBF0F0F3
:1033000007F06CFAB9F1000F08D098F80600B7FB87
:10331000F0F0FFF7F1FC0120FFF7F8FD05FB04AA30
:1033200026445E4583D3002091E700004818002022
:1033300008B5CC218DF80010044901236A4689792B
:103340004843194607F0A4FD08BD000048180020B6
:103350002DE9FF4F85B0154600274FF0FF3B7BE07E
:10336000404C6088A179B0FBF5F048430699CB1931
:10337000B3FBF0F0FFF746FF61898046414503D873
:10338000012009B0BDE8F08F364A50889279B0FB31
:10339000F5F15143B3FBF1F401FB143101FB05FAE4
:1033A000BAFBF0F308FB0231BAFBF0F200FB12A902
:1033B000A0EB090080B2B0FBF5F002910899ADF8DE
:1033C0000400C91B8CB20391844200D3044601A8B7
:1033D00004FB05F600901FFA89F1C6F38F034FF046
:1033E000FF32029807F0D6FB08B10220C9E7BDF80A
:1033F0000400B0EB960F0FD1B3B21FFA89F1059A12
:10340000029807F075FC38B94146C34520D00846FC
:10341000FFF78EFFC346D8B11248817940884143F7
:10342000A1EB0A00B0FBF5F0039980B28CB2ADF8C5
:103430000400844200D3044604FB05F61FFA89F118
:103440003346059A0298FFF7FDFC08B1032098E780
:1034500005982744304405900898874280D300207F
:103460008FE70000481800202DE9F0433F4889B05D
:103470000024016841F080010160016801F08001D1
:103480000791016841F4807101600068802600F4B2
:103490008070079001AA012503270096DFF8D090DD
:1034A00082E8B0006946484600F074FC2802CDE985
:1034B000000569462F4800F06DFCFEF72FFEDFF88F
:1034C000B880C8F8A0420A200AF09EFCC8F8A052B2
:1034D0000A200AF099FCCDE90064CDE9024769466B
:1034E000484600F057FC64200AF08EFC042205A92F
:1034F00048F2401000F058F88DF8184005A91FA0B8
:10350000FCF7CCFF20A105A8FDF7A6FA18B1012011
:1035100009B0BDE8F08302208DF8140048F24005A0
:10352000012205A9284600F079F9012205A9E81D24
:1035300000F03AF89DF8141060290BD214A0FCF7A3
:10354000ADFF18488088A0F5AA41103902D10120AA
:1035500000F03EF90A200AF057FC8DF814400122D1
:1035600005A9284600F05AF90020D1E7303802407A
:10357000001C0240002002400000444243545020FE
:1035800049443A25730D0A003931343700000000F0
:1035900044656661756C74205665723A25640D0A3F
:1035A00000000000F00300202DE9F04115460F4611
:1035B0000446FEF77DFE2820FEF746FEFEF7C4FE19
:1035C000200AFEF741FEFEF7BFFEE0B2FEF73CFE2A
:1035D000FEF7BAFEFEF76CFE2920FEF735FEFEF779
:1035E000B3FE00246E1E09E0B44201D0012000E0C9
:1035F0000020FEF7EDFD3855641CE4B2AC42F3D375
:10360000BDE8F041FEF77ABE2DE9F14F6C4E002483
:103610004FF00A0B307882B0401CC0B2B0FBFBF216
:103620000BFB1201674DA146307009B10A2872D216
:1036300048F24E17012202A93846FFF7B5FF9DF860
:1036400008004FF0000801060AD500F00F00062818
:1036500006D28DF80480012201A9384600F0DEF878
:103660009DF80800010756D000F00F00062852D23E
:10367000FF218140C8B28DF80400C04395F834A002
:1036800040F0C000A886A889A882288C4E4F2885C3
:103690004FF00109A98E09FA04F001424ED04B48BF
:1036A0000422694630F81400FFF77EFFB888A0F5C1
:1036B000AA41103904D0A0F58641423916D03DE028
:1036C00095F84400C00715D09DF800009DF8011042
:1036D00000EB012105EB440001849DF802109DF8E8
:1036E000032001EB0221C1F5487126E095F8440062
:1036F000C00711D09DF800009DF8011000EB0121DA
:1037000005EB440081819DF802109DF8032001EB38
:103710000221018412E02CE09DF800009DF80110C8
:1037200000EB012105EB440001849DF802109DF897
:10373000032001EB0221C1F588718181641CE4B290
:10374000052CA7D3A9893A884FF001092846914250
:1037500003D8018C7A88914209D99DF8081001F0AC
:103760000F0101290CD9C1898181418C298486F8F6
:1037700000809DF8080000F08F0080280AD016E035
:10378000818A8181018D018480218DF80810A5F83E
:1037900034A0EEE7A88E010602D520F0800005E0F7
:1037A0004FF6FF71A981298400F0E000A8863078E7
:1037B000F02801D986F800B04846BDE8FE8F000029
:1037C0004900002050000020F00300200668010896
:1037D00008B500218DF800108DF801000E489DF805
:1037E0000020435C491C1A44C9B28DF80020B82956
:1037F000F5D3D0B2C043401C8DF80000B822064972
:1038000048F2470000F00AF80222694648F2FF0039
:1038100000F004F8002008BD4E6701082DE9F041D2
:1038200015460E4604460027FEF742FD2820FEF707
:103830000BFDFEF789FD200AFEF706FDFEF784FD6D
:10384000E0B2FEF701FDFEF77FFD002408E0305DE9
:10385000FEF7FAFCFEF778FD070003D1641CE4B222
:10386000AC42F4D3FEF74AFD3846BDE8F0810000D3
:103870002DE9F0433F4889B00024016841F0800100
:103880000160016801F080010791016841F48071D5
:1038900001600068802500F48070079001AA01266D
:1038A00003270095DFF8D09082E8D00069464846AB
:1038B00000F070FA4FF48078CDE900862F4E69460B
:1038C000304600F067FAFEF729FC002241463046F8
:1038D00000F053FB0A200AF097FA012241463046D5
:1038E00000F04BFB0A200AF08FFACDE90054CDE935
:1038F00002476946484600F04DFA64200AF084FA0F
:10390000042205A948F2401000F050F88DF8184044
:1039100005A91BA0FCF7C2FD1DA105A8FDF79CF899
:1039200018B1012009B0BDE8F08302208DF8140021
:1039300048F24005012205A92846FFF76FFF012242
:1039400005A9E81DFFF730FE9DF81410412905D2A6
:1039500011A0FCF7A3FD012000F036F90A200AF0BF
:1039600053FA8DF81440012205A92846FFF756FFA7
:103970000020D7E730380240001C024000200240FF
:103980004354502049443A25730D0A0D0A000000A3
:10399000393237310000000044656661756C74206F
:1039A0005665723A25640D0A000000002DE9F041C9
:1039B00015460F460446FEF77BFC2820FEF744FC24
:1039C000FEF7C2FC200AFEF73FFCFEF7BDFCE0B2AA
:1039D000FEF73AFCFEF7B8FCFEF76AFC2920FEF77A
:1039E00033FCFEF7B1FC00246E1E09E0B44201D0A6
:1039F000012000E00020FEF7EBFB3855641CE4B228
:103A0000AC42F3D3BDE8F041FEF778BC2DE9F147B5
:103A100083B00026634C8DF804604FF00A0A2078CA
:103A2000614D401CC0B2B0FBFAF20AFB12013746EE
:103A300020704FF6FF7909B10A287DD248F24E185E
:103A4000012203A94046FFF7B1FF9DF80C000106D3
:103A50000AD500F00F000B2806D28DF80460012271
:103A600001A9404600F0D6F89DF80C00010772D07D
:103A700000F00F000B286ED209FA00F1C843B5F828
:103A8000348040F0C000A886A889E883288C688626
:103A90008DF8046001279DF80400A98E07FA00F252
:103AA000114238D04149062231F8100002A9FFF72F
:103AB0007DFF95F844009DF80B10C0079DF80A00A3
:103AC0000ED000EB01219DF8040005EB40000184BD
:103AD0009DF808109DF8092001EB022181810FE07B
:103AE00000EB0120C0F548719DF8040005EB400093
:103AF00081819DF808109DF8092001EB02210184C5
:103B00009DF8041005EB41000B46028C009282895F
:103B100027A0FCF7C3FC9DF80400401CC0B28DF840
:103B200004000A28B7D32749AA8901270B88284609
:103B30009A4205D8028C00E00DE049888A4209D9F2
:103B40009DF80C1001F00F0101290BD9C189818169
:103B5000418C298426709DF80C0000F08F0080288D
:103B60000AD016E0C18B8181418E018480218DF8BD
:103B70000C10A5F83480EEE7A88E010602D520F0DF
:103B8000800005E0A5F80C90A5F8209000F46040B6
:103B9000A8862078F02801D984F800A004B038461F
:103BA000BDE8F0879800002050000020DA68010886
:103BB000785B25645D3A25642C795B25645D3A2544
:103BC000640D0A00F003002008B500218DF80010F4
:103BD0008DF801000E489DF80020435C491C1A44F2
:103BE000C9B28DF80020B829F5D3D0B2C043401C2B
:103BF0008DF80000BA22064948F2470000F00AF8A2
:103C00000222694648F2FF0000F004F8002008BDD7
:103C1000206801082DE9F04115460E4604460027AC
:103C2000FEF746FB2820FEF70FFBFEF78DFB200A70
:103C3000FEF70AFBFEF788FBE0B2FEF705FBFEF796
:103C400083FB002408E0305DFEF7FEFAFEF77CFB04
:103C5000070003D1641CE4B2AC42F4D3FEF74EFB80
:103C60003846BDE8F081000030B40C4601461546E8
:103C7000500700D0012000EBD50010FB05F0C2B2C8
:103C800008784B78812809D3402B07D3FF2B05D028
:103C9000FF2803D07F2B0CD2403B0BE000231846BB
:103CA00003E05B1C04F8010BDBB29342F9D330BC98
:103CB0007047413B8138D9B2C0B2C0EB401303EB2F
:103CC000801001EB400050430C490C2D0CD0102DFE
:103CD0000DD0182D0ED0202DE9D1D1F8211001449E
:103CE000204630BC09F030BCD1F80910F7E7D1F814
:103CF0001110F4E7D1F81910F1E70000D8C602203E
:103D000031B500F03FF9044600F03CF90099001B82
:103D10008842F9D338BD000030B4B0F5006F24D12B
:103D2000134A144B10465178134C0078012902D0E5
:103D3000022907D015E00021012800D119800220B6
:103D400050700CE00121012802D0022805D005E0C6
:103D5000188840F40040188000E011705170C4F8D9
:103D60008412507830BCFEF781B930BC7047000037
:103D7000F80100204000002000804042044910B5B6
:103D80000A68024202D00860FFF7C6FF10BD0000BB
:103D9000143C01402DE9F84FDFF8A091002209F111
:103DA000040A0AF1040B4FF00F080BF1040E012670
:103DB0000B6896403340B34271D14C68022C01D05D
:103DC000122C11D1D40800EB84073D6A5407E40E8D
:103DD00008FA04FC25EA0C05D1F810C00CFA04FC22
:103DE0004CEA050CC7F820C007685400032591F879
:103DF00004C0A5400CF0030CAF430CFA04FC4CEAE1
:103E0000070CC0F800C04F68012F05D0022F03D067
:103E1000112F01D0122F11D18768D1F80CC0AF43F8
:103E20000CFA04FC4CEA070CC0F808C04768B7431A
:103E30000E79C6F3001696403E434660C668AE4310
:103E40008D68A5403543C5604C68E4006FD53C4C97
:103E5000256845F480452560246822F0030504F4B4
:103E600080440094374C2E19D6F808789407250F13
:103E700008FA05F4A743344CA04201D100242EE0F7
:103E8000324CA04201D1012429E0314CA04201D1A1
:103E9000022424E02F4CA04202D103241FE046E07C
:103EA0002D4CA04201D1042419E02C4CA04201D198
:103EB000052414E02A4CA04201D106240FE0294C2D
:103EC000A04201D107240AE0274CA04201D10824D6
:103ED00005E0264CA04201D1092400E00A24AC40B0
:103EE0003C43C6F80848D9F800404D464E689C430C
:103EF000F60300D51C432C60DAF8004055464E68A6
:103F00009C43B60300D51C432C60DBF800405D46A3
:103F10004E689C43F60200D51C432C60DEF800403E
:103F200075464E689C43B60200D51C432C60521C5B
:103F3000102AFFF43CAFBDE8F88F0000003C0140C0
:103F400044380240003001400000024000040240BA
:103F500000080240000C0240001002400014024021
:103F600000180240001C02400020024000240240D1
:103F70000069084000D0012070470AB18161704794
:103F80000904FBE7014800687047000014000020A6
:103F900002480168491C01607047000014000020BD
:103FA0000B4810B5016841F400710160016841F4EB
:103FB00080610160016841F480710160052000F0BA
:103FC00053FA0F2000F006F800F08AF9002010BD27
:103FD000003C024010B5044600F0F4FC4FF47A7146
:103FE000B0FBF1F001F0C2FD00222146501E00F0AE
:103FF0001BFA002010BD2DE9F041044690F8A00006
:1040000015460F4601281DD0012684F8A060022025
:1040100084F8A10005EB850000EBC50004EB8000EF
:1040200034223830FCF79CFC2A463946204605F0FD
:10403000BFFB2068466284F8A160002084F8A000DD
:10404000BDE8F0810220FBE770B5040004D094F8CD
:10405000A100002510B106E0012070BD84F8A05039
:10406000204600F06FF8022084F8A10020688169E2
:1040700021F070418161D4E901100143D4E90302C8
:10408000104301432068826911438161206882687E
:104090002B490A408260A08A020420688368A669CE
:1040A0003343134383602068C2680A40C260A08B18
:1040B00002042068C368266A33431343C360206840
:1040C00002690A400261A08C020420680369A66AA2
:1040D000334313430361206842690A404261A08D63
:1040E000010420684269236B1A430A43426194F831
:1040F0003500020294F8360001042068C36A03F018
:104100007F43C3622068C36A94F834601143334329
:104110000B43C3622068416B41F004014163206896
:10412000416B41F0020141632068816941F0010166
:104130008161C4F8A450012084F8A100002070BD62
:1041400000F800F030B5364887B00025016841F02E
:1041500080610160006800F080600590304814388C
:10416000016841F400010160016801F4000105915A
:10417000016841F002010160016801F0020105914E
:10418000016841F020010160016801F02001059102
:10419000016841F040010160016801F040010591B2
:1041A000016841F080010160016801F08001059122
:1041B000016841F4807101600068032400F480709C
:1041C0000590202000900120CDE90204019069466D
:1041D0001448FFF7DFFD4FF4806000900220CDE926
:1041E00001050E20CDE9034069460F48FFF7D2FDD7
:1041F0004FF40C60009069460C48FFF7CBFD4FF47C
:104200007E40009069460A48FFF7C4FD40F2F7601F
:10421000009069460748FFF7BDFD07B030BD0000BC
:1042200044380240000402400014024000180240DA
:10423000001C02400020024070B5044690F8A00027
:104240000E46012820D0012584F8A050022084F8D1
:10425000A10003EB830000EBC30004EB800141F8F5
:10426000386F886A3044C1E90102C86A1044C860E6
:104270001A46204605F09CFA2068456284F8A15051
:10428000002084F8A00070BD022070BD2DE9F0412F
:10429000044690F8A0000F4601281FD0012584F89D
:1042A000A050022084F8A10003EB830000EBC300C0
:1042B00004EB80010026E1E90E672046C1E90262B5
:1042C000C1E90A721A4605F073FA2068456284F85B
:1042D000A15084F8A0600020BDE8F0810220FBE737
:1042E00008B50020009008BD70B515460E460400C4
:1042F00003D094F8210010B107E0012070BD002028
:1043000084F82000204600F021F8211D2068FEF7E7
:104310004DFAD4E900023146FEF730FAD4E9000242
:104320002946FEF713FA60681028206808D0016A51
:1043300041F004010162012084F82100002070BDD9
:10434000016841F004010160F5E7000070B52748FD
:1043500086B00024016841F001010160006800F0AE
:104360000100059021480838016841F0080101600A
:10437000016801F008010591016841F01001016038
:10438000016801F010010591016841F040010160F0
:104390000068032500F0400005904020CDE90004AE
:1043A0000120CDE90205124E69463046FFF7F2FCC6
:1043B0007015009001A9022081E831000C200490C2
:1043C00069460C48FFF7E6FC4DF63300009069465D
:1043D00002943046FFF7DEFC4FF4F060009069462F
:1043E0000548FFF7D7FC06B070BD00003838024022
:1043F000000C0240001802400010024000F01F02B2
:10440000012191404009800000F1E020C0F88011B6
:10441000704700F01F02012191404009800000F127
:10442000E020C0F800117047F0B40E4B1B68C3F3D6
:104430000223C3F10704042C00D904241D1D072DF9
:1044400001D2002300E0DB1E012606FA04F56D1EF2
:104450000D409D409E40761E164045EA0601F0BC88
:1044600006F027BD0CED00E0064A00F007011068D9
:104470004FF6FF03184040EA01200349084310604B
:10448000704700000CED00E00000FA052DE9F8434C
:104490001D48016841F0805101600068012700F06B
:1044A00080500090380490FAA0F0DFF86080B0FAF5
:1044B00080F048F82070FFF765FD04464FF47A75E8
:1044C000134E04E0FFF75EFD001BA84213D870688E
:1044D000C003F7D54FF4003090FAA0F0B0FA80F0A6
:1044E00048F82070FFF74EFD044607E0FFF74AFD4D
:1044F000001BA84202D90320BDE8F883706880033E
:10450000F4D50020F8E700004038024000000E42D9
:10451000007000402DE9F84F04460068DFF878820B
:104520009E4DC10747F6C07A4FF0E0464FF0010BB1
:104530004FF0000901D180074BD59949C1F8689027
:10454000FFF720FD074604E0FFF71CFDC01B6428B1
:104550007ED828680001F7D420789249C0070DD092
:104560009AFAAAF26068B2FA82F2904096FAA6F33A
:10457000A268B3FA83F39A4010430860207880075A
:1045800018D5086896FAA6F200F0E040B2FA82F276
:10459000D0406268237B920142EA036242EA0070E3
:1045A0000860D8F80010E26921F01F01521E114383
:1045B000C8F800107A49C1F868B0FFF7E3FC074675
:1045C00004E0FFF7DFFCC01B642841D82868000125
:1045D000F7D52068410701D4000776D57049C1F8A6
:1045E0007090FFF7CFFC074604E0FFF7CBFCC01B41
:1045F00064282DD82868C0438000F6D520786A4FFB
:1046000040074FF0706C29D5386896FAA6F100F093
:10461000E040B1FA81F1C8409AFAAAF22169B2FAEF
:1046200082F291409CFAACF36269B3FA83F39A4048
:10463000114396FAA6F2B2FA82F290400143396031
:10464000D8F800106FF0FF0321F4F851226A00E05F
:1046500079E003EB02221143C8F80010207800072C
:1046600023D538689CFAACF100F07060B1FA81F1A2
:10467000C8409AFAAAF22169B2FA82F291409CFAF1
:10468000ACF2B2FA82F29040014396FAA6F2A06927
:10469000B2FA82F2904001433960D8F80010626AA1
:1046A00021F440311143C8F800103D49C1F870B001
:1046B000FFF768FC064604E0FFF764FC801B6428F3
:1046C00041D82868C0438000F6D42078800651D5B0
:1046D00032484F464030016841F080510160006827
:1046E000324E00F080500090306840F480703060AE
:1046F000FFF748FC054604E0FFF744FC401B642834
:1047000021D83068C005F7D5264E143E3068218D7B
:1047100000F4407001F4407188422BD03068244985
:1047200020F44070C1F800B00F603060800710D5F1
:10473000FFF728FC054641F2883707E0FFF722FC27
:10474000401BB84202D90320BDE8F88F30688007CB
:10475000F4D5A06A1149C0F301220831032A13D00D
:10476000086820F4F81008603068218DC1F30B014F
:10477000084330602078C00604D50E4994F82C0018
:10478000C1F8E0010020DFE70A680B4B22F4F812C1
:10479000184002430A60E7E78C38024000380240C4
:1047A00000004742843802408838024000700040D0
:1047B000400E474200104742FFFCFF0F2DE9F05F1B
:1047C000DFF8F8A104460F46DAF80000DFF8F081C0
:1047D00000F00F02C8B27A49814641F2883608F1EA
:1047E0000808BA4261D202468AF80020DAF80000CE
:1047F00000F00F00B8427DD12078800707D5D8F8A7
:104800000020A36822F0F0021A43C8F800202078A4
:10481000C0072DD0606801281AD002281BD00328B9
:1048200019D009688907002964DAD8F800104746CA
:1048300021F003010143C8F80010FFF7A3FB054670
:10484000606801280FD0022818D003281CD027E068
:1048500009688903E7E709688901E4E7FFF792FB44
:10486000401BB04258D83868C0F381000128F5D108
:1048700088E0FFF787FB401BB0424DD83868C0F393
:1048800081000228F5D17DE03868FFF77BFB401BF3
:10489000B042F9D940E0FFF775FB401BB0423BD86E
:1048A000386810F00C0FF6D16CE02078800707D53F
:1048B000D8F80020A36822F0F0021A43C8F80020BC
:1048C0002078C0074CD06068012828D0022829D061
:1048D000032827D009688907002949DAD8F8002079
:1048E00022F003020243C8F80020FFF74BFB054605
:1048F000606800E03CE001281DD0022829D0032890
:1049000038D0B3464646306810F00C0F28D0FFF779
:1049100039FB411B5945F6D90320BDE8F09F0968D2
:104920008903D9E709688901D6E7FFF72BFB411B0B
:10493000594502D9F0E7B34646463068C0F38100D6
:104940000128F2D10CE0FFF71DFB411B594502D9AC
:10495000E2E7B34646463068C0F381000228F2D150
:104960008AF80090DAF8000000F00F00B84209D091
:104970000120D2E744462068FFF704FB401BB04209
:10498000F9D9C9E72078400707D5D8F80010E268C0
:1049900021F4E0511143C8F800102078000708D531
:1049A000D8F80010226921F4604141EAC201C8F838
:1049B00000100F20FFF70EFB0020AEE7003C024086
:1049C0000038024010B500F043F808490968F022A9
:1049D00092FAA2F201F0F001B2FA82F2D140044A56
:1049E000515CC8400349086010BD0000083802400F
:1049F000F41F01080000002010B5FFF7E3FF07498E
:104A000009684FF4E05292FAA2F201F4E051B2FACE
:104A100082F2D140024A515CC84010BD08380240C1
:104A2000F41F010810B5FFF7CDFF074909684FF4DF
:104A3000604292FAA2F201F46041B2FA82F2D140ED
:104A4000024A515CC84010BD08380240F41F0108FA
:104A500030B51948006810F00C01184812D0184CF5
:104A600004290ED008290DD1134A121F11681368AA
:104A700001F03F015D0247F6C07304D5B4FBF1F0CD
:104A800003E0204630BDB0FBF1F01168194093FA05
:104A9000A3F3B3FA83F3D940484311684FF440328B
:104AA00092FAA2F201F44031B2FA82F2D140491CEA
:104AB0004900B0FBF1F030BD083802400024F4009A
:104AC00040787D012DE9F84F04460078DFF8FCA21C
:104AD000BF4DC0074FF0000648D0DAF8001050462E
:104AE000C1F38101012908D00068C0F381000228C8
:104AF0000AD1281D0068400206D52868800335D5F4
:104B00006068002873D031E0DFF8C49209F102092F
:104B100089F80060FFF736FA074641F2883804E06A
:104B2000FFF730FAC11B41457AD828688003F7D4D3
:104B3000207989F80000606860B1FFF723FA074622
:104B400004E0FFF71FFAC11B4145EDD82868800338
:104B5000F7D50BE0FFF716FA074604E0FFF712FA65
:104B6000C11B4145E0D828688003F7D42078DFF8DE
:104B70006492800744D5DAF80010504611F00C0F0B
:104B80004FF0F80809D00068C0F3810002280BD16B
:104B90008E48001F0068400206D42868800714D59C
:104BA000E068012823D110E0E068D0B10120C9F805
:104BB0000000FFF7E7F9074604E0FFF7E3F9C01B41
:104BC0006428B1D828688007F7D5286898FAA8F231
:104BD0002169B2FA82F220F0F8009140084328607F
:104BE0000EE0C9F80060FFF7CDF9074605E0EAE0FE
:104BF000FFF7C8F9C01B642812D828688007F7D4CB
:104C00002078000725D5DFF8C4817348616908F171
:104C10006C0881B101210160FFF7B4F9074605E096
:104C20007EE0FFF7AFF9C01B642879D8D8F8000000
:104C30008007F6D50DE00660FFF7A4F9074604E00B
:104C4000FFF7A0F9C01B64286AD8D8F800008007D5
:104C5000F6D42078400753D55C483830016841F0DD
:104C6000805101600068DFF8748100F0805000908E
:104C7000D8F8001041F48071C8F80010FFF782F9ED
:104C8000074604E0FFF77EF9C01B642848D8D8F82F
:104C90000000C005F6D5DFF834B10BF1680B8BF8D6
:104CA0000060FFF76FF9074641F2883804E0FFF72C
:104CB00069F9C11B41457ED8DBF800008007F6D4B6
:104CC000207A8BF80000A06868B1FFF75BF907460F
:104CD00004E0FFF757F9C11B41456CD8DBF8000031
:104CE0008007F6D50CE0FFF74DF9074604E0FFF723
:104CF00049F9C11B41455ED8DBF800008007F6D4B6
:104D0000A069E8B3DAF80010C1F3810102295AD092
:104D1000022806D0C9F86060FFF734F904464DE078
:104D200049E04F46C9F86060FFF72CF9064604E0F9
:104D3000FFF728F9801B64283DD828688001F7D444
:104D4000D4E90701084347F6C07191FAA1F1626AFC
:104D5000B1FA81F18A40A16A4FF0FF3303EB5101B0
:104D60004FF4403393FAA3F3B3FA83F399400A4321
:104D700010434FF0706292FAA2F2B2FA82F200E0AF
:104D80001FE0E16A914008431049091F08600120B3
:104D90003866FFF7F7F8044604E0FFF7F3F8001B66
:104DA000642808D828688001F7D50AE0FFF7EAF8F8
:104DB000001B642802D90320BDE8F88F2868800111
:104DC000F4D40020F8E70120F6E70000083802409C
:104DD0000038024000004742800E47420070004009
:104DE00070B50D46040003D094F82C0010B107E014
:104DF000012070BD002084F82D00204600F012F83C
:104E0000022084F82C00211D2068FDF781FDD4E9E3
:104E100000022946FDF7CCFD012084F82C0000207B
:104E200070BD0000304800B5016887B041F0010155
:104E30000160006800F0010005902B480838016807
:104E400041F004010160016801F00401059101686D
:104E500041F008010160016801F008010591016855
:104E600041F010010160016801F010010591016835
:104E700041F020010160016801F020010591016805
:104E800041F0400101600068694600F04000059073
:104E90000D20009002200190012002900320039039
:104EA0000C2004901148FEF775FF4CF2037000903F
:104EB00069460F48FEF76EFF4FF683700090694613
:104EC0000C48FEF767FF4FF63F00009069460A481E
:104ED000FEF760FF48F23710009069460748FEF77A
:104EE00059FF07B000BD00003838024000080240FA
:104EF000000C024000100240001402400018024062
:104F000010B5044690F82C00022809D0022084F83D
:104F10002C002068FDF722FD012084F82C000020E1
:104F200010BD70B5044690F82C000D4602280CD038
:104F3000022084F82C002068FDF716FD286802285E
:104F400004D0012084F82C00002070BD0520F9E772
:104F50002DE9F04790F8202081F85620828CA1F8A6
:104F60005420826A0023120E94090C70C2F3830449
:104F70004C7002F003028A70826A120CCA70028DB1
:104F8000120A0A7190F828204A71C26A4FF6FF7A15
:104F9000120E0AEA0212CA80C26ACC88C2F3074221
:104FA00044EA1214CC8002F00F020A72828DC2F31E
:104FB0000722D4094C72C2F380148C72C2F34014DD
:104FC000CC72C2F300140C7300264E73046A4FF0C7
:104FD0000109002C7DD0012CFCD0022C7AD0292391
:104FE000C2F380144C769206520E01F81A2F10F874
:104FF000302F0C7844EAD21401F8014B02F07F0202
:1050000001F8012B50F8042F120ED4090C70C2F3D2
:1050100041144C70C2F382048C709207120FCA7054
:1050200004C8CC78C2F3074244EA9214CC70C2F3AD
:1050300040140C714E7102F001028A7130F8042C98
:10504000C2F30722D409CC71C2F380140C72C2F3EC
:1050500040144C72C2F300148C72C2F38104CC72FF
:1050600002F003020A7310F8042C52084A734C46EB
:1050700081F80E9050F8082B120E0A7450F8082C84
:10508000120C0AEA02224A8230F8082C4D8AC2F336
:10509000072215434D8210F8082C120641F8142FF0
:1050A00050F8042C0D68120E45EA02420A6050F8CE
:1050B000042C0D68C2F3074245EA02220A6030F868
:1050C000042C0D68C2F30722154320C110F8042CEC
:1050D00001E034E076E001F8012B0268120E01F8DD
:1050E000032B0268120C12060A6002880D68C2F3D4
:1050F000072245EA02420A6002780D6845EA022268
:105100000A6042680D6845EA126520C142680D7860
:10511000C2F3074245EA121501F8025B1207120DAD
:105120000A8082880D88C2F30722154321F8025BAA
:105130000079400808704C701846BDE8F087920767
:10514000120D0A6190F82C200C6944EA82020A616F
:10515000026B0C69120E44EA92140C61C2F3C20491
:105160000C7502F007024A75026BC2F3074254093C
:105170008C75C2F38204CC759207520F0A76028EA8
:105180000C7EC2F3072244EAD2140C760C690F7E1F
:10519000BF1C09FA07F5641CA4FB05784FEAE57CFF
:1051A00006FB058504FB0C5591F808C009FA0CF4C0
:1051B000A7FB04C80C6505FB048407FB0644C1E992
:1051C00012C40DE790F82C209206920A0A61026B35
:1051D0000C69120E44EA02220A61026B0C69C2F3E6
:1051E000074214430C61028E0C69C2F30722641C4F
:1051F00046F10005ED0445EA5435E404C1E91245E1
:105200004FF400740C65EBE670B586B000250E46D1
:1052100004468DF80C50057700F046F8762000958E
:10522000CDE901502B462A462946206806F062F94E
:10523000204606F099FC8DF80C009DF80C0038B95A
:10524000204606F085FB8DF80C009DF80C0018B187
:105250009DF80C0006B070BD31462046FFF778FE81
:105260008DF80C009DF80C00A0B9B6F85400694602
:1052700000040090072001904020CDE902050001C4
:105280000490206806F04FF90721204606F0D2F975
:105290008DF80C0004F1100007C88DE8070094E8B1
:1052A0000F0006F027F9D3E71D4800B5016887B065
:1052B00041F400610160006800F400600590184846
:1052C0001438016841F480010160016801F4800133
:1052D0000591016841F004010160016801F00401D9
:1052E0000591016841F0080101600068694600F01D
:1052F000080005904FF4F850009002200190012022
:105300000290032003900C2004900648FEF742FD13
:105310000420009069460448FEF73CFD07B000BD3C
:105320004438024000080240000C02402DE9F04FD2
:105330008BB004460D46DDE914782168002016463E
:10534000C862216A022903D10F02560A46EAC356EF
:105350001021CDE900714021834608010291CDE979
:1053600003B06946206806F0DEF81021204606F0FA
:1053700061F900286DD14FF0FF3A08FB07F0CDE945
:1053800005A007A990204FF0020981E8010A012039
:105390000A9005A9206806F08BF8B8F1010F01D931
:1053A000122000E01120CDE900606946206806F077
:1053B000BAF8B8F1010F1AD91221204606F03AF9CD
:1053C000070046D140F22A3B2068416B11EA0B0FDF
:1053D00028D1406B0004F7D50026206806F0A0F81D
:1053E00045F82600761C082EF7D32035ECE711216E
:1053F000204606F01FF907002BD140F22A6B2068E7
:10540000416B11EA0B0F0DD1406B0004F7D500265C
:10541000206806F085F845F82600761C082EF7D39C
:105420002035ECE7406BC0050CD5B8F1010F09D968
:10543000206A18B1012801D0022803D1204600F0CB
:1054400033F807462168486B000705D508208863B4
:1054500004200BB0BDE8F08F486B800703D54846A9
:10546000C1F83890F5E7486B800603D520208863A3
:105470000620EEE7486B800504D54FF40070886382
:105480000720E6E7564603E006F04AF801C5761E17
:105490002068416B890201D5002EF5D1216840F2C8
:1054A000FF5088633846D4E710B586B00446002024
:1054B0000C21CDE900014021CDE902100801049042
:1054C0006946206806F02FF80C21204606F0B2F855
:1054D00006B010BDFEB50446006A00250E4603283E
:1054E00005D030B1012804D0022802D01FE02720C7
:1054F000FEBDB6F5805F05D0B6F5006F04D03EB1B5
:10550000262514E0272512E0204606F068FC02E07C
:10551000204606F02BFC050009D1211DD4E9050722
:105520000EC9CDE900600297206805F0E3FF284628
:10553000FEBD2DE9F04F8DB0064600250C468DF8D6
:105540002C50DDE91698316817462846CD62316A3D
:105550004FF4007B022903D1570AD94647EAC357C3
:105560001021CDE900914021824608010291CDE948
:1055700003A06946306805F0D6FF1021304606F0DA
:1055800059F800286ED1B8F1010F01D9192000E0B7
:105590001820CDE900706946306805F0C4FFB8F105
:1055A000010F01D9192100E01821304606F042F818
:1055B00000287FD1411E09FB08F99020CDE9069013
:1055C0000591CDF820A00120CDE909A005A93068FA
:1055D00005F06EFFB8F1010F24D84FE0406B400496
:1055E00020D5A9EB0500202811D281074FEA9000B1
:1055F00000D0401C8246002706E02146306805F0B6
:10560000A2FF241D2D1D7F1C57450BD2F5E7002757
:1056100004EB8701306805F096FF7F1C082FF7D355
:10562000203420353068416B40F21A321142D5D017
:105630002AE0406B400421D5A9EB0500202812D2B6
:1056400081074FEA900000D0401C8246002706E008
:105650002146306805F077FF241D2D1D7F1C57451E
:105660000CD2F5E726E0002704EB8701306805F04F
:105670006AFF7F1C082FF7D3203420353068416B38
:1056800040F21A621142D4D0406BC0050BD5B8F17C
:10569000010F08D9306A18B1012801D0022802D1BF
:1056A0003046FFF701FF3168486B000705D5082039
:1056B000886304200DB0BDE8F08F486B800702D5E9
:1056C00002208863F6E7486BC00603D51020886384
:1056D0000520EFE7486B800503D5C1F838B00720F7
:1056E000E8E740F2FF5088630BA9304606F09EF9C8
:1056F0000028DFD19DF82C100729F5D00629F3D01A
:10570000D8E770B5040004D094F85100002510B11A
:1057100006E0012070BD84F85050204600F034F8B7
:10572000022084F851002068016821F040010160E6
:10573000D4E901010843D4E9031211430843616924
:105740000843218B01F400710843E1690843216A91
:105750000843A16A084321680860A069042101EA9E
:105760001040616A0843216848602168E06A086166
:105770002068C16921F40061C1616565012084F878
:105780005100002070BD0000124800B5016887B0CC
:1057900041F020010160006800F0200005900D48F4
:1057A0001430016841F4801101600068012100F4A7
:1057B000801005904FF4607000900220CDE9010147
:1057C00003900520049069460348FEF7E3FA07B00A
:1057D00000BD000030380240001402402DE9F843BB
:1057E000044690F85100DDF82080012801D02228DD
:1057F0007ED169B162B15BB194F85000012877D0D5
:10580000012784F8507094F85100012803D005E076
:105810000120BDE8F883322084F851000026666537
:10582000A263A387E3872163A386E386A664E66475
:10583000A06A4FF40055A84209D12068016821F4FC
:10584000005101602068016841F400510160206846
:105850000168490603D4016841F040010160E06835
:105860004FF48271B0F5006F606807D0002867D0F0
:1058700088426ED1E08E012862D06AE020B1884271
:105880000CD1E08E012809D1206B21680088C86006
:10589000206B801C2063E08E401EE086E08E80B985
:1058A000A06AA84244D12068016841F48051016097
:1058B0003EE02068C068A16B0880A06B801CA063DC
:1058C0009EE0434600220221204606F053FB0028BA
:1058D00074D1206B21680088C860206B801C206315
:1058E000E08E401E0004000CE08609D1A06A00E0B2
:1058F000C7E0A84204D12068016841F480510160EA
:10590000434600220121204606F034FB00286FD1D7
:105910002068C068A16B0880A06B801CA063E08F2A
:10592000401EE087E08E0028CBD1606800286AD155
:10593000434600220121204606F01CFBF0BBB8E7DD
:10594000206B411C216321680078C860E08E401EF6
:10595000E086E08E98B9A06AA84204D12068016868
:1059600041F480510160434600220121204606F0A7
:1059700001FB18BB2068C068A16B087040E043467B
:1059800000220221204606F0F5FAB8B9206B411C2E
:10599000216321680078C860E08E401E0004000C7E
:1059A000E08607D1A06AA84204D12068016841F4CA
:1059B0008051016000224346012100E018E02046AA
:1059C00006F0D8FAA0B92068C168A06B421CA26397
:1059D0000170E08F401EE087E08E0028CFD1606824
:1059E00088B9434600220121204606F0C3FA08B1D7
:1059F00003200EE72068C168A06B421CA2630170FF
:105A0000E08F401EE087A06AA84210D143460022E2
:105A10000121204606F0AEFA18B1606D40F0020098
:105A20000FE02068C068ADF80000BDF800004346F4
:105A300001228021204606F09DFA20B1606D40F0E1
:105A400020006065D4E784F8517020688168A26AFC
:105A5000C1F30011AA4210D179B1616D41F0020188
:105A60006165016821F4005101602068016841F41A
:105A70000051016084F85060CAE684F8506000204C
:105A8000C7E60220C5E670B515460E46040003D0F1
:105A900094F8490010B107E0012070BD002084F89F
:105AA0004800204600F01AF804F108012068FCF7CD
:105AB000C5FE3146A2682068FCF7FCFED4E901026D
:105AC0002946236BFCF79AFEA168206850F8212034
:105AD00042F0010240F82120002070BD1A4800B5B4
