:020000040800F2
:10000000F0350020950D0308F90C0308FB0C0308DC
:10001000FD0C0308FF0C0308010D0308000000009D
:10002000000000000000000000000000030D0308B5
:10003000050D030800000000070D0308090D030863
:10004000B90D0308BD0D0308C10D0308C50D030854
:10005000C90D0308170D0308CD0D0308D10D0308C2
:10006000D50D0308D90D0308DD0D0308E10D0308C4
:10007000E50D0308E90D0308ED0D0308F10D030874
:10008000F50D0308F90D0308FD0D0308010E030823
:10009000050E0308090E03080D0E0308110E0308D0
:1000A000150E0308190E03081D0E0308210E030880
:1000B000250E0308290E03082D0E0308310E030830
:1000C000350E0308390E03083D0E0308410E0308E0
:1000D000450E0308490E03084D0E0308510E030890
:1000E000550E0308590E03085D0E0308610E030840
:1000F000650E0308690E03086D0E0308710E0308F0
:10010000750E0308790E03087D0E0308810E03089F
:10011000850E0308890E03088D0E0308910E03084F
:10012000950E0308990E03089D0E0308A10E0308FF
:10013000A50E0308A90E0308AD0E0308B10E0308AF
:10014000B50E0308B90E0308BD0E0308C10E03085F
:10015000C50E0308C90E0308CD0E0308D10E03080F
:10016000D50E0308D90E0308DD0E0308E10E0308BF
:10017000E50E0308E90E0308ED0E03080000000079
:10018000F10E0308F50E0308802800DA704770B4FA
:1001900045F22053002902D00FF2440100E00F493C
:1001A0000024102501E013466D1E002D0CD01A1BF3
:1001B00002EBD27204EB620231F82260B04203D04B
:1001C0008642F0D21446EFE7002D03D001EB820007
:1001D000408800E0002070BC70470000C45A01084D
:1001E0008000AC204081024E4181044E4281054E88
:1001F0004381064E44810F4E4581124E4681174E73
:1002000047811F4E4881204E4981214E4A81234E0D
:100210004B81264E4C81294E4D812E4E4E812F4EC4
:100220004F81314E5081334E5181354E5281374E80
:1002300053813C4E5481404E5581414E5681424E31
:100240005781444E5881464E59814A4E5A81514EEB
:100250005B81554E5C81574E5D815A4E5E815B4E8F
:100260005F81624E6081634E6181644E6281654E42
:100270006381674E6481684E65816A4E66816B4E0C
:1002800067816C4E68816D4E69816E4E6A816F4EDA
:100290006B81724E6C81744E6D81754E6E81764E9F
:1002A0006F81774E7081784E7181794E72817A4E6E
:1002B00073817B4E74817C4E75817D4E76817F4E3D
:1002C0007781804E7881814E7981824E7A81834E0A
:1002D0007B81844E7C81854E7D81874E7E818A4ED6
:1002E0008081904E8181964E8281974E8381994E76
:1002F00084819C4E85819D4E86819E4E8781A34E32
:100300008881AA4E8981AF4E8A81B04E8B81B14ED1
:100310008C81B44E8D81B64E8E81B74E8F81B84E92
:100320009081B94E9181BC4E9281BD4E9381BE4E5B
:100330009481C84E9581CC4E9681CF4E9781D04EF8
:100340009881D24E9981DA4E9A81DB4E9B81DC4EA8
:100350009C81E04E9D81E24E9E81E64E9F81E74E5C
:10036000A081E94EA181ED4EA281EE4EA381EF4E18
:10037000A481F14EA581F44EA681F84EA781F94ED5
:10038000A881FA4EA981FC4EAA81FE4EAB81004F96
:10039000AC81024FAD81034FAE81044FAF81054F59
:1003A000B081064FB181074FB281084FB3810B4F27
:1003B000B4810C4FB581124FB681134FB781144FE2
:1003C000B881154FB981164FBA811C4FBB811D4FA3
:1003D000BC81214FBD81234FBE81284FBF81294F52
:1003E000C0812C4FC1812D4FC2812E4FC381314F0F
:1003F000C481334FC581354FC681374FC781394FCF
:10040000C8813B4FC9813E4FCA813F4FCB81404F8E
:10041000CC81414FCD81424FCE81444FCF81454F5A
:10042000D081474FD181484FD281494FD3814A4F24
:10043000D4814B4FD5814C4FD681524FD781544FE9
:10044000D881564FD981614FDA81624FDB81664F87
:10045000DC81684FDD816A4FDE816B4FDF816D4F3C
:10046000E0816E4FE181714FE281724FE381754F00
:10047000E481774FE581784FE681794FE7817A4FC4
:10048000E8817D4FE981804FEA81814FEB81824F86
:10049000EC81854FED81864FEE81874FEF818A4F4A
:1004A000F0818C4FF1818E4FF281904FF381924F0A
:1004B000F481934FF581954FF681964FF781984FD0
:1004C000F881994FF9819A4FFA819C4FFB819E4F99
:1004D000FC819F4FFD81A14FFE81A24F4082A44F1E
:1004E0004182AB4F4282AD4F4382B04F4482B14F05
:1004F0004582B24F4682B34F4782B44F4882B64FCF
:100500004982B74F4A82B84F4B82B94F4C82BA4F9B
:100510004D82BB4F4E82BC4F4F82BD4F5082BE4F6B
:100520005182C04F5282C14F5382C24F5482C64F34
:100530005582C74F5682C84F5782C94F5882CB4FFA
:100540005982CC4F5A82CD4F5B82D24F5C82D34FBF
:100550005D82D44F5E82D54F5F82D64F6082D94F85
:100560006182DB4F6282E04F6382E24F6482E44F3C
:100570006582E54F6682E74F6782EB4F6882EC4FFA
:100580006982F04F6A82F24F6B82F44F6C82F54FB2
:100590006D82F64F6E82F74F6F82F94F7082FB4F7C
:1005A0007182FC4F7282FD4F7382FF4F7482005044
:1005B000758201507682025077820350788204500F
:1005C000798205507A8206507B8207507C820850DF
:1005D0007D8209507E820A5080820B5081820E50AB
:1005E000828210508382115084821350858215506C
:1005F000868216508782175088821B5089821D5030
:100600008A821E508B8220508C8222508D822350F1
:100610008E8224508F82275090822B5091822F50AF
:10062000928230509382315094823250958233506E
:10063000968234509782355098823650998237503E
:100640009A8238509B8239509C823B509D823D500B
:100650009E823F509F824050A0824150A1824250D2
:10066000A2824450A3824550A4824650A58249509C
:10067000A6824A50A7824B50A8824D50A982505062
:10068000AA825150AB825250AC825350AD8254502A
:10069000AE825650AF825750B0825850B1825950F6
:1006A000B2825B50B3825D50B4825E50B5825F50BF
:1006B000B6826050B7826150B8826250B98263508E
:1006C000BA826450BB826650BC826750BD8268505B
:1006D000BE826950BF826A50C0826B50C1826D5029
:1006E000C2826E50C3826F50C4827050C5827150F6
:1006F000C6827250C7827350C8827450C9827550C6
:10070000CA827850CB827950CC827A50CD827C508C
:10071000CE827D50CF828150D0828250D182835050
:10072000D2828450D3828650D4828750D582895019
:10073000D6828A50D7828B50D8828C50D9828E50E4
:10074000DA828F50DB829050DC829150DD829250B1
:10075000DE829350DF829450E0829550E182965081
:10076000E2829750E3829850E4829950E5829A5051
:10077000E6829B50E7829C50E8829D50E9829E5021
:10078000EA829F50EB82A050EC82A150ED82A250F1
:10079000EE82A450EF82A650F082AA50F182AB50B4
:1007A000F282AD50F382AE50F482AF50F582B05079
:1007B000F682B150F782B350F882B450F982B55046
:1007C000FA82B650FB82B750FC82B850FD82B95015
:1007D000FE82BC504083BD504183BE504283BF5017
:1007E0004383C0504483C1504583C2504683C350A5
:1007F0004783C4504883C5504983C6504A83C75075
:100800004B83C8504C83C9504D83CA504E83CB5044
:100810004F83CC505083CD505183CE505283D05013
:100820005383D1505483D2505583D3505683D450E0
:100830005783D5505883D7505983D8505A83D950AD
:100840005B83DB505C83DC505D83DD505E83DE5078
:100850005F83DF506083E0506183E1506283E25048
:100860006383E3506483E4506583E5506683E85016
:100870006783E9506883EA506983EB506A83EF50DD
:100880006B83F0506C83F1506D83F2506E83F450A3
:100890006F83F6507083F7507183F8507283F9506C
:1008A0007383FA507483FC507583FD507683FE5039
:1008B0007783FF5078830051798301517A83025105
:1008C0007B8303517C8304517D8305517E830851D2
:1008D0008083095181830A5182830C5183830D5196
:1008E00084830E5185830F51868310518783115164
:1008F00088831351898314518A8315518B83165130
:100900008C8317518D8318518E8319518F831A51FF
:1009100090831B5191831C5192831D5193831E51CF
:1009200094831F519583205196832251978323519D
:1009300098832451998325519A8326519B8327516B
:100940009C8328519D8329519E832A519F832B513B
:10095000A0832C51A1832D51A2832E51A3832F510B
:10096000A4833051A5833151A6833251A7833351DB
:10097000A8833451A9833551AA833651AB833751AB
:10098000AC833851AD833951AE833A51AF833B517B
:10099000B0833C51B1833D51B2833E51B383425148
:1009A000B4834751B5834A51B6834C51B7834E51F6
:1009B000B8834F51B9835051BA835251BB835351BD
:1009C000BC835751BD835851BE835951BF835B517E
:1009D000C0835D51C1835E51C2835F51C383605147
:1009E000C4836151C5836351C6836451C783665113
:1009F000C8836751C9836951CA836A51CB836F51D8
:100A0000CC837251CD837A51CE837E51CF837F5177
:100A1000D0838351D1838451D2838651D38387512C
:100A2000D4838A51D5838B51D6838E51D7838F51EE
:100A3000D8839051D9839151DA839351DB839451B8
:100A4000DC839851DD839A51DE839D51DF839E5173
:100A5000E0839F51E183A151E283A351E383A65137
:100A6000E483A751E583A851E683A951E783AA51FE
:100A7000E883AD51E983AE51EA83B451EB83B851B9
:100A8000EC83B951ED83BA51EE83BE51EF83BF5170
:100A9000F083C151F183C251F283C351F383C55135
:100AA000F483C851F583CA51F683CD51F783CE51F3
:100AB000F883D051F983D251FA83D351FB83D451B7
:100AC000FC83D551FD83D651FE83D7514084D85144
:100AD0004184D9514284DA514384DC514484DE514B
:100AE0004584DF514684E2514784E3514884E5510F
:100AF0004984E6514A84E7514B84E8514C84E951DA
:100B00004D84EA514E84EC514F84EE515084F151A2
:100B10005184F2515284F4515384F7515484FE515C
:100B200055840452568405525784095258840B52F6
:100B300059840C525A840F525B8410525C841352B5
:100B40005D8414525E8415525F841C5260841E5270
:100B500061841F526284215263842252648423522E
:100B600065842552668426526784275268842A52F7
:100B700069842C526A842F526B8431526C843252B5
:100B80006D8434526E8435526F843C5270843E5270
:100B9000718444527284455273844652748447521D
:100BA000758448527684495277844B5278844E52E9
:100BB00079844F527A8452527B8453527C845552AA
:100BC0007D8457527E8458528084595281845A526F
:100BD00082845B5283845D5284845F528584605238
:100BE0008684625287846352888464528984665200
:100BF0008A8468528B846B528C846C528D846D52C3
:100C00008E846E528F84705290847152918473528C
:100C10009284745293847552948476529584775258
:100C2000968478529784795298847A5299847B5228
:100C30009A847C529B847E529C8480529D848352F1
:100C40009E8484529F848552A0848652A1848752B8
:100C5000A2848952A3848A52A4848B52A5848C5284
:100C6000A6848D52A7848E52A8848F52A984915253
:100C7000AA849252AB849452AC849552AD8496521D
:100C8000AE849752AF849852B0849952B1849A52EC
:100C9000B2849C52B384A452B484A552B584A652A3
:100CA000B684A752B784AE52B884AF52B984B0525A
:100CB000BA84B452BB84B552BC84B652BD84B75218
:100CC000BE84B852BF84B952C084BA52C184BB52E8
:100CD000C284BC52C384BD52C484C052C584C152B4
:100CE000C684C252C784C452C884C552C984C6527D
:100CF000CA84C852CB84CA52CC84CC52CD84CD5243
:100D0000CE84CE52CF84CF52D084D152D184D3520C
:100D1000D284D452D384D552D484D752D584D952D4
:100D2000D684DA52D784DB52D884DC52D984DD529F
:100D3000DA84DE52DB84E052DC84E152DD84E2526C
:100D4000DE84E352DF84E552E084E652E184E75238
:100D5000E284E852E384E952E484EA52E584EB5207
:100D6000E684EC52E784ED52E884EE52E984EF52D7
:100D7000EA84F152EB84F252EC84F352ED84F452A3
:100D8000EE84F552EF84F652F084F752F184F85273
:100D9000F284FB52F384FC52F484FD52F584015337
:100DA000F6840253F7840353F8840453F9840753F9
:100DB000FA840953FB840A53FC840B53FD840C53BF
:100DC000FE840E53408511534185125342851353BF
:100DD000438514534485185345851B5346851C533E
:100DE00047851E5348851F53498522534A852453FE
:100DF0004B8525534C8527534D8528534E852953C4
:100E00004F852B5350852C5351852D5352852F538D
:100E1000538530535485315355853253568533535A
:100E20005785345358853553598536535A8537532A
:100E30005B8538535C853C535D853D535E854053EF
:100E40005F854253608544536185465362854B53A9
:100E500063854C5364854D53658550536685545363
:100E6000678558536885595369855B536A855D5317
:100E70006B8565536C8568536D856A536E856C53BD
:100E80006F856D5370857253718576537285795372
:100E900073857B5374857C5375857D5376857E532E
:100EA0007785805378858153798583537A858753F5
:100EB0007B8588537C858A537D858E537E858F53B1
:100EC0008085905381859153828592538385935376
:100ED0008485945385859653868597538785995342
:100EE00088859B5389859C538A859E538B85A05307
:100EF0008C85A1538D85A4538E85A7538F85AA53C6
:100F00009085AB539185AC539285AD539385AF5388
:100F10009485B0539585B1539685B2539785B35355
:100F20009885B4539985B5539A85B7539B85B85323
:100F30009C85B9539D85BA539E85BC539F85BD53EF
:100F4000A085BE53A185C053A285C353A385C453B6
:100F5000A485C553A585C653A685C753A785CE537B
:100F6000A885CF53A985D053AA85D253AB85D35337
:100F7000AC85D553AD85DA53AE85DC53AF85DD53F3
:100F8000B085DE53B185E153B285E253B385E753B3
:100F9000B485F453B585FA53B685FE53B785FF5330
:100FA000B8850054B9850254BA850554BB850754E9
:100FB000BC850B54BD851454BE851854BF85195487
:100FC000C0851A54C1851C54C2852254C38524543B
:100FD000C4852554C5852A54C6853054C7853354E5
:100FE000C8853654C9853754CA853A54CB853D5493
:100FF000CC853F54CD854154CE854254CF85445451
:10100000D0854554D1854754D2854954D3854C5415
:10101000D4854D54D5854E54D6854F54D7855154DB
:10102000D8855A54D9855D54DA855E54DB855F5482
:10103000DC856054DD856154DE856354DF8565544D
:10104000E0856754E1856954E2856A54E3856B5411
:10105000E4856C54E5856D54E6856E54E7856F54E0
:10106000E8857054E9857454EA857954EB857A549F
:10107000EC857E54ED857F54EE858154EF85835455
:10108000F0858554F1858754F2858854F385895419
:10109000F4858A54F5858D54F6859154F7859354DB
:1010A000F8859754F9859854FA859C54FB859E548D
:1010B000FC859F54FD85A054FE85A1544086A25412
:1010C0004186A5544286AE544386B0544486B254F9
:1010D0004586B5544686B6544786B7544886B954B3
:1010E0004986BA544A86BC544B86BE544C86C35477
:1010F0004D86C5544E86CA544F86CB545086D6541E
:101100005186D8545286DB545386E0545486E154B9
:101110005586E2545686E3545786E4545886EB5479
:101120005986EC545A86EF545B86F0545C86F15431
:101130005D86F4545E86F5545F86F6546086F754F7
:101140006186F8546286F9546386FB546486FE54C3
:101150006586005566860255678603556886045580
:10116000698605556A8608556B860A556C860B5547
:101170006D860C556E860D556F860E557086125510
:1011800071861355728615557386165574861755D4
:10119000758618557686195577861A5578861C55A2
:1011A00079861D557A861E557B861F557C8621556E
:1011B0007D8625557E86265580862855818629552B
:1011C00082862B5583862D558486325585863455E7
:1011D00086863555878636558886385589863955A9
:1011E0008A863A558B863B558C863D558D86405573
:1011F0008E8642558F86455590864755918648552F
:1012000092864B5593864C5594864D5595864E55F2
:1012100096864F55978651559886525599865355BF
:101220009A8654559B8657559C8658559D86595588
:101230009E865A559F865B55A0865D55A1865E5554
:10124000A2865F55A3866055A4866255A586635520
:10125000A6866855A7866955A8866B55A9866F55D9
:10126000AA867055AB867155AC867255AD8673559E
:10127000AE867455AF867955B0867A55B1867D5560
:10128000B2867F55B3868555B4868655B5868C550E
:10129000B6868D55B7868E55B8869055B9869255C7
:1012A000BA869355BB869555BC869655BD8697558F
:1012B000BE869A55BF869B55C0869E55C186A05551
:1012C000C286A155C386A255C486A355C586A4551A
:1012D000C686A555C786A655C886A855C986A955E8
:1012E000CA86AA55CB86AB55CC86AC55CD86AD55B6
:1012F000CE86AE55CF86AF55D086B055D186B25585
:10130000D286B455D386B655D486B855D586BA5547
:10131000D686BC55D786BF55D886C055D986C15507
:10132000DA86C255DB86C355DC86C655DD86C755D1
:10133000DE86C855DF86CA55E086CB55E186CE5598
:10134000E286CF55E386D055E486D555E586D75558
:10135000E686D855E786D955E886DA55E986DB551D
:10136000EA86DE55EB86E055EC86E255ED86E755DC
:10137000EE86E955EF86ED55F086EE55F186F0558F
:10138000F286F155F386F455F486F655F586F85550
:10139000F686F955F786FA55F886FB55F986FC5519
:1013A000FA86FF55FB860256FC860356FD860456D8
:1013B000FE860556408706564187075642870A56DD
:1013C00043870B5644870D5645871056468711565E
:1013D0004787125648871356498714564A87155629
:1013E0004B8716564C8717564D8719564E871A56F7
:1013F0004F871C5650871D565187205652872156BD
:101400005387225654872556558726565687285681
:101410005787295658872A5659872B565A872E564A
:101420005B872F565C8730565D8733565E8735560F
:101430005F8737566087385661873A5662873C56D1
:1014400063873D5664873E5665874056668741569A
:101450006787425668874356698744566A87455668
:101460006B8746566C8747566D8748566E87495638
:101470006F874A5670874B5671874F567287505602
:1014800073875156748752567587535676875556CB
:101490007787565678875A5679875B567A875D568E
:1014A0007B875E567C875F567D8760567E87615658
:1014B000808763568187655682876656838767561D
:1014C00084876D5685876E5686876F5687877056D8
:1014D00088877256898773568A8774568B877556A4
:1014E0008C8777568D8778568E8779568F877A5670
:1014F00090877D5691877E5692877F569387805638
:101500009487815695878256968783569787845607
:1015100098878756998788569A8789569B878A56CF
:101520009C878B569D878C569E878D569F8790569D
:10153000A0879156A1879256A2879456A387955665
:10154000A4879656A5879756A6879856A787995633
:10155000A8879A56A9879B56AA879C56AB879D5603
:10156000AC879E56AD879F56AE87A056AF87A156D3
:10157000B087A256B187A456B287A556B387A656A0
:10158000B487A756B587A856B687A956B787AA566F
:10159000B887AB56B987AC56BA87AD56BB87AE563F
:1015A000BC87B056BD87B156BE87B256BF87B3560B
:1015B000C087B456C187B556C287B656C387B856DA
:1015C000C487B956C587BA56C687BB56C787BD56A6
:1015D000C887BE56C987BF56CA87C056CB87C15673
:1015E000CC87C256CD87C356CE87C456CF87C55643
:1015F000D087C656D187C756D287C856D387C95613
:10160000D487CB56D587CC56D687CD56D787CE56DE
:10161000D887CF56D987D056DA87D156DB87D256AE
:10162000DC87D356DD87D556DE87D656DF87D8567A
:10163000E087D956E187DC56E287E356E387E55633
:10164000E487E656E587E756E687E856E787E956F2
:10165000E887EA56E987EC56EA87EE56EB87EF56BD
:10166000EC87F256ED87F356EE87F656EF87F7567E
:10167000F087F856F187FB56F287FC56F387005740
:10168000F4870157F5870257F6870557F7870757FD
:10169000F8870B57F9870C57FA870D57FB870E57BA
:1016A000FC870F57FD871057FE8711574088125748
:1016B0004188135742881457438815574488165752
:1016C00045881757468818574788195748881A5722
:1016D00049881B574A881D574B881E574C882057EE
:1016E0004D8821574E8822574F88245750882557B8
:1016F000518826575288275753882B57548831577B
:101700005588325756883457578835575888365732
:10171000598837575A8838575B883C575C883D57FB
:101720005D883F575E8841575F88435760884457BC
:101730006188455762884657638848576488495787
:1017400065884B576688525767885357688854573F
:10175000698855576A8856576B8858576C88595707
:101760006D8862576E8863576F88655770886757B2
:1017700071886C5772886E57738870577488715768
:101780007588725776887457778875577888785730
:10179000798879577A887A577B887D577C887E57F5
:1017A0007D887F577E8880578088815781888757BA
:1017B000828888578388895784888A5785888D5777
:1017C00086888E5787888F57888890578988915741
:1017D0008A8894578B8895578C8896578D88975709
:1017E0008E8898578F88995790889A5791889C57D8
:1017F00092889D5793889E5794889F579588A557A0
:101800009688A8579788AA579888AC579988AF5751
:101810009A88B0579B88B1579C88B3579D88B55715
:101820009E88B6579F88B757A088B957A188BA57DE
:10183000A288BB57A388BC57A488BD57A588BE57AC
:10184000A688BF57A788C057A888C157A988C4577A
:10185000AA88C557AB88C657AC88C757AD88C85744
:10186000AE88C957AF88CA57B088CC57B188CD5712
:10187000B288D057B388D157B488D357B588D657D4
:10188000B688D757B788DB57B888DC57B988DE5792
:10189000BA88E157BB88E257BC88E357BD88E55753
:1018A000BE88E657BF88E757C088E857C188E95720
:1018B000C288EA57C388EB57C488EC57C588EE57EF
:1018C000C688F057C788F157C888F257C988F357B8
:1018D000CA88F557CB88F657CC88F757CD88FB5781
:1018E000CE88FC57CF88FE57D088FF57D188015843
:1018F000D2880358D3880458D4880558D588085806
:10190000D6880958D7880A58D8880C58D9880E58CC
:10191000DA880F58DB881058DC881258DD88135895
:10192000DE881458DF881658E0881758E188185860
:10193000E2881A58E3881B58E4881C58E5881D582B
:10194000E6881F58E7882258E8882358E9882558F0
:10195000EA882658EB882758EC882858ED882958BB
:10196000EE882B58EF882C58F0882D58F1882E5887
:10197000F2882F58F3883158F4883258F588335854
:10198000F6883458F7883658F8883758F988385820
:10199000FA883958FB883A58FC883B58FD883C58EF
:1019A000FE883D5840893E5841893F5842894058F9
:1019B0004389415844894258458943584689455886
:1019C0004789465848894758498948584A89495853
:1019D0004B894A584C894B584D894E584E894F581F
:1019E0004F895058508952585189535852895558E7
:1019F00053895658548957585589595856895A58B1
:101A000057895B5858895C5859895D585A895F587D
:101A10005B8960585C8961585D8962585E8963584A
:101A20005F89645860896658618967586289685817
:101A30006389695864896A5865896D5866896E58E2
:101A400067896F5868897058698971586A897258AE
:101A50006B8973586C8974586D8975586E8976587E
:101A60006F897758708978587189795872897A584E
:101A700073897B5874897C5875897D5876897F581D
:101A80007789825878898458798986587A898758DD
:101A90007B8988587C898A587D898B587E898C58A7
:101AA00080898D5881898E5882898F588389905872
:101AB000848991588589945886899558878996583C
:101AC00088899758898998588A899B588B899C5806
:101AD0008C899D588D89A0588E89A1588F89A258CC
:101AE0009089A3589189A4589289A5589389A6589A
:101AF0009489A7589589AA589689AB589789AC5864
:101B00009889AD589989AE589A89AF589B89B05831
:101B10009C89B1589D89B2589E89B3589F89B45801
:101B2000A089B558A189B658A289B758A389B858D1
:101B3000A489B958A589BA58A689BB58A789BD58A0
:101B4000A889BE58A989BF58AA89C058AB89C2586C
:101B5000AC89C358AD89C458AE89C658AF89C75837
:101B6000B089C858B189C958B289CA58B389CB5805
:101B7000B489CC58B589CD58B689CE58B789CF58D5
:101B8000B889D058B989D258BA89D358BB89D458A2
:101B9000BC89D658BD89D758BE89D858BF89D9586D
:101BA000C089DA58C189DB58C289DC58C389DD583D
:101BB000C489DE58C589DF58C689E058C789E1580D
:101BC000C889E258C989E358CA89E558CB89E658DB
:101BD000CC89E758CD89E858CE89E958CF89EA58A9
:101BE000D089ED58D189EF58D289F158D389F2586C
:101BF000D489F458D589F558D689F758D789F85833
:101C0000D889FA58D989FB58DA89FC58DB89FD58FC
:101C1000DC89FE58DD89FF58DE890059DF890159CA
:101C2000E0890359E1890559E2890659E389085990
:101C3000E4890959E5890A59E6890B59E7890C595C
:101C4000E8890E59E9891059EA891159EB89125925
:101C5000EC891359ED891759EE891859EF891B59E9
:101C6000F0891D59F1891E59F2892059F3892159AA
:101C7000F4892259F5892359F6892659F789285973
:101C8000F8892C59F9893059FA893259FB89335925
:101C9000FC893559FD893659FE893B59408A3D59A1
:101CA000418A3E59428A3F59438A4059448A43599E
:101CB000458A4559468A4659478A4A59488A4C595D
:101CC000498A4D594A8A50594B8A52594C8A53591C
:101CD0004D8A59594E8A5B594F8A5C59508A5D59D1
:101CE000518A5E59528A5F59538A6159548A63599D
:101CF000558A6459568A6659578A6759588A685965
:101D0000598A69595A8A6A595B8A6B595C8A6C5933
:101D10005D8A6D595E8A6E595F8A6F59608A705903
:101D2000618A7159628A7259638A7559648A7759CE
:101D3000658A7A59668A7B59678A7C59688A7E598E
:101D4000698A7F596A8A80596B8A85596C8A895950
:101D50006D8A8B596E8A8C596F8A8E59708A8F5909
:101D6000718A9059728A9159738A9459748A9559D3
:101D7000758A9859768A9A59778A9B59788A9C5994
:101D8000798A9D597A8A9F597B8AA0597C8AA15960
:101D90007D8AA2597E8AA659808AA759818AAC5920
:101DA000828AAD59838AB059848AB159858AB359D8
:101DB000868AB459878AB559888AB659898AB759A3
:101DC0008A8AB8598B8ABA598C8ABC598D8ABD596E
:101DD0008E8ABF598F8AC059908AC159918AC25937
:101DE000928AC359938AC459948AC559958AC75906
:101DF000968AC859978AC959988ACC59998ACD59CF
:101E00009A8ACE599B8ACF599C8AD5599D8AD65990
:101E10009E8AD9599F8ADB59A08ADE59A18ADF5947
:101E2000A28AE059A38AE159A48AE259A58AE45911
:101E3000A68AE659A78AE759A88AE959A98AEA59D8
:101E4000AA8AEB59AB8AED59AC8AEE59AD8AEF59A3
:101E5000AE8AF059AF8AF159B08AF259B18AF35972
:101E6000B28AF459B38AF559B48AF659B58AF75942
:101E7000B68AF859B78AFA59B88AFC59B98AFD590D
:101E8000BA8AFE59BB8A005ABC8A025ABD8A0A5ACB
:101E9000BE8A0B5ABF8A0D5AC08A0E5AC18A0F5A7F
:101EA000C28A105AC38A125AC48A145AC58A155A49
:101EB000C68A165AC78A175AC88A195AC98A1A5A14
:101EC000CA8A1B5ACB8A1D5ACC8A1E5ACD8A215ADD
:101ED000CE8A225ACF8A245AD08A265AD18A275AA1
:101EE000D28A285AD38A2A5AD48A2B5AD58A2C5A6B
:101EF000D68A2D5AD78A2E5AD88A2F5AD98A305A3A
:101F0000DA8A335ADB8A355ADC8A375ADD8A385AFC
:101F1000DE8A395ADF8A3A5AE08A3B5AE18A3D5AC8
:101F2000E28A3E5AE38A3F5AE48A415AE58A425A93
:101F3000E68A435AE78A445AE88A455AE98A475A60
:101F4000EA8A485AEB8A4B5AEC8A4C5AED8A4D5A27
:101F5000EE8A4E5AEF8A4F5AF08A505AF18A515AF5
:101F6000F28A525AF38A535AF48A545AF58A565AC4
:101F7000F68A575AF78A585AF88A595AF98A5B5A90
:101F8000FA8A5C5AFB8A5D5AFC8A5E5AFD8A5F5A5D
:101F9000FE8A605A408B615A418B635A428B645A65
:101FA000438B655A448B665A458B685A468B695AEF
:101FB000478B6B5A488B6C5A498B6D5A4A8B6E5AB9
:101FC0004B8B6F5A4C8B705A4D8B715A4E8B725A89
:101FD0004F8B735A508B785A518B795A528B7B5A4C
:101FE000538B7C5A548B7D5A558B7E5A568B805A14
:101FF000578B815A588B825A598B835A5A8B845AE1
:102000005B8B855A5C8B865A5D8B875A5E8B885AB0
:102010005F8B895A608B8A5A618B8B5A628B8C5A80
:10202000638B8D5A648B8E5A658B8F5A668B905A50
:10203000678B915A688B935A698B945A6A8B955A1D
:102040006B8B965A6C8B975A6D8B985A6E8B995AEC
:102050006F8B9C5A708B9D5A718B9E5A728B9F5AB4
:10206000738BA05A748BA15A758BA25A768BA35A84
:10207000778BA45A788BA55A798BA65A7A8BA75A54
:102080007B8BA85A7C8BA95A7D8BAB5A7E8BAC5A22
:10209000808BAD5A818BAE5A828BAF5A838BB05AEC
:1020A000848BB15A858BB45A868BB65A878BB75AB4
:1020B000888BB95A898BBA5A8A8BBB5A8B8BBC5A7C
:1020C0008C8BBD5A8D8BBF5A8E8BC05A8F8BC35A47
:1020D000908BC45A918BC55A928BC65A938BC75A10
:1020E000948BC85A958BCA5A968BCB5A978BCD5ADC
:1020F000988BCE5A998BCF5A9A8BD05A9B8BD15AA8
:102100009C8BD35A9D8BD55A9E8BD75A9F8BD95A6D
:10211000A08BDA5AA18BDB5AA28BDD5AA38BDE5A35
:10212000A48BDF5AA58BE25AA68BE45AA78BE55AFB
:10213000A88BE75AA98BE85AAA8BEA5AAB8BEC5AC0
:10214000AC8BED5AAD8BEE5AAE8BEF5AAF8BF05A8B
:10215000B08BF25AB18BF35AB28BF45AB38BF55A57
:10216000B48BF65AB58BF75AB68BF85AB78BF95A27
:10217000B88BFA5AB98BFB5ABA8BFC5ABB8BFD5AF7
:10218000BC8BFE5ABD8BFF5ABE8B005BBF8B015BC5
:10219000C08B025BC18B035BC28B045BC38B055B93
:1021A000C48B065BC58B075BC68B085BC78B0A5B62
:1021B000C88B0B5BC98B0C5BCA8B0D5BCB8B0E5B2F
:1021C000CC8B0F5BCD8B105BCE8B115BCF8B125BFF
:1021D000D08B135BD18B145BD28B155BD38B185BCD
:1021E000D48B195BD58B1A5BD68B1B5BD78B1C5B97
:1021F000D88B1D5BD98B1E5BDA8B1F5BDB8B205B67
:10220000DC8B215BDD8B225BDE8B235BDF8B245B36
:10221000E08B255BE18B265BE28B275BE38B285B06
:10222000E48B295BE58B2A5BE68B2B5BE78B2C5BD6
:10223000E88B2D5BE98B2E5BEA8B2F5BEB8B305BA6
:10224000EC8B315BED8B335BEE8B355BEF8B365B71
:10225000F08B385BF18B395BF28B3A5BF38B3B5B3A
:10226000F48B3C5BF58B3D5BF68B3E5BF78B3F5B0A
:10227000F88B415BF98B425BFA8B435BFB8B445BD6
:10228000FC8B455BFD8B465BFE8B475B408C485B64
:10229000418C495B428C4A5B438C4B5B448C4C5B6E
:1022A000458C4D5B468C4E5B478C4F5B488C525B3C
:1022B000498C565B4A8C5E5B4B8C605B4C8C615BE3
:1022C0004D8C675B4E8C685B4F8C6B5B508C6D5B91
:1022D000518C6E5B528C6F5B538C725B548C745B55
:1022E000558C765B568C775B578C785B588C795B1A
:1022F000598C7B5B5A8C7C5B5B8C7E5B5C8C7F5BE4
:102300005D8C825B5E8C865B5F8C8A5B608C8D5B98
:10231000618C8E5B628C905B638C915B648C925B56
:10232000658C945B668C965B678C9F5B688CA75B07
:10233000698CA85B6A8CA95B6B8CAC5B6C8CAD5BAD
:102340006D8CAE5B6E8CAF5B6F8CB15B708CB25B77
:10235000718CB75B728CBA5B738CBB5B748CBC5B2F
:10236000758CC05B768CC15B778CC35B788CC85BEB
:10237000798CC95B7A8CCA5B7B8CCB5B7C8CCD5BAC
:102380007D8CCE5B7E8CCF5B808CD15B818CD45B73
:10239000828CD55B838CD65B848CD75B858CD85B39
:1023A000868CD95B878CDA5B888CDB5B898CDC5B09
:1023B0008A8CE05B8B8CE25B8C8CE35B8D8CE65BC8
:1023C0008E8CE75B8F8CE95B908CEA5B918CEB5B8E
:1023D000928CEC5B938CED5B948CEF5B958CF15B5A
:1023E000968CF25B978CF35B988CF45B998CF55B25
:1023F0009A8CF65B9B8CF75B9C8CFD5B9D8CFE5BEB
:102400009E8C005C9F8C025CA08C035CA18C055CA4
:10241000A28C075CA38C085CA48C0B5CA58C0C5C68
:10242000A68C0D5CA78C0E5CA88C105CA98C125C31
:10243000AA8C135CAB8C175CAC8C195CAD8C1B5CF0
:10244000AE8C1E5CAF8C1F5CB08C205CB18C215CB0
:10245000B28C235CB38C265CB48C285CB58C295C74
:10246000B68C2A5CB78C2B5CB88C2D5CB98C2E5C3E
:10247000BA8C2F5CBB8C305CBC8C325CBD8C335C0A
:10248000BE8C355CBF8C365CC08C375CC18C435CC9
:10249000C28C445CC38C465CC48C475CC58C4C5C71
:1024A000C68C4D5CC78C525CC88C535CC98C545C28
:1024B000CA8C565CCB8C575CCC8C585CCD8C5A5CEF
:1024C000CE8C5B5CCF8C5C5CD08C5D5CD18C5F5CBB
:1024D000D28C625CD38C645CD48C675CD58C685C79
:1024E000D68C695CD78C6A5CD88C6B5CD98C6C5C44
:1024F000DA8C6D5CDB8C705CDC8C725CDD8C735C0C
:10250000DE8C745CDF8C755CE08C765CE18C775CD7
:10251000E28C785CE38C7B5CE48C7C5CE58C7D5CA1
:10252000E68C7E5CE78C805CE88C835CE98C845C68
:10253000EA8C855CEB8C865CEC8C875CED8C895C32
:10254000EE8C8A5CEF8C8B5CF08C8E5CF18C8F5CFB
:10255000F28C925CF38C935CF48C955CF58C9D5CB6
:10256000F68C9E5CF78C9F5CF88CA05CF98CA15C6F
:10257000FA8CA45CFB8CA55CFC8CA65CFD8CA75C37
:10258000FE8CA85C408DAA5C418DAE5C428DAF5C38
:10259000438DB05C448DB25C458DB45C468DB65CB9
:1025A000478DB95C488DBA5C498DBB5C4A8DBC5C7B
:1025B0004B8DBE5C4C8DC05C4D8DC25C4E8DC35C42
:1025C0004F8DC55C508DC65C518DC75C528DC85C0B
:1025D000538DC95C548DCA5C558DCC5C568DCD5CD9
:1025E000578DCE5C588DCF5C598DD05C5A8DD15CA7
:1025F0005B8DD35C5C8DD45C5D8DD55C5E8DD65C73
:102600005F8DD75C608DD85C618DDA5C628DDB5C40
:10261000638DDC5C648DDD5C658DDE5C668DDF5C0E
:10262000678DE05C688DE25C698DE35C6A8DE75CD8
:102630006B8DE95C6C8DEB5C6D8DEC5C6E8DEE5C96
:102640006F8DEF5C708DF15C718DF25C728DF35C5F
:10265000738DF45C748DF55C758DF65C768DF75C2E
:10266000778DF85C788DF95C798DFA5C7A8DFC5CFD
:102670007B8DFD5C7C8DFE5C7D8DFF5C7E8D005DC9
:10268000808D015D818D045D828D055D838D085D8A
:10269000848D095D858D0A5D868D0B5D878D0C5D52
:1026A000888D0D5D898D0F5D8A8D105D8B8D115D1F
:1026B0008C8D125D8D8D135D8E8D155D8F8D175DEB
:1026C000908D185D918D195D928D1A5D938D1C5DB5
:1026D000948D1D5D958D1F5D968D205D978D215D7F
:1026E000988D225D998D235D9A8D255D9B8D285D4A
:1026F0009C8D2A5D9D8D2B5D9E8D2C5D9F8D2F5D0C
:10270000A08D305DA18D315DA28D325DA38D335DD5
:10271000A48D355DA58D365DA68D375DA78D385DA1
:10272000A88D395DA98D3A5DAA8D3B5DAB8D3C5D71
:10273000AC8D3F5DAD8D405DAE8D415DAF8D425D39
:10274000B08D435DB18D445DB28D455DB38D465D09
:10275000B48D485DB58D495DB68D4D5DB78D4E5DCF
:10276000B88D4F5DB98D505DBA8D515DBB8D525D99
:10277000BC8D535DBD8D545DBE8D555DBF8D565D69
:10278000C08D575DC18D595DC28D5A5DC38D5C5D35
:10279000C48D5E5DC58D5F5DC68D605DC78D615DFD
:1027A000C88D625DC98D635DCA8D645DCB8D655DCD
:1027B000CC8D665DCD8D675DCE8D685DCF8D6A5D9C
:1027C000D08D6D5DD18D6E5DD28D705DD38D715D5F
:1027D000D48D725DD58D735DD68D755DD78D765D2B
:1027E000D88D775DD98D785DDA8D795DDB8D7A5DF9
:1027F000DC8D7B5DDD8D7C5DDE8D7D5DDF8D7E5DC9
:10280000E08D7F5DE18D805DE28D815DE38D835D97
:10281000E48D845DE58D855DE68D865DE78D875D64
:10282000E88D885DE98D895DEA8D8A5DEB8D8B5D34
:10283000EC8D8C5DED8D8D5DEE8D8E5DEF8D8F5D04
:10284000F08D905DF18D915DF28D925DF38D935DD4
:10285000F48D945DF58D955DF68D965DF78D975DA4
:10286000F88D985DF98D9A5DFA8D9B5DFB8D9C5D71
:10287000FC8D9E5DFD8D9F5DFE8DA05D408EA15DFA
:10288000418EA25D428EA35D438EA45D448EA55D04
:10289000458EA65D468EA75D478EA85D488EA95DD4
:1028A000498EAA5D4A8EAB5D4B8EAC5D4C8EAD5DA4
:1028B0004D8EAE5D4E8EAF5D4F8EB05D508EB15D74
:1028C000518EB25D528EB35D538EB45D548EB55D44
:1028D000558EB65D568EB85D578EB95D588EBA5D11
:1028E000598EBB5D5A8EBC5D5B8EBD5D5C8EBE5DE0
:1028F0005D8EBF5D5E8EC05D5F8EC15D608EC25DB0
:10290000618EC35D628EC45D638EC65D648EC75D7D
:10291000658EC85D668EC95D678ECA5D688ECB5D4B
:10292000698ECC5D6A8ECE5D6B8ECF5D6C8ED05D18
:102930006D8ED15D6E8ED25D6F8ED35D708ED45DE7
:10294000718ED55D728ED65D738ED75D748ED85DB7
:10295000758ED95D768EDA5D778EDC5D788EDF5D83
:10296000798EE05D7A8EE35D7B8EE45D7C8EEA5D40
:102970007D8EEC5D7E8EED5D808EF05D818EF55DF1
:10298000828EF65D838EF85D848EF95D858EFA5DAC
:10299000868EFB5D878EFC5D888EFF5D898E005E76
:1029A0008A8E045E8B8E075E8C8E095E8D8E0A5E2B
:1029B0008E8E0B5E8F8E0D5E908E0E5E918E125EF1
:1029C000928E135E938E175E948E1E5E958E1F5EA2
:1029D000968E205E978E215E988E225E998E235E63
:1029E0009A8E245E9B8E255E9C8E285E9D8E295E2F
:1029F0009E8E2A5E9F8E2B5EA08E2C5EA18E2F5EF9
:102A0000A28E305EA38E325EA48E335EA58E345EBF
:102A1000A68E355EA78E365EA88E395EA98E3A5E8A
:102A2000AA8E3E5EAB8E3F5EAC8E405EAD8E415E4A
:102A3000AE8E435EAF8E465EB08E475EB18E485E10
:102A4000B28E495EB38E4A5EB48E4B5EB58E4D5EDD
:102A5000B68E4E5EB78E4F5EB88E505EB98E515EAA
:102A6000BA8E525EBB8E535EBC8E565EBD8E575E76
:102A7000BE8E585EBF8E595EC08E5A5EC18E5C5E41
:102A8000C28E5D5EC38E5F5EC48E605EC58E635E09
:102A9000C68E645EC78E655EC88E665EC98E675ED2
:102AA000CA8E685ECB8E695ECC8E6A5ECD8E6B5EA2
:102AB000CE8E6C5ECF8E6D5ED08E6E5ED18E6F5E72
:102AC000D28E705ED38E715ED48E755ED58E775E3B
:102AD000D68E795ED78E7E5ED88E815ED98E825EEE
:102AE000DA8E835EDB8E855EDC8E885EDD8E895EAF
:102AF000DE8E8C5EDF8E8D5EE08E8E5EE18E925E6F
:102B0000E28E985EE38E9B5EE48E9D5EE58EA15E16
:102B1000E68EA25EE78EA35EE88EA45EE98EA85ED6
:102B2000EA8EA95EEB8EAA5EEC8EAB5EED8EAC5E9D
:102B3000EE8EAE5EEF8EAF5EF08EB05EF18EB15E69
:102B4000F28EB25EF38EB45EF48EBA5EF58EBB5E2C
:102B5000F68EBC5EF78EBD5EF88EBF5EF98EC05EEF
:102B6000FA8EC15EFB8EC25EFC8EC35EFD8EC45EBD
:102B7000FE8EC55E408FC65E418FC75E428FC85EC7
:102B8000438FCB5E448FCC5E458FCD5E468FCE5E4D
:102B9000478FCF5E488FD05E498FD45E4A8FD55E17
:102BA0004B8FD75E4C8FD85E4D8FD95E4E8FDA5EDD
:102BB0004F8FDC5E508FDD5E518FDE5E528FDF5EA9
:102BC000538FE05E548FE15E558FE25E568FE35E79
:102BD000578FE45E588FE55E598FE65E5A8FE75E49
:102BE0005B8FE95E5C8FEB5E5D8FEC5E5E8FED5E12
:102BF0005F8FEE5E608FEF5E618FF05E628FF15EE1
:102C0000638FF25E648FF35E658FF55E668FF85EAC
:102C1000678FF95E688FFB5E698FFC5E6A8FFD5E71
:102C20006B8F055F6C8F065F6D8F075F6E8F095F1F
:102C30006F8F0C5F708F0D5F718F0E5F728F105FE3
:102C4000738F125F748F145F758F165F768F195FA5
:102C5000778F1A5F788F1C5F798F1D5F7A8F1E5F69
:102C60007B8F215F7C8F225F7D8F235F7E8F245F30
:102C7000808F285F818F2B5F828F2C5F838F2E5FE9
:102C8000848F305F858F325F868F335F878F345FAD
:102C9000888F355F898F365F8A8F375F8B8F385F7C
:102CA0008C8F3B5F8D8F3D5F8E8F3E5F8F8F3F5F41
:102CB000908F415F918F425F928F435F938F445F0C
:102CC000948F455F958F465F968F475F978F485FDC
:102CD000988F495F998F4A5F9A8F4B5F9B8F4C5FAC
:102CE0009C8F4D5F9D8F4E5F9E8F4F5F9F8F515F7B
:102CF000A08F545FA18F595FA28F5A5FA38F5B5F34
:102D0000A48F5C5FA58F5E5FA68F5F5FA78F605FFC
:102D1000A88F635FA98F655FAA8F675FAB8F685FBE
:102D2000AC8F6B5FAD8F6E5FAE8F6F5FAF8F725F7B
:102D3000B08F745FB18F755FB28F765FB38F785F3E
:102D4000B48F7A5FB58F7D5FB68F7E5FB78F7F5F01
:102D5000B88F835FB98F865FBA8F8D5FBB8F8E5FB1
:102D6000BC8F8F5FBD8F915FBE8F935FBF8F945F6E
:102D7000C08F965FC18F9A5FC28F9B5FC38F9D5F2D
:102D8000C48F9E5FC58F9F5FC68FA05FC78FA25FF6
:102D9000C88FA35FC98FA45FCA8FA55FCB8FA65FC3
:102DA000CC8FA75FCD8FA95FCE8FAB5FCF8FAC5F8E
:102DB000D08FAF5FD18FB05FD28FB15FD38FB25F53
:102DC000D48FB35FD58FB45FD68FB65FD78FB85F20
:102DD000D88FB95FD98FBA5FDA8FBB5FDB8FBE5FE9
:102DE000DC8FBF5FDD8FC05FDE8FC15FDF8FC25FB3
:102DF000E08FC75FE18FC85FE28FCA5FE38FCB5F71
:102E0000E48FCE5FE58FD35FE68FD45FE78FD55F2A
:102E1000E88FDA5FE98FDB5FEA8FDC5FEB8FDE5FE5
:102E2000EC8FDF5FED8FE25FEE8FE35FEF8FE55FAB
:102E3000F08FE65FF18FE85FF28FE95FF38FEC5F71
:102E4000F48FEF5FF58FF05FF68FF25FF78FF35F30
:102E5000F88FF45FF98FF65FFA8FF75FFB8FF95FFA
:102E6000FC8FFA5FFD8FFC5FFE8F0760409008606B
:102E70004190096042900B6043900C604490106058
:102E80004590116046901360479017604890186015
:102E900049901A604A901E604B901F604C902260CF
:102EA0004D9023604E9024604F902C6050902D6088
:102EB00051902E6052903060539031605490326047
:102EC0005590336056903460579036605890376014
:102ED000599038605A9039605B903A605C903D60E0
:102EE0005D903E605E9040605F90446060904560A1
:102EF000619046606290476063904860649049606A
:102F000065904A6066904C6067904E6068904F6034
:102F1000699051606A9053606B9054606C905660F9
:102F20006D9057606E9058606F905B6070905C60C1
:102F300071905E6072905F60739060607490616089
:102F4000759065607690666077906E60789071603D
:102F5000799072607A9074607B9075607C907760F5
:102F60007D907E607E9080608090816081908260A4
:102F70008290856083908660849087608590886069
:102F800086908A6087908B6088908E6089908F6031
:102F90008A9090608B9091608C9093608D909560FA
:102FA0008E9097608F9098609090996091909C60BF
:102FB00092909E609390A1609490A2609590A4607E
:102FC0009690A5609790A7609890A9609990AA6044
:102FD0009A90AE609B90B0609C90B3609D90B560FD
:102FE0009E90B6609F90B760A090B960A190BA60C3
:102FF000A290BD60A390BE60A490BF60A590C06089
:10300000A690C160A790C260A890C360A990C46058
:10301000AA90C760AB90C860AC90C960AD90CC601E
:10302000AE90CD60AF90CE60B090CF60B190D060E8
:10303000B290D260B390D360B490D460B590D660B3
:10304000B690D760B790D960B890DB60B990DE6079
:10305000BA90E160BB90E260BC90E360BD90E46038
:10306000BE90E560BF90EA60C090F160C190F260F0
:10307000C290F560C390F760C490F860C590FB60A3
:10308000C690FC60C790FD60C890FE60C990FF606C
:10309000CA900261CB900361CC900461CD90056130
:1030A000CE900761CF900A61D0900B61D1900C61F6
:1030B000D2901061D3901161D4901261D5901361B8
:1030C000D6901461D7901661D8901761D990186185
:1030D000DA901961DB901B61DC901C61DD901D6151
:1030E000DE901E61DF902161E0902261E190256118
:1030F000E2902861E3902961E4902A61E5902C61D7
:10310000E6902D61E7902E61E8902F61E9903061A3
:10311000EA903161EB903261EC903361ED90346173
:10312000EE903561EF903661F0903761F190386143
:10313000F2903961F3903A61F4903B61F5903C6113
:10314000F6903D61F7903E61F8904061F9904161E1
:10315000FA904261FB904361FC904461FD904561AF
:10316000FE904661409147614191496142914B61B6
:1031700043914D6144914F61459150614691526137
:103180004791536148915461499156614A91576101
:103190004B9158614C9159614D915A614E915B61CF
:1031A0004F915C6150915E6151915F61529160619C
:1031B0005391616154916361559164615691656168
:1031C000579166615891696159916A615A916B6131
:1031D0005B916C615C916D615D916E615E916F61FF
:1031E0005F917161609172616191736162917461CB
:1031F00063917661649178616591796166917A6194
:1032000067917B6168917C6169917D616A917E6162
:103210006B917F616C9180616D9181616E91826132
:103220006F91836170918461719185617291866102
:1032300073918761749188617591896176918A61D2
:1032400077918C6178918D6179918F617A9190619C
:103250007B9191617C9192617D9193617E91956169
:103260008091966181919761829198618391996132
:1032700084919A6185919B6186919C6187919E6101
:1032800088919F618991A0618A91A1618B91A261CE
:103290008C91A3618D91A4618E91A5618F91A6619E
:1032A0009091AA619191AB619291AD619391AE6160
:1032B0009491AF619591B0619691B1619791B2612E
:1032C0009891B3619991B4619A91B5619B91B661FE
:1032D0009C91B8619D91B9619E91BA619F91BB61CA
:1032E000A091BC61A191BD61A291BF61A391C06198
:1032F000A491C161A591C361A691C461A791C56163
:10330000A891C661A991C761AA91C961AB91CC612D
:10331000AC91CD61AD91CE61AE91CF61AF91D061F5
:10332000B091D361B191D561B291D661B391D761BA
:10333000B491D861B591D961B691DA61B791DB6189
:10334000B891DC61B991DD61BA91DE61BB91DF6159
:10335000BC91E061BD91E161BE91E261BF91E36129
:10336000C091E461C191E561C291E761C391E861F7
:10337000C491E961C591EA61C691EB61C791EC61C5
:10338000C891ED61C991EE61CA91EF61CB91F06195
:10339000CC91F161CD91F261CE91F361CF91F46165
:1033A000D091F661D191F761D291F861D391F96131
:1033B000D491FA61D591FB61D691FC61D791FD6101
:1033C000D891FE61D9910062DA910162DB910262CB
:1033D000DC910362DD910462DE910562DF91076298
:1033E000E0910962E1911362E2911462E391196242
:1033F000E4911C62E5911D62E6911E62E7912062F4
:10340000E8912362E9912662EA912762EB912862B2
:10341000EC912962ED912B62EE912D62EF912F627A
:10342000F0913062F1913162F2913262F391356242
:10343000F4913662F5913862F6913962F7913A6209
:10344000F8913B62F9913C62FA914262FB914462CD
:10345000FC914562FD914662FE914A6240924F6244
:103460004192506242925562439256624492576230
:103470004592596246925A6247925C6248925D62F6
:1034800049925E624A925F624B9260624C926162C4
:103490004D9262624E9264624F926562509268628F
:1034A0005192716252927262539274625492756236
:1034B000559277625692786257927A6258927B62FE
:1034C00059927D625A9281625B9282625C928362BF
:1034D0005D9285625E9286625F9287626092886288
:1034E00061928B6262928C6263928D6264928E6250
:1034F00065928F6266929062679294626892996216
:1035000069929C626A929D626B929E626C92A362C7
:103510006D92A6626E92A7626F92A9627092AA6281
:103520007192AD627292AE627392AF627492B06247
:103530007592B2627692B3627792B4627892B66212
:103540007992B7627A92B8627B92BA627C92BE62DA
:103550007D92C0627E92C1628092C3628192CB6290
:103560008292CF628392D1628492D5628592DD622B
:103570008692DE628792E0628892E1628992E462DA
:103580008A92EA628B92EB628C92F0628D92F26286
:103590008E92F5628F92F8629092F9629192FA623D
:1035A0009292FB62939200639492036395920463F8
:1035B000969205639792066398920A6399920B63B9
:1035C0009A920C639B920D639C920F639D92106381
:1035D0009E9212639F921363A0921463A19215634B
:1035E000A2921763A3921863A4921963A5921C6315
:1035F000A6922663A7922763A8922963A9922C63B7
:10360000AA922D63AB922E63AC923063AD9231637C
:10361000AE923363AF923463B0923563B192366346
:10362000B2923763B3923863B4923B63B5923C6312
:10363000B6923E63B7923F63B8924063B9924163DA
:10364000BA924463BB924763BC924863BD924A639B
:10365000BE925163BF925263C0925363C19254634E
:10366000C2925663C3925763C4925863C59259631A
:10367000C6925A63C7925B63C8925C63C9925D63EA
:10368000CA926063CB926463CC926563CD926663A9
:10369000CE926863CF926A63D0926B63D1926C636F
:1036A000D2926F63D3927063D4927263D592736334
:1036B000D6927463D7927563D8927863D9927963FE
:1036C000DA927C63DB927D63DC927E63DD927F63C2
:1036D000DE928163DF928363E0928463E19285638B
:1036E000E2928663E3928B63E4928D63E592916349
:1036F000E6929363E7929463E8929563E992976305
:10370000EA929963EB929A63EC929B63ED929C63CD
:10371000EE929D63EF929E63F0929F63F192A1639C
:10372000F292A463F392A663F492AB63F592AF6353
:10373000F692B163F792B263F892B563F992B66309
:10374000FA92B963FB92BB63FC92BD63FD92BF63C7
:10375000FE92C0634093C1634193C2634293C363CB
:103760004393C5634493C7634593C8634693CA6351
:103770004793CB634893CC634993D1634A93D36314
:103780004B93D4634C93D5634D93D7634E93D863D7
:103790004F93D9635093DA635193DB635293DC63A5
:1037A0005393DD635493DF635593E2635693E4636D
:1037B0005793E5635893E6635993E7635A93E86335
:1037C0005B93EB635C93EC635D93EE635E93EF63FB
:1037D0005F93F0636093F1636193F3636293F563C6
:1037E0006393F7636493F9636593FA636693FB638A
:1037F0006793FC636893FE63699303646A9304644C
:103800006B9306646C9307646D9308646E9309640C
:103810006F930A6470930D6471930E6472931164D4
:103820007393126474931564759316647693176496
:10383000779318647893196479931A647A931D6462
:103840007B931F647C9322647D9323647E93246422
:1038500080932564819327648293286483932964E9
:1038600084932B6485932E6486932F6487933064AE
:1038700088933164899332648A9333648B9335647B
:103880008C9336648D9337648E9338648F93396448
:1038900090933B6491933C6492933E649393406411
:1038A00094934264959343649693496497934B64CD
:1038B00098934C6499934D649A934E649B934F6490
:1038C0009C9350649D9351649E9353649F9355645D
:1038D000A0935664A1935764A2935964A3935A6426
:1038E000A4935B64A5935C64A6935D64A7935F64F3
:1038F000A8936064A9936164AA936264AB936364C0
:10390000AC936464AD936564AE936664AF9368648E
:10391000B0936A64B1936B64B2936C64B3936E6456
:10392000B4936F64B5937064B6937164B793726423
:10393000B8937364B9937464BA937564BB937664F3
:10394000BC937764BD937B64BE937C64BF937D64BA
:10395000C0937E64C1937F64C2938064C393816487
:10396000C4938364C5938664C6938864C79389644B
:10397000C8938A64C9938B64CA938C64CB938D6417
:10398000CC938E64CD938F64CE939064CF939364E5
:10399000D0939464D1939764D2939864D3939A64A8
:1039A000D4939B64D5939C64D6939D64D7939F6472
:1039B000D893A064D993A164DA93A264DB93A3643F
:1039C000DC93A564DD93A664DE93A764DF93A8640B
:1039D000E093AA64E193AB64E293AF64E393B164D0
:1039E000E493B264E593B364E693B464E793B66496
:1039F000E893B964E993BB64EA93BD64EB93BE6456
:103A0000EC93BF64ED93C164EE93C364EF93C4641D
:103A1000F093C664F193C764F293C864F393C964E6
:103A2000F493CA64F593CB64F693CC64F793CF64B4
:103A3000F893D164F993D364FA93D464FB93D56477
:103A4000FC93D664FD93D964FE93DA644094DB64FE
:103A50004194DC644294DD644394DF644494E06404
:103A60004594E1644694E3644794E5644894E764CC
:103A70004994E8644A94E9644B94EA644C94EB6496
:103A80004D94EC644E94ED644F94EE645094EF6466
:103A90005194F0645294F1645394F2645494F36436
:103AA0005594F4645694F5645794F6645894F76406
:103AB0005994F8645A94F9645B94FA645C94FB64D6
:103AC0005D94FC645E94FD645F94FE646094FF64A6
:103AD000619401656294026563940365649404656E
:103AE000659405656694066567940765689408653E
:103AF00069940A656A940B656B940C656C940D650A
:103B00006D940E656E940F656F94106570941165D9
:103B100071941365729414657394156574941665A5
:103B2000759417657694196577941A6578941B6572
:103B300079941C657A941D657B941E657C941F6541
:103B40007D9420657E94216580942265819423650F
:103B500082942465839426658494276585942865DA
:103B60008694296587942A6588942C6589942D65A7
:103B70008A9430658B9431658C9432658D9433656D
:103B80008E9437658F943A6590943C6591943D6529
:103B900092944065939441659494426595944365ED
:103BA00096944465979446659894476599944A65B8
:103BB0009A944B659B944D659C944E659D9450657D
:103BC0009E9452659F945365A0945465A194576543
:103BD000A2945865A3945A65A4945C65A5945F6506
:103BE000A6946065A7946165A8946465A9946565C9
:103BF000AA946765AB946865AC946965AD946A6591
:103C0000AE946D65AF946E65B0946F65B194716557
:103C1000B2947365B3947565B4947665B59478651C
:103C2000B6947965B7947A65B8947B65B9947C65E8
:103C3000BA947D65BB947E65BC947F65BD948065B8
:103C4000BE948165BF948265C0948365C194846588
:103C5000C2948565C3948665C4948865C594896556
:103C6000C6948A65C7948D65C8948E65C9948F651E
:103C7000CA949265CB949465CC949565CD949665E1
:103C8000CE949865CF949A65D0949D65D1949E65A5
:103C9000D294A065D394A265D494A365D594A66567
:103CA000D694A865D794AA65D894AC65D994AE6526
:103CB000DA94B165DB94B265DC94B365DD94B465E8
:103CC000DE94B565DF94B665E094B765E194B865B8
:103CD000E294BA65E394BB65E494BE65E594BF6580
:103CE000E694C065E794C265E894C765E994C86541
:103CF000EA94C965EB94CA65EC94CD65ED94D06502
:103D0000EE94D165EF94D365F094D465F194D565C4
:103D1000F294D865F394D965F494DA65F594DB658B
:103D2000F694DC65F794DD65F894DE65F994DF655B
:103D3000FA94E165FB94E365FC94E465FD94EA651F
:103D4000FE94EB654095F2654195F3654295F46507
:103D50004395F5654495F8654595F9654695FB6588
:103D60004795FC654895FD654995FE654A95FF6553
:103D70004B9501664C9504664D9505664E95076614
:103D80004F9508665095096651950B6652950D66DC
:103D9000539510665495116655951266569516669C
:103DA000579517665895186659951A665A951B6661
:103DB0005B951C665C951E665D9521665E95226628
:103DC0005F952366609524666195266662952966EF
:103DD00063952A6664952B6665952C6666952E66B6
:103DE0006795306668953266699533666A95376679
:103DF0006B9538666C9539666D953A666E953B663F
:103E00006F953D6670953F66719540667295426606
:103E100073954466749545667595466676954766CE
:103E2000779548667895496679954A667A954D669C
:103E30007B954E667C9550667D9551667E9558665D
:103E40008095596681955B6682955C6683955D6613
:103E500084955E66859560668695626687956366DD
:103E600088956566899567668A9569668B956A66A1
:103E70008C956B668D956C668E956D668F9571666B
:103E8000909572669195736692957566939578662E
:103E90009495796695957B6696957C6697957D66F3
:103EA00098957F66999580669A9581669B958366BD
:103EB0009C9585669D9586669E9588669F95896684
:103EC000A0958A66A1958B66A2958D66A3958E6650
:103ED000A4958F66A5959066A6959266A79593661C
:103EE000A8959466A9959566AA959866AB959966E6
:103EF000AC959A66AD959B66AE959C66AF959E66B1
:103F0000B0959F66B195A066B295A166B395A2667D
:103F1000B495A366B595A466B695A566B795A6664D
:103F2000B895A966B995AA66BA95AB66BB95AC6615
:103F3000BC95AD66BD95AF66BE95B066BF95B166E2
:103F4000C095B266C195B366C295B566C395B666AF
:103F5000C495B766C595B866C695BA66C795BB667B
:103F6000C895BC66C995BD66CA95BF66CB95C06647
:103F7000CC95C166CD95C266CE95C366CF95C46615
:103F8000D095C566D195C666D295C766D395C866E5
:103F9000D495C966D595CA66D695CB66D795CC66B5
:103FA000D895CD66D995CE66DA95CF66DB95D06685
:103FB000DC95D166DD95D266DE95D366DF95D46655
:103FC000E095D566E195D666E295D766E395D86625
:103FD000E495DA66E595DE66E695DF66E795E066E8
:103FE000E895E166E995E266EA95E366EB95E466B5
:103FF000EC95E566ED95E766EE95E866EF95EA6681
:10400000F095EB66F195EC66F295ED66F395EE664C
:10401000F495EF66F595F166F695F566F795F66613
:10402000F895F866F995FA66FA95FB66FB95FD66D4
:10403000FC950167FD950267FE950367409604674E
:1040400041960567429606674396076744960C6754
:1040500045960E6746960F67479611674896126712
:10406000499613674A9616674B9618674C961967D8
:104070004D961A674E961C674F961E67509620679E
:104080005196216752962267539623675496246768
:1040900055962567569627675796296758962E672F
:1040A000599630675A9632675B9633675C963667E7
:1040B0005D9637675E9638675F96396760963B67AF
:1040C00061963C6762963E6763963F676496416778
:1040D00065964467669645676796476768964A6738
:1040E00069964B676A964D676B9652676C965467F4
:1040F0006D9655676E9657676F96586770965967B5
:1041000071965A6772965B6773965D67749662677D
:10411000759663677696646777966667789667673D
:1041200079966B677A966C677B966E677C967167FB
:104130007D9674677E9676678096786781967967B4
:1041400082967A6783967B6784967D67859680677B
:10415000869682678796836788968567899686673D
:104160008A9688678B968A678C968C678D968D6702
:104170008E968E678F968F679096916791969267CD
:104180009296936793969467949696679596996797
:1041900096969B6797969F679896A0679996A16752
:1041A0009A96A4679B96A6679C96A9679D96AC670E
:1041B0009E96AE679F96B167A096B267A196B467C8
:1041C000A296B967A396BA67A496BB67A596BC6783
:1041D000A696BD67A796BE67A896BF67A996C06753
:1041E000AA96C267AB96C567AC96C667AD96C76719
:1041F000AE96C867AF96C967B096CA67B196CB67E7
:10420000B296CC67B396CD67B496CE67B596D567B0
:10421000B696D667B796D767B896DB67B996DF6765
:10422000BA96E167BB96E367BC96E467BD96E6671E
:10423000BE96E767BF96E867C096EA67C196EB67E8
:10424000C296ED67C396EE67C496F267C596F567AA
:10425000C696F667C796F767C896F867C996F9676E
:10426000CA96FA67CB96FB67CC96FC67CD96FE673D
:10427000CE960168CF960268D0960368D1960468FE
:10428000D2960668D3960D68D4961068D5961268B3
:10429000D6961468D7961568D8961868D99619686E
:1042A000DA961A68DB961B68DC961C68DD961E6839
:1042B000DE961F68DF962068E0962268E196236804
:1042C000E2962468E3962568E4962668E5962768D2
:1042D000E6962868E7962B68E8962C68E9962D689C
:1042E000EA962E68EB962F68EC963068ED9631686A
:1042F000EE963468EF963568F0963668F1963A682F
:10430000F2963B68F3963F68F4964768F5964B68DB
:10431000F6964D68F7964F68F8965268F996566883
:10432000FA965768FB965868FC965968FD965A6845
:10433000FE965B6840975C6841975D6842975E684F
:1043400043975F6844976A6845976C6846976D68BD
:1043500047976E6848976F68499770684A97716881
:104360004B9772684C9773684D9775684E9778684D
:104370004F97796850977A6851977B6852977C6815
:1043800053977D6854977E6855977F6856978068E5
:104390005797826858978468599787685A978868AA
:1043A0005B9789685C978A685D978B685E978C6875
:1043B0005F978D6860978E68619790686297916843
:1043C000639792686497946865979568669796680E
:1043D000679798686897996869979A686A979B68D9
:1043E0006B979C686C979D686D979E686E979F68A9
:1043F0006F97A0687097A1687197A3687297A46877
:104400007397A5687497A9687597AA687697AB683B
:104410007797AC687897AE687997B1687A97B26801
:104420007B97B4687C97B6687D97B7687E97B868C5
:104430008097B9688197BA688297BB688397BC6890
:104440008497BD688597BE688697BF688797C1685F
:104450008897C3688997C4688A97C5688B97C66828
:104460008C97C7688D97C8688E97CA688F97CC68F5
:104470009097CE689197CF689297D0689397D168BC
:104480009497D3689597D4689697D6689797D76886
:104490009897D9689997DB689A97DC689B97DD684D
:1044A0009C97DE689D97DF689E97E1689F97E2681A
:1044B000A097E468A197E568A297E668A397E768E4
:1044C000A497E868A597E968A697EA68A797EB68B4
:1044D000A897EC68A997ED68AA97EF68AB97F26880
:1044E000AC97F368AD97F468AE97F668AF97F76846
:1044F000B097F868B197FB68B297FD68B397FE680C
:10450000B497FF68B5970069B6970269B7970369D2
:10451000B8970469B9970669BA970769BB9708699C
:10452000BC970969BD970A69BE970C69BF970F6967
:10453000C0971169C1971369C2971469C397156928
:10454000C4971669C5971769C6971869C7971969F7
:10455000C8971A69C9971B69CA971C69CB971D69C7
:10456000CC971E69CD972169CE972269CF97236991
:10457000D0972569D1972669D2972769D39728695B
:10458000D4972969D5972A69D6972B69D7972C692B
:10459000D8972E69D9972F69DA973169DB973269F5
:1045A000DC973369DD973569DE973669DF973769C0
:1045B000E0973869E1973A69E2973B69E3973C698C
:1045C000E4973E69E5974069E6974169E797436953
:1045D000E8974469E9974569EA974669EB9747691F
:1045E000EC974869ED974969EE974A69EF974B69EF
:1045F000F0974C69F1974D69F2974E69F3974F69BF
:10460000F4975069F5975169F6975269F79753698E
:10461000F8975569F9975669FA975869FB97596958
:10462000FC975B69FD975C69FE975F6940986169DB
:1046300041986269429864694398656944986769DA
:10464000459868694698696947986A6948986C69A5
:1046500049986D694A986F694B9870694C9872696E
:104660004D9873694E9874694F987569509876693A
:1046700051987A6952987B6953987D6954987E69FC
:1046800055987F69569881695798836958988569C4
:1046900059988A695A988B695B988C695C988E697D
:1046A0005D988F695E9890695F989169609892694A
:1046B0006198936962989669639897696498996913
:1046C00065989A6966989D6967989E6968989F69D8
:1046D0006998A0696A98A1696B98A2696C98A369A6
:1046E0006D98A4696E98A5696F98A6697098A96974
:1046F0007198AA697298AC697398AE697498AF6939
:104700007598B0697698B2697798B3697898B56901
:104710007998B6697A98B8697B98B9697C98BA69CA
:104720007D98BC697E98BD698098BE698198BF6993
:104730008298C0698398C2698498C3698598C4695E
:104740008698C5698798C6698898C7698998C8692D
:104750008A98C9698B98CB698C98CD698D98CF69F7
:104760008E98D1698F98D2699098D3699198D569BC
:104770009298D6699398D7699498D8699598D96989
:104780009698DA699798DC699898DD699998DE6956
:104790009A98E1699B98E2699C98E3699D98E4691D
:1047A0009E98E5699F98E669A098E769A198E869ED
:1047B000A298E969A398EA69A498EB69A598EC69BD
:1047C000A698EE69A798EF69A898F069A998F16989
:1047D000AA98F369AB98F469AC98F569AD98F66955
:1047E000AE98F769AF98F869B098F969B198FA6925
:1047F000B298FB69B398FC69B498FE69B598006AF1
:10480000B698016AB798026AB898036AB998046AB8
:10481000BA98056ABB98066ABC98076ABD98086A88
:10482000BE98096ABF980B6AC0980C6AC1980D6A55
:10483000C2980E6AC3980F6AC498106AC598116A24
:10484000C698126AC798136AC898146AC998156AF4
:10485000CA98166ACB98196ACC981A6ACD981B6ABE
:10486000CE981C6ACF981D6AD0981E6AD198206A8B
:10487000D298226AD398236AD498246AD598256A54
:10488000D698266AD798276AD898296AD9982B6A21
:10489000DA982C6ADB982D6ADC982E6ADD98306AEB
:1048A000DE98326ADF98336AE098346AE198366AB3
:1048B000E298376AE398386AE498396AE5983A6A80
:1048C000E6983B6AE7983C6AE8983F6AE998406A4C
:1048D000EA98416AEB98426AEC98436AED98456A17
:1048E000EE98466AEF98486AF098496AF1984A6AE1
:1048F000F2984B6AF3984C6AF4984D6AF5984E6AB0
:10490000F6984F6AF798516AF898526AF998536A7C
:10491000FA98546AFB98556AFC98566AFD98576A4B
:10492000FE985A6A40995C6A41995D6A42995E6A4A
:1049300043995F6A4499606A4599626A4699636AD5
:104940004799646A4899666A4999676A4A99686AA0
:104950004B99696A4C996A6A4D996B6A4E996C6A6F
:104960004F996D6A50996E6A51996F6A5299706A3F
:104970005399726A5499736A5599746A5699756A0B
:104980005799766A5899776A5999786A5A997A6ADA
:104990005B997B6A5C997D6A5D997E6A5E997F6AA4
:1049A0005F99816A6099826A6199836A6299856A6E
:1049B0006399866A6499876A6599886A6699896A3B
:1049C00067998A6A68998B6A69998C6A6A998D6A0B
:1049D0006B998F6A6C99926A6D99936A6E99946AD1
:1049E0006F99956A7099966A7199986A7299996A9D
:1049F00073999A6A74999B6A75999C6A76999D6A6B
:104A000077999E6A78999F6A7999A16A7A99A26A38
:104A10007B99A36A7C99A46A7D99A56A7E99A66A06
:104A20008099A76A8199A86A8299AA6A8399AD6ACE
:104A30008499AE6A8599AF6A8699B06A8799B16A96
:104A40008899B26A8999B36A8A99B46A8B99B56A66
:104A50008C99B66A8D99B76A8E99B86A8F99B96A36
:104A60009099BA6A9199BB6A9299BC6A9399BD6A06
:104A70009499BE6A9599BF6A9699C06A9799C16AD6
:104A80009899C26A9999C36A9A99C46A9B99C56AA6
:104A90009C99C66A9D99C76A9E99C86A9F99C96A76
:104AA000A099CA6AA199CB6AA299CC6AA399CD6A46
:104AB000A499CE6AA599CF6AA699D06AA799D16A16
:104AC000A899D26AA999D36AAA99D46AAB99D56AE6
:104AD000AC99D66AAD99D76AAE99D86AAF99D96AB6
:104AE000B099DA6AB199DB6AB299DC6AB399DD6A86
:104AF000B499DE6AB599DF6AB699E06AB799E16A56
:104B0000B899E26AB999E36ABA99E46ABB99E56A25
:104B1000BC99E66ABD99E76ABE99E86ABF99E96AF5
:104B2000C099EA6AC199EB6AC299EC6AC399ED6AC5
:104B3000C499EE6AC599EF6AC699F06AC799F16A95
:104B4000C899F26AC999F36ACA99F46ACB99F56A65
:104B5000CC99F66ACD99F76ACE99F86ACF99F96A35
:104B6000D099FA6AD199FB6AD299FC6AD399FD6A05
:104B7000D499FE6AD599FF6AD699006BD799016BD3
:104B8000D899026BD999036BDA99046BDB99056BA1
:104B9000DC99066BDD99076BDE99086BDF99096B71
:104BA000E0990A6BE1990B6BE2990C6BE3990D6B41
:104BB000E4990E6BE5990F6BE699106BE799116B11
:104BC000E899126BE999136BEA99146BEB99156BE1
:104BD000EC99166BED99176BEE99186BEF99196BB1
:104BE000F0991A6BF1991B6BF2991C6BF3991D6B81
:104BF000F4991E6BF5991F6BF699256BF799266B47
:104C0000F899286BF999296BFA992A6BFB992B6B08
:104C1000FC992C6BFD992D6BFE992E6B409A2F6B96
:104C2000419A306B429A316B439A336B449A346B9E
:104C3000459A356B469A366B479A386B489A3B6B68
:104C4000499A3C6B4A9A3D6B4B9A3F6B4C9A406B2E
:104C50004D9A416B4E9A426B4F9A446B509A456BFA
:104C6000519A486B529A4A6B539A4B6B549A4D6BBC
:104C7000559A4E6B569A4F6B579A506B589A516B88
:104C8000599A526B5A9A536B5B9A546B5C9A556B58
:104C90005D9A566B5E9A576B5F9A586B609A5A6B27
:104CA000619A5B6B629A5C6B639A5D6B649A5E6BF4
:104CB000659A5F6B669A606B679A616B689A686BBE
:104CC000699A696B6A9A6B6B6B9A6C6B6C9A6D6B79
:104CD0006D9A6E6B6E9A6F6B6F9A706B709A716B48
:104CE000719A726B729A736B739A746B749A756B18
:104CF000759A766B769A776B779A786B789A7A6BE7
:104D0000799A7D6B7A9A7E6B7B9A7F6B7C9A806BAB
:104D10007D9A856B7E9A886B809A8C6B819A8E6B5C
:104D2000829A8F6B839A906B849A916B859A946B1D
:104D3000869A956B879A976B889A986B899A996BE4
:104D40008A9A9C6B8B9A9D6B8C9A9E6B8D9A9F6BAB
:104D50008E9AA06B8F9AA26B909AA36B919AA46B78
:104D6000929AA56B939AA66B949AA76B959AA86B47
:104D7000969AA96B979AAB6B989AAC6B999AAD6B14
:104D80009A9AAE6B9B9AAF6B9C9AB06B9D9AB16BE3
:104D90009E9AB26B9F9AB66BA09AB86BA19AB96BA8
:104DA000A29ABA6BA39ABB6BA49ABC6BA59ABD6B73
:104DB000A69ABE6BA79AC06BA89AC36BA99AC46B3C
:104DC000AA9AC66BAB9AC76BAC9AC86BAD9AC96B03
:104DD000AE9ACA6BAF9ACC6BB09ACE6BB19AD06BCD
:104DE000B29AD16BB39AD86BB49ADA6BB59ADC6B82
:104DF000B69ADD6BB79ADE6BB89ADF6BB99AE06B47
:104E0000BA9AE26BBB9AE36BBC9AE46BBD9AE56B12
:104E1000BE9AE66BBF9AE76BC09AE86BC19AE96BE2
:104E2000C29AEC6BC39AED6BC49AEE6BC59AF06BA9
:104E3000C69AF16BC79AF26BC89AF46BC99AF66B73
:104E4000CA9AF76BCB9AF86BCC9AFA6BCD9AFB6B3C
:104E5000CE9AFC6BCF9AFE6BD09AFF6BD19A006C06
:104E6000D29A016CD39A026CD49A036CD59A046CD2
:104E7000D69A086CD79A096CD89A0A6CD99A0B6C96
:104E8000DA9A0C6CDB9A0E6CDC9A126CDD9A176C59
:104E9000DE9A1C6CDF9A1D6CE09A1E6CE19A206C05
:104EA000E29A236CE39A256CE49A2B6CE59A2C6CBD
:104EB000E69A2D6CE79A316CE89A336CE99A366C75
:104EC000EA9A376CEB9A396CEC9A3A6CED9A3B6C37
:104ED000EE9A3C6CEF9A3E6CF09A3F6CF19A436C00
:104EE000F29A446CF39A456CF49A486CF59A4B6CC0
:104EF000F69A4C6CF79A4D6CF89A4E6CF99A4F6C86
:104F0000FA9A516CFB9A526CFC9A536CFD9A566C4F
:104F1000FE9A586C409B596C419B5A6C429B626C48
:104F2000439B636C449B656C459B666C469B676CBE
:104F3000479B6B6C489B6C6C499B6D6C4A9B6E6C81
:104F40004B9B6F6C4C9B716C4D9B736C4E9B756C4B
:104F50004F9B776C509B786C519B7A6C529B7B6C0F
:104F6000539B7C6C549B7F6C559B806C569B846CD4
:104F7000579B876C589B8A6C599B8B6C5A9B8D6C8A
:104F80005B9B8E6C5C9B916C5D9B926C5E9B956C4D
:104F90005F9B966C609B976C619B986C629B9A6C14
:104FA000639B9C6C649B9D6C659B9E6C669BA06CDC
:104FB000679BA26C689BA86C699BAC6C6A9BAF6C8E
:104FC0006B9BB06C6C9BB46C6D9BB56C6E9BB66C44
:104FD0006F9BB76C709BBA6C719BC06C729BC16C01
:104FE000739BC26C749BC36C759BC66C769BC76CC1
:104FF000779BC86C789BCB6C799BCD6C7A9BCE6C85
:105000007B9BCF6C7C9BD16C7D9BD26C7E9BD86C48
:10501000809BD96C819BDA6C829BDC6C839BDD6C02
:10502000849BDF6C859BE46C869BE66C879BE76CBE
:10503000889BE96C899BEC6C8A9BED6C8B9BF26C7A
:105040008C9BF46C8D9BF96C8E9BFF6C8F9B006D21
:10505000909B026D919B036D929B056D939B066DDA
:10506000949B086D959B096D969B0A6D979B0D6DA2
:10507000989B0F6D999B106D9A9B116D9B9B136D67
:105080009C9B146D9D9B156D9E9B166D9F9B186D33
:10509000A09B1C6DA19B1D6DA29B1F6DA39B206DF2
:1050A000A49B216DA59B226DA69B236DA79B246DC0
:1050B000A89B266DA99B286DAA9B296DAB9B2C6D87
:1050C000AC9B2D6DAD9B2F6DAE9B306DAF9B346D4A
:1050D000B09B366DB19B376DB29B386DB39B3A6D0B
:1050E000B49B3F6DB59B406DB69B426DB79B446DC5
:1050F000B89B496DB99B4C6DBA9B506DBB9B556D70
:10510000BC9B566DBD9B576DBE9B586DBF9B5B6D29
:10511000C09B5D6DC19B5F6DC29B616DC39B626DEA
:10512000C49B646DC59B656DC69B676DC79B686DB1
:10513000C89B6B6DC99B6C6DCA9B6D6DCB9B706D75
:10514000CC9B716DCD9B726DCE9B736DCF9B756D3E
:10515000D09B766DD19B796DD29B7A6DD39B7B6D05
:10516000D49B7D6DD59B7E6DD69B7F6DD79B806DCF
:10517000D89B816DD99B836DDA9B846DDB9B866D9B
:10518000DC9B876DDD9B8A6DDE9B8B6DDF9B8D6D60
:10519000E09B8F6DE19B906DE29B926DE39B966D22
:1051A000E49B976DE59B986DE69B996DE79B9A6DE7
:1051B000E89B9C6DE99BA26DEA9BA56DEB9BAC6D9A
:1051C000EC9BAD6DED9BB06DEE9BB16DEF9BB36D48
:1051D000F09BB46DF19BB66DF29BB76DF39BB96D0F
:1051E000F49BBA6DF59BBB6DF69BBC6DF79BBD6DDB
:1051F000F89BBE6DF99BC16DFA9BC26DFB9BC36DA5
:10520000FC9BC86DFD9BC96DFE9BCA6D409CCD6D1E
:10521000419CCE6D429CCF6D439CD06D449CD26D21
:10522000459CD36D469CD46D479CD56D489CD76DED
:10523000499CDA6D4A9CDB6D4B9CDC6D4C9CDF6DB0
:105240004D9CE26D4E9CE36D4F9CE56D509CE76D6F
:10525000519CE86D529CE96D539CEA6D549CED6D38
:10526000559CEF6D569CF06D579CF26D589CF46DFB
:10527000599CF56D5A9CF66D5B9CF86D5C9CFA6DC3
:105280005D9CFD6D5E9CFE6D5F9CFF6D609C006E85
:10529000619C016E629C026E639C036E649C046E52
:1052A000659C066E669C076E679C086E689C096E1E
:1052B000699C0B6E6A9C0F6E6B9C126E6C9C136EDD
:1052C0006D9C156E6E9C186E6F9C196E709C1B6E9B
:1052D000719C1C6E729C1E6E739C1F6E749C226E61
:1052E000759C266E769C276E779C286E789C2A6E1D
:1052F000799C2C6E7A9C2E6E7B9C306E7C9C316EE1
:105300007D9C336E7E9C356E809C366E819C376EA4
:10531000829C396E839C3B6E849C3C6E859C3D6E6A
:10532000869C3E6E879C3F6E889C406E899C416E39
:105330008A9C426E8B9C456E8C9C466E8D9C476E03
:105340008E9C486E8F9C496E909C4A6E919C4B6ED1
:10535000929C4C6E939C4F6E949C506E959C516E9B
:10536000969C526E979C556E989C576E999C596E60
:105370009A9C5A6E9B9C5C6E9C9C5D6E9D9C5E6E26
:105380009E9C606E9F9C616EA09C626EA19C636EF1
:10539000A29C646EA39C656EA49C666EA59C676EC1
:1053A000A69C686EA79C696EA89C6A6EA99C6C6E90
:1053B000AA9C6D6EAB9C6F6EAC9C706EAD9C716E5A
:1053C000AE9C726EAF9C736EB09C746EB19C756E29
:1053D000B29C766EB39C776EB49C786EB59C796EF9
:1053E000B69C7A6EB79C7B6EB89C7C6EB99C7D6EC9
:1053F000BA9C806EBB9C816EBC9C826EBD9C846E90
:10540000BE9C876EBF9C886EC09C8A6EC19C8B6E52
:10541000C29C8C6EC39C8D6EC49C8E6EC59C916E1E
:10542000C69C926EC79C936EC89C946EC99C956EE8
:10543000CA9C966ECB9C976ECC9C996ECD9C9A6EB6
:10544000CE9C9B6ECF9C9D6ED09C9E6ED19CA06E80
:10545000D29CA16ED39CA36ED49CA46ED59CA66E48
:10546000D69CA86ED79CA96ED89CAB6ED99CAC6E0E
:10547000DA9CAD6EDB9CAE6EDC9CB06EDD9CB36ED8
:10548000DE9CB56EDF9CB86EE09CB96EE19CBC6E94
:10549000E29CBE6EE39CBF6EE49CC06EE59CC36E56
:1054A000E69CC46EE79CC56EE89CC66EE99CC86E1F
:1054B000EA9CC96EEB9CCA6EEC9CCC6EED9CCD6EEA
:1054C000EE9CCE6EEF9CD06EF09CD26EF19CD66EB0
:1054D000F29CD86EF39CD96EF49CDB6EF59CDC6E6E
:1054E000F69CDD6EF79CE36EF89CE76EF99CEA6E25
:1054F000FA9CEB6EFB9CEC6EFC9CED6EFD9CEE6EE4
:10550000FE9CEF6E409DF06E419DF16E429DF26EED
:10551000439DF36E449DF56E459DF66E469DF76E78
:10552000479DF86E489DFA6E499DFB6E4A9DFC6E44
:105530004B9DFD6E4C9DFE6E4D9DFF6E4E9D006F12
:105540004F9D016F509D036F519D046F529D056FDC
:10555000539D076F549D086F559D0A6F569D0B6FA5
:10556000579D0C6F589D0D6F599D0E6F5A9D106F72
:105570005B9D116F5C9D126F5D9D166F5E9D176F39
:105580005F9D186F609D196F619D1A6F629D1B6F03
:10559000639D1C6F649D1D6F659D1E6F669D1F6FD3
:1055A000679D216F689D226F699D236F6A9D256F9E
:1055B0006B9D266F6C9D276F6D9D286F6E9D2C6F68
:1055C0006F9D2E6F709D306F719D326F729D346F25
:1055D000739D356F749D376F759D386F769D396FEC
:1055E000779D3A6F789D3B6F799D3C6F7A9D3D6FBB
:1055F0007B9D3F6F7C9D406F7D9D416F7E9D426F87
:10560000809D436F819D446F829D456F839D486F50
:10561000849D496F859D4A6F869D4C6F879D4E6F17
:10562000889D4F6F899D506F8A9D516F8B9D526FE2
:105630008C9D536F8D9D546F8E9D556F8F9D566FB2
:10564000909D576F919D596F929D5A6F939D5B6F7F
:10565000949D5D6F959D5F6F969D606F979D616F47
:10566000989D636F999D646F9A9D656F9B9D676F11
:105670009C9D686F9D9D696F9E9D6A6F9F9D6B6FDE
:10568000A09D6C6FA19D6F6FA29D706FA39D716FA8
:10569000A49D736FA59D756FA69D766FA79D776F6F
:1056A000A89D796FA99D7B6FAA9D7D6FAB9D7E6F35
:1056B000AC9D7F6FAD9D806FAE9D816FAF9D826F02
:1056C000B09D836FB19D856FB29D866FB39D876FCF
:1056D000B49D8A6FB59D8B6FB69D8F6FB79D906F90
:1056E000B89D916FB99D926FBA9D936FBB9D946F5A
:1056F000BC9D956FBD9D966FBE9D976FBF9D986F2A
:10570000C09D996FC19D9A6FC29D9B6FC39D9D6FF8
:10571000C49D9E6FC59D9F6FC69DA06FC79DA26FC4
:10572000C89DA36FC99DA46FCA9DA56FCB9DA66F91
:10573000CC9DA86FCD9DA96FCE9DAA6FCF9DAB6F5D
:10574000D09DAC6FD19DAD6FD29DAE6FD39DAF6F2D
:10575000D49DB06FD59DB16FD69DB26FD79DB46FFC
:10576000D89DB56FD99DB76FDA9DB86FDB9DBA6FC5
:10577000DC9DBB6FDD9DBC6FDE9DBD6FDF9DBE6F91
:10578000E09DBF6FE19DC16FE29DC36FE39DC46F5C
:10579000E49DC56FE59DC66FE69DC76FE79DC86F29
:1057A000E89DCA6FE99DCB6FEA9DCC6FEB9DCD6FF5
:1057B000EC9DCE6FED9DCF6FEE9DD06FEF9DD36FC3
:1057C000F09DD46FF19DD56FF29DD66FF39DD76F8D
:1057D000F49DD86FF59DD96FF69DDA6FF79DDB6F5D
:1057E000F89DDC6FF99DDD6FFA9DDF6FFB9DE26F29
:1057F000FC9DE36FFD9DE46FFE9DE56F409EE66FAF
:10580000419EE76F429EE86F439EE96F449EEA6FB8
:10581000459EEB6F469EEC6F479EED6F489EF06F86
:10582000499EF16F4A9EF26F4B9EF36F4C9EF46F50
:105830004D9EF56F4E9EF66F4F9EF76F509EF86F20
:10584000519EF96F529EFA6F539EFB6F549EFC6FF0
:10585000559EFD6F569EFE6F579EFF6F589E0070BF
:10586000599E01705A9E02705B9E03705C9E04708C
:105870005D9E05705E9E06705F9E0770609E08705C
:10588000619E0970629E0A70639E0B70649E0C702C
:10589000659E0D70669E0E70679E0F70689E1070FC
:1058A000699E12706A9E13706B9E14706C9E1570C8
:1058B0006D9E16706E9E17706F9E1870709E197098
:1058C000719E1C70729E1D70739E1E70749E1F7060
:1058D000759E2070769E2170779E2270789E24702F
:1058E000799E25707A9E26707B9E27707C9E2870FC
:1058F0007D9E29707E9E2A70809E2B70819E2C70CA
:10590000829E2D70839E2E70849E2F70859E307097
:10591000869E3170879E3270889E3370899E347067
:105920008A9E36708B9E37708C9E38708D9E3A7032
:105930008E9E3B708F9E3C70909E3D70919E3E70FF
:10594000929E3F70939E4070949E4170959E4270CF
:10595000969E4370979E4470989E4570999E46709F
:105960009A9E47709B9E48709C9E49709D9E4A706F
:105970009E9E4B709F9E4D70A09E4E70A19E50703B
:10598000A29E5170A39E5270A49E5370A59E547007
:10599000A69E5570A79E5670A89E5770A99E5870D7
:1059A000AA9E5970AB9E5A70AC9E5B70AD9E5C70A7
:1059B000AE9E5D70AF9E5F70B09E6070B19E617074
:1059C000B29E6270B39E6370B49E6470B59E657043
:1059D000B69E6670B79E6770B89E6870B99E697013
:1059E000BA9E6A70BB9E6E70BC9E7170BD9E7270D6
:1059F000BE9E7370BF9E7470C09E7770C19E79709A
:105A0000C29E7A70C39E7B70C49E7D70C59E81705D
:105A1000C69E8270C79E8370C89E8470C99E867021
:105A2000CA9E8770CB9E8870CC9E8B70CD9E8C70EA
:105A3000CE9E8D70CF9E8F70D09E9070D19E9170B3
:105A4000D29E9370D39E9770D49E9870D59E9A7074
:105A5000D69E9B70D79E9E70D89E9F70D99EA07038
:105A6000DA9EA170DB9EA270DC9EA370DD9EA47006
:105A7000DE9EA570DF9EA670E09EA770E19EA870D6
:105A8000E29EA970E39EAA70E49EB070E59EB2709B
:105A9000E69EB470E79EB570E89EB670E99EBA7057
:105AA000EA9EBE70EB9EBF70EC9EC470ED9EC5700A
:105AB000EE9EC670EF9EC770F09EC970F19ECB70CF
:105AC000F29ECC70F39ECD70F49ECE70F59ECF709A
:105AD000F69ED070F79ED170F89ED270F99ED3706A
