:020000040800F2
:10000000804500209D010008D3120008511200080D
:10001000D112000811020008191C0008000000009D
:10002000000000000000000000000000571700085A
:100030001302000800000000D5120008591700083C
:10004000B7010008B7010008B7010008B7010008B0
:10005000B7010008D7120008B7010008B70100086F
:10006000B7010008B7010008B7010008B701000890
:10007000B7010008B7010008B7010008B701000880
:10008000B7010008B7010008B7010008B701000870
:10009000B7010008B7010008B7010008B701000860
:1000A000B7010008B7010008B7010008B701000850
:1000B000B7010008B7010008B7010008B701000840
:1000C000B7010008B7010008B7010008B701000830
:1000D000B7010008B7010008B7010008B701000820
:1000E000B7010008B7010008B7010008B701000810
:1000F000B7010008B7010008B7010008B701000800
:10010000B7010008B7010008B7010008B7010008EF
:10011000B7010008B7010008B7010008B7010008DF
:10012000B7010008B7010008B7010008B7010008CF
:10013000B7010008B7010008B7010008B7010008BF
:10014000B7010008B7010008B7010008B7010008AF
:10015000B7010008B7010008B7010008B70100089F
:10016000B7010008B7010008B7010008B70100088F
:10017000B7010008B7010008B7010008000000003F
:10018000B7010008B7010008DFF80CD000F02EF826
:10019000004800476D3D0008804500200648804724
:1001A00006480047FEE7FEE7FEE7FEE7FEE7FEE75C
:1001B000FEE7FEE7FEE7FEE70518000889010008F4
:1001C00030B50B46014600202022012409E021FA27
:1001D00002F59D4205D303FA02F5491B04FA02F524
:1001E0002844151EA2F10102F1DC30BD064C074D7A
:1001F00006E0E06840F0010394E8070098471034F7
:10020000AC42F6D3FFF7C4FF44F4020864F40208DA
:10021000FEE77047002200F001B8000010B48446E9
:1002200001200F4B5C7A012C17D8587A00241C54FB
:10023000587A03EB8000C0F804C0587A03F1080C28
:1002400000F80C20587A421C5A72303008703A205C
:1002500048702F208870CC70002010BC70470000C0
:1002600070250020002100F001B8000001460120A7
:100270000B4B5A7A002A11D009783039C9B203EBF6
:100280008102D2F804C0BCF1000F07D000205060FA
:1002900019440872587A401E5872002070470000B6
:1002A000702500202DE9F84F0022DFF80082DFF8EA
:1002B0000092DFF800A24FF0030E0F27012303FA8C
:1002C00002F50B682B40AB427DD1D1F804C0BCF1E4
:1002D000020F02D0BCF1120F12D14FEAD20C00EB88
:1002E0008C0CDCF820605407E40E07FA04FB26EAC5
:1002F0000B06D1F810B00BFA04F43443CCF82040CC
:1003000006684FEA420C0EFA0CF4A64391F804B0CA
:100310000BF0030B0BFA0CFB4BEA060606604E686B
:10032000012E05D0022E03D0112E01D0122E11D194
:100330008668A643D1F80CB00BFA0CFB4BEA060614
:100340008660466826EA05050E79C6F300169640D3
:1003500035434560C56825EA04048D6805FA0CFC40
:100360004CEA040CC0F80CC0D1F804C01CF0805F4B
:100370007DD0D8F800C04CF4804CC8F800C0D8F844
:1003800000C00CF4804CCDF800C022F0030C0CF13E
:10039000804404F59834D4F808C895072D0F07FA5F
:1003A00005F62CEA0606A0F1804CBCF5003C64D0B2
:1003B000A0F1804CBCF5013C62D0A0F1804CBCF5B2
:1003C000023C60D000E052E0A0F1804CBCF5033C60
:1003D0005CD0A0F1804CBCF5043C5AD0A0F1804C1C
:1003E000BCF5053C58D0A0F1804CBCF5063C56D07D
:1003F000A0F1804CBCF5073C54D04FF0080C0CFA2F
:1004000005FC4CEA060CC4F808C8D9F800C02CEA70
:10041000030C4C6814F4803F01D04CEA030CC9F87B
:1004200000C0254CD4F800C02CEA030C4D6815F42C
:10043000003F01D04CEA030CC4F800C0DAF800C059
:100440002CEA030C4C6814F4801F01D04CEA030C16
:10045000CAF800C0194CD4F800C02CEA030C4D684F
:1004600015F4001F01D04CEA030CC4F800C0521C64
:10047000102AFFF423AFBDE8F88F4FF0000CBEE761
:100480004FF0010CBBE74FF0020CB8E74FF0030C44
:10049000B5E74FF0040CB2E74FF0050CAFE74FF0B3
:1004A000060CACE74FF0070CA9E700004438024007
:1004B000003C0140083C0140043C01400C3C014030
:1004C000002A01D0816170470904816170470000F2
:1004D00001480068704700004C0000200248016895
:1004E000491C0160704700004C00002010B50B480B
:1004F000016841F400710160016841F480610160AC
:10050000016841F480710160032000F07FF8002051
:1005100000F006F800F018F8002010BD003C024082
:1005200010B5044607484FF47A720068B0FBF2F049
:1005300000F0AAFD00222146501E00F033F80020F2
:1005400010BD00005000002008B50E48016841F4BD
:1005500080410160006800F4804000900A48016812
:1005600041F080510160006800F08050009000224E
:100570001146052000F016F8BDE80840052000F0FF
:1005800005B80000443802404038024000F01F0126
:10059000012202FA01F14009800000F1E020C0F8D8
:1005A0000011704710B4184B1B68C3F30223C3F14A
:1005B000070CBCF1040F01D94FF0040C1C1D072CD3
:1005C00001D2002300E0DB1E012404FA0CFCACF194
:1005D000010C0CEA0101994004FA03F35B1E1A4076
:1005E0001143002808DA00F00F0000F1E0200901B3
:1005F00080F8141D10BC704700F1E020090180F85C
:10060000001410BC704700000CED00E000F0070083
:10061000064A11684FF6FF03194041EA002040F0F6
:10062000FD7040F080601060704700000CED00E04D
:100630002DE9F05F04460E46DFF8D091D9F80000AE
:10064000F7B200F00F00B0420AD289F80070D9F872
:10065000000000F00F00B04202D00120BDE8F09F82
:100660002078DFF8AC8110F0020F07D0D8F8000036
:10067000A16820F0F0000843C8F80000207810F0CE
:10068000010F51D060686349012808D002280DD0BD
:1006900003280BD0096811F0020F2ED00AE0096878
:1006A00011F4003F06D10120BDE8F09F096811F068
:1006B000007F1FD0D8F8001021F003010843C8F8CC
:1006C0000000FFF705FF0546606841F2883A0128FF
:1006D00016D0022829D003283CD0D8F8000010F00A
:1006E0000C0F51D0FFF7F4FE401B504547D90320B3
:1006F000BDE8F09F0120BDE8F09F0120BDE8F09F1C
:10070000D8F8000000F00C0004283DD0FFF7E0FE10
:10071000401B504502D90320BDE8F09FD8F80000E7
:1007200000F00C000428F1D12EE0D8F8000000F011
:100730000C00082828D0FFF7CBFE401B504502D9FB
:100740000320BDE8F09FD8F8000000F00C00082856
:10075000F1D119E0D8F800004FF00C0B3BEA000093
:1007600012D0FFF7B5FE401B504502D90320BDE86B
:10077000F09FD8F800003BEA0000F2D104E0D8F87E
:10078000000010F00C0FADD1D9F8000000F00F0000
:10079000B0420AD989F80070D9F8000000F00F00C3
:1007A000B04202D00120BDE8F09F207810F0040F85
:1007B00007D0D8F80000E16820F4E0500843C8F8FA
:1007C0000000207810F0080F08D0D8F80000216948
:1007D00020F4604040EAC100C8F8000000F058F87A
:1007E000D8F80010F02292FAA2F201F0F001B2FA69
:1007F00082F2D140084A515CC84008490860002094
:10080000FFF78EFE0020BDE8F09F0000003C024094
:100810000838024000380240144700085000002009
:1008200001490120C8647047000047420148006840
:10083000704700005000002000B5FFF7F7FF0749A0
:1008400009684FF4E05292FAA2F201F4E051B2FAD0
:1008500082F2D140024A515CC84000BD08380240D3
:100860002447000800B5FFF7E1FF074909684FF486
:10087000604292FAA2F201F46041B2FA82F2D140EF
:10088000024A515CC84000BD0838024024470008B5
:1008900010B41F48006810F00C011E481BD04FEA2E
:1008A000600C042916D0082915D11B4A116801F0E3
:1008B0003F01136813F4800F47F6C0730DD0BCFBE3
:1008C000F1F01168194093FAA3F3B3FA83F3D94016
:1008D00048430CE0604610BC7047B0FBF1F0116873
:1008E000194093FAA3F3B3FA83F3D940484311684C
:1008F0004FF4403292FAA2F201F44031B2FA82F29D
:10090000D140491C4900B0FBF1F010BC7047000019
:10091000083802400024F400043802402DE9F84F62
:100920000446DFF81C842078A8F1040710F0010FBA
:10093000A7F1040560D0D8F8000000F00C000428EE
:1009400009D0D8F8000000F00C0008280DD1386854
:1009500010F4800F09D0286810F4003F4CD0606874
:10096000002849D10120BDE8F88F6068B0F5803FCC
:1009700014D0B0F5A02F16D0286820F4803028605D
:10098000286820F480202860606810B3FFF7A0FD7D
:100990000646286810F4003F0ED02DE0286840F489
:1009A00080302860F0E7286840F4802028602868BC
:1009B00040F480302860E7E7FFF78AFD801B642859
:1009C00002D90320BDE8F88F286810F4003FF3D067
:1009D00012E0FFF77DFD0646286810F4003F0BD0BB
:1009E000FFF776FD801B642802D90320BDE8F88F4D
:1009F000286810F4003FF3D12078DFF8489310F016
:100A0000020F4FF0000663D0D8F800004FF0F80B4B
:100A100010F00C0F16D0D8F8000000F00C000828D9
:100A200003D1386810F4800F0CD0E068C8B30120FF
:100A3000C9F80000FFF74CFD8246286810F0020F4D
:100A400016D022E0286810F0020F05D0E0680128D7
:100A500002D00120BDE8F88F28689BFAABF221692B
:100A6000B2FA82F220F0F8009140084328602FE0AB
:100A7000FFF72EFDA0EB0A00022802D90320BDE8F3
:100A8000F88F286810F0020FF2D028689BFAABF2BA
:100A90002169B2FA82F220F0F80091400843286000
:100AA00016E0FFE7C9F80060FFF712FD82462868EC
:100AB00010F0020F0CD0FFF70BFDA0EB0A0002288C
:100AC00002D90320BDE8F88F286810F0020FF2D198
:100AD000207810F0080F34D09B48DFF870B26169BD
:100AE000C1B101210160FFF7F3FC8246DBF8000091
:100AF00010F0020F25D1FFF7EBFCA0EB0A00022853
:100B000002D90320BDE8F88FDBF8000010F0020FD7
:100B1000F1D016E00660FFF7DBFC8246DBF8000050
:100B200010F0020F0DD0FFF7D3FCA0EB0A00022853
:100B300002D90320BDE8F88FDBF8000010F0020FA7
:100B4000F1D1207810F0040F43D08148016841F0C2
:100B500080510160006800F080500090DFF8F4B12F
:100B6000DBF8000040F48070CBF80000FFF7B0FC29
:100B70008246DBF8000010F4807F0DD1FFF7A8FC5F
:100B8000A0EB0A00022802D90320BDE8F88FDBF8A9
:100B9000000010F4807FF1D0A068DFF8BCB101281C
:100BA00018D005281DD0DBF8000020F00100CBF89C
:100BB0000000DBF8000020F00400CBF80000A06883
:100BC00068B3FFF785FC8246DBF8000010F0020FE7
:100BD00014D03CE0DBF8000040F00100CBF800004E
:100BE000EDE7DBF8000040F00400CBF80000DBF894
:100BF000000040F00100CBF80000E0E7FFF768FCE0
:100C0000A0EB0A0141F28830814202D90320BDE8FD
:100C1000F88FDBF8000010F0020FEFD017E0FFF7BD
:100C200057FC8246DBF8000010F0020F0FD0FFF7F0
:100C30004FFCA0EB0A0141F28830814202D9032027
:100C4000BDE8F88FDBF8000010F0020FEFD1A069CB
:100C5000F0B3D8F8001001F00C0108296CD002287C
:100C600010D0C9F86060FFF733FC0446286810F024
:100C7000007F5ED0FFF72CFC001B022855D9032013
:100C8000BDE8F88FC9F86060FFF722FC06462868C7
:100C900010F0007F0BD0FFF71BFC801B022802D94D
:100CA0000320BDE8F88F286810F0007FF3D1216A97
:100CB000E0694FF0FF3340EA010247F6C07191FA54
:100CC000A1F1606AB1FA81F100FA01F1A06A00E0D5
:100CD0002FE003EB50004FF4403393FAA3F3B3FA41
:100CE00083F39840084310434FF0706292FAA2F2E7
:100CF000E16AB2FA82F29140084338600120C9F8F3
:100D00006000FFF7E5FB0446286810F0007F10D173
:100D1000FFF7DEFB001B022802D90320BDE8F88F95
:100D2000286810F0007FF3D003E0286810F0007FFF
:100D3000A0D10020BDE8F88F0120BDE8F88F0000A9
:100D40000838024000004742800E47427438024093
:100D500040380240007000407038024070B50446D0
:100D6000002C05D00025A56294F8510010B106E0D2
:100D7000012070BD84F85050204600F031F8022068
:100D800084F851002068016821F040010160A168E9
:100D9000606822690843E1681143084361690843B8
:100DA000218B01F400710843E1690843216A08437B
:100DB000A16A084321680860A069042101EA104083
:100DC000616A0843216848602068C16921F40061B4
:100DD000C1616565012084F85100002070BD0000EC
:100DE000F0B587B00068A0F18041B1F560513CD109
:100DF00000251F48016841F480410160006800F44B
:100E0000804001901B48016841F4807101600168D5
:100E100001F480710191016841F0040101600068F2
:100E200000F0040001900A2002900224039405942B
:100E300005260696104F02A93846FFF733FA04201C
:100E4000029003940495069602A90C48FFF72AFA2B
:100E5000012211463846FFF733FB0121029103912D
:100E6000069602A93846FFF71DFA07B0F0BD00004C
:100E70004038024030380240002002400008024062
:100E80002DE9F84F0446DDF828800D4616469B46AE
:100E900001274FF0000994F8500001280ED00120DE
:100EA00084F85000FFF714FB824694F85100616803
:100EB00001280ED0B1F5827F07D102E00220BDE803
:100EC000F88FA16809B9042803D04FF0020900F097
:100ED000C3B845B13EB1BBF1000F04D094F8510046
:100EE000012803D005E04FF00109B5E0052084F8A2
:100EF000510000206065A663A4F83EB0A4F83CB0A1
:100F00002563A4F836B0A4F834B020646064206887
:100F1000016811F0400F03D1016841F04001016008
:100F2000E068B0F5006F05D06068C8B3E08E0128B6
:100F30003ED06EE0606810B1E08E012831D12168AA
:100F40002888C860AD1CE08E401EE08629E06FB1A5
:100F5000E08E58B12068816811F0020F06D0298810
:100F6000C160AD1CE08E401EE0860027E08F58B1C6
:100F70002068816811F0010F06D0C0683080B61C6F
:100F8000E08F401EE0870127B8F1FF3F09D0FFF74F
:100F90009FFAA0EB0A00404503D34FF003095BE042
:100FA00006E0E08E0028D2D1E08F0028CFD136E0D5
:100FB0002168287808736D1CE08E401EE08628E0CA
:100FC0006FB1E08E58B12068816811F0020F06D031
:100FD00015F8011B0173E08E401EE0860027E08FAC
:100FE00058B12068816811F0010F06D0C06806F87A
:100FF000010BE08F401EE0870127B8F1FF3F08D0CA
:10100000FFF766FAA0EB0A00404502D34FF0030950
:1010100022E0E08E0028D3D1E08F0028D0D14346D3
:10102000012202212046CDF800A000F03FFB10B1C4
:101030004FF0030910E052464146204600F0C1F946
:1010400020B14FF001092020606505E0A06818B9C3
:101050002068C16880680090012084F85100002059
:1010600084F850004846BDE8F88F4FF0E02104288E
:1010700004D0086920F0040008617047086940F056
:101080000400086170477047401EB0F1807F01D3B3
:10109000012070474FF0E0214861044AF0201070B1
:1010A00000208861072008610020704723ED00E0E0
:1010B00010B5FFF7E8FF10BD70B50446002C04D052
:1010C00094F83900002510B106E0012070BD84F8C5
:1010D0003850204600F022F8242084F83900206897
:1010E000C16821F40051C160204600F0B7FB2068C0
:1010F000016921F4904101612068416921F02A01D0
:1011000041612068C16841F40051C160E56320205D
:1011100084F8390084F83A00002070BD10B586B01C
:101120000068A0F18041B1F588311DD10F480168F8
:1011300041F010010160006800F0100000904020B4
:1011400001900220029001200390032004900720C8
:101150000590074C01A92046FFF7A4F880210191D2
:1011600001A92046FFF79EF806B010BD44380240A2
:10117000000402402DE9F84304460D4691461E4600
:1011800094F83900202802D00220BDE8F8834DB33E
:10119000B9F1000F26D094F83800012825D001209D
:1011A00084F838000027E763212084F83900FFF72E
:1011B0008FF98046A4F82490A4F82690E08CA0B380
:1011C000E08C401EE084A068B0F5805F10D04346FC
:1011D000002280212046009600F0E2FCF0B10320BE
:1011E000BDE8F8830120BDE8F8830220BDE8F8835C
:1011F0004346002280212046009600F0D1FC10B129
:101200000320BDE8F88328882168C0F308004860FF
:10121000206908B16D1C05E0AD1C03E0216815F8DC
:10122000010B4860E08C0028CAD1434600224021CF
:101230002046009600F0B4FC10B10320BDE8F8830E
:10124000202084F8390084F838700020BDE8F88345
:10125000FEE7000082B000210C48026842F0020262
:101260000260006800F0020001900A48084A02602B
:101270004FF4E13242608160C16001610C22426141
:101280008161C16102B0FFF717BF00003038024032
:1012900000100140C02400200C480B4901604FF4AD
:1012A0008271416000218160C160016141614FF440
:1012B000007282611822C2610162416281620A2168
:1012C000C162FFF74BBD0000003800400025002040
:1012D000FEE770477047704710B50C4C0120207036
:1012E000FFF7DAFF00F054F9094988420BD1607822
:1012F00028B14FF4E00000F06FF900206070207812
:1013000020F001002070207810BD00005C0000205B
:101310001840EF000F48007810F0010F01D00320B3
:10132000704739B1012907D002290AD003290DD00D
:1013300004207047002070474FF4106010600020B8
:1013400070474FF4805010800020704701201060DB
:10135000002070475C00002010B5084602F5E061EF
:101360004FF6FF7202EA0332090300F03DF8002055
:1013700010BD000010B5074C0120207000F008F9E6
:101380000549884203D1207820F0010020702078A0
:1013900010BD00005C0000201840EF0070B50E4644
:1013A0001D4602F5E0600403204600F015F94FF6F3
:1013B000FF7000EA05322146304600F043F8002075
:1013C00070BD38B504460B460092002280212046AD
:1013D00000F06CF928B1606D40F0200060650320DA
:1013E00038BD002038BD00002DE9F04105460C460F
:1013F0001746134E002201213046FFF761F8032003
:1014000000F010F9C4F3074000F00CF9C4F3072012
:1014100000F008F9E0B200F005F9781E84B207D3B5
:10142000FF2000F0FFF828706D1C611E8CB2F7D20F
:101430003046BDE8F04101221146FFF741B80000F7
:10144000002002402DE9F04706460C46E1B2C1F506
:101450008070C5B2100AD7B200292FD0E1B2C1F511
:101460008071C9B204EB010A002844D0501B80B23D
:101470004FEA102900F0FF082A462146304600F0C6
:1014800053F857463544B9F10100C4B20CD34FF4B8
:1014900080723946284600F047F807F5807705F551
:1014A0008075611ECCB2F2D2B8F1000F39D042463D
:1014B00039462846BDE8F04700F036B8A8B1401ECE
:1014C000C5B24FF480722146304600F02DF804F585
:1014D000807406F58076691ECDB2F2D23A46214676
:1014E0003046BDE8F04700F01FB821463046BDE861
:1014F000F04700F019B8AF420DD9781BC7B22A46A1
:101500002146304600F010F870193A465146BDE8C1
:10151000F04700F009B821463046BDE8F04700F03A
:1015200003B8BDE8F08700002DE9F04105460C4600
:10153000164600F0A7F8154F002201213846FEF7A5
:10154000BFFF022000F06EF8C4F3074000F06AF815
:10155000C4F3072000F066F8E0B200F063F8B6F5D7
:10156000807F00D9BE15701E84B206D3287800F0A3
:1015700059F86D1C611E8CB2F8D201221146384612
:10158000FEF79EFFBDE8F04100F062B80020024087
:101590002DE9F0410F4F002201213846FEF790FF60
:1015A0009F2000F03FF8FF2000F03CF80446FF20A9
:1015B00000F038F80546FF2000F034F80646012216
:1015C00011463846FEF77CFF200440EA05203043F0
:1015D000BDE8F0810020024070B5044600F052F8EA
:1015E00000F036F80E4D002201212846FEF768FF74
:1015F000202000F017F8C4F3074000F013F8C4F3FC
:10160000072000F00FF8E0B200F00CF801221146BC
:101610002846FEF755FFBDE8704000F019B80000FD
:101620000020024000B583B001906FF07F40009031
:10163000012302AA01A90548FFF722FC08B1FF20F7
:1016400002909DF8080003B000BD000000250020B6
:1016500010B50B4C002201212046FEF731FF05207A
:10166000FFF7E0FFFF20FFF7DDFF10F0010FF9D1DA
:1016700020460122BDE810401146FEF721BF0000C0
:101680000020024010B5084C002201212046FEF740
:1016900017FF0620FFF7C6FF20460122BDE81040D5
:1016A0001146FEF70DBF0000002002402DE9F04179
:1016B0000446069E884617461D462068806838EA1C
:1016C000000015D00020B84240D0B5F1FF3F35D022
:1016D00025B1FEF7FDFE801BA8422FD3206841688C
:1016E00021F0E00141606068B0F5827F02D00DE03A
:1016F0000120E8E7A068B0F5004F02D0B0F5806F98
:1017000004D12068016821F040010160A06AB0F5B1
:10171000005F0AD1206801684DF6FF721140016038
:101720002068016841F400510160012084F85100F3
:10173000002084F850000320BDE8F0812068806814
:1017400038EA000005D00020B842BED10020BDE834
:10175000F0810120F8E7704710B5FEF7BFFEBDE845
:101760001040FFF7A5BC000030B593B0002523481A
:10177000016841F080510160006800F080500090E5
:101780001F48016841F480410160006800F4804016
:101790000090012006900004079002240C94800120
:1017A0000D9008200E904FF4A8700F901094072011
:1017B000119006A8FFF7B2F80F200190029403954C
:1017C0004FF4A0500490E0020590052101A8FEF717
:1017D0002FFFFFF725F8FFF729F84FF47A71B0FBD8
:1017E000F1F0FFF751FC0420FFF73FFC0022114607
:1017F000501EFEF7D7FE13B030BD00004038024047
:10180000007000400F48016841F4700101600E480B
:10181000016841F0010101600C4A00211160026879
:1018200022F4102222F080720260031D084A1A601E
:10183000026822F4802202600648016006495806C8
:101840000860704788ED00E0003802400838024028
:10185000103000240C38024008ED00E02DE9F04182
:1018600004462068016921F44051E2681143016196
:101870002068C16821F4037121F414412369A2682E
:10188000D4F81CC01A43636943EA0C031A4311439A
:10189000C1602068416921F44071A269114341612E
:1018A000E069BC4ABC49BD4D3226B0F5004F5ED060
:1018B0002068884202D0904240F01281FEF7D2FFA9
:1018C00000EBC00101EB001061688900B0FBF1F78B
:1018D000FEF7C8FF00EBC00101EB00106168890052
:1018E000B0FBF1F0A5FB001040096FF01801484370
:1018F00007EB800006EB0010A5FB0010400900F08C
:10190000F007FEF7AFFF00EBC00101EB00106168CC
:101910008900B0FBF1F0A5FB0010400907EB0017B0
:10192000FEF7A0FF00EBC00101EB00106168890029
:10193000B0FBF1F8FEF796FF00EBC00101EB0010E1
:1019400061688900B0FBF1F0A5FB001040096FF061
:101950001801484308EB800006EB0010A5FB0010BF
:101960002168C0F3431038448860BDE8F0812068E6
:10197000884201D0904259D1FEF774FF00EBC001BC
:1019800001EB001061684900B0FBF1F0A5FB00100D
:1019900040090701FEF766FF00EBC00101EB0010F4
:1019A00061684900B0FBF1F8FEF75CFF00EBC00195
:1019B00001EB001061684900B0FBF1F0A5FB0010DD
:1019C00040096FF01801484308EB800006EBC000A7
:1019D000A5FB0010400900F0F80007EB4007FEF7F8
:1019E00041FF00EBC00101EB001061684900B0FB52
:1019F000F1F8FEF737FF00EBC00101EB0010616862
:101A00004900B0FBF1F0A5FB001040096FF0180190
:101A1000484308EB800006EBC000A5FB00102168DE
:101A2000C0F3421038448860BDE8F081FEF704FF3F
:101A300000EBC00101EB001061684900B0FBF1F060
:101A4000A5FB001040090701FEF7F6FE00EBC00100
:101A500001EB001061684900B0FBF1F8FEF7ECFE05
:101A600000EBC00101EB001061684900B0FBF1F030
:101A7000A5FB001040096FF01801484308EB8000F7
:101A800006EBC000A5FB0010400900F0F80007EBD2
:101A90004007FEF7D1FE00EBC00101EB00106168CA
:101AA0004900B0FBF1F8FEF7C7FE00EBC00101EB07
:101AB000001061684900B0FBF1F0A5FB001040097F
:101AC0006FF01801484308EB800006EBC000A5FB4F
:101AD00000102168C0F3421038448860BDE8F081EE
:101AE000FEF7AAFE00EBC00101EB0010616889005F
:101AF000B0FBF1F7FEF7A0FE00EBC00101EB001018
:101B000061688900B0FBF1F0A5FB001040096FF09F
:101B10001801484307EB800006EB0010A5FB0010FE
:101B2000400900F0F007FEF787FE00EBC00101EB73
:101B3000001061688900B0FBF1F0A5FB00104009BE
:101B400007EB0017FEF778FE00EBC00101EB001079
:101B500061688900B0FBF1F8FEF76EFE00EBC00192
:101B600001EB001061688900B0FBF1F0A5FB0010EB
:101B700040096FF01801484308EB800006EB0010A5
:101B8000A5FB00102168C0F3431038448860BDE80D
:101B9000F081000000140140001001401F85EB514E
:101BA0002DE9F0410446069D884617461E462068EA
:101BB000006838EA000020D00020B84227D1B5F1F3
:101BC000FF3F1CD025B1FEF783FC801BA84216D92D
:101BD0002068C16821F4D071C1602068416921F09A
:101BE00001014161202084F8390084F83A00002086
:101BF00084F838000320BDE8F0810120DDE720688B
:101C0000006838EA000005D00020B842D7D0002094
:101C1000BDE8F0810120F8E7FEE700000FB4054BB6
:101C200010B503A9044A029800F018F810BC5DF83A
:101C300014FB00008D3A00086000002002E008C894
:101C4000121F08C1002AFAD170477047002001E036
:101C500001C1121F002AFBD1704700002DE9FF4F80
:101C60008BB09A460F460546002606E025280BD085
:101C700052460D9990476D1C761C28780028F5D1A6
:101C80000FB03046BDE8F08F0024A0460122604925
:101C900000E0044315F8013F203B02FA03F008423C
:101CA000F7D128782E2817D115F8010F44F0040435
:101CB0002A280ED06FF02F022878A0F130010929D0
:101CC0000AD808EB880102EB410100EB01086D1C0A
:101CD000F2E757F8048B6D1C287869283ED006DCA3
:101CE0000028CDD063280BD0642804D136E07328B7
:101CF00010D075284BD052460D999047761C85E040
:101D000017F8040B8DF8000000208DF80100E9465B
:101D1000012003E057F8049B4FF0FF3061074FF0BC
:101D2000000401D40AE0641C44450DDA8442FADB65
:101D300019F804100029F6D106E0641C8442FCDB8B
:101D400019F804100029F8D1264404E019F8010B11
:101D500052460D999047641EF8D257E001CF4FF0DC
:101D60000A0B002802DA40422D2102E0210504D5A9
:101D70002B218DF82410012103E0E10705D020215B
:101D8000F7E70DF1200908910CE00021F9E701CFF8
:101D90004FF00A0BF9E75946FEF712FA01F130024B
:101DA00009F8012D0028F6D1ADEB090000F1200B58
:101DB000600701D44FF00108D84502DDA8EB0B0005
:101DC00000E000208046002406E009A85246005D9D
:101DD0000D999047641C761C08988442F5DB04E05A
:101DE000302052460D999047761CB8F10001A8F1B9
:101DF0000108F5DC05E019F8010B52460D999047F2
:101E0000761CBBF10001ABF1010BF4DC6D1C34E777
:101E10000928010010B5044604F580500022027123
:101E2000521EC262204602F0BAF908B1032010BD6A
:101E300094F8FE0194F8FF1140EA0120A0F52A4130
:101E4000553901D0022010BD94F8360094F83910AD
:101E500094F8372040EA016094F83810090441EA08
:101E60000221084320F07F410D48814201D100202A
:101E700010BD94F8521094F8552094F8533041EA6C
:101E8000026194F85420120442EA0322114321F023
:101E90007F41814201D1002010BD012010BD000012
:101EA0004641540000E0401C02780AB18A42FAD14F
:101EB0000078704770B4002214461C4D00F5805025
:101EC00002EB420355F823C0BCF1000F0FD00668A7
:101ED000B4450DD105EB83038668D3F804C0B4453F
:101EE00006D11B89B0F806C0634504D000E0012488
:101EF000521C022AE4D3022A01D0A1B908E024B975
:101F0000022902D070BC1220704770BC00207047BC
:101F100002EB420005EB80004089B0F5807F02D0E3
:101F200070BC0020704770BC1020704758250020FE
:101F300010B40021074B8C4601EB410253F82240BC
:101F4000844201D143F822C0491C0229F4D310BCB9
:101F5000704700005825002000F58050426A121D8D
:101F6000006800F58050438980785843B1FBF0F059
:101F700052F8041B21B1884204D21168084470470A
:101F800000207047401A121DF2E7891E00F58050AC
:101F90004269921E8A4201D800207047826A807886
:101FA00001FB0020704700002DE9F05F80460F46DE
:101FB000387820F04000401E00EB800101EBC004A7
:101FC00000250126DFF864A007F101094FF6FF7B29
:101FD0001AF80500395C10F8090041EA00207EB1CA
:101FE00001F0F4FA0646FF2C07D22046641C38F8AC
:101FF000100001F0EBFAB04207D00020BDE8F09FDE
:10200000584502D00020BDE8F09F6D1C0D2DDFD398
:10201000387810F0400F06D02EB138F8140010B107
:102020000020BDE8F09F0120BDE8F09FF4F3020816
:102030002DE9F04180460F4608F58055002F08D065
:102040003946404601F083FD022809D20120BDE84F
:10205000F081EE6816B16869B04208D8012606E042
:10206000B0F1FF3FF3D069698142F0D83E46344673
:10207000641C6869A04205D80224022E02D2002006
:10208000BDE8F0812146404601F061FD48B1B0F164
:10209000FF3FF5D00128F3D0B442E9D10020BDE8DC
:1020A000F0816FF070422146404602F0B3F928B942
:1020B00027B122463946404602F0ACF928B1012842
:1020C0000FD001242046BDE8F081EC602869B0F112
:1020D000FF3FF7D0401E2861687940F00100687129
:1020E000F0E74FF0FF34EDE72DE9F84F0F463E687B
:1020F00000E0761C31782F29FBD05C29F9D000F55F
:1021000080500090D0F820A00024254628466D1C61
:10211000305C202808D32F2806D05C2804D0FF2C60
:1021200008D30620BDE8F88F71193960202830D215
:1021300004252FE0C0B2A0F181017D290FD82946E6
:102140006D1C715C01EB002080B2A1F140023F2ABE
:1021500005D380397F2902D30620BDE8F88F0121FD
:1021600001F004FA8046B8F1000F0AD0B8F1800FF0
:102170000AD2414669A0FFF795FE28B10620BDE8C6
:10218000F88F0620BDE8F88F2046641C2AF81080DE
:10219000BCE700254CB1601E3AF81000202801D0A1
:1021A0002E2802D1641E002CF5D154B100202AF84B
:1021B000140000980B222021806901F0E8FF00271D
:1021C00003E00620BDE8F88F7F1C3AF817002028AE
:1021D000FAD02E28F8D01FB145F0030500E0641EA8
:1021E00024B1601E3AF810002E28F8D14FF00008F4
:1021F000C1464FF0080B38467F1C3AF8106006B312
:10220000202E03D02E2E04D1A74202D045F0030584
:10221000F1E7D84501D2A74219D1BBF10B0F0ED07F
:10222000A74201D045F003050BD827464FF0080818
:102230004FF00B0B4FEA89604FEA1069DBE745F07E
:102240000305009880690178E5293ED03FE0802EA3
:1022500008D3304601F0BAF9002101F087F90646AB
:1022600045F00205B6F5807F0FD3ABF10100804544
:1022700003D345F00305D846BDE70098310A8269CB
:10228000404608F10108115418E026B1314626A055
:10229000FFF708FE18B15F2645F003050EE0A6F132
:1022A0004100192802D849F0020907E0A6F16100AF
:1022B000192803D849F00109413086B20098816994
:1022C000404608F101080E5495E705210170BBF165
:1022D000080F03D14FEA89604FEA10690C2030EAF9
:1022E000090003D0032030EA090001D145F00205BE
:1022F00015F0020F0BD109F00300012801D145F0C0
:10230000100509F00C00042801D145F008050098DB
:102310008069C5720020BDE8F88F0000222A3A3C8F
:102320003E3F7C7F000000002B2C3B3D5B5D0000AE
:10233000401E022813D20B4B00EB400103EB81023D
:102340005089B0F5807F00D1002008B1401E80B2D6
:10235000508110B9002043F821000020704702206E
:1023600070470000582500202DE9F04107460E4631
:102370000021384600F0CCF998B9002407F58055C3
:102380002969286801F00BFF58B969690A78E52ABC
:102390000CD05AB100240121384600F073F800280F
:1023A000EED0042800D10720BDE8F081641CB442BF
:1023B000F7D0F0E72DE9F05F83460021584600F0A2
:1023C000A7F900285CD1FF26B0460BF580544FF6E4
:1023D000FF7AA4F824A02169206801F0E0FE81467C
:1023E0005FEA09004BD167693D786DB1F87A00F07A
:1023F0003F00E52D04D010F0080F08D00F2806D0BC
:10240000FF26A4F824A032E04FF0040937E00F289B
:1024100001D0D6B11EE0206A48B315F0400F06D0B7
:1024200097F80D8025F040052E46E188A184B5423D
:1024300008D1797B414505D13946FFF7B5FD08B193
:10244000701E00E0FF20C6B211E0384602F0BBF873
:10245000404514D0A169C87A10F0010F04D10B22B5
:10246000384601F07FFE50B1FF26A4F824A00021D9
:10247000584600F007F881465FEA0900ABD04846AD
:10248000BDE8F09F2DE9F0410D4600F58054E0884D
:10249000471C3804000C0CD0226952B1206800F5AA
:1024A00080514B895B09B7FBF3FC03FB1C731BB129
:1024B00085E00420BDE8F081521C2261E26882B10F
:1024C0004B8989785B09B7FBF3F3491E0B4276D140
:1024D000114601F03CFB0646012E08D80220BDE85B
:1024E000F0810889B8426AD80420BDE8F081B6F1CD
:1024F000FF3F18D0206841F214010958B14258D862
:10250000A5B1E168FFF794FD0646300011D0012E19
:1025100012D0B6F1FF3F12D0206802F0B7F888B1B0
:102520000120BDE8F0810120BDE8F0810420BDE874
:10253000F0810720BDE8F0810220BDE8F081012094
:10254000BDE8F08141F20A0120680A5A002101F039
:102550001EFE31462068FFF718FD216801F5805105
:10256000C8620025206800F58050807800281AD9BC
:102570004FF00108206800F5805080F80480206842
:1025800002F084F810B10120BDE8F081206800F568
:102590008050C16A491CC1626D1C206800F58050E2
:1025A0008078A842E6D8206800F58050C16A491BAF
:1025B000C162E66031462068FFF7E7FC2061E780F2
:1025C00041F20A012068095A4909B7FBF1F201FBFF
:1025D000127100EB411060610020BDE8F081000045
:1025E0002DE9F04383B0074607F58054D4F81880EE
:1025F000266A0C224146684601F0C0FD9DF80B009A
:1026000010F0010F1AD0002088F80B00206201257D
:102610002B4632466946404601F046FA3846FFF7F7
:10262000C9FE10B96D1C642DF2D3642D0DD00428A1
:102630000CD19DF80B0088F80B0026629DF80B006A
:1026400010F0020F10D0002004E0072003B0BDE816
:10265000F083401C36F810100029FAD12B491930AC
:10266000A1FB0010860800E0012631463846FFF73E
:102670007BFE05464FF0010835BB761E24D0E0886E
:10268000811B384600F044F8054628001CD1A0699B
:1026900001F099FF81462169206801F080FD05461F
:1026A00095B9F2B24B466169206A01F077F920686A
:1026B00000F5805080F8048000213846FFF7E2FEE4
:1026C00005460DB9761EE6D1DDB92169206801F015
:1026D00066FD0546280014D120220021606901F022
:1026E00056FD0B22A169606901F048FDA06961698E
:1026F000C07A00F018000873206800F5805080F858
:10270000048003B02846BDE8F08300004FECC44EBF
:1027100070B50D4600F58054E580A368012B05D007
:10272000206800F580504169994201D8022070BDAF
:102730001BB90178032900D1436AC3B1418980786C
:10274000490911FB00F6B5421DD31946206801F076
:10275000FEF90346B3F1FF3F10D0022B05D32068EA
:1027600000F58050406998420AD8022070BD018966
:10277000A94201D8022070BD406A08E0012070BD66
:10278000AD1BB542E1D219462068FFF7FEFBE360BE
:1027900098B1216801F5805253895B09B5FBF3F3C9
:1027A0001844206150894009B5FBF0F200FB12503B
:1027B00001EB40106061002070BD022070BD000080
:1027C00010B5002208490B5C002B0AD101220A54E3
:1027D0000A1801EB8000127A4068016810468847A9
:1027E0000246104610BD000070250020054B03EB8B
:1027F000000C03EB80009CF808C040680369604649
:10280000184700007025002030B4DFF818C00CEB2A
:1028100000040CEB8000247A4068D0F808C0204601
:1028200030BC60477025002004490A1801EB800085
:10283000127A406841681046084700007025002061
:1028400030B4DFF818C00CEB00040CEB8000247AE5
:102850004068D0F80CC0204630BC6047702500208E
:102860000020084900E0401C022805D200EB40028D
:1028700051F82220002AF6D1022801D00120704709
:10288000002070475825002010B50446204600F06F
:1028900022FD00280DD1204601F023FF002808D199
:1028A00004F58054A06AFFF743FD002801D1002100
:1028B000216010BD2DE9F74F8AB090460B98012892
:1028C00003D90DB01320BDE8F08F0AA801F0BDF9BF
:1028D000002803DA0DB00B20BDE8F08FF94951F85C
:1028E000204084B104F58059002189F80010C0B25D
:1028F00005900598FFF764FF10F0010F07D00DB0A9
:102900000320BDE8F08F0DB00C20BDE8F08F10F073
:10291000040F03D00DB00A20BDE8F08F41F20A0089
:10292000221802210598FFF761FF38B9B9F80A00AB
:10293000B0F5805F02D8B0F5007F03D20DB0012062
:10294000BDE8F08F01AA01210598FFF74FFF10B9EC
:102950000198802803D20DB00120BDE8F08F0B99BB
:1029600011B14FF0000A01E04FF03F0AA0EB0A015D
:102970000191A8F1010018EA000F01D04FF0000802
:10298000B8F1000F13D1B9F80A004FF4FA62400A07
:10299000B2FBF0F0B1FBF0F20020CB4B00E0401CAA
:1029A00033F810C09445FAD8C84A32F81080B8F508
:1029B000007F03D3B9F80A00B8FBF0F8B8F1000FB4
:1029C00001D14FF00108B8F1800F01D94FF0800814
:1029D000B1FBF8F0012640F6F672904200D30226D1
:1029E0004FF6F672904200D30326032E1FD0012E1D
:1029F00029D04000021DB9F80A00521E0244B2FB61
:102A0000F0F70125AA03B2FBF0F000900AEB050BEA
:102A10000BEB0700009A1044029002984044A0EB90
:102A20000A00884215D90DB00E20BDE8F08FB9F824
:102A30000A20072303EB80001044B0FBF2F72025A7
:102A400000200090E2E700EB4000401C4008C21C60
:102A5000D1E703AA03210598FFF7C8FE20B9039820
:102A600010B1B0F5004F01D90120039002990398ED
:102A70000144491E401E21EA00000299401A0390B9
:102A8000032E0BD007440198411BCA1B0099511A11
:102A9000B1FBF8F10491022E03D007E00544834412
:102AA000F1E7049940F6F672914206D3032E08D15D
:102AB00004994FF6F672914203D20DB00E20BDE894
:102AC000F08F032E02D0012E03D008E00C200690D8
:102AD0000CE0B0F5803F02D20120069006E0B0F590
:102AE000803F01D2042000E0062006900B9810B130
:102AF000F02007903CE0B9F80A200021204601F0C0
:102B000046FB04F5DF700121417081700022C27024
:102B100006990171FE214171019943F6C163514447
:102B2000B1FBF3F103913F2343EA910C80F806C017
:102B3000C171037242728272C272019901730A0AF0
:102B400042730A0C8273090EC173552084F8FE018A
:102B5000AA2084F8FF010123002221460598FFF7EF
:102B60006FFE18B10DB00120BDE8F08FF82007907E
:102B7000B9F80A200021204601F009FB0B2254A1DC
:102B8000204601F0FBFAB9F80A00E072000A20734F
:102B900084F80D80A573280AE07301202074032EA9
:102BA0000BD040026074000AA0740198B0F5803F19
:102BB00005D2E074000A20750CE00020F2E784F8EA
:102BC0002000010A84F82110010C84F82210000E64
:102BD00084F82300079860753F20207600206076F7
:102BE000FF21A176E07684F81CA04FEA1A206077D6
:102BF0004FEA1A40A0774FEA1A60E077374803900F
:102C00008022442129234FF0470C032E26D0002098
:102C100084F8270084F8280084F8291084F82AC052
:102C2000A775380AE07584F8242084F8263013222A
:102C30002BA104F12B0001F0A1FA552084F8FE012C
:102C4000AA2084F8FF010123524621460598FFF788
:102C5000F7FDA8B30DB00120BDE8F08F002084F887
:102C6000430084F8440084F8451084F846C084F892
:102C70002470390A84F82510390C84F82610390E8E
:102C800084F82710022184F82C1084F82D0084F891
:102C90002E0084F82F00012184F8301084F83100D0
:102CA000062184F8321084F8330084F8402084F838
:102CB000423013220FA104F1470001F05FFABCE794
:102CC00022E000005800002002F4020818F4020874
:102CD000EBFE904D53444F53352E300000004447D7
:102CE0004E4F204E414D452020202046415420206B
:102CF000202020004E4F204E414D452020202046D0
:102D00004154333220202000032E06D101230AF142
:102D1000060221460598FFF793FD5D464FF0000B34
:102D2000079860F0FF000990C0B20890B9F80A2037
:102D30000021204601F02BFA07980390032E12D0B1
:102D4000012E0ED06FF0FF0108430390207003980E
:102D5000000A60700398000CA0700398000EE070E9
:102D600018E05149F0E709980390089820700398FB
:102D7000000A60700398000CA0700398000EE070C9
:102D8000FF2020716071A071E07120726072A072EA
:102D90000F20E0722A466D1C012321460598FFF79B
:102DA0004FFD18B10DB00120BDE8F08FB9F80A2031
:102DB0000021204601F0EBF901200390012F10D9EA
:102DC0002A466D1C012321460598FFF739FD18B1ED
:102DD0000DB00120BDE8F08F0398401C0390B8426D
:102DE000EED30BF1010BBBF1000F9FD0032E01D0EE
:102DF000DDF800802A466D1C012321460598FFF767
:102E00001FFD18B10DB00120BDE8F08FB8F1010829
:102E1000F0D1032E3AD15220207060706120A07052
:102E20004121E170722284F8E42184F8E52184F8DC
:102E3000E61184F8E7010498401E84F8E801010ACD
:102E400084F8E911010C84F8EA11000E84F8EB0112
:102E5000022084F8EC01002084F8ED0184F8EE01F2
:102E600084F8EF01552084F8FE01AA2084F8FF01C0
:102E700001230AF1010221460598FFF7E1FC012335
:102E80000AF1070221460598FFF7DAFC00221146F5
:102E90000598FFF7ABFC18B10DB00120BDE8F08F2D
:102EA0000DB00020BDE8F08F00FFFF002DE9F741D5
:102EB00081B0164602980090684600F0C6FE0446AF
:102EC000002C03DA04B00B20BDE8F081124F57F854
:102ED00024504FF0000835B12846FFF729F84FF489
:102EE000805000F805800198002803D04FF48051ED
:102EF00001F8008047F8240001D0012E03D004B06F
:102F00000020BDE8F081002202A901A800F074FBB6
:102F100004B0BDE8F0810000580000202DE9F74F13
:102F2000ADF5925D002817D000F580574FF00008EE
:102F3000C7F8008002F01F0641F244210DF5067922
:102F400026F00102694409F5805000F055FB054662
:102F5000280008D000F0E4B809200DF5137D0DF528
:102F6000805DBDE8F08F0DF5805183A8C1F8300277
:102F700002A8C1F83802D1F84412484600F048FDD2
:102F800005460DF58051D1F82C4265B924B136F0D3
:102F9000010003D0012102E0062504E0002148469B
:102FA000FEF788FF054616F01C0F6AD08DB1042D80
:102FB00008D1FFF755FC20B14846FFF711FB054645
:102FC00000E0122546F008060DF58050D0F82C429E
:102FD00009E0E07A10F0110F01D0072503E016F0A8
:102FE000040F00D00825002D59D116F0080F56D037
:102FF00084F80E8084F80F80442020744720607489
:1030000084F80B8084F81C8084F81D8084F81E806E
:1030100084F81F800DF580522146D2F8180200F086
:1030200093FE82460021204601F0C5FA0DF580523C
:103030000120D2F8181201F580510871BAF1000F81
:103040002DD01046D0F8180200F58050D0F82CB0E2
:1030500010465146D0F8180201F076FA05462800CD
:103060001DD10DF58052AAF10100D2F8181201F518
:103070008051C8605946D2F8180201F090F8054610
:103080000DE065B9E07A10F0100F01D0042506E0DC
:1030900016F0020F03D010F0010F00D00725CDB9B4
:1030A00016F0080F01D046F020060DF58050D0F83C
:1030B000180200F58050C06AF8613C6236F00100E9
:1030C00001D0012100E00021484600F0E5FDB86292
:1030D00000B9022525BBBE7187F807800DF5805029
:1030E0002146D0F8180200F02FFE3861207FE17FE2
:1030F000627F40EA0160A17F090441EA022108439E
:10310000F860C7F80880C7F81880C7F824800DF564
:103110008050D0F81802386000F58050C088B88020
:1031200028461AE72DE9F05F8246884616469946FA
:103130000020C9F80000504601F0D3FA00281ED143
:103140000AF58054E079002819D1A07910F0010F18
:1031500014D0A168E068401A864200D90646002EC5
:103160006CD02368A16803F580525089B1FBF0FC54
:1031700000FB1C1CBCF1000F03D085E00720BDE85C
:10318000F09FB1FBF0F09278521E1040C7B2B7B971
:1031900029B1606A28B15046FEF7DEFE05E02069DD
:1031A00003E01846616900F0D2FC022803D2022035
:1031B000E071BDE8F09FB0F1FF3F1ED06061616932
:1031C0002068FEF7E2FEE0B100EB070B206800F597
:1031D00080504189B6FBF1F57DB381787A198A4236
:1031E00000D9CD1B40782B465A464146FFF70CFBD1
:1031F00058B10120E071BDE8F09F0120E071BDE809
:10320000F09F0220E071BDE8F09FA07910F0400F20
:103210000DD0A069A0EB0B00A84208D2216801F5EF
:1032200080514A89514600FB028000F0A7FF2068C8
:1032300000F58050408945433DE000E048E0A26948
:103240005A451FD0A17911F0400F0DD040780123CD
:103250005146FFF7F5FA18B10120E071BDE8F09F83
:10326000A07920F04000A0712068012300F5805073
:103270005A4640785146FFF7C7FA18B10120E0716D
:10328000BDE8F09FC4F818B02068A16800F5805030
:103290004089B1FBF0F200FB1212851AB54200D949
:1032A0003546B1FBF0F200FB121000EB0A012A4692
:1032B000404600F063FFA844A0682844A060D9F805
:1032C00000002844C9F80000761B002E7FF449AFA7
:1032D0000020BDE8F09F70B50546284601F001FAD0
:1032E0000246002A48D105F58054A07910F0200F3D
:1032F00042D010F0400F0FD02068012300F580501D
:1033000029464078A269FFF79BFA08B1012070BDF9
:10331000A07920F04000A071E169206800F03FFF33
:1033200002464ABB256AE87A40F02000E872207B1A
:103330002877A089000A6877E068000CA877E06821
:10334000000EE8772846216901F035F90020A875BC
:10335000E8754421297647216976A874E874A07934
:1033600020F02000A0712168012001F58051087132
:10337000206801F035F90246104670BD2DE9F05F76
:1033800081460F46164698460020C8F80000484679
:1033900001F0A7F900281DD109F58054E079002833
:1033A00018D1A07910F0020F13D0A068811900D3B2
:1033B0000026002E00F0CE802268A16802F580531E
:1033C0005889B1FBF0FC00FB1C1CBCF1000F03D0C2
:1033D00099E00720BDE8F09FB1FBF0F09B785B1E01
:1033E000184000F0FF0ABAF1000F25D129B1606A38
:1033F00050B14846FEF7B0FD0AE0206940B900210F
:103400001046FEF715FE03E010466169FEF710FE58
:10341000002875D0012806D0B0F1FF3F07D06061C9
:10342000216941B108E00220E071BDE8F09F012070
:10343000E071BDE8F09F2061A07910F0400F11D03D
:103440002068012300F5805049464078A269FFF7C3
:10345000F7F918B10120E071BDE8F09FA07920F0E4
:103460004000A07161692068FEF78FFDD0B100EBCC
:103470000A0B206800F580504189B6FBF1F56DB369
:1034800081780AEB05028A4201D9A1EB0A0540784E
:103490002B465A463946FFF7D3F938B10120E0717F
:1034A000BDE8F09F0220E071BDE8F09FA069A0EBAD
:1034B0000B00A8420CD2216801F580514A8900FB1B
:1034C0000271484600F05AFEA07920F04000A07139
:1034D000206800F58050408945432EE0A169594598
:1034E0000FD0E268A16891420BD2407801235A467E
:1034F0004946FFF789F920B10120E071BDE8F09F4E
:1035000028E0C4F818B02068A16800F58050408910
:10351000B1FBF0F200FB1212851AB54200D9354614
:10352000B1FBF0F200FB121048442A46394600F085
:1035300025FEA07940F04000A0712F44A0682844E7
:10354000A060D8F800002844C8F80000761B002EC0
:103550007FF432AFE168A068884200D9E060A079CA
:1035600040F02000A0710020BDE8F09F30B480281A
:1035700022D319B1134C45F2205C02E0124C45F203
:10358000205C00231022ACEB030101EBD17103EBB3
:10359000610134F82150854207D001D20B4600E08A
:1035A0008C46A2F10102002AEDD13AB14FF00100A0
:1035B00000EB410034F8100030BC704730BC4FF0D5
:1035C00000007047B09B01082C4700080021084B01
:1035D00000E0491C33F811200AB18242F9D133F8D6
:1035E0001120002A02D0034830F811007047000073
:1035F00034F0020814F202082DE9F04F054685B0B8
:10360000084617464FF00008C5F8008000F01DFB83
:103610000646300003D505B00B20BDE8F08FDB482F
:1036200050F82640BCB12C6004F58055287828B1AC
:103630006878FFF7F9F810F0010F10D085F80080D6
:10364000F0B26870FFF7BCF810F0010F13D005B0AE
:103650000320BDE8F08F05B00C20BDE8F08F37B136
:1036600010F0040F03D005B00A20BDE8F08F05B0BC
:103670000020BDE8F08F37B110F0040F03D005B083
:103680000A20BDE8F08F41F20A0162186878022131
:10369000FFF7ACF830B96889B0F5007F02D3B0F518
:1036A000805F03D905B00120BDE8F08F00263146C8
:1036B0002046FEF7AFFB012829D100216F4604EB1D
:1036C000011000F5DF70027952B1027AC37A42EA42
:1036D0000362837A407A1B0443EA0020104300E02F
:1036E000002047F82100491C0429E8D34FF00009C5
:1036F00057F8296026B131462046FEF78BFB00E0E3
:10370000022020B109F10109B9F1040FF0D3032817
:1037100004D038B105B00D20BDE8F08F05B0012010
:10372000BDE8F08FE07A217B6B8940EA0120984266
:1037300003D005B00D20BDE8F08FA07DE17D40EA0B
:10374000012068B994F8240094F8271094F82520F3
:1037500040EA016094F82610090441EA0221084376
:10376000A861217CE970012905D0022903D005B0A8
:103770000D20BDE8F08F01FB00FA677BAF7017B139
:10378000791E0F4203D005B00D20BDE8F08F617C9B
:10379000A27C41EA02222A814FEA531CB2FBFCF1CF
:1037A0000CFB112119B105B00D20BDE8F08FE17CB3
:1037B00094F8149041EA092179B994F8201094F80A
:1037C000239094F821B041EA096194F822904FEADD
:1037D000094949EA0B2941EA090194F80E9094F845
:1037E0000FB049EA0B29B9F1000F0AD0B2FBFCFC7B
:1037F00009EB0A0BDC44614507D205B00D20BDE89A
:10380000F08F05B00D20BDE8F08FA1EB0C01B1FBEE
:10381000F7F159B3012740F6F67B594500D302274B
:103820004FF6F67B594500D30327891C6961EE6189
:10383000B144C5F82090B444C5F828C0032F19D06E
:1038400082B309EB0A026A62022F30D001F0010252
:1038500001EB410102EB5101491E1944B1FBF3F1A7
:10386000814226D905B00D20BDE8F08F05B00D20AE
:10387000BDE8F08F1AB105B00D20BDE8F08F94F8C7
:103880002C2094F82FC094F82D9042EA0C6294F802
:103890002EC04FEA0C4C4CEA092C42EA0C026A6238
:1038A0008900D9E7FFE705B00D20BDE8F08F49009A
:1038B000D2E74FF0FF302861E86080206871032F65
:1038C00056D194F8300094F8311040EA01200128D4
:1038D0004ED1711C204600F062FCE8BB85F80580E3
:1038E00094F8FE0194F8FF1140EA0120A0F52A4166
:1038F00055393DD12078E178627840EA0160A178BD
:10390000090441EA022108432149884230D194F850
:10391000E40194F8E71194F8E52140EA016094F895
:10392000E611090441EA022108431A4988421FD1DD
:1039300094F8E80194F8EB1194F8E92140EA016069
:1039400094F8EA11090441EA02210843286194F835
:10395000EC0194F8EF1100E00AE040EA016094F80D
:10396000EE1194F8ED21090441EA02210843E860D0
:103970002F7009490888401C0880E8802046FEF71F
:10398000D7FA05B00020BDE8F08F000058000020F5
:103990005252614172724161540000202DE9F003DE
:1039A0004B730F23CB7200230B738B76CB76531E96
:1039B00003EB830C0CEBC30400239C46134D4FF622
:1039C000FF774E1CBB4203D02346641C30F81330F3
:1039D00015F80C8001F8083015F80C904FEA132800
:1039E00009F806800BB94FF6FF730CF1010CBCF11E
:1039F0000D0FE7D3BB4202D030F8140008B942F0F3
:103A000040020A70BDE8F00370470000F4F30208BA
:103A100073B50546019801782F2901D05C2901D1A1
:103A2000401C019005F580540026A660019800789E
:103A3000202806D200212846FEF76AFE666102B001
:103A400070BD01A92846FEF74FFB0028F7D1284694
:103A5000FEF7B0FCA169C97A38B10428EFD111F0A2
:103A6000040FECD1052002B070BD11F0040FFAD1A3
:103A70006169C87A10F0100F04D0206800F064F972
:103A8000A060DEE7052002B070BD000013B54FF660
:103A9000FF73012269460348FDF76CFB009802B0F2
:103AA00010BD0000C024002070B582B00546164647
:103AB0001C460B22284600F061FB052C16D93088E5
:103AC000A0B136F8021B002320460C4660F35F04C9
:103AD000490814F4803F03D084F0210484F488342E
:103AE0005B1C102BF0D330880028EAD107226B46EC
:103AF00004F00F0000F13001392901D9C81DC1B20D
:103B00001046521E19542409002CF1D17E209854DD
:103B10000021A2F1010C06E081387D2802D8614520
:103B200006D0491C491C914202D2685C2028F3D17E
:103B3000082A03D21046521C185C00E020208C4654
:103B4000491C05F80C000829F2D302B070BD2DE91C
:103B5000F04707460D46022D04D307F580546069EF
:103B6000A84201D8012609E04FF0FF36207801284D
:103B700007D0022833D0032848D001263046BDE8BC
:103B8000F08705EB55086089216AB8FBF0F0014425
:103B9000384600F004FB0028F0D1608908F10109E3
:103BA000B8FBF0F100FB118117F80180B9FBF0F0D0
:103BB000216A0144384600F0F2FA0028DED160891B
:103BC000B9FBF0F100FB1190385C48EA002015F0D9
:103BD000010F01D00609D1E7C0F30B06CEE76089DB
:103BE000216A4008B5FBF0F00144384600F0D7FAEE
:103BF0000028C3D161896800B0FBF1F201FB12001B
:103C000038440178407841EA0026B7E76089216AA4
:103C10008008B5FBF0F00144384600F0C0FA0028F7
:103C2000ACD16189A800B0FBF1F201FB120038446D
:103C30000178C27841EA026182784078120442EA4F
:103C40000020084320F0704698E710B404464FF077
:103C5000FF30D4F800C0BCF1000F0BD0614600E08B
:103C6000491C0A78202A01D33A2AF9D10A783A2A3B
:103C700002D0002010BC70479CF800300CF101020B
:103C8000303B0A2BF6D28A42F4D1002BF2D11846EF
:103C9000491C216010BC704770B4002200F58050B0
:103CA000284CD0F800C002EB420354F8235065457D
:103CB00009D104EB830386685D68B54203D11B8993
:103CC000C588AB4202D0521C022AECD3022A1AD178
:103CD000002200E0521C022A05D202EB420354F8F3
:103CE0002330002BF6D1022A17D002EB420344F80E
:103CF00023C004EB8303D0F808C0C3F804C0C08815
:103D000018810020588159B102EB420004EB800079
:103D1000408928B170BC0020704770BC00207047FB
:103D200011B14FF4807005E002EB420004EB80001B
:103D30004089401C02EB420104EB8101488170BCC8
:103D4000501C7047582500200246887ECB7E40EAF2
:103D5000032002F580521278032A05D10A7D497D9D
:103D600042EA012140EA014070470000FCF7BEFB37
:103D7000FDF7FAFCFDF76EFA4FA0FDF74FFF5C4927
:103D80005C48FCF747FA002840F05B800122584964
:103D90005948FFF78BF8594C207000F01DFA217834
:103DA0000D2908D0002924D055A0FDF737FF207831
:103DB00000F012FAFEE75CA0FDF730FF002211468A
:103DC0004B48FEF777FD207018B163A0FDF726FF82
:103DD000FEE767A0FDF722FF012245490020FFF71B
:103DE00065F82070012242494348FFF75FF82070D0
:103DF00002E068A0FDF712FF70A0FDF70FFF0A2296
:103E000078A17E48FFF78AF8207000281DD07CA09A
:103E1000FDF704FF81A0FDF701FF012271A17748A2
:103E2000FFF77CF8207000282BD086A0FDF7F6FE67
:103E30007248FEF729FD01222D490020FFF736F8D0
:103E400020702B48FCF70EFAFEE783A0FDF7E6FE94
:103E5000904B3E22191D6948FFF790FA207038B147
:103E600001468DA0FDF7DAFE6448FEF70DFDD1E7AF
:103E70008FA0A168FDF7D2FE964997A0FDF7CEFE70
:103E8000F2E79CA0FDF7CAFE824B4FF480629E4988
:103E90005A48FFF747F9207020B101469BA0FDF773
:103EA000BDFEC5E79FA0A168FDF7B8FE9649A6A094
:103EB000FDF7B4FEBCE700002A2A2A2A2A2A20D5C8
:103EC000E2CAC7D2BBB8F6BBF9D3DAB4AED0D0469B
:103ED0004C415348B5C44661744653CEC4BCFECF72
:103EE000B5CDB3CAB5D1E9202A2A2A2A2A2A0A003E
:103EF0000100002030F402086404002000000020CB
:103F0000A3A1A3A1B4AED0D0464C415348B9D2D45A
:103F1000D8CEC4BCFECFB5CDB3CAA7B0DCA1A32810
:103F20002564290A00000000A1B7B4AED0D0464CE9
:103F3000415348BBB9C3BBD3D0CEC4BCFECFB5CD73
:103F4000B3A3ACBCB4BDABBDF8D0D0B8F1CABDBB57
:103F5000AF2E2E2E0A000000A1B6A1B6B8F1CABD40
:103F6000BBAFCAA7B0DCA1A3A1B7A1B70A000000EC
:103F7000A1B7B4AED0D0464C415348D2D1B3C9B9A1
:103F8000A6B8F1CABDBBAFCEC4BCFECFB5CDB3A100
:103F9000A30A0000A1B7CEC4BCFECFB5CDB3B9D241
:103FA000D4D8B3C9B9A6A3ACBFC9D2D4BDF8D0D0B8
:103FB000B6C1D0B4B2E2CAD40A0000002A2A2A2A22
:103FC0002A2A20BCB4BDABBDF8D0D0CEC4BCFED034
:103FD000B4C8EBB2E2CAD42E2E2E202A2A2A2A2ACC
:103FE0002A0A00004661744673B6C1D0B4B2E2CA70
:103FF000D4CEC4BCFE2E747874000000941400204B
:10400000A3A1A3A1B4F2BFAA2FB4B4BDA8CEC4BCCF
:10401000FECAA7B0DCA1A30A000000002A2A2A2AAF
:104020002A2A20BCB4BDABBDF8D0D0CEC4BCFEB6ED
:10403000C1C8A1B2E2CAD42E2E2E202A2A2A2A2AA8
:104040002A0A0000A3A1A3A1B4F2BFAACEC4BCFE59
:10405000CAA7B0DCA1A30A00A1B7B4F2BFAA2FB4CB
:10406000B4BDA84661744673B6C1D0B4B2E2CAD436
:10407000CEC4BCFE2E747874CEC4BCFEB3C9B9A63F
:10408000A3ACCFF2CEC4BCFED0B4C8EBCAFDBEDD3B
:10409000A1A30A0008000020A3A1A3A1CEC4BCFED6
:1040A000D0B4C8EBCAA7B0DCA3BA282564290A009B
:1040B000A1B7CEC4BCFED0B4C8EBB3C9B9A6A3ACFB
:1040C000D0B4C8EBD7D6BDDACAFDBEDDA3BA25642D
:1040D0000A0000000C000020A1B7CFF2CEC4BCFE45
:1040E000D0B4C8EBB5C4CAFDBEDDCEAAA3BA0A25BA
:1040F000730A0000A1B7B4F2BFAACEC4BCFEB3C914
:10410000B9A6A1A30A00000064000020A3A1A3A1F6
:10411000CEC4BCFEB6C1C8A1CAA7B0DCA3BA2825CC
:1041200064290A00A1B7CEC4BCFEB6C1C8A1B3C9F8
:10413000B9A62CB6C1B5BDD7D6BDDACAFDBEDDA3C2
:10414000BA25640A00000000A1B7B6C1C8A1B5C372
:10415000B5C4CEC4BCFECAFDBEDDCEAAA3BA0A2534
:1041600073200A000023521E06D310F8013B11F8F9
:1041700001CBB3EB0C03F6D018467047521E05D3A3
:1041800011F8013B00F8013B521EF9D27047521E54
:1041900004D3C9B200F8011B521EFBD270472DE9AF
:1041A000F04107460C46002507F58056F06AA0420C
:1041B0000FD0384600F06AFA054655B970780123E9
:1041C00022463946FEF720FB10B14FF0FF3401259F
:1041D000F4622846BDE8F081142844D2DFE800F0FC
:1041E0000A0D101316191C1F1F2225282B2E3134DF
:1041F000373A3D401CA0FDF711BD1FA0FDF70EBDD5
:1042000024A0FDF70BBD27A0FDF708BD2BA0FDF7EF
:1042100005BD2FA0FDF702BD32A0FDF7FFBC36A003
:10422000FDF7FCBC38A0FDF7F9BC3DA0FDF7F6BCDE
:1042300041A0FDF7F3BC46A0FDF7F0BC49A0FDF797
:10424000EDBC4EA0FDF7EABC57A0FDF7E7BC5AA0B5
:10425000FDF7E4BC5DA0FDF7E1BC65A0FDF7DEBCA9
:1042600068A0FDF7DBBC7047A1B7B2D9D7F7B3C9D7
:10427000B9A6A1A30A000000A3A1A3A1D3B2BCFECA
:10428000CAE4C8EBCAE4B3F6C7FDB6AFB3F6B4ED03
:10429000A1A30A00A3A1A3A1B6CFD1D4B4EDCEF3BC
:1042A000A1A30A00A3A1A3A1CEEFC0EDC9E8B1B8B4
:1042B000CEDEB7A8B9A4D7F7A1A30A00A3A1A3A1F2
:1042C000CEDEB7A8D5D2B5BDCEC4BCFEA1A30A0030
:1042D000A3A1A3A1CEDEB7A8D5D2B5BDC2B7BEB645
:1042E000A1A30A00A3A1A3A1CEDED0A7B5C4C2B7E3
:1042F000BEB6C3FBA1A30A00A3A1A3A1BEDCBEF866
:10430000B7C3CECAA1A30A00A3A1A3A1CEDED0A7A2
:10431000B5C4CEC4BCFEBBF2C2B7BEB6A1A30A00F0
:10432000A3A1A3A1C2DFBCADC9E8B1B8D0B4B1A309
:10433000BBA4A1A30A000000A3A1A3A1CEDED0A725
:10434000B5C4C2DFBCADC9E8B1B8A1A30A00000082
:10435000A3A1A3A1CEDED0A7B5C4B9A4D7F7C7F84F
:10436000A1A30A00A3A1A3A1CEDED0A7B5C4CEC449
:10437000BCFECFB5CDB3A1A30A000000A3A1A3A1A9
:10438000D2F2BAAFCAFDB2CECAFDCECACCE2B5BC3B
:10439000D6C2665F6D6B6673BAAFCAFDB2D9D7F786
:1043A000CAA7B0DCA1A30A00A3A1A3A1B2D9D7F7E1
:1043B000B3ACCAB1A1A30A00A3A1A3A1CEC4BCFE01
:1043C000B1BBB1A3BBA4A1A30A000000A3A1A3A1F8
:1043D000B3A4CEC4BCFEC3FBD6A7B3D6BBF1C8A161
:1043E000B6D1BFD5BCE4CAA7B0DCA1A30A000000C7
:1043F000A3A1A3A1B4F2BFAACCABB6E0CEC4BCFECD
:10440000A1A30A00A3A1A3A1B2CECAFDCEDED0A76C
:10441000A1A30A002DE9F05F07460D461646022DBE
:1044200004D307F580546069A84202D80220BDE891
:10443000F09F207806F0FF094FF0010B012806D00D
:10444000022844D003285CD00220BDE8F09F05EB91
:1044500055086089216AB8FBF0F001443846FFF73F
:104460009EFE0028F1D1608908F1010AB8FBF0F145
:1044700000FB1180384415F0010F03D0017869F377
:104480001F1100E03146017084F804B06089216A90
:10449000BAFBF0F001443846FFF781FE0028D4D182
:1044A0006189BAFBF1F201FB12A1394415F0010F49
:1044B00002D0C6F3071205E00A78C6F3032302F020
:1044C000F0021A430A7084F804B0BDE8F09F6089D6
:1044D000216A4008B5FBF0F001443846FFF75FFE63
:1044E0000028F2D162896900B1FBF2F302FB1311DB
:1044F000394481F80090320A4A7084F804B0BDE86B
:10450000F09F6089216A8008B5FBF0F001443846CD
:10451000FFF745FE0028F2D16289A900B1FBF2F352
:1045200002FB131139444FF07043CA7803EA026268
:1045300032430A70130A4B70130C8B70120ECA7040
:1045400084F804B0BDE8F09F2DE9F04180460E46A6
:10455000022E04D308F580546069B04201D80227C6
:1045600026E0002731464046FFF7F1FA0546FDB147
:10457000012D0BD0B5F1FF3F0AD000223146404655
:10458000FFF748FF0746380012D103E002270FE08B
:1045900001270DE02069B0F1FF3F05D0401C2061EC
:1045A000607940F0010060712E466069B042D9D850
:1045B0003846BDE8F08181760A0AC2760A0C027597
:1045C000090E41757047014600200B22430803EB9A
:1045D000C01011F8013B1844C0B2521EF6D170470A
:1045E00070B50446204600F051F8064630004BD125
:1045F00004F58055287803283FD1687901283CD1FB
:104600006A8900212046FFF7C2FD552084F8FE018B
:10461000AA2084F8FF015220207060706120A070F1
:104620004121E170722284F8E42184F8E52184F8C4
:10463000E61184F8E701286984F8E801010A84F8A2
:10464000E911010C84F8EA11000E84F8EB01E86826
:1046500084F8EC01010A84F8ED11010C84F8EE11E4
:10466000000E84F8EF01E869421CEA6268780123D1
:104670002146FEF7E5F800206871002268781146AF
:10468000FEF7B4F800B10126304670BD2DE9F041C7
:104690008046002708F58054207900281ED0E66A5D
:1046A0006078012332464146FEF7CAF808B1012777
:1046B00014E000202071206AA169301A88420DD2CE
:1046C000E578022D0AD3A0690644607801233246BA
:1046D0004146FEF7B5F86D1E022DF4D23846BDE80E
:1046E000F08110B5002811D000F58051086868B13C
:1046F00000F5805002784AB1C28889888A4205D183
:104700004078FEF791F810F0010F01D0092010BD9C
:10471000002010BD000000000000000001020304A2
:10472000060708090000000001020304A400E8A134
:10473000A700ECA1A800A7A1B000E3A1B100C0A10F
:10474000B700A4A1D700C1A1E000A4A8E100A2A8DD
:10475000E800A8A8E900A6A8EA00BAA8EC00ACA85E
:10476000ED00AAA8F200B0A8F300AEA8F700C2A11D
:10477000F900B4A8FA00B2A8FC00B9A80101A1A8E8
:104780001301A5A81B01A7A82B01A9A84401BDA836
:104790004801BEA84D01ADA86B01B1A8CE01A3A8E8
:1047A000D001ABA8D201AFA8D401B3A8D601B5A857
:1047B000D801B6A8DA01B7A8DC01B8A85102BBA895
:1047C0006102C0A8C702A6A1C902A5A1CA0240A849
:1047D000CB0241A8D90242A89103A1A69203A2A6A6
:1047E0009303A3A69403A4A69503A5A69603A6A641
:1047F0009703A7A69803A8A69903A9A69A03AAA611
:104800009B03ABA69C03ACA69D03ADA69E03AEA6E0
:104810009F03AFA6A003B0A6A103B1A6A303B2A6AF
:10482000A403B3A6A503B4A6A603B5A6A703B6A67C
:10483000A803B7A6A903B8A6B103C1A6B203C2A62E
:10484000B303C3A6B403C4A6B503C5A6B603C6A6E0
:10485000B703C7A6B803C8A6B903C9A6BA03CAA6B0
:10486000BB03CBA6BC03CCA6BD03CDA6BE03CEA680
:10487000BF03CFA6C003D0A6C103D1A6C303D2A64F
:10488000C403D3A6C503D4A6C603D5A6C703D6A61C
:10489000C803D7A6C903D8A60104A7A71004A1A7D7
:1048A0001104A2A71204A3A71304A4A71404A5A784
:1048B0001504A6A71604A8A71704A9A71804AAA751
:1048C0001904ABA71A04ACA71B04ADA71C04AEA720
:1048D0001D04AFA71E04B0A71F04B1A72004B2A7F0
:1048E0002104B3A72204B4A72304B5A72404B6A7C0
:1048F0002504B7A72604B8A72704B9A72804BAA790
:104900002904BBA72A04BCA72B04BDA72C04BEA75F
:104910002D04BFA72E04C0A72F04C1A73004D1A720
:104920003104D2A73204D3A73304D4A73404D5A7C3
:104930003504D6A73604D8A73704D9A73804DAA790
:104940003904DBA73A04DCA73B04DDA73C04DEA75F
:104950003D04DFA73E04E0A73F04E1A74004E2A72F
:104960004104E3A74204E4A74304E5A74404E6A7FF
:104970004504E7A74604E8A74704E9A74804EAA7CF
:104980004904EBA74A04ECA74B04EDA74C04EEA79F
:104990004D04EFA74E04F0A74F04F1A75104D7A789
:1049A00010205CA9132043A81420AAA1152044A814
:1049B0001620ACA11820AEA11920AFA11C20B0A1D7
:1049C0001D20B1A1252045A82620ADA13020EBA1B6
:1049D0003220E4A13320E5A1352046A83B20F9A1EF
:1049E000AC2080000321E6A1052147A8092148A8A1
:1049F0001621EDA1212159A96021F1A26121F2A284
:104A00006221F3A26321F4A26421F5A26521F6A23A
:104A10006621F7A26721F8A26821F9A26921FAA20A
:104A20006A21FBA26B21FCA27021A1A27121A2A28A
:104A30007221A3A27321A4A27421A5A27521A6A20A
:104A40007621A7A27721A8A27821A9A27921AAA2DA
:104A50009021FBA19121FCA19221FAA19321FDA11A
:104A6000962149A897214AA898214BA899214CA89A
:104A70000822CAA10F22C7A11122C6A115224DA842
:104A80001A22CCA11D22D8A11E22DEA11F224EA8CF
:104A90002022CFA123224FA82522CEA12722C4A1C4
:104AA0002822C5A12922C9A12A22C8A12B22D2A12C
:104AB0002E22D3A13422E0A13522DFA13622C3A1C8
:104AC0003722CBA13D22D7A14822D6A14C22D5A185
:104AD000522250A86022D9A16122D4A16422DCA173
:104AE0006522DDA1662251A8672252A86E22DAA1B2
:104AF0006F22DBA1952292A89922D1A1A522CDA156
:104B0000BF2253A81223D0A16024D9A26124DAA223
:104B10006224DBA26324DCA26424DDA26524DEA27D
:104B20006624DFA26724E0A26824E1A26924E2A24D
:104B30007424C5A27524C6A27624C7A27724C8A26D
:104B40007824C9A27924CAA27A24CBA27B24CCA23D
:104B50007C24CDA27D24CEA27E24CFA27F24D0A20D
:104B60008024D1A28124D2A28224D3A28324D4A2DD
:104B70008424D5A28524D6A28624D7A28724D8A2AD
:104B80008824B1A28924B2A28A24B3A28B24B4A21D
:104B90008C24B5A28D24B6A28E24B7A28F24B8A2ED
:104BA0009024B9A29124BAA29224BBA29324BCA2BD
:104BB0009424BDA29524BEA29624BFA29724C0A28D
:104BC0009824C1A29924C2A29A24C3A29B24C4A25D
:104BD0000025A4A90125A5A90225A6A90325A7A901
:104BE0000425A8A90525A9A90625AAA90725ABA9D1
:104BF0000825ACA90925ADA90A25AEA90B25AFA9A1
:104C00000C25B0A90D25B1A90E25B2A90F25B3A970
:104C10001025B4A91125B5A91225B6A91325B7A940
:104C20001425B8A91525B9A91625BAA91725BBA910
:104C30001825BCA91925BDA91A25BEA91B25BFA9E0
:104C40001C25C0A91D25C1A91E25C2A91F25C3A9B0
:104C50002025C4A92125C5A92225C6A92325C7A980
:104C60002425C8A92525C9A92625CAA92725CBA950
:104C70002825CCA92925CDA92A25CEA92B25CFA920
:104C80002C25D0A92D25D1A92E25D2A92F25D3A9F0
:104C90003025D4A93125D5A93225D6A93325D7A9C0
:104CA0003425D8A93525D9A93625DAA93725DBA990
:104CB0003825DCA93925DDA93A25DEA93B25DFA960
:104CC0003C25E0A93D25E1A93E25E2A93F25E3A930
:104CD0004025E4A94125E5A94225E6A94325E7A900
:104CE0004425E8A94525E9A94625EAA94725EBA9D0
:104CF0004825ECA94925EDA94A25EEA94B25EFA9A0
:104D0000502554A8512555A8522556A8532557A8D3
:104D1000542558A8552559A856255AA857255BA8A3
:104D200058255CA859255DA85A255EA85B255FA873
:104D30005C2560A85D2561A85E2562A85F2563A843
:104D4000602564A8612565A8622566A8632567A813
:104D5000642568A8652569A866256AA867256BA8E3
:104D600068256CA869256DA86A256EA86B256FA8B3
:104D70006C2570A86D2571A86E2572A86F2573A883
:104D8000702574A8712575A8722576A8732577A853
:104D9000812578A8822579A883257AA884257BA8EF
:104DA00085257CA886257DA887257EA8882580A8BE
:104DB000892581A88A2582A88B2583A88C2584A88B
:104DC0008D2585A88E2586A88F2587A8932588A858
:104DD000942589A895258AA8A025F6A1A125F5A145
:104DE000B225F8A1B325F7A1BC258BA8BD258CA8B9
:104DF000C625F4A1C725F3A1CB25F0A1CE25F2A1AC
:104E0000CF25F1A1E2258DA8E3258EA8E4258FA862
:104E1000E52590A80526EFA10626EEA1092691A872
:104E20004026E2A14226E1A10030A1A10130A2A1C9
:104E30000230A3A10330A8A10530A9A1063065A9BD
:104E4000073096A90830B4A10930B5A10A30B6A13F
:104E50000B30B7A10C30B8A10D30B9A10E30BAA1FA
:104E60000F30BBA11030BEA11130BFA1123093A8EA
:104E70001330FEA11430B2A11530B3A11630BCA17D
:104E80001730BDA11D3094A81E3095A8213040A92F
:104E9000223041A9233042A9243043A9253044A916
:104EA000263045A9273046A9283047A9293048A9E6
:104EB0004130A1A44230A2A44330A3A44430A4A40E
:104EC0004530A5A44630A6A44730A7A44830A8A4DE
:104ED0004930A9A44A30AAA44B30ABA44C30ACA4AE
:104EE0004D30ADA44E30AEA44F30AFA45030B0A47E
:104EF0005130B1A45230B2A45330B3A45430B4A44E
:104F00005530B5A45630B6A45730B7A45830B8A41D
:104F10005930B9A45A30BAA45B30BBA45C30BCA4ED
:104F20005D30BDA45E30BEA45F30BFA46030C0A4BD
:104F30006130C1A46230C2A46330C3A46430C4A48D
:104F40006530C5A46630C6A46730C7A46830C8A45D
:104F50006930C9A46A30CAA46B30CBA46C30CCA42D
:104F60006D30CDA46E30CEA46F30CFA47030D0A4FD
:104F70007130D1A47230D2A47330D3A47430D4A4CD
:104F80007530D5A47630D6A47730D7A47830D8A49D
:104F90007930D9A47A30DAA47B30DBA47C30DCA46D
:104FA0007D30DDA47E30DEA47F30DFA48030E0A43D
:104FB0008130E1A48230E2A48330E3A48430E4A40D
:104FC0008530E5A48630E6A48730E7A48830E8A4DD
:104FD0008930E9A48A30EAA48B30EBA48C30ECA4AD
:104FE0008D30EDA48E30EEA48F30EFA49030F0A47D
:104FF0009130F1A49230F2A49330F3A49B3061A9D4
:105000009C3062A99D3066A99E3067A9A130A1A5F8
:10501000A230A2A5A330A3A5A430A4A5A530A5A520
:10502000A630A6A5A730A7A5A830A8A5A930A9A5F0
:10503000AA30AAA5AB30ABA5AC30ACA5AD30ADA5C0
:10504000AE30AEA5AF30AFA5B030B0A5B130B1A590
:10505000B230B2A5B330B3A5B430B4A5B530B5A560
:10506000B630B6A5B730B7A5B830B8A5B930B9A530
:10507000BA30BAA5BB30BBA5BC30BCA5BD30BDA500
:10508000BE30BEA5BF30BFA5C030C0A5C130C1A5D0
:10509000C230C2A5C330C3A5C430C4A5C530C5A5A0
:1050A000C630C6A5C730C7A5C830C8A5C930C9A570
:1050B000CA30CAA5CB30CBA5CC30CCA5CD30CDA540
:1050C000CE30CEA5CF30CFA5D030D0A5D130D1A510
:1050D000D230D2A5D330D3A5D430D4A5D530D5A5E0
:1050E000D630D6A5D730D7A5D830D8A5D930D9A5B0
:1050F000DA30DAA5DB30DBA5DC30DCA5DD30DDA580
:10510000DE30DEA5DF30DFA5E030E0A5E130E1A54F
:10511000E230E2A5E330E3A5E430E4A5E530E5A51F
:10512000E630E6A5E730E7A5E830E8A5E930E9A5EF
:10513000EA30EAA5EB30EBA5EC30ECA5ED30EDA5BF
:10514000EE30EEA5EF30EFA5F030F0A5F130F1A58F
:10515000F230F2A5F330F3A5F430F4A5F530F5A55F
:10516000F630F6A5FC3060A9FD3063A9FE3064A9D5
:105170000531C5A80631C6A80731C7A80831C8A897
:105180000931C9A80A31CAA80B31CBA80C31CCA867
:105190000D31CDA80E31CEA80F31CFA81031D0A837
:1051A0001131D1A81231D2A81331D3A81431D4A807
:1051B0001531D5A81631D6A81731D7A81831D8A8D7
:1051C0001931D9A81A31DAA81B31DBA81C31DCA8A7
:1051D0001D31DDA81E31DEA81F31DFA82031E0A877
:1051E0002131E1A82231E2A82331E3A82431E4A847
:1051F0002531E5A82631E6A82731E7A82831E8A817
:105200002931E9A82032E5A22132E6A22232E7A222
:105210002332E8A22432E9A22532EAA22632EBA206
:105220002732ECA22832EDA22932EEA231325AA95D
:10523000A33249A98E334AA98F334BA99C334CA979
:105240009D334DA99E334EA9A1334FA9C43350A914
:10525000CE3351A9D13352A9D23353A9D53354A94E
:10526000004EBBD2014EA1B6024E4081034EDFC6B6
:10527000044E4181054E4281064E4381074EF2CDD8
:10528000084EC9D5094EFDC80A4ECFC90B4EC2CF34
:105290000C4EA2D80D4EBBB20E4EEBD30F4E448136
:1052A000104EA4D8114EF3B3124E4581134EA8D719
:1052B000144ED2C7154EA7D8164EC0CA174E4681F7
:1052C000184EF0C7194EFBB11A4EB5D21B4ED4B4CE
:1052D0001C4EABB61D4EBFCB1E4EA9D81F4E4781EC
:1052E000204E4881214E4981224EAAB6234E4A8142
:1052F000244EBDC1254ECFD1264E4B81274EA5C988
:10530000284EADD8294E4C812A4EF6B82B4EBED130
:105310002C4EDCE32D4ED0D62E4E4D812F4E4E819D
:10532000304EE1B7314E4F81324EAEB4334E5081E4
:10533000344ED9C1354E5181364EBCD8374E52818C
:10534000384EE8CD394EA4B53A4EAACE3B4EF7D6EC
:105350003C4E53813D4EF6C03E4ED9BE3F4EAFD877
:10536000404E5481414E5581424E5681434ECBC4EE
:10537000444E5781454EC3BE464E5881474EB1D824
:10538000484EB4C3494EE5D24A4E59814B4EAED633
:105390004C4EDACE4D4EA7D54E4EF5BA4F4EA6B76F
:1053A000504ED6C0514E5A81524EB9C6534ED2C5F8
:1053B000544EC7C7554E5B81564ED4B9574E5C818B
:1053C000584ECBB3594ED2D25A4E5D815B4E5E8160
:1053D0005C4EBFD85D4EC5BE5E4EF2C65F4EB2D2C9
:1053E000604EB0CF614EE7CF624E5F81634E608109
:1053F000644E6181654E6281664EE9CA674E638183
:10540000684E6481694EC0D86A4E65816B4E668174
:105410006C4E67816D4E68816E4E69816F4E6A81F8
:10542000704EF2C2714ED2C2724E6B81734EE9C899
:10543000744E6C81754E6D81764E6E81774E6F81A4
:10544000784E7081794E71817A4E72817B4E738174
:105450007C4E74817D4E75817E4EACC77F4E7681C9
:10546000804E7781814E7881824E7981834E7A8118
:10547000844E7B81854E7C81864ECBC1874E7D815B
:10548000884EE8D3894EF9D58A4E7E818B4EC2CAAA
:105490008C4EFEB68D4EA1D88E4EDAD38F4EF7BF0E
:1054A000904E8081914EC6D4924EA5BB934EC1D8EA
:1054B000944EE5CE954EAEBE964E8181974E82813A
:1054C000984EA8D8994E83819A4EC7D19B4EA9D0A9
:1054D0009C4E84819D4E85819E4E86819F4EBDD877
:1054E000A04EEFD9A14EF6CDA24EBABFA34E8781F2
:1054F000A44EBBBDA54EA5BAA64EE0D2A74EFAB2A9
:10550000A84EE0BAA94EB6C4AA4E8881AB4EEDCFE4
:10551000AC4EA9BEAD4EA4CDAE4EC1C1AF4E898139
:10552000B04E8A81B14E8B81B24ED7C7B34EF1D9FE
:10553000B44E8C81B54EF4D9B64E8D81B74E8E8166
:10554000B84E8F81B94E9081BA4ECBC8BB4EE9D8C8
:10555000BC4E9181BD4E9281BE4E9381BF4EDAD238
:10556000C04EB2CAC14ECAC8C24EECD8C34EEAD869
:10557000C44EC6D8C54EF6BDC64ECDC6C74EF0B356
:10558000C84E9481C94EEBD8CA4EF1BDCB4EE9BD91
:10559000CC4E9581CD4ED4C8CE4ED3B4CF4E96814D
:1055A000D04E9781D14ED8C2D24E9881D34ED6B22A
:1055B000D44ED0D7D54ECBCAD64EFBCBD74ECCD5BA
:1055C000D84EB6B8D94EC9CFDA4E9981DB4E9A8102
:1055D000DC4E9B81DD4EDAD9DE4EF0D8DF4EAAC715
:1055E000E04E9C81E14EEED8E24E9D81E34EFAB44E
:1055F000E44EEEC1E54ED4D2E64E9E81E74E9F8149
:10560000E84EEDD8E94EA081EA4EC7D2EB4EEFD876
:10561000EC4EC7C3ED4EA181EE4EA281EF4EA381A9
:10562000F04EF6D1F14EA481F24ED9D6F34EF2D817
:10563000F44EA581F54EF5D8F64EFEBCF74EDBBC18
:10564000F84EA681F94EA781FA4EA881FB4ECEC82E
:10565000FC4EA981FD4EDDB7FE4EAA81FF4EC2B7BA
:10566000004FAB81014FF3C6024FAC81034FAD81B8
:10567000044FAE81054FAF81064FB081074FB18116
:10568000084FB281094FF8D80A4FC1D20B4FB381EE
:105690000C4FB4810D4FE9CE0E4FBFBC0F4FFCB77E
:1056A000104FA5B7114FDDD0124FB581134FB68102
:1056B000144FB781154FB881164FB981174FDAD6FD
:1056C000184FC5D3194FEFBB1A4FE1BB1B4FF1D891
:1056D0001C4FBA811D4FBB811E4FA1C91F4FB0CEB9
:1056E000204FABB4214FBC81224FF3D8234FBD8153
:1056F000244FCBC9254FF6D8264FD7C2274FF7D80E
:10570000284FBE81294FBF812A4FB1CE2B4FF9D8E8
:105710002C4FC0812D4FC1812E4FC2812F4FAEB271
:10572000304FC0B9314FC381324FA3D9334FC481F9
:10573000344FE9B0354FC581364FE6C1374FC6818A
:10574000384FECC9394FC7813A4FC5CB3B4FC88161
:105750003C4FC6CB3D4FA4D93E4FC9813F4FCA8174
:10576000404FCB81414FCC81424FCD81434FE8B573
:10577000444FCE81454FCF81464FABB5474FD08187
:10578000484FD181494FD2814A4FD3814B4FD48169
:105790004C4FD5814D4FBBCE4E4FCDB54F4FA1D7BE
:1057A000504FF4D7514FD3D3524FD681534FE5CCFE
:1057B000544FD781554FCEBA564FD881574FA2D9A3
:1057C000584FDCD9594FE0D35A4FFDD85B4FF0B753
:1057D0005C4FF7D75D4FFED85E4FFAD85F4FA1D927
:1057E000604FE3C4614FD981624FDA81634FB6D312
:1057F000644FF4D8654FDDD9664FDB81674FFBD826
:10580000684FDC81694FE5C56A4FDD816B4FDE81F2
:105810006C4FD0C06D4FDF816E4FE0816F4FF0D184
:10582000704FDBB0714FE181724FE281734FD1BC99
:10583000744FA6D9754FE381764FA5D9774FE48190
:10584000784FE581794FE6817A4FE7817B4FACD97C
:105850007C4FAED97D4FE8817E4FABD97F4FB9CA1F
:10586000804FE981814FEA81824FEB81834FA9D933
:10587000844FB6D6854FEC81864FED81874FEE8100
:10588000884FDEB3894FA8D98A4FEF818B4FFDC077
:105890008C4FF0818D4FCCCA8E4FF1818F4FAAD99A
:1058A000904FF281914FA7D9924FF381934FF4819A
:1058B000944FB0D9954FF581964FF681974FB1B679
:1058C000984FF781994FF8819A4FF9819B4FA9B969
:1058D0009C4FFA819D4FC0D29E4FFB819F4FFC8110
:1058E000A04FC0CFA14FFD81A24FFE81A34FC2C2E6
:1058F000A44F4082A54FC4BDA64FECD5A74FE0B240
:10590000A84FC8C7A94FEBBFAA4FADD9AB4F418233
:10591000AC4FAFD9AD4F4282AE4FEACEAF4FEEBAE9
:10592000B04F4382B14F4482B24F4582B34F46825B
:10593000B44F4782B54FD6C7B64F4882B74F49825A
:10594000B84F4A82B94F4B82BA4F4C82BB4F4D82FF
:10595000BC4F4E82BD4F4F82BE4F5082BF4FE3B10E
:10596000C04F5182C14F5282C24F5382C34FD9B4EC
:10597000C44FEDB6C54FB4D9C64F5482C74F5582F8
:10598000C84F5682C94F5782CA4FA1BFCB4F5882CA
:10599000CC4F5982CD4F5A82CE4FDED9CF4FCEC792
:1059A000D04FFEC0D14FB8D9D24F5B82D34F5C826B
:1059B000D44F5D82D54F5E82D64F5F82D74FD7CB13
:1059C000D84FFDB7D94F6082DA4FB5D9DB4F61822E
:1059D000DC4FB7D9DD4FA3B1DE4FE1D3DF4FB9D9EB
:1059E000E04F6282E14FC5D0E24F6382E34FB6D908
:1059F000E44F6482E54F6582E64FB1D9E74F668296
:105A0000E84FB2D9E94FA9C1EA4FB3D9EB4F67824A
:105A1000EC4F6882ED4FF3BCEE4FDED0EF4FA9B8EC
:105A2000F04F6982F14FE3BEF24F6A82F34FBDD966
:105A3000F44F6B82F54F6C82F64F6D82F74F6E829A
:105A4000F84FBAD9F94F6F82FA4FB3B0FB4F70825B
:105A5000FC4F7182FD4F7282FE4FC2D9FF4F73829D
:105A60000050748201507582025076820350778212
:105A7000045078820550798206507A8207507B82E2
:105A800008507C8209507D820A507E820B508082B1
:105A90000C50C4D90D50B6B10E5081820F50BFD9F1
:105AA00010508282115083821250B9B513508482F3
:105AB0001450F3BE15508582165086821750878287
:105AC0001850C8CC1950F2BA1A50D0D21B50888244
:105AD0001C50C3D91D5089821E508A821F50E8BDB8
