:020000040800F2
:10000000A82400209D01000887300008C52D0008A5
:1000100085300008BD0A00084B6800080000000099
:100020000000000000000000000000006F34000825
:10003000010B00080000000099300008713400082E
:10004000B7010008B7010008B7010008B7010008B0
:10005000B70100089B300008B7010008B70100088D
:10006000B7010008B7010008B7010008B701000890
:10007000B7010008B7010008B7010008B701000880
:10008000B7010008B7010008B7010008B701000870
:10009000B7010008B7010008B7010008B701000860
:1000A000B7010008B7010008B7010008B701000850
:1000B0007535000881350008B7010008B701000850
:1000C000B7010008B7010008B7010008B701000830
:1000D000B7010008B70100082D3A0008B701000871
:1000E000B7010008B7010008B7010008B701000810
:1000F000B7010008B7010008B7010008B701000800
:10010000B7010008B7010008B7010008B7010008EF
:10011000B7010008B7010008B7010008B7010008DF
:10012000B7010008B7010008B7010008B7010008CF
:10013000B7010008B7010008B7010008B7010008BF
:10014000B7010008B7010008B70100088D300008AA
:10015000B7010008B7010008B7010008B70100089F
:10016000B7010008B7010008B7010008B70100088F
:10017000B7010008B7010008B7010008000000003F
:10018000B7010008B7010008DFF80CD000F09AFBB7
:1001900000480047699D0008A824002006488047C1
:1001A00006480047FEE7FEE7FEE7FEE7FEE7FEE75C
:1001B000FEE7FEE7FEE7FEE71D35000889010008BF
:1001C0002DE9F0410024061B254671F1000605DAF1
:1001D00001240027D0EB070067EB0101161E73F125
:1001E000000605DA0027D2EB0702012567EB0303BF
:1001F00000F09EF986460E4617469C46AC4204D057
:100200000025D0EB050E65EB010624B10020D2EBF2
:10021000000760EB030C704631463A466346BDE882
:10022000F08140EA01039B0703D009E008C9121FCF
:1002300008C0042AFAD203E011F8013B00F8013BA0
:10024000521EF9D27047D2B201E000F8012B491ECC
:10025000FBD270470022F6E710B513460A46044663
:100260001946FFF7F0FF204610BD421C10F8011B95
:100270000029FBD1801A70472DE9FE4F804681EAA4
:100280000300C00F0C46009021F0004123F0004510
:10029000B8EB0200A94105D24046214690461C46D3
:1002A0000B46024623F00040104347D0270DC7F30A
:1002B0000A00C3F30A510290401A019040286BDAF9
:1002C000C3F3130040F4801B0098924620B1002332
:1002D000D2EB030A63EB0B0B01985946C0F14002C5
:1002E000504600F056F906460D4650465946019ACA
:1002F00000F06EF910EB08006141002487EA11520A
:1003000084EAE7731A4340D0009A62B3019A012A43
:100310004FEA075215DC001B61EB02014FF000426F
:1003200002EA0752CDE90042001C41F58011324635
:100330002B4600F06EF903B0BDE8F08F4046214631
:10034000F9E7001B61EB0201001C41F58013001866
:100350005B412018A2F5001747EB030140EAD57076
:10036000B6196D4111E06D084FEA360645EAC075D1
:100370004FEA0752001B61EB0201001C41F580119E
:1003800049084FEA30000019514132462B4603B06C
:10039000BDE8F04F00F02EB9009801224000002384
:1003A000D0EB020263EBE073009821464FEAE07461
:1003B000B8EB000061EB0401E9E783F000435BE781
:1003C00081F0004158E72DE9F04D81EA030404F083
:1003D000004B21F0004514464FF0000A23F0004185
:1003E00050EA050220D054EA01021DD0C5F30A5795
:1003F0000246C5F31303C1F31300C1F30A5640F4D8
:10040000801543F48013A7EB0608101BD64608F2AC
:10041000FD3873EB050002D308F1010801E09218E2
:100420005B41B8F1000F03DA00200146BDE8F08D12
:1004300000204FF48011064684460EE0171B73EB34
:10044000050705D3121B63EB050306434CEA010CB9
:1004500049084FEA300092185B4150EA0107EDD19C
:1004600052EA030012D082EA040083EA050108433D
:1004700005D0101BAB4106D20122002306E000226A
:100480004FF0004302E06FF0010253101AEB060038
:100490004CEB085110EB0A0041EB0B01BDE8F04DAD
:1004A00000F0A8B80EB5C10F80EAE0700844CA0792
:1004B000002140F233438DE80E000A460B4600F05F
:1004C000A8F803B000BD70B5C1F30A5201F00045B1
:1004D0000024C1F3130140F2FF3341F480119A422A
:1004E00001DA002070BD40F233439A42A2F2334257
:1004F00003DC524200F05CF800E090402C43F1D065
:10050000404270BD30B50B46014600202022012438
:1005100009E021FA02F59D4205D303FA02F5491BD1
:1005200004FA02F52844151EA2F10102F1DC30BDE7
:100530002DE9F05F0546002092469B468846064618
:10054000814640241BE0284641464746224600F0AB
:100550002FF853465A46C01A914110D311461846F7
:10056000224600F016F82D1A67EB01084F46224686
:100570000120002100F00DF817EB00094E41201E6C
:10058000A4F10104DFDC484631462A464346BDE873
:10059000F09F202A04DB203A00FA02F10020704785
:1005A0009140C2F1200320FA03F3194390407047B1
:1005B000202A04DB203A21FA02F00021704721FAB8
:1005C00002F3D040C2F1200291400843194670471F
:1005D000202A06DBCB17203A41FA02F043EAE07307
:1005E00006E041FA02F3D040C2F1200291400843F4
:1005F0001946704710B5141E73F1000408DA401C48
:1006000041F1000192185B411A4301D120F0010031
:1006100010BD2DE9F04D92469B4611B1B1FA81F221
:1006200002E0B0FA80F220329046FFF7B2FF0446B3
:100630000F4640EA0A0041EA0B0153465A46084376
:1006400013D0114653EA010019D0C8F140025046B8
:10065000FFF7AEFF05460E46504659464246FFF7A5
:1006600098FF084305D0012004E020463946BDE844
:10067000F08D0020054346EAE0762C4337430A9884
:100680006305E40AA0EB08000022FD0A44EA47548F
:100690000A3002D500200146E9E701051019694139
:1006A000DDE9084500196941BDE8F04DA2E72DE9F3
:1006B000FE4F81EA030404F0004421F0004100945D
:1006C0004FF0000B23F0004350EA01045ED052EAE1
:1006D00003045BD0C3F30A54C1F30A552C44A4F2BB
:1006E000F3340194A0FB0254C1F3130141F48011CF
:1006F000C3F3130343F4801301FB024400FB034ED6
:10070000840A970A44EA815447EA8357A4FB07689E
:1007100002958D0A05FB07854FEA932C04FB0C54C8
:100720002705029D4FEA065847EA1637B5EB08053C
:100730006EEB070C870E920E47EA811742EA83128E
:10074000A7FB0201B6EB0B0164EB00042B0D43EA9F
:100750000C335E1844EB1C50DA465146E7FB0201AD
:10076000C5F313044FEA0B3343EA14534FEA043240
:10077000019C43EA0603A4F10C040294009CCDE919
:1007800000B4FFF746FF03B0BDE8F08F002001463C
:10079000F9E770B521F0004303430CD0C1F30A55CB
:1007A0000024D5EB040564EB0403D617AD1AB3415E
:1007B00002DB0020014670BD201841EB025170BDE4
:1007C0002DE9F04D00231A461B1A8A4103DB002055
:1007D0000146BDE8F08DC1F30A52C1F3130141F4A3
:1007E00080154FF0000BD10702D100186D41521E49
:1007F0000027044640F2FF11384601EB620A3E46EC
:100800008046024600204FF48011FFF7D1FEC21946
:100810007141BB1846EB0100B4EB030C75EB000C07
:1008200004D3E41A65EB000517460E46241908F1B7
:1008300001006D4180463428E3DDF91946EB0600DE
:10084000091BA84103D24FF0FF32134601E00022FA
:1008500013461BEB070046EB0A51BDE8F04DFFF7CE
:10086000C9BEC1F30A52C1F3130140F2FF3341F490
:1008700080119A4202DA00200146704740F2334369
:100880009A42A2F2334202DC5242FFF791BEFFF7D6
:1008900080BE000030B5041E71F1000404DB4FF08F
:1008A0000044404264EB0101141E73F1000405DBB7
:1008B0001C464FF00043524263EB0403994208BFC9
:1008C000904230BD064C074D06E0E06840F0010361
:1008D00094E8070098471034AC42F6D3FFF758FC71
:1008E000AC750308CC75030830B58C1810F8012BD3
:1008F00012F00F0301D110F8013B120906D110F8D4
:10090000012B03E010F8015B01F8015B5B1EF9D1DC
:1009100001E001F8013B521EFBD1A142E6D30020C9
:1009200030BD10B50446084600F012F8032101203E
:1009300000F022F820F4600004F0070140EA415181
:100940000322012000F08AF8BDE8104000F0A8B8AA
:1009500010B504460321022000F00EF820F47F4079
:100960000121A140C9B240EA01210322BDE81040A3
:10097000022000F073B8000070B582B00E4600216E
:1009800001910025002400F00700402141EAC00049
:1009900000906FF07F43012269460B4801F01BFA7B
:1009A0006FF07F43324601A9074801F061F9002E3C
:1009B00007D901A8015D01EB0525611CCCB2B44249
:1009C000F8D302B0284670BD1C0F002010B50124DA
:1009D00002F0DAFA00F024F8012000F0E9F8012131
:1009E0000420FFF7C9FF00F00F00042800D0002406
:1009F000204610BD70B504460D4603210220FFF7C6
:100A0000BBFF20F00F0040EAC40005F007010843D7
:100A100040F01001BDE870400322022000F01EB833
:100A200000B583B001208DF80400FF208DF805008B
:100A30008DF806008DF807008DF808008DF8090084
:100A40008DF80A006FF07F43072201A9024801F0E8
:100A5000C2F903B000BD00001C0F002007B582B032
:100A600000210091019103AB11464007800E8DF8E3
:100A70000000002909D0684693F800C000F801C0C2
:100A80005B1C491EC9B20029F6D16FF07F43521C8E
:100A90006946024801F09FF905B000BD1C0F002017
:100AA000044805490A6812F0100F01D0401EF9D21F
:100AB00070470000FFFF0F0010040240FEE7002116
:100AC000002200EB8103C3F87C23491C0F29F8D3D3
:100AD0000021431883F81C21491CB1F5007FF8D38D
:100AE0000270427001218170C0F8B8230176402362
:100AF0008371427680F81C2380F81D130020704714
:100B0000704700000020124A5179002904D00129C1
:100B100005D0022910D107E0012191730CE00D48A6
:100B20000068416A081C07E00C490B480968006826
:100B3000496AC0EB00400844D179022905D0D17937
:100B4000032902D0D179052900D140427047000025
:100B5000000000200C100020C401002048100020DC
:100B6000002200F001B8000010B4844601200F4BB1
:100B70005C7A012C17D8587A00241C54587A03EB5D
:100B80008000C0F804C0587A03F1080C00F80C206B
:100B9000587A421C5A72303008703A2048702F2020
:100BA0008870CC70002010BC704700009C100020A2
:100BB00031B500F029F90546009CB4F1FF3F00D0A3
:100BC000641C00F021F9401BA042FAD338BD00009C
:100BD0002DE9F84F0022DFF80082DFF80092DFF8FD
:100BE00000A24FF0030E0F27012303FA02F50B6852
:100BF0002B40AB427DD1D1F804C0BCF1020F02D032
:100C0000BCF1120F12D14FEAD20C00EB8C0CDCF8C5
:100C100020605407E40E07FA04FB26EA0B06D1F81D
:100C200010B00BFA04F43443CCF8204006684FEAC5
:100C3000420C0EFA0CF4A64391F804B00BF0030B2F
:100C40000BFA0CFB4BEA060606604E68012E05D037
:100C5000022E03D0112E01D0122E11D18668A64388
:100C6000D1F80CB00BFA0CFB4BEA0606866046681E
:100C700026EA05050E79C6F3001696403543456011
:100C8000C56825EA04048D6805FA0CFC4CEA040CDE
:100C9000C0F80CC0D1F804C01CF0805F7DD0D8F83B
:100CA00000C04CF4804CC8F800C0D8F800C00CF468
:100CB000804CCDF800C022F0030C0CF1804404F508
:100CC0009834D4F808C895072D0F07FA05F62CEAD2
:100CD0000606A0F1804CBCF5003C64D0A0F1804C2D
:100CE000BCF5013C62D0A0F1804CBCF5023C60D068
:100CF00000E052E0A0F1804CBCF5033C5CD0A0F1D8
:100D0000804CBCF5043C5AD0A0F1804CBCF5053CAD
:100D100058D0A0F1804CBCF5063C56D0A0F1804CD8
:100D2000BCF5073C54D04FF0080C0CFA05FC4CEA1B
:100D3000060CC4F808C8D9F800C02CEA030C4C68AB
:100D400014F4803F01D04CEA030CC9F800C0254CD4
:100D5000D4F800C02CEA030C4D6815F4003F01D014
:100D60004CEA030CC4F800C0DAF800C02CEA030C0B
:100D70004C6814F4801F01D04CEA030CCAF800C080
:100D8000194CD4F800C02CEA030C4D6815F4001F70
:100D900001D04CEA030CC4F800C0521C102AFFF426
:100DA00023AFBDE8F88F4FF0000CBEE74FF0010C09
:100DB000BBE74FF0020CB8E74FF0030CB5E74FF07C
:100DC000040CB2E74FF0050CAFE74FF0060CACE7B0
:100DD0004FF0070CA9E7000044380240003C0140F6
:100DE000083C0140043C01400C3C014000690842C1
:100DF00001D00120704700207047002A01D0816196
:100E0000704709048161704701480068704700001D
:100E1000B8010020D0F8940203F03ABAD0F8940256
:100E200003F04CBA006805F0C5B9006805F0C6B912
:100E300001EB810100EBC10090F85C00704701EB11
:100E4000810100EBC100C06C704710B5044694F8F6
:100E50009002012809D0012084F89002206805F052
:100E6000BAF9002084F8900210BD022010BDF0B540
:100E700083B004460A9E099D089894F890C2BCF17C
:100E8000010F24D04FF0010C84F890C201EB810CCB
:100E900004EBCC0C8CF83830ACF840608CF839108E
:100EA0008CF83F5002F07F078CF83A70C2F3C017FD
:100EB0008CF83B708CF83C000296019500902068FD
:100EC00005F033FA002184F8901203B0F0BD03B0AE
:100ED0000220F0BD70472DE9F003DDF81C90099F5A
:100EE000089E069D01EB810C00EBCC0C8CF83B209E
:100EF0008CF83F304FF00208002D0AD08CF8428069
:100F0000002453B1012B4AD0022B1CD0032B48D113
:100F100032E003248CF84240F2E7012D41D122BB9C
:100F200016B901228CF851209CF8512042B18CF85E
:100F300042809CF85C20022A33D08CF83D7030E06F
:100F40008CF84240F5E72AB19CF850208AB18CF821
:100F5000428026E09CF8512042B18CF842809CF8F7
:100F60005C20022A1DD08CF83D701AE08CF84240BB
:100F7000F5E78CF8424014E02AB19CF850205AB1B1
:100F80008CF842800DE09CF8512012B18CF8428020
:100F900007E08CF8424004E08CF8424001E08CF815
:100FA0004240CCF84490CCF848608CF85C40CCF8D7
:100FB0004C408CF839108CF85D40027C0068BDE82C
:100FC000F0030CF1380105F035BA2DE9F041044683
:100FD00026680025304605F0FAF8012876D1206809
:100FE00005F081FB002871D0206805F07CFB10F42F
:100FF000001F03D021684FF400104861206805F0FD
:1010000072FB10F4801F03D021684FF480104861F8
:10101000206805F068FB10F0806F03D021684FF066
:1010200080604861206805F05EFB10F0020F02D07E
:10103000216802204861206805F055FB10F0005F30
:1010400010D0D6F8400420F02E00C6F84004204608
:10105000FFF7E4FE0121206805F028FB21684FF02E
:1010600000504861206805F03EFB10F0807F02D000
:10107000204601F061FD206805F035FB10F0080FF7
:1010800005D0204600F0D1F821680820486120688A
:1010900005F029FB10F0007F25D0206805F0C4F989
:1010A0008046A06800281AD9012707FA05F010EA3F
:1010B000080F10D006EB4510D0F8000510F4004FD3
:1010C00005D0E9B2204601F0EFFA04E01EE0E9B2F3
:1010D000204601F010FC6D1CA068A842E5D82168EC
:1010E0004FF000704861206805F0FDFA10F0100F15
:1010F0000CD02068816921F010018161204601F047
:101100007FFD2068816941F010018161BDE8F081B7
:101110002DE9F0418AB00446002C40D0032084F829
:101120009102204600F040F8206804F0CDFF04F161
:101130001000D4F82C8090E80F10A76A666A8DE83A
:101140000F10CDF81C8006970596616B206B0991F6
:10115000089094E80F00251D04F05EFF012120682F
:1011600005F0EFFA05F10C00D5F8288090E80F1093
:101170006F6A2E6A8DE80F10CDF81C8006970596D1
:10118000296BE86A0991089094E80F0005F01EFAAF
:10119000012084F891020AB00020BDE8F0810AB075
:1011A0000120BDE8F081000000B587B00068B0F113
:1011B000A04F2CD100211748026842F001020260C2
:1011C000006800F0010001904FF4C050029002202E
:1011D0000390049105900A20069002A90E48FFF79B
:1011E000F7FC0E48016841F0800101600C4801687D
:1011F00041F480410160006800F4804001900022C9
:101200000521432000F0B4F8432000F0A5F807B012
:1012100000BD000030380240000002403438024077
:1012200044380240006805F074BAD0F8940203F024
:10123000A8B810B5044694F8900201280DD00120FA
:1012400084F89002206804F089FF0121206804F0EE
:1012500065FF002084F8900210BD022010BD10B57B
:10126000044694F89002012809D0012084F89002E5
:10127000206805F07DFA002084F8900210BD02205D
:1012800010BD000002480168491C01607047000061
:10129000B801002010B50B48016841F400710160ED
:1012A000016841F480610160016841F4807101606E
:1012B000032000F091F8002000F006F800F018F884
:1012C000002010BD003C024010B5044607484FF412
:1012D0007A720068B0FBF2F000F048FF002221466D
:1012E000501E00F045F8002010BD0000BC01002099
:1012F00010B5032000F070F8002211466FF00B00CB
:1013000000F036F8002211466FF00A0000F030F8C5
:10131000002211466FF0090000F02AF80022114661
:10132000501F00F025F800221146101F00F020F891
:1013300000221146901E00F01BF800221146501E9C
:1013400000F016F800221146052000F011F8BDE863
:1013500010400520AFF3008000F01F01012202FAC7
:1013600001F14009800000F1E020C0F80011704751
:1013700010B4184B1B68C3F30223C3F1070CBCF174
:10138000040F01D94FF0040C1C1D072C01D20023BF
:1013900000E0DB1E012404FA0CFCACF1010C0CEAA9
:1013A0000101994004FA03F35B1E1A40114300281F
:1013B00008DA00F00F0000F1E020090180F8141DA8
:1013C00010BC704700F1E020090180F8001410BC47
:1013D000704700000CED00E000F00700064A1168BD
:1013E0004FF6FF03194041EA002040F0FD7040F045
:1013F00080601060704700000CED00E07047000056
:101400002DE9F05F04460E46DFF8D091D9F80000D0
:10141000F7B200F00F00B0420AD289F80070D9F894
:10142000000000F00F00B04202D00120BDE8F09FA4
:101430002078DFF8AC8110F0020F07D0D8F8000058
:10144000A16820F0F0000843C8F80000207810F0F0
:10145000010F51D060686349012808D002280DD0DF
:1014600003280BD0096811F0020F2ED00AE009689A
:1014700011F4003F06D10120BDE8F09F096811F08A
:10148000007F1FD0D8F8001021F003010843C8F8EE
:101490000000FFF7B9FC0546606841F2883A012870
:1014A00016D0022829D003283CD0D8F8000010F02C
:1014B0000C0F51D0FFF7A8FC401B504547D9032023
:1014C000BDE8F09F0120BDE8F09F0120BDE8F09F3E
:1014D000D8F8000000F00C0004283DD0FFF794FC81
:1014E000401B504502D90320BDE8F09FD8F800000A
:1014F00000F00C000428F1D12EE0D8F8000000F034
:101500000C00082828D0FFF77FFC401B504502D96B
:101510000320BDE8F09FD8F8000000F00C00082878
:10152000F1D119E0D8F800004FF00C0B3BEA0000B5
:1015300012D0FFF769FC401B504502D90320BDE8DB
:10154000F09FD8F800003BEA0000F2D104E0D8F8A0
:10155000000010F00C0FADD1D9F8000000F00F0022
:10156000B0420AD989F80070D9F8000000F00F00E5
:10157000B04202D00120BDE8F09F207810F0040FA7
:1015800007D0D8F80000E16820F4E0500843C8F81C
:101590000000207810F0080F08D0D8F8000021696A
:1015A00020F4604040EAC100C8F8000000F058F89C
:1015B000D8F80010F02292FAA2F201F0F001B2FA8B
:1015C00082F2D140084A515CC840084908600020B6
:1015D000FFF77AFE0020BDE8F09F0000003C0240CB
:1015E0000838024000380240E4C70008BC0100206F
:1015F00001490120C8647047000047420148006863
:1016000070470000BC01002000B5FFF7F7FF074955
:1016100009684FF4E05292FAA2F201F4E051B2FAF2
:1016200082F2D140024A515CC84000BD08380240F5
:10163000F4C7000800B5FFF7E1FF074909684FF458
:10164000604292FAA2F201F46041B2FA82F2D14011
:10165000024A515CC84000BD08380240F4C7000887
:1016600010B41F48006810F00C011E481BD04FEA50
:10167000600C042916D0082915D11B4A116801F005
:101680003F01136813F4800F47F6C0730DD0BCFB05
:10169000F1F01168194093FAA3F3B3FA83F3D94038
:1016A00048430CE0604610BC7047B0FBF1F0116895
:1016B000194093FAA3F3B3FA83F3D940484311686E
:1016C0004FF4403292FAA2F201F44031B2FA82F2BF
:1016D000D140491C4900B0FBF1F010BC704700003C
:1016E000083802400024F4000438024010B50548D0
:1016F000006810F0800F04D0FFF780FE02498020C0
:10170000087010BD0C3802400E3802402DE9F84F29
:101710000446DFF81C842078A8F1040710F0010FBC
:10172000A7F1040560D0D8F8000000F00C000428F0
:1017300009D0D8F8000000F00C0008280DD1386856
:1017400010F4800F09D0286810F4003F4CD0606876
:10175000002849D10120BDE8F88F6068B0F5803FCE
:1017600014D0B0F5A02F16D0286820F4803028605F
:10177000286820F480202860606810B3FFF744FBDD
:101780000646286810F4003F0ED02DE0286840F48B
:1017900080302860F0E7286840F4802028602868BE
:1017A00040F480302860E7E7FFF72EFB801B6428B9
:1017B00002D90320BDE8F88F286810F4003FF3D069
:1017C00012E0FFF721FB0646286810F4003F0BD01B
:1017D000FFF71AFB801B642802D90320BDE8F88FAD
:1017E000286810F4003FF3D12078DFF8489310F018
:1017F000020F4FF0000663D0D8F800004FF0F80B4E
:1018000010F00C0F16D0D8F8000000F00C000828DB
:1018100003D1386810F4800F0CD0E068C8B3012001
:10182000C9F80000FFF7F0FA8246286810F0020FAE
:1018300016D022E0286810F0020F05D0E0680128D9
:1018400002D00120BDE8F88F28689BFAABF221692D
:10185000B2FA82F220F0F8009140084328602FE0AD
:10186000FFF7D2FAA0EB0A00022802D90320BDE854
:10187000F88F286810F0020FF2D028689BFAABF2BC
:101880002169B2FA82F220F0F80091400843286002
:1018900016E0FFE7C9F80060FFF7B6FA824628684D
:1018A00010F0020F0CD0FFF7AFFAA0EB0A000228ED
:1018B00002D90320BDE8F88F286810F0020FF2D19A
:1018C000207810F0080F34D09B48DFF870B26169BF
:1018D000C1B101210160FFF797FA8246DBF80000F1
:1018E00010F0020F25D1FFF78FFAA0EB0A000228B3
:1018F00002D90320BDE8F88FDBF8000010F0020FDA
:10190000F1D016E00660FFF77FFA8246DBF80000B0
:1019100010F0020F0DD0FFF777FAA0EB0A000228B3
:1019200002D90320BDE8F88FDBF8000010F0020FA9
:10193000F1D1207810F0040F43D08148016841F0C4
:1019400080510160006800F080500090DFF8F4B131
:10195000DBF8000040F48070CBF80000FFF754FA89
:101960008246DBF8000010F4807F0DD1FFF74CFABF
:10197000A0EB0A00022802D90320BDE8F88FDBF8AB
:10198000000010F4807FF1D0A068DFF8BCB101281E
:1019900018D005281DD0DBF8000020F00100CBF89E
:1019A0000000DBF8000020F00400CBF80000A06885
:1019B00068B3FFF729FA8246DBF8000010F0020F47
:1019C00014D03CE0DBF8000040F00100CBF8000050
:1019D000EDE7DBF8000040F00400CBF80000DBF896
:1019E000000040F00100CBF80000E0E7FFF70CFA40
:1019F000A0EB0A0141F28830814202D90320BDE800
:101A0000F88FDBF8000010F0020FEFD017E0FFF7BF
:101A1000FBF98246DBF8000010F0020F0FD0FFF751
:101A2000F3F9A0EB0A0141F28830814202D9032088
:101A3000BDE8F88FDBF8000010F0020FEFD1A069CD
:101A4000F0B3D8F8001001F00C0108296CD002287E
:101A500010D0C9F86060FFF7D7F90446286810F085
:101A6000007F5ED0FFF7D0F9001B022855D9032074
:101A7000BDE8F88FC9F86060FFF7C6F90646286828
:101A800010F0007F0BD0FFF7BFF9801B022802D9AE
:101A90000320BDE8F88F286810F0007FF3D1216A99
:101AA000E0694FF0FF3340EA010247F6C07191FA56
:101AB000A1F1606AB1FA81F100FA01F1A06A00E0D7
:101AC0002FE003EB50004FF4403393FAA3F3B3FA43
:101AD00083F39840084310434FF0706292FAA2F2E9
:101AE000E16AB2FA82F29140084338600120C9F8F5
:101AF0006000FFF789F90446286810F0007F10D1D4
:101B0000FFF782F9001B022802D90320BDE8F88FF5
:101B1000286810F0007FF3D003E0286810F0007F01
:101B2000A0D10020BDE8F88F0120BDE8F88F0000AB
:101B30000838024000004742800E47427438024095
:101B400040380240007000407038024070B50446D2
:101B5000002C05D00025A56294F8510010B106E0D4
:101B6000012070BD84F85050204600F031F802206A
:101B700084F851002068016821F040010160A168EB
:101B8000606822690843E1681143084361690843BA
:101B9000218B01F400710843E1690843216A08437D
:101BA000A16A084321680860A069042101EA104085
:101BB000616A0843216848602068C16921F40061B6
:101BC000C1616565012084F85100002070BD0000EE
:101BD000F0B587B00068A0F18041B1F560513CD10B
:101BE00000251F48016841F480410160006800F44D
:101BF000804001901B48016841F4807101600168D8
:101C000001F480710191016841F0040101600068F4
:101C100000F0040001900A2002900224039405942D
:101C200005260696104F02A93846FEF7D1FF04207C
:101C3000029003940495069602A90C48FEF7C8FF8B
:101C4000012211463846FFF7D8F80121029103918D
:101C5000069602A93846FEF7BBFF07B0F0BD0000AC
:101C60004038024030380240002002400008024064
:101C70002DE9F84F04460D4692461E46002760683F
:101C80004FF0040BB0F5827F01D1A06888B194F8C1
:101C90005000012818D0012084F85000FFF7B4F854
:101CA000804694F851004FF0000901280FD0022718
:101CB00089E084F851B053462A46294620460096CA
:101CC00000F050F9BDE8F88F0220BDE8F88FD5B1DB
:101CD000BAF1000F17D084F851B0C4F85490A5633E
:101CE000A4F83CA0A4F83EA0C4F83090A4F8349026
:101CF000A4F83690C4F84090C4F84490A068B0F5B9
:101D0000004F02D006E001275DE02068016821F461
:101D1000804101602068016811F0400F03D1016823
:101D200041F040010160E06868B1E08F40B3206895
:101D3000816811F0010F24D0C0682880AD1CE08FAD
:101D4000401EE08729E0E08FD0B12068816811F063
:101D5000010F06D0007B28706D1CE08F401EE087CD
:101D60000BE046B1B6F1FF3F07D0FFF74DF8A0EB0F
:101D70000800B04201D3032725E0E08F0028E4D11A
:101D80000EE046B1B6F1FF3F07D0FFF73DF8A0EBFC
:101D90000800B04201D3032715E0E08F0028C6D128
:101DA0006068B0F5827F0BD1A068B0F5004F02D01B
:101DB000B0F5806F04D12068016821F04001016016
:101DC000606D00B10127012084F8510084F8509023
:101DD0003846BDE8F88F2DE9F84F04460D46934686
:101DE0001E46002794F8500001280DD04FF0010A3C
:101DF00084F850A0FFF708F8804694F85100B946DF
:101E0000012804D00227A6E00220BDE8F88FDDB14A
:101E1000BBF1000F18D0032084F85100C4F854908F
:101E20002563A4F834B0A4F836B0C4F83890A4F808
:101E30003C90A4F83E90C4F84490C4F84090A06848
:101E4000B0F5004F02D006E0012784E02068016869
:101E500041F4804101602068016811F0400F03D116
:101E6000016841F040010160E068B0F5006F05D005
:101E7000606868B3E08E01282AD030E0606810B155
:101E8000E08E012806D121682888C860AD1CE08E4C
:101E9000401EE086E08E80B32068816811F0020F5A
:101EA00006D02988C160AD1CE08E401EE0860BE0A4
:101EB00046B1B6F1FF3F07D0FEF7A6FFA0EB080042
:101EC000B04201D3032746E0E08E0028E4D124E0AD
:101ED0002168287808736D1CE08E401EE086E08E35
:101EE00058B12068816811F0020F07D0297801737A
:101EF0006D1CE08E401EE0860CE00EE046B1B6F1AF
:101F0000FF3F07D0FEF780FFA0EB0800B04201D3EF
:101F1000032720E0E08E0028E3D13346012202218E
:101F20002046CDF8008001F04DFA08B1032712E0F9
:101F300042463146204601F0B1F818B10127202071
:101F4000606508E0A06818B92068C16880680090E2
:101F5000606D00B1012784F851A084F85090384694
:101F6000BDE8F88F2DE9F84F0446DDF828800D46CE
:101F700016469B4601274FF0000994F850000128AF
:101F80000ED0012084F85000FEF73EFF824694F800
:101F90005100616801280ED0B1F5827F07D102E0BF
:101FA0000220BDE8F88FA16809B9042803D04FF0DA
:101FB000020900F0C3B845B13EB1BBF1000F04D037
:101FC00094F85100012803D005E04FF00109B5E075
:101FD000052084F8510000206065A663A4F83EB097
:101FE000A4F83CB02563A4F836B0A4F834B020645B
:101FF00060642068016811F0400F03D1016841F06E
:1020000040010160E068B0F5006F05D06068C8B3BA
:10201000E08E01283ED06EE0606810B1E08E0128AD
:1020200031D121682888C860AD1CE08E401EE08652
:1020300029E06FB1E08E58B12068816811F0020F7D
:1020400006D02988C160AD1CE08E401EE0860027C6
:10205000E08F58B12068816811F0010F06D0C06888
:102060003080B61CE08F401EE0870127B8F1FF3FAB
:1020700009D0FEF7C9FEA0EB0A00404503D34FF09C
:1020800003095BE006E0E08E0028D2D1E08F002853
:10209000CFD136E02168287808736D1CE08E401E91
:1020A000E08628E06FB1E08E58B12068816811F0B9
:1020B000020F06D015F8011B0173E08E401EE0866A
:1020C0000027E08F58B12068816811F0010F06D019
:1020D000C06806F8010BE08F401EE0870127B8F1C9
:1020E000FF3F08D0FEF790FEA0EB0A00404502D368
:1020F0004FF0030922E0E08E0028D3D1E08F0028C2
:10210000D0D14346012202212046CDF800A001F0A3
:1021100059F910B14FF0030910E0524641462046EC
:1021200000F0BCFF20B14FF001092020606505E000
:10213000A06818B92068C16880680090012084F800
:102140005100002084F850004846BDE8F88F4FF059
:10215000E021042804D0086920F0040008617047D9
:10216000086940F00400086170477047401EB0F1F4
:10217000807F01D3012070474FF0E0214861044A7D
:10218000F02010700020886107200861002070474F
:1021900023ED00E010B5FFF7E8FF10BD7047704772
:1021A00070B504460D46002C03D094F8390010B1E8
:1021B00007E0012070BD002084F83800204600F0C0
:1021C0004DF8022084F839002068816821F0070169
:1021D0008160211D206801F0D9F920688168826939
:1021E000036AD5F800C04CEA010122F0030222F490
:1021F0004072AE69D5F808C042EA06224CEA0202F3
:1022000022F00C0222F4406222F0F00222F470422A
:10221000EE69D5F80CC042EA06224CEA0202D5F873
:1022200010C02E6A4FEA0C1C4CEA063C4CEA020233
:1022300023F0220323F08803D5F804C06D6943EA34
:1022400005134CEA03038160206882612068036201
:10225000012084F83900002070BD0000F0B58BB07B
:1022600005462A4C286802270126B0F1804F29D163
:10227000206840F001002060206800F0010000901C
:10228000206840F002002060206800F0020000900A
:10229000206840F004002060206800F004000090F6
:1022A000F0030690079708960A9606A91848FEF7C5
:1022B0008FFC08200690079708960A9606A91548ED
:1022C000FEF786FC2868A0F18041B1F580611AD143
:1022D000206840F004002060206800F004000090B6
:1022E000402001900297039605970B4C01A92046C8
:1022F000FEF76EFC8021019102970396059701A9D4
:102300002046FEF765FC0BB0F0BD000030380240FF
:1023100000000240000402400008024010B50446DC
:102320000029206811D0042914D00122002101F0D5
:1023300091F901220421206801F08CF920680168DC
:1023400041F001010160002010BD0122002101F0D7
:1023500081F9F3E70122042101F07CF9EEE77047EF
:1023600070B50446206801694FF0000511F0020FB6
:1023700017D0C16811F0020F13D0E91E01610120CE
:1023800020762068806910F0030F03D02046FFF705
:10239000E6FF05E0204600F09DF8204600F09BF89F
:1023A00025762068016911F0040F18D0C16811F07A
:1023B000040F14D06FF00401016102202076206820
:1023C000806910F4407F03D02046FFF7C8FF05E086
:1023D000204600F07FF8204600F07DF82576206842
:1023E000016911F0080F18D0C16811F0080F14D05E
:1023F0006FF008010161042020762068C06910F0A8
:10240000030F03D02046FFF7AAFF05E0204600F0A7
:1024100061F8204600F05FF825762068016911F028
:10242000100F18D0C16811F0100F14D06FF0100108
:102430000161082020762068C06910F4407F03D035
:102440002046FFF78CFF05E0204600F043F82046C9
:1024500000F041F825762068016911F0010F09D0DC
:10246000C16811F0010F05D06FF001010161204634
:1024700000F032F82068016911F0800F09D0C168BE
:1024800011F0800F05D06FF0800101612046FFF749
:1024900085FE2068016911F0400F09D0C16811F074
:1024A000400F05D06FF040010161204600F036F882
:1024B0002068016911F0200F0BD0C16811F0200FC6
:1024C00007D06FF0200101612046BDE87040FFF7A2
:1024D00066BE70BD704770470D48006800680D49C2
:1024E00010F0100F086802D0401E086001E0401C88
:1024F000086009480068006810F0100F054840683F
:1025000002D0401E48607047401C48607047000081
:102510000C100020C001002048100020704770B54A
:102520000446002C04D094F83900002510B106E0D0
:10253000012070BD84F83850204600F023F8242094
:1025400084F839002068C16821F40051C160204638
:1025500001F08EF82068016921F490410161206842
:10256000416921F02A0141612068C16841F40051AC
:10257000C160E563202084F8390084F83A00002027
:1025800070BD000000B587B00D49884216D10D48D6
:10259000016841F002010160006800F00200019052
:1025A000C020029002200390012004900320059097
:1025B0000720069002A90448FEF70AFB07B000BDF9
:1025C000CC0F002030380240000402402DE9F843CF
:1025D00004460D4691461E4694F83900202802D044
:1025E0000220BDE8F8834DB3B9F1000F26D094F86E
:1025F0003800012825D0012084F838000027E7633F
:10260000212084F83900FEF7FFFB8046A4F82490CF
:10261000A4F82690E08CA0B3E08C401EE084A06873
:10262000B0F5805F10D043460022802120460096FE
:1026300001F0C0F9F0B10320BDE8F8830120BDE846
:10264000F8830220BDE8F88343460022802120461B
:10265000009601F0AFF910B10320BDE8F883288897
:102660002168C0F308004860206908B16D1C05E0CE
:10267000AD1C03E0216815F8010B4860E08C0028D0
:10268000CAD14346002240212046009601F092F92B
:1026900010B10320BDE8F883202084F8390084F8C5
:1026A00038700020BDE8F8832DE9F05F06460F463C
:1026B000306800EB4714D4F8080507EB870110F0E9
:1026C000040F4FF004084FF005094FF0100A06EB15
:1026D000C10508D0C4F80885D4F80C0540F0020004
:1026E000C4F80C0537E0D4F8080510F0200F03D02B
:1026F0002020C4F808052EE0D4F808054FF0080B98
:1027000010F0080F10D0D4F80C0540F00200C4F807
:102710000C0585F85D90C4F808A5C4F808B53946DD
:10272000306803F058FD16E0D4F8080510F4806F07
:1027300011D0D4F80C0540F00200C4F80C0539465D
:10274000306803F048FDC4F808A585F85DB04FF483
:102750008060C4F80805D4F8080510F4007F0FD095
:10276000D4F80C0540F00200C4F80C053946306876
:1027700003F031FD4FF40070C4F80805BDE8F09F88
:10278000D4F808054FF0000310F0010F4FF00102DC
:1027900036D0306930B1A86CD4F81015C1F31201ED
:1027A000401AE86485F85D20AB65C4F8082595F803
:1027B0003F0020B1022802D003280DD018E0D4F841
:1027C0000C0540F00200C4F80C053946306803F0EF
:1027D00002FDC4F808A50BE0D4F8000540F0005055
:1027E000C4F8000585F85C2039463046FEF772FBD8
:1027F00095F8500080F0010085F85000BDE8F09F8A
:10280000D4F8080510F0020F34D0D4F80C0520F0ED
:102810000200C4F80C0595F85D000221012806D0DD
:10282000052807D0062808D0082806D018E085F823
:102830005C2015E085F85C9012E0A86D421CAA654A
:10284000032803D9AB6585F85C8001E085F85C104E
:10285000D4F8000520F0804040F00040C4F80005A6
:10286000C4F8081595F85C2039463046FEF732FB6F
:10287000BDE8F09FD4F8080510F0800F14D0D4F80C
:102880000C0540F00200C4F80C05A86D401CA865BA
:10289000062085F85D003946306803F09CFC8020F6
:1028A000C4F80805BDE8F09FD4F8080510F0100F33
:1028B000F8D095F83F00032809D1D4F80C0540F072
:1028C0000200C4F80C053946306803F084FC03208C
:1028D00085F85D00C4F808A595F83F0008B1022806
:1028E000E0D1D4F8000520F0804040F00040C4F86A
:1028F0000005BDE8F09F2DE9F047026802EB4114A6
:10290000D4F808254FF0040312F0040F09D0C4F8DE
:102910000835D4F80C0540F00200C4F80C05BDE8F9
:10292000F087D4F8082501EB810C12F0200F4FF04E
:10293000020600EBCC0515D02022C4F8082595F836
:102940003D20012AEBD185F85D30D4F80C2542F00A
:102950000202C4F80C25006803F03DFC85F85C60B9
:10296000BDE8F087D4F808254FF0000C12F0400FB6
:1029700011D085F85D30C5F858C0D4F80C2542F068
:102980000202C4F80C25006803F025FC4020C4F8BE
:102990000805BDE8F087D4F8082512F4007F0ED0B2
:1029A000D4F80C2542F00202C4F80C25006803F0AC
:1029B00012FC4FF40070C4F80805BDE8F087D4F8A5
:1029C00008254FF0010712F0010F10D0C5F858C0CC
:1029D000D4F80C2542F00202C4F80C25006803F07C
:1029E000FAFBC4F8087585F85D70BDE8F087D4F887
:1029F00008254FF0080912F0080F4FF005080ED017
:102A0000C4F80895D4F80C2542F00202C4F80C254D
:102A1000006803F0E0FB85F85D80BDE8F087D4F83E
:102A200008254FF0100A12F0100F11D0C5F858C049
:102A3000D4F80C2542F00202C4F80C25006803F01B
:102A4000CAFB032085F85D00C4F808A5BDE8F0873F
:102A5000D4F8082512F0800F10D0D4F80C2542F0DD
:102A60000202C4F80C25006803F0B5FB062085F8C7
:102A70005D008020C4F80805BDE8F087D4F808257B
:102A800012F4806F12D0D4F80C2542F00202C4F880
:102A90000C25006803F09FFBC4F808A54FF4806084
:102AA000C4F8080585F85D90BDE8F087D4F80825DE
:102AB00012F0020FF8D0D4F80C2522F00202C4F86C
:102AC0000C2595F85D20012A0AD0032A15D0042A86
:102AD00016D0052A19D0062A1AD0082A18D023E0C1
:102AE00085F85C7095F83F20022A1DD195F8512099
:102AF00082F0010285F8512016E085F85C6013E051
:102B000085F85C6085F83DC00EE085F85C800BE0E0
:102B1000AA6D571CAF65032A04D9C5F858C085F8BB
:102B20005C3001E085F85C60C4F8086595F85C20CD
:102B3000FEF7D0F9BDE8F08730B583B005462C68C4
:102B4000D4F840040290D4F840040190019820F099
:102B50002E000190029810F0020F0ED0029810F093
:102B6000010F06D0A06920F00051A1612846FEF7B0
:102B700051F9019840F002000190029810F0080FFE
:102B800031D0019840F008000190029810F0040F35
:102B90001ED0A869022803D0E868032810D013E0EB
:102BA000029800F4C020B0F5802F04D001212868DD
:102BB00003F07CFD08E00221286803F077FD03E0C4
:102BC0004EF66020C4F804042846FEF723F90AE014
:102BD000D4F8400420F02E00C4F84004286881692D
:102BE00041F000518161029810F0200F03D001984C
:102BF00040F0200001900198C4F8400403B030BDBB
:102C00002DE9F041034618680746016A01F00F06F6
:102C1000C1F34342C1F30A15022A26D1002D24D064
:102C200006EB860103EBC104616C00291DD0AAB23A
:102C300003F05DFD606C28446064E06C2844E0644F
:102C400007EB4610D0F81015094A11420DD0D0F804
:102C5000001521F0804141F00041C0F8001594F8C2
:102C6000500080F0010084F85000BDE8F0810000C1
:102C70000000F81FF0B587B000251448016841F442
:102C800000310160006800F40030019010480168D4
:102C900041F008010160006800F008000190202068
:102CA000029002240394059407260696094F02A970
:102CB0003846FDF78DFF4021029103940495069656
:102CC00002A93846FDF784FF07B0F0BD4038024046
:102CD00030380240000C024010B5FFF7CBFF124C19
:102CE000104820604FF4165060600020A060E06043
:102CF00020610C216161A061E0612046FFF70FFCBB
:102D0000002201212620FEF733FB2620FEF724FBBC
:102D100021686FF0200008602068C16821F0200160
:102D2000C16010BD00440040DC0E0020F0B589B049
:102D30004FF0000CCDF804C0CDF808C0CDF80CC0A1
:102D4000CDF810C0CDF814C0CDF818C0CDF81CC017
:102D5000CDF820C00B46024616A101A803F00CFED8
:102D6000002401A8FDF781FA144D154E00280ED954
:102D700001AF385D28603068016811F0800FFBD02A
:102D8000601CC4B201A8FDF770FAA042F1D8FF227E
:102D90002A603068016811F0800FFBD02A6001685A
:102DA00011F0800FFBD02A60016811F0800FFBD07A
:102DB00009B0F0BD25733D256400000004440040C7
:102DC000DC0E0020FEE7000010B50C4C012120466F
:102DD000FEF70CF838B91420FDF7EAFE0121204671
:102DE000FEF704F808B1002010BD01212046FDF7D0
:102DF000FDFF0028F9D0012010BD000000100240A6
:102E000010B50C4C02212046FDF7F0FF38B9142014
:102E1000FDF7CEFE02212046FDF7E8FF08B10020B5
:102E200010BD02212046FDF7E1FF0028F9D0012066
:102E300010BD00000010024070B586B000252A4881
:102E4000016841F010010160016801F0100100917A
:102E5000016841F010010160016801F0100100916A
:102E6000016841F010010160016801F0100100915A
:102E7000016841F010010160016801F0100100914A
:102E8000016841F010010160006800F0100000903E
:102E90000124019402950394144E01A93046FDF7D4
:102EA00097FE022001900295039401A93046FDF798
:102EB0008FFE042001900295039401A93046FDF78E
:102EC00087FE082001900295039401A93046FDF782
:102ED0007FFE102001900295039401A93046FDF772
:102EE00077FE06B070BD000030380240001002408E
:102EF00010B5002201212520FEF73AFABDE8104066
:102F00002520FEF729BA00000C480B4901604FF458
:102F10008271416000218160C16002220261012250
:102F20004261520282610822C26101624162816291
:102F30000A21C162FEF70ABE00380040740F00206B
:102F400008B500210D48026842F0100202600068D6
:102F500000F0100000900B48094A02604FF4E13283
:102F600042608160C16001610C2242618161C16186
:102F7000FFF7D5FABDE80840FFF7BABF4438024072
:102F800000100140CC0F0020F0B587B00024354878
:102F9000016841F480510160006800F480500190A4
:102FA0003148016841F001010160016801F001014F
:102FB0000191016841F004010160016801F0040120
:102FC0000191016841F080010160016801F0800118
:102FD0000191016841F002010160006800F0020007
:102FE0000190202002900227039704940325059561
:102FF0000526069602A91D48FDF7EAFD302002903D
:10300000039704940595069602A91948FDF7E0FD7B
:1030100038030290012503950494059402A91548EC
:10302000FDF7D6FDA802029003950494059402A929
:103030001148FDF7CDFD1248104901604FF482712F
:1030400041608460C4600761456169028161382123
:10305000C1610462446284620721C162FEF776FDA9
:1030600007B0F0BD44380240303802400000024052
:103070000004024000080240001C024000300140F1
:103080001C0F0020FEE7FEF731BB00000148FDF7F2
:103090009CBF0000440C00207047704738B50446C0
:1030A0000B46009200228021204600F08BF928B1C7
:1030B000606D40F020006065032038BD002038BD01
:1030C0002DE9F04105460C461746134E002201211A
:1030D0003046FDF792FE032000F030F9C4F30740BC
:1030E00000F02CF9C4F3072000F028F9E0B200F05A
:1030F00025F9781E84B207D3FF2000F01FF928704D
:103100006D1C611E8CB2F7D23046BDE8F041012241
:103110001146FDF772BE0000002002402DE9F04785
:1031200006460C46E1B2C1F58070C5B2100AD7B2AE
:1031300000292FD0E1B2C1F58071C9B204EB010AB8
:10314000002844D0501B80B24FEA102900F0FF083D
:103150002A462146304600F053F857463544B9F127
:103160000100C4B20CD34FF480723946284600F0F7
:1031700047F807F5807705F58075611ECCB2F2D26D
:10318000B8F1000F39D0424639462846BDE8F0472D
:1031900000F036B8A8B1401EC5B24FF48072214687
:1031A000304600F02DF804F5807406F58076691E2F
:1031B000CDB2F2D23A4621463046BDE8F04700F0A3
:1031C0001FB821463046BDE8F04700F019B8AF42BD
:1031D0000DD9781BC7B22A462146304600F010F8B8
:1031E00070193A465146BDE8F04700F009B821464B
:1031F0003046BDE8F04700F003B8BDE8F0870000B6
:103200002DE9F04105460C46164600F0C7F8154F6B
:10321000002201213846FDF7F0FD022000F08EF873
:10322000C4F3074000F08AF8C4F3072000F086F8E2
:10323000E0B200F083F8B6F5807F00D9BE15701EAD
:1032400084B206D3287800F079F86D1C611E8CB228
:10325000F8D2012211463846FDF7CFFDBDE8F04116
:1032600000F082B80020024070B50E4C002201210F
:103270002046FDF7C2FDAB2000F060F8FF2000F013
:103280005DF8FF2000F05AF8FF2000F057F8FF200B
:1032900000F054F80546012211462046FDF7ADFD29
:1032A000284670BD002002402DE9F0410F4F00225A
:1032B00001213846FDF7A1FD9F2000F03FF8FF20D7
:1032C00000F03CF80446FF2000F038F80546FF20E7
:1032D00000F034F80646012211463846FDF78DFD10
:1032E000200440EA05203043BDE8F0810020024080
:1032F00070B5044600F052F800F036F80E4D00228A
:1033000001212846FDF779FD202000F017F8C4F3CD
:10331000074000F013F8C4F3072000F00FF8E0B204
:1033200000F00CF8012211462846FDF766FDBDE8C5
:10333000704000F019B800000020024000B583B0D2
:1033400001906FF07F400090012302AA01A9054877
:10335000FEF708FE08B1FF2002909DF8080003B0B8
:1033600000BD0000740F002010B50B4C002201219D
:103370002046FDF742FD0520FFF7E0FFFF20FFF7A5
:10338000DDFF10F0010FF9D120460122BDE8104009
:103390001146FDF732BD00000020024010B5084C78
:1033A000002201212046FDF728FD0620FFF7C6FF79
:1033B00020460122BDE810401146FDF71EBD000069
:1033C000002002402DE9F0410446069E884617463B
:1033D0001D462068806838EA000015D00020B842F9
:1033E00040D0B5F1FF3F35D025B1FDF70DFD801B75
:1033F000A8422FD32068416821F0E0014160606855
:10340000B0F5827F02D00DE00120E8E7A068B0F5BA
:10341000004F02D0B0F5806F04D12068016821F020
:1034200040010160A06AB0F5005F0AD12068016820
:103430004DF6FF72114001602068016841F40051AF
:103440000160012084F85100002084F8500003201E
:10345000BDE8F0812068806838EA000005D00020CF
:10346000B842BED10020BDE8F0810120F8E77047E6
:1034700010B5FDF707FFBDE81040FEF78BBE00005A
:1034800030B593B000252348016841F080510160B8
:10349000006800F0805000901F48016841F48041AE
:1034A0000160006800F48040009001200690000454
:1034B000079002240C9480010D9008200E904FF488
:1034C000A8700F9010940720119006A8FEF71EF91F
:1034D0000F200190029403954FF4A0500490E00255
:1034E0000590052101A8FDF78BFFFEF781F8FEF797
:1034F00085F84FF47A71B0FBF1F0FEF737FE042047
:10350000FEF725FE00221146501EFDF731FF13B0D5
:1035100030BD000040380240007000400F48016894
:1035200041F4700101600E48016841F00101016041
:103530000C4A00211160026822F4102222F08072ED
:103540000260031D084A1A60026822F480220260A9
:1035500006480160064958060860704788ED00E09B
:103560000038024008380240103000240C38024075
:1035700008ED00E00148FEF7F3BE00000C1000204B
:103580000148FEF7EDBE000048100020F0B40268CC
:103590002B4BDFF8B0C02C4D2C4E2D4C98420AD04E
:1035A000B0F1804F07D0604505D0A84203D0B042AB
:1035B00001D0A04203D122F070024F683A439842F2
:1035C00028D0B0F1804F25D0604523D0A84221D02B
:1035D000B0421FD0A0421DD0A0F1804CBCF5A03C51
:1035E00018D0A0F1804CBCF5A23C13D0A0F1804CC7
:1035F000BCF5A43C0ED0A0F1804CBCF5C05C09D059
:10360000A0F1804CBCF5E05C04D0A0F1804CBCF58E
:10361000005C05D122F44072D1F80CC04CEA0202E1
:1036200002608A68C2620A688262984201D0A0423F
:1036300001D10969016301214161F0BC70470000BB
:10364000000001400004004000080040000C004061
:103650000004014001238B40D0F820C02CEA030372
:103660000362036A02FA01F1194301627047000024
:103670002DE9F04104462068016921F44051E268D7
:10368000114301612068C16821F4037121F41441E0
:103690002369A268D4F81CC01A43636943EA0C0387
:1036A0001A431143C1602068416921F44071A26945
:1036B00011434161E069BC4ABC49BD4D3226B0F5B9
:1036C000004F5ED02068884202D0904240F01281C4
:1036D000FDF7B0FF00EBC00101EB0010616889004D
:1036E000B0FBF1F7FDF7A6FF00EBC00101EB001006
:1036F00061688900B0FBF1F0A5FB001040096FF094
:103700001801484307EB800006EB0010A5FB0010F2
:10371000400900F0F007FDF78DFF00EBC00101EB61
:10372000001061688900B0FBF1F0A5FB00104009B2
:1037300007EB0017FDF77EFF00EBC00101EB001067
:1037400061688900B0FBF1F8FDF774FF00EBC00180
:1037500001EB001061688900B0FBF1F0A5FB0010DF
:1037600040096FF01801484308EB800006EB001099
:10377000A5FB00102168C0F3431038448860BDE801
:10378000F0812068884201D0904259D1FDF752FF64
:1037900000EBC00101EB001061684900B0FBF1F0E3
:1037A000A5FB001040090701FDF744FF00EBC00135
:1037B00001EB001061684900B0FBF1F8FDF73AFF3A
:1037C00000EBC00101EB001061684900B0FBF1F0B3
:1037D000A5FB001040096FF01801484308EB80007A
:1037E00006EBC000A5FB0010400900F0F80007EB55
:1037F0004007FDF71FFF00EBC00101EB00106168FF
:103800004900B0FBF1F8FDF715FF00EBC00101EB3B
:10381000001061684900B0FBF1F0A5FB0010400901
:103820006FF01801484308EB800006EBC000A5FBD1
:1038300000102168C0F3421038448860BDE8F08170
:10384000FDF7E2FE00EBC00101EB001061684900EA
:10385000B0FBF1F0A5FB001040090701FDF7D4FE15
:1038600000EBC00101EB001061684900B0FBF1F80A
:10387000FDF7CAFE00EBC00101EB001061684900D2
:10388000B0FBF1F0A5FB001040096FF018014843B0
:1038900008EB800006EBC000A5FB0010400900F01B
:1038A000F80007EB4007FDF7AFFE00EBC00101EBAE
:1038B000001061684900B0FBF1F8FDF7A5FE00EBD0
:1038C000C00101EB001061684900B0FBF1F0A5FBFD
:1038D000001040096FF01801484308EB800006EB28
:1038E000C000A5FB00102168C0F342103844886076
:1038F000BDE8F081FDF788FE00EBC00101EB001090
:1039000061688900B0FBF1F7FDF77EFE00EBC001B6
:1039100001EB001061688900B0FBF1F0A5FB00101D
:1039200040096FF01801484307EB800006EB0010D8
:10393000A5FB0010400900F0F007FDF765FE00EB65
:10394000C00101EB001061688900B0FBF1F0A5FB3C
:103950000010400907EB0017FDF756FE00EBC00111
:1039600001EB001061688900B0FBF1F8FDF74CFE37
:1039700000EBC00101EB001061688900B0FBF1F0C1
:10398000A5FB001040096FF01801484308EB8000C8
:1039900006EB0010A5FB00102168C0F3431038446B
:1039A0008860BDE8F0810000001401400010014073
:1039B0001F85EB512DE9F0410446069D88461746C8
:1039C0001E462068006838EA000020D00020B84277
:1039D00027D1B5F1FF3F1CD025B1FDF715FA801BAB
:1039E000A84216D92068C16821F4D071C16020684E
:1039F000416921F001014161202084F8390084F8F7
:103A00003A00002084F838000320BDE8F08101204E
:103A1000DDE72068006838EA000005D00020B842E1
:103A2000D7D00020BDE8F0810120F8E723480068E6
:103A3000006810F0200F14D02148006880B2DFF831
:103A400084C0214AF12804D091780023012909D0AB
:103A50002DE0012090701074F1208CF80000C82037
:103A600090747047917C11B3117C0CF80100491CD3
:103A7000C9B211741E2902D3137493707047FF28C2
:103A8000FCD10CEB010010F8021CFF29F6D110F854
:103A9000031C0029F2D110F8041CFF29EED110F804
:103AA000050CFF28EAD10220907013747047907CB7
:103AB0000028FBD19370137470470000DC0E0020C7
:103AC00004440040000200200000002070B50446BD
:103AD0000D46204600F0FAF8A0F57F42FF3A05D0E7
:103AE00004EB800245F40041C2F87C13C0B270BD03
:103AF00030B585B01D4601244FF0000C02920191B3
:103B00000223CDF80CC000942246294600F0DBFCCD
:103B100005B0002030BD30B585B08C4608991D46F3
:103B200090F81D43002C00D0002101240292039143
:103B30000223CDF804C000940022294600F0C3FC03
:103B400005B0002030BD10B500F08CFB002010BD8A
:103B50008278012A07D102220274012242740022D3
:103B600042828182C2820022114600F013B830B531
:103B700085B01D464FF0000C01240292019163466E
:103B8000CDF80CC000942246294600F09CFC05B0FC
:103B9000002030BD70B504460120A3780125012B1B
:103BA00009D0022B06D1204600F0ECF848B10228DB
:103BB00000D1A57070BDA160A28125760221A170FF
:103BC00070BDA5700021217670BD30B585B08C46E2
:103BD00008991D4690F81D43002C00D000210124B7
:103BE000002302920391CDF804C000941A4629469E
:103BF00000F069FC05B0002030BD10B584B014465B
:103C000000234FF0080C019100931A46CDF808C02C
:103C10000393214600F057FC04B0002010BDFCF7D0
:103C2000C7BF30B44FF0000C00F232340CEB8C0004
:103C300000EBCC0004EB40000A3045798D4201D006
:103C4000FF2909D18579954201D0FF2A04D1C07995
:103C500098420BD0FF2B09D00CF101004FFA80FCE9
:103C6000BCF1020FE2DB30BCFF20704730BC0CF02F
:103C7000FF0070470B2907D200EB8100B0F87C13DE
:103C8000C1F30E01C0F87C130020704730B48C469D
:103C900002998478012C10D14CF0800C80F810C06F
:103CA0004FF0060C80F811C0428202F47F42B2F558
:103CB000407F07D000228282C1820A4630BC19466A
:103CC000FFF768BF40F209428282F5E70146002013
:103CD00001EB8002B2F87C2312F4004F05D0401CA7
:103CE000C0B20B28F4D34FF6FF7070470A880378F0
:103CF0001A440A80017808447047F8B504460E4615
:103D000004F11C052B464FF400720021204600965A
:103D1000FFF7BCFF071E05D13246294604F23230B8
:103D200001F0FDFC3846F8BDF8B504460D4604F533
:103D30008E734FF48072002120460095FFF7A6FF96
:103D4000061E06D12A4604F58E7104F5487001F06E
:103D50003FFD3046F8BDF8B5044616461D4641F411
:103D6000407204F58E73002120460095FFF78EFF08
:103D7000071E05D12A46314604F58E7001F077FD05
:103D80003846F8BD38B504460125207E0C2880F061
:103D9000DC80DFE800F0DA0610323E505E7985996B
:103DA000A7BC627904F110012046FFF726FF02202C
:103DB000207600F0CAB86179204600F0DEFA0128CA
:103DC00003D0042816D000F0C0B8207C00F080009A
:103DD000E18A39B1802802D005202076B5E00320A1
:103DE0002076B2E0802802D007202076ADE00920BE
:103DF0002076AAE00B202076A7E0D4F8B803E08173
:103E00002379A2892046A168FFF7B1FE042020761D
:103E10009BE02179204600F0B0FA012801D1092168
:103E20002176052802D0042802D08EE003258CE0FC
:103E30000B20207689E0012000906379A28920463A
:103E4000A168FFF7C2FED4F8B803E081062020760F
:103E50007BE06179204600F090FA012806D0052821
:103E600007D0022809D004280AD06EE00720207667
:103E70006BE00C202076032567E00520207664E0C7
:103E80000B202076022560E000222379114620468F
:103E9000FFF76DFED4F8B803E0810820207654E0E7
:103EA0002179204600F069FA012804D0042806D0C0
:103EB000052807D049E00D202076002545E00B209D
:103EC000207642E0032540E0012000900022637943
:103ED00011462046FFF779FED4F8B803E0810A20A6
:103EE000207632E06179204600F047FA012804D0BC
:103EF000022806D0042807D027E000250D202076D0
:103F000023E00920207620E00B2020761DE0607E53
:103F1000401CC0B26076022806D8204600F0BDFAE8
:103F200001202076A07010E0D4F8C423062120469A
:103F300090470020607606A002F00EFD06A002F079
:103F40000BFD09A002F008FD0225284638BD00003F
:103F50004552524F523A2000436F6E74726F6C207C
:103F60006572726F720000000A000000F0B583B045
:103F700004460125607800260127082880F0E180AA
:103F8000DFE800F0042A45757E88A6C40821204693
:103F9000FFF7CAFE002840F0D48094F82703A071F0
:103FA000677094F81D1302900196009194F81C33E9
:103FB00021798022204601F0A3FBA07994F81D13FB
:103FC00002900196009194F81C33617900222046FA
:103FD00001F096FB00F0B5B812212046FFF7A4FED1
:103FE000002840F0AE80B4F82A1357A002F0B4FCC9
:103FF00058A002F0B1FCB4F8281357A002F0ACFCB2
:1040000054A002F0A9FC0220607000F09AB80121CF
:10401000204601F09DFE002840F093800220FFF72B
:10402000FEFD394684F81C734EA002F095FC49A0B1
:1040300002F092FC03206070A07994F81D130290A6
:104040000196009194F81C3321798022204601F0DA
:1040500057FBA07994F81D1302900196009194F8F3
:104060001C3361790022204601F04AFB69E00921F6
:104070002046FFF742FE002863D10420607060E014
:10408000B4F834132046FFF738FE002859D1052034
:10409000607056E094F82E13062689B1FF2304F5CC
:1040A0008E722046FFF757FE00284AD104F58E7124
:1040B00032A002F051FC27A002F04EFC667040E0F6
:1040C00033A002F049FC23A002F046FC667038E001
:1040D00094F82F13072689B1FF2304F58E7220462A
:1040E000FFF739FE00282CD104F58E712DA002F0C7
:1040F00033FC18A002F030FC667022E02DA002F024
:104100002BFC14A002F028FC66701AE094F830131F
:1041100081B1FF2304F58E722046FFF71CFE80B9A3
:1041200004F58E7127A002F017FC0AA002F014FC1F
:10413000002506E028A002F00FFC06A002F00CFC0F
:10414000002503B02846F0BD5049443A2025786840
:10415000000000000A0000005649443A2025786813
:104160000000000041646472657373202823256495
:10417000292061737369676E65642E004D616E75E9
:104180006661637475726572203A202573000000C1
:104190004D616E756661637475726572203A204E6A
:1041A0002F41000050726F64756374203A202573AC
:1041B0000000000050726F64756374203A204E2F27
:1041C0004100000053657269616C204E756D626537
:1041D00072203A202573000053657269616C204E8D
:1041E000756D626572203A204E2F410001780A29D0
:1041F00005D1D0F87413002901D0896908477047A8
:1042000070B504460D46002C11D084F8BC23002064
:10421000C4F87403C4F878032046FCF750FC0DB1D1
:10422000C4F8C453204600F0B3F8002070BD05A0C8
:1042300002F092FB05A002F08FFB09A002F08CFBBC
:10424000022070BD4552524F523A2000496E7661AD
:104250006C696420486F73742068616E646C6500DB
:104260000A00000010B50024D0F8C003FCF7EDFDF3
:1042700030B1012806D0022806D0032806D0022437
:10428000204610BD0224FBE70124F9E70224F7E7EA
:1042900010B50178002903D00178012909D00AE07E
:1042A000012180F81E13D0F8C42322B104219047C5
:1042B00001E002210170002010BD000010B504468D
:1042C000204600F0EAF821792046FFF7D3FC617917
:1042D0002046FFF7CFFC002084F81E03D4F8C42347
:1042E00012B105212046904706A002F035FB0BA035
:1042F00002F032FB204600F0BAF8032020700020C4
:1043000010BD000055534220446576696365206402
:104310006973636F6E6E6563746564000A00000004
:1043200010B590F8BC03C820FCF742FC002010BD7B
:10433000D0F8C003FCF783BD10B50124D0F8C0034A
:10434000FCF773FD20B1012805D0022803D101E05C
:10435000002400E00224204610BDD0F8C00301EB89
:10436000810100EBC10090F83B10002902D090F8C9
:104370005000704790F851007047D0F8C003FCF728
:1043800057BDD0F8B813491CC0F8B813FFF72EBFBB
:1043900010B5044694F8BC03012819D10D48C0F8A3
:1043A0009442C4F8C0034FF0A0410160082181602D
:1043B0000321C1600021016102228261C161FCF719
:1043C000A7FE0448FCF72EFD0146204600F03BF80E
:1043D000002010BD440C002070B584B00646DDF806
:1043E00024C00A9D08980024CDF804C002950090CE
:1043F000D6F8C003FCF73BFD30B1012807D00228F6
:1044000007D0032807D0022404B0204670BD022440
:10441000FAE70124F8E70224F6E710B50024D0F803
:10442000C003FCF7FFFE30B1012806D0022806D0F9
:10443000032806D00224204610BD0224FBE70124F5
:10444000F9E70224F7E7C0F8B8137047D0F8C003C3
:1044500001EB810100EBC10090F83B10002902D074
:1044600080F8502001E080F851200020704710B5FE
:104470000024D0F8C003FCF7DCFE30B1012806D0E0
:10448000022806D0032806D00224204610BD0224AC
:10449000FBE70124F9E70224F7E710B50024D0F880
:1044A000C003FCF7DCFE30B1012806D0022806D09C
:1044B000032806D00224204610BD0224FBE7012475
:1044C000F9E70224F7E7F0B585B00746DDF82CC020
:1044D0000D9E0C9D0A980024CDF804C00396029509
:1044E0000090D7F8C003FCF7F6FC30B1012807D0E4
:1044F000022807D0032807D0022405B02046F0BDCB
:104500000224FAE70124F8E70224F6E70346022032
:10451000D3F87413C969002A05D0012A07D1897913
:104520001846FFF715BBC9791846FFF711BB70474E
:10453000D0F87403C06905494165054981650121C9
:1045400080F8501080F852100020704755534243B5
:1045500050403020F8B506460125D6F87403C469EA
:1045600094F850000C2880F01081DFE800F08806F5
:10457000163E49717EAEB9D3E3FD84F86110022086
:1045800084F850000120009063791F2204F1540147
:104590003046FFF7C0FA00F0F8B861793046FFF70F
:1045A000ECFE012805D0022817D0052819D000F00C
:1045B000ECB8E06D68B194F8600010F0800F04D0A2
:1045C000032084F8500000F0E0B8052084F8500083
:1045D000DBE0072084F85000D7E0012084F8500089
:1045E000D3E00A2084F85000CFE023796289304676
:1045F000D4F88C10FFF77CFA042084F85000C4E053
:1046000021793046FFF7B9FE012802D005281BD0DA
:10461000BBE06289E06D904207D9D4F88C10114458
:10462000C4F88C10801AE06501E00020E065E06DC0
:1046300030B123793046D4F88C10FFF759FAA4E052
:10464000072084F85000A0E0092084F850009CE086
:1046500001200090637922893046D4F88C10FFF74E
:104660005AFA062084F850008FE061793046FFF74F
:1046700084FE012804D002281FD0052821D084E020
:104680002289E06D904207D9D4F88C101144C4F807
:104690008C10801AE06501E00020E065E06D40B11B
:1046A0000120009063793046D4F88C10FFF733FA7C
:1046B0006BE0072084F8500067E0052084F8500084
:1046C00063E00A2084F850005FE023790D2204F1B2
:1046D00078013046FFF70CFA082084F8500054E0C7
:1046E00021793046FFF749FE012802D005280DD078
:1046F0004BE0012084F8500084F85200304600F06E
:10470000AFF808B1022540E000253EE0092084F81A
:1047100050003AE000223046FFF7F8FE10B10428BE
:1047200004D032E0072084F850002EE00B2084F8FB
:1047300050002AE001223046FFF7E8FE10B10428BD
:1047400016D022E061793046FFF707FEC0F1010084
:10475000C2B261793046FFF779FE217900223046F6
:10476000FFF774FE092000E006E084F850000CE03A
:104770000B2084F8500008E0304600F013F805469E
:10478000280002D1012084F850002846F8BDA1225B
:104790000274FE2242740022428282820122C2827C
:1047A000FFF7F8B921210174FF21417400214182F2
:1047B0008182C18200221146FFF7ECB970B5024632
:1047C000D2F87403C4690125A07B002804D0022814
:1047D00002D0032830D128E021461046FFF7D7FF4A
:1047E00005460026032D01D12660002525BB207833
:1047F000411C216011A002F0AFF818A002F0ACF843
:1048000000212068002817D9022001EB810202EB69
:10481000C10204EB820282F8920082F8C160491C56
:10482000C9B222688A42F0D806E000211046FFF79C
:104830008FF908B9E07BA073284670BD4E756D6294
:104840006572206F6620737570706F727465642076
:104850004C554E3A20256C75000000000A000000FF
:1048600070B5D0F87413CC6901252179FFF760FD8C
:104870000D2801D0022514E00B49A06F88420FD10A
:10488000A16DE06F88420CD194F8840020B101281A
:1048900007D0022802D004E0002502E0022500E053
:1048A0000225284670BD0000555342532DE9F00102
:1048B000D0F87433DB6900780A2803D0BDE8F00132
:1048C0000220704701EB810000EBC10003EB800088
:1048D00000F19C04D0F898C094E8F001D0F894302E
:1048E000D0F89010C2F808C00C32A2E8F001203ACB
:1048F00053601160D0F8B8C0D0F8BC40D0F8B430E4
:10490000D0F8B010D0F8C000C2F828C0D46253620A
:1049100011621063BDE8F0010020704770B50546D4
:10492000D5F87403C46900266179002907D02846A8
:10493000FFF709F961792846FFF79CF9667121793B
:1049400039B12846FFF7FFF821792846FFF792F999
:104950002671D5F87403C06920B105F00BF8D5F8BD
:104960007403C661002070BD70B584B00546022492
:10497000D5F874035023062201792846FFF751F930
:10498000FF287DD00146284601F068F9E00107F0D4
:10499000D5FAD5F87413C861044695F81F0300EBE7
:1049A000800101EBC00005EB400090F8480310F0D7
:1049B000800F0CD0E07195F81F0300EB800101EB34
:1049C000C00005EB4000B0F84A0360810BE0A07125
:1049D00095F81F0300EB800101EBC00005EB4000E0
:1049E000B0F84A03208195F81F0300EB800101EB2A
:1049F000C00005EB400090F8500310F0800F0CD081
:104A0000E07195F81F0300EB800101EBC00005EB9E
:104A10004000B0F8520360810BE0A07195F81F03CD
:104A200000EB800101EBC00005EB4000B0F8520341
:104A300020810020A4F8F800A4F8FA002073607325
:104A4000A073A1792846FFF741F86071E179284603
:104A5000FFF73CF820712846FFF76AFD682104F152
:104A60009000FBF7F7FB208995F81D1302260290B2
:104A70000196009195F81C33A2796179284600E0EF
:104A800019E000F03DFE608995F81D130290019633
:104A9000009195F81C33E2792179284600F030FE28
:104AA000217900222846FFF7D1FC617900222846AF
:104AB000FFF7CCFC002404B0204670BD2DE9F04780
:104AC0000546D5F87403C4694FF00108207B00281F
:104AD00004D0012840F0EC8200F0E8BAB4F8F80005
:104AE000216801264FF0000A884280F0D68200EB50
:104AF000800101EBC00004EB800080F89160B4F805
:104B0000F810022701EB810000EBC10004EB8000EC
:104B10004FF0050990F89020092A80F0C982DFE85B
:104B200002F005FE8DFD1AFCFEFEFB00FBA001F06D
:104B300013FFFDA001F010FFB4F8F800042100EB12
:104B4000800202EBC00004EB800080F89010D5F8E2
:104B5000B803C4F8FC00B4F8F81001EB810000EBD6
:104B6000C10004EB800000F19F02C9B2284600F0AA
:104B7000AAFB0546280039D1B4F8F80000EB800103
:104B800001EBC00004EB800000F1A201E7A001F0FE
:104B9000E3FEE5A001F0E0FEB4F8F80000EB8001D0
:104BA00001EBC00004EB800000F1AB01E5A001F0D7
:104BB000D3FEDDA001F0D0FEB4F8F80000EB8001D8
:104BC00001EBC00004EB800000F1BC01E3A001F0A8
:104BD000C3FED5A001F0C0FEB4F8F80000EB8001E0
:104BE00001EBC00004EB800080F89070022D03D030
:104BF000042D0DD000F05CBAB4F8F80000EB800191
:104C000001EBC00004EB800080F8909000F050BAF7
:104C1000B4F8F80000EB800101EBC00004EB800069
:104C200080F89060B4F8F80000EB800101EBC00060
:104C300004EB800080F8917000F03ABAC9B22846BF
:104C400000F088FC0546280034D1B4F8F80000EBE9
:104C5000800101EBC00004EB800090F8921041B19C
:104C600080F8C160C3A001F077FEAFA001F074FE30
:104C700001E080F8C1A0B4F8F800032100EB800245
:104C800002EBC00004EB800080F89010B4F8F8004C
:104C900000EB800101EBC00004EB800080F891A0E4
:104CA000B4F8F80000EB800101EBC00004EB8000D9
:104CB00080F892A0022D03D0042D3DD000F0F8B969
:104CC000B4F8F80000EB800101EBC00004EB8000B9
:104CD00090F89210022908D080F8C160AAA001F0D3
:104CE0003BFE91A001F038FE01E080F8C1A0B4F8CD
:104CF000F80000EB800101EBC00004EB800080F8BD
:104D00009090B4F8F80000EB800101EBC00004EBD8
:104D1000800080F8916003E0BBE1A1E022E0C7E100
:104D2000B4F8F80000EB800101EBC00004EB800058
:104D300080F8927000F0BCB9B4F8F80000EB800184
:104D400001EBC00004EB800080F89060B4F8F8003C
:104D500000EB800101EBC00004EB800080F8917053
:104D600000F0A6B900F19402C9B2284600F060FB39
:104D700028B1022854D004285DD000F099B9B4F8C5
:104D8000F80000EB800101EBC00004EB800090F81C
:104D9000C11001292AD1D0F89410B0F898004143ED
:104DA0007FA001F0D9FD60A001F0D6FDB4F8F800B5
:104DB00000EB800101EBC00004EB8000D0F8941000
:104DC0007FA001F0C9FD58A001F0C6FDB4F8F800BD
:104DD00000EB800101EBC00004EB8000B0F89810FC
:104DE0007CA001F0B9FD50A001F0B6FDB4F8F800C8
:104DF00000EB800101EBC00004EB800080F89060C4
:104E0000B4F8F80000EB800101EBC00004EB800077
:104E100080F891A0B4F8F800401CA4F8F80047E12D
:104E2000B4F8F80000EB800101EBC00004EB800057
:104E300080F890903CE1B4F8F80000EB800101EBC1
:104E4000C00004EB800080F89060B4F8F80000EB3C
:104E5000800101EBC00004EB800080F8917027E135
:104E600000F19C02C9B2284600F028FB81465FEAA7
:104E700009004ED1B4F8F80000EB800101EBC0004E
:104E800004EB800090F89C10062901D002290BD178
:104E9000D5F8B823D4F8FC30D21A42F210739A42F3
:104EA00002D280F8907003E14FA001F055FD1EA0E2
:104EB00001F052FDB4F8F80000EB800101EBC000F6
:104EC00004EB800090F89D104BA001F045FD16A06A
:104ED00001F042FDB4F8F80000EB800101EBC000E6
:104EE00004EB800090F89E104AA001F035FD0EA062
:104EF00001F032FDB4F8F80000EB800101EBC000D6
:104F000004EB800080F89060B4F8F800401CA4F82E
:104F1000F800B9F1020F00D08EE091E04C554E2020
:104F20002325643A200000000A000000496E7175D4
:104F30006972792056656E646F7220203A2025735D
:104F400000000000496E71756972792050726F64BB
:104F5000756374203A20257300000000496E717556
:104F60006972792056657273696F6E203A202573D5
:104F7000000000004D53432044657669636520724C
:104F800065616479000000004D53432044657669F3
:104F90006365204E4F542072656164790000000003
:104FA0004D53432044657669636520636170616396
:104FB000697479203A20256C7520427974657300F4
:104FC000426C6F636B206E756D626572203A2025AE
:104FD0006C750000426C6F636B2053697A6520200A
:104FE000203A20256C75000053656E7365204B6573
:104FF0007920203A202578004164646974696F6ED5
:10500000616C2053656E736520436F6465203A20A0
:10501000257800004164646974696F6E616C205387
:10502000656E736520436F6465205175616C6966B8
:105030006965723A20257800B9F1040F14D037E081
:10504000AFF2BC0001F088FCAFF2241001F084FC48
:10505000B4F8F800082100EB800202EBC00004EB7A
:10506000800080F8901023E0B4F8F80000EB800195
:1050700001EBC00004EB800080F89060B4F8F80009
:1050800000EB800101EBC00004EB800080F8917020
:105090000EE0481CA4F8F8000AE0A4F8F8A0267373
:1050A000D5F8C42302212846904701E04FF00008BC
:1050B0004046BDE8F08700002DE9F8438446DCF85F
:1050C0007403C069012501EB810202EBC10200EB10
:1050D0008204012694F890000827052835D0002284
:1050E0004FF00508062802D0072866D116E00023F5
:1050F00000921A46604600F04FF920B1022806D00F
:10510000042807D059E084F89060002555E084F821
:10511000908052E084F8907002254EE000230092C7
:105120001A46604600F03DFA20B1022806D0042855
:1051300007D042E084F8906000253EE084F890803B
:105140003BE084F89070022537E004F19C02604651
:1051500000F0B4F98046B8F1000F1DD194F89C100E
:1051600017A001F0F9FB1AA001F0F6FB94F89D10CE
:1051700018A001F0F1FB16A001F0EEFB94F89E10D0
:105180001BA001F0E9FB12A001F0E6FB84F890609F
:10519000022084F891000225B8F1020F03D0B8F183
:1051A000040F07D009E01BA001F0D6FB08A001F016
:1051B000D3FB02E084F8907002252846BDE8F8830E
:1051C00053656E7365204B657920203A2025780061
:1051D0000A0000004164646974696F6E616C205359
:1051E000656E736520436F6465203A202578000062
:1051F0004164646974696F6E616C2053656E736598
:1052000020436F6465205175616C69666965723A07
:10521000202578004D534320446576696365204E10
:105220004F54207265616479000000002DE9F84355
:105230000446089F8846D4F87403C56994F81E0391
:1052400000280CD020780A2809D108EB880000EB50
:10525000C80005EB800090F89010012902D00220D0
:10526000BDE8F8830621297380F89010A5F8FA802C
:1052700041462046009700F08FF8D4F8B8634146C5
:105280002046FFF719FF4FF00109012811D140F224
:1052900071204743D4F8B803801BB0EB071F0DD82B
:1052A00094F81E0350B141462046FFF705FF012840
:1052B000F0D085F80C900020BDE8F88385F80C90BC
:1052C0000220BDE8F88370B5034615460226D3F8E0
:1052D0007403C46994F85200012802D0022859D1FD
:1052E00028E02422E265802084F860000A2084F807
:1052F00062000020C4F86300C4F86700A4F86B00E3
:10530000122384F86330490184F8641084F865003E
:1053100084F8660084F8672084F86800012084F827
:105320005000022084F8520004F11000C4F88C00F0
:1053300001262FE01846FFF70DF9064656BB22213D
:105340002846FAF787FFD4F88C00007800F01F0099
:105350006870D4F88C00007840092870D4F88C006C
:105360004078C009A870D4F88C008168C5F8031093
:10537000C068C5F80700D4F88C000169E96041698C
:10538000296181696961C069A861D4F88C00006AEB
:10539000C5F81D00304670BD3FB404460220D4F865
:1053A0007423D26992F852C0BCF1010F07D0BCF14E
:1053B000020F3AD104B0204630BCFFF7CBB80698B4
:1053C0004002D065802082F860000A2082F86200E6
:1053D0000020C2F86300C2F86700C2F86B00C2F890
:1053E0006F00282082F863009DF80B0082F86500AA
:1053F0009DF80A0082F866009DF8090082F86700AF
:105400009DF8080082F868009DF8190082F86A008B
:105410009DF8180082F86B00012082F850000220ED
:1054200082F85200C2F88C30012004B030BC7047C2
:1054300070B5844615460120DCF87423D46994F8CD
:105440005230012B1BD0022B18D16046FFF782F897
:10545000002813D1D4F88C10CA788B7842EA032242
:105460004B7809781B0443EA016111432960D4F8A1
:105470008C10CA79897942EA0121A98070BD08217E
:10548000E165802184F860100A2184F8621000210F
:10549000C4F86310C4F86710C4F86B10C4F86F1038
:1054A000252184F86310012184F85010022184F82A
:1054B000521004F11001C4F88C1070BD70B5034691
:1054C00015460220D3F87423D46994F85220012A97
:1054D00015D0022A12D11846FFF73CF800280DD14A
:1054E000D4F88C10897801F00F012970D4F88C1051
:1054F000097B6970D4F88C10497BA97070BD0E22AD
:10550000E265802084F860000A2084F862000020B0
:10551000C4F86300C4F86700C4F86B00C4F86F00F7
:10552000032384F86330490184F8641084F865002B
:1055300084F8660084F8672084F86800012084F805
:105540005000022084F8520004F11000C4F88C00CE
:10555000012070BD84460220DCF87423D26992F8E1
:105560005230012B04D0022B1AD16046FEF7F2BF55
:105570000020D06582F860000A2182F86210C2F82B
:105580006300C2F86700C2F86B00C2F86F0082F8CF
:105590006300012082F85000022082F852000120AE
:1055A00070473FB404460220D4F87423D26992F8BD
:1055B00052C0BCF1010F07D0BCF1020F39D104B0C9
:1055C000204630BCFEF7C6BF06984002D0650020DA
:1055D00082F860000A2182F86210C2F86300C2F803
:1055E0006700C2F86B00C2F86F002A2082F86300DF
:1055F0009DF80B0082F865009DF80A0082F86600AD
:105600009DF8090082F867009DF8080082F868009C
:105610009DF8190082F86A009DF8180082F86B0066
:10562000012082F85000022082F85200C2F88C302B
:10563000012004B030BC704700207047D0F87423BC
:10564000D26900780A2801D00020704701EB810060
:1056500000EBC10002EB800090F8910008B100203F
:105660007047012070472DE9F8430446089F88469B
:10567000D4F87403C56994F81E0300280CD0207870
:105680000A2809D108EB880000EBC80005EB800070
:1056900090F89010012902D00220BDE8F88307217C
:1056A000297380F89010A5F8FA80414620460097AB
:1056B000FFF777FFD4F8B86341462046FFF7FCFCBC
:1056C0004FF00109012811D140F271204743D4F86D
:1056D000B803801BB0EB071F0DD894F81E0350B120
:1056E00041462046FFF7E8FC0128F0D085F80C90F1
:1056F0000020BDE8F88385F80C900220BDE8F8830F
:1057000030B583B0DDF818C0089D079CCDF800C007
:1057100002950194FEF760FE03B0002030BD2DE934
:10572000F84305468846002608782870487868704F
:105730008878CB7800EB0320688008792871487955
:1057400068718879A871C879E871087A2872092A7D
:105750003CD90920009032E069464046FEF7C6FA7F
:10576000804698F80100042829D106EB860000EB5A
:10577000C60005EB400707F10A094146484600F01C
:1057800063F8002410E069464046FEF7AFFA804611
:1057900098F80100052807D107EBC40014304146F2
:1057A00000F042F8601C44B299F80400A04204DD05
:1057B0006888BDF800108842E5D8701C46B2022EF9
:1057C00004DA6888BDF800108842C5D8BDE8F883BF
:1057D0000B7803704B7843708B7891F803C003EB20
:1057E0000C2343800B7903714B7943718B7983715F
:1057F000CB79C371082A16D90A7A4B7A02EB0322B5
:1058000002818A7ACB7A02EB032242810A7B4B7BAC
:1058100002EB032282818A7B8273CA7BC2730A7C79
:105820000274497C417470470A7802704A78427069
:105830008A788270CA78C2700A794B7902EB0322A7
:1058400082808979817170470A7802704A78427043
:105850008A788270CA78C2700A7902714A79427174
:105860008A798271CA79C271097A01727047437864
:10587000032B15D10378A3F1020C944500DC9A1E8A
:1058800092B2831C0020002A08D913F800C081F8C6
:1058900000C0491C801C80B29042F6D300200870E2
:1058A0007047000030B585B0044602200490002007
:1058B00021780B2980F00481DFE801F0068915F6D4
:1058C000894CD46D798AEF0094F81E03002800F00B
:1058D000F78001202070C820FEF7A1F92046FEF7CE
:1058E0009CFD00F0EDB878A001F036F87BA001F047
:1058F00033F86420FEF793F92046FEF71DFD84F887
:105900001D030520207000212046FEF7DFF860719E
:1059100080212046FEF7DAF82071A27994F81D3331
:105920000025029201950093014694F81C338022D1
:105930002046FFF7E5FEA07994F81D13029001952B
:10594000009194F81C33617900222046FFF7D8FEBD
:1059500000F0B6B82046FEF709FB002840F0B08002
:105960005FA000F0F9FF5DA000F0F6FF002084F8D2
:105970001F0394F83103012803D00720207000F0A2
:105980009FB85CA000F0E8FF54A000F0E5FF0820FD
:10599000207000F095B8D4F8C423002A00F090805D
:1059A0000121204690470820207000F089B894F823
:1059B0003713204600F0DAF9002840F081800920F2
:1059C000207056A000F0C8FF44A000F0C5FF77E0AB
:1059D000D4F8781329B30021C4F8741394F8412340
:1059E00004EB8001D1F870130B79934201D1C4F814
:1059F0007413401CC0B20028F2D0D4F874030028FD
:105A000027D081682046884790B10C202070D4F8B8
:105A10007403016848A000F09FFF30A000F09CFFD5
:105A20004EE04DA000F098FF2CA000F095FF47E05D
:105A300006202070D4F8740301684FA000F08CFF9A
:105A400026A000F089FFD4F8C42303212046904704
:105A500036E00C2020704DA000F07EFF1FA000F06B
:105A60007BFF2DE0D4F8740348B1016920468847D4
:105A700004909DF8100018BB0A20207020E00C2034
:105A800020704CA000F068FF4CA000F065FF13A050
:105A900000F062FF14E000E006E0D4F8740378B18F
:105AA0004169204688470BE02046FBF708F8D4F808
:105AB000740328B1C168204688470020C4F87403E5
:105AC00005B0002030BD0000555342204465766982
:105AD0006365204174746163686564000A000000B6
